{
  "_format": "hh-sol-artifact-1",
  "contractName": "StickersV2",
  "sourceName": "alpha/stickers/StickersV2.sol",
  "abi": [
    {
      "inputs": [
        {
          "internalType": "address",
          "name": "oracleDestination",
          "type": "address"
        },
        {
          "internalType": "address",
          "name": "erc721",
          "type": "address"
        },
        {
          "internalType": "uint256",
          "name": "_tokenId",
          "type": "uint256"
        },
        {
          "internalType": "string",
          "name": "tokenName",
          "type": "string"
        },
        {
          "internalType": "string",
          "name": "tokenSymbol",
          "type": "string"
        }
      ],
      "stateMutability": "nonpayable",
      "type": "constructor"
    },
    {
      "anonymous": false,
      "inputs": [
        {
          "indexed": true,
          "internalType": "address",
          "name": "owner",
          "type": "address"
        },
        {
          "indexed": true,
          "internalType": "address",
          "name": "approved",
          "type": "address"
        },
        {
          "indexed": true,
          "internalType": "uint256",
          "name": "tokenId",
          "type": "uint256"
        }
      ],
      "name": "Approval",
      "type": "event"
    },
    {
      "anonymous": false,
      "inputs": [
        {
          "indexed": true,
          "internalType": "address",
          "name": "owner",
          "type": "address"
        },
        {
          "indexed": true,
          "internalType": "address",
          "name": "operator",
          "type": "address"
        },
        {
          "indexed": false,
          "internalType": "bool",
          "name": "approved",
          "type": "bool"
        }
      ],
      "name": "ApprovalForAll",
      "type": "event"
    },
    {
      "anonymous": false,
      "inputs": [
        {
          "indexed": true,
          "internalType": "address",
          "name": "sender",
          "type": "address"
        },
        {
          "indexed": true,
          "internalType": "address",
          "name": "changee",
          "type": "address"
        },
        {
          "indexed": false,
          "internalType": "bool",
          "name": "value",
          "type": "bool"
        }
      ],
      "name": "PermissionChange",
      "type": "event"
    },
    {
      "anonymous": false,
      "inputs": [
        {
          "indexed": true,
          "internalType": "address",
          "name": "from",
          "type": "address"
        },
        {
          "indexed": true,
          "internalType": "address",
          "name": "to",
          "type": "address"
        },
        {
          "indexed": true,
          "internalType": "uint256",
          "name": "tokenId",
          "type": "uint256"
        }
      ],
      "name": "Transfer",
      "type": "event"
    },
    {
      "anonymous": false,
      "inputs": [
        {
          "indexed": true,
          "internalType": "address",
          "name": "from",
          "type": "address"
        },
        {
          "indexed": true,
          "internalType": "address",
          "name": "to",
          "type": "address"
        }
      ],
      "name": "TransferedOwnership",
      "type": "event"
    },
    {
      "inputs": [
        {
          "internalType": "address",
          "name": "_to",
          "type": "address"
        },
        {
          "internalType": "uint256",
          "name": "_tokenId",
          "type": "uint256"
        }
      ],
      "name": "approve",
      "outputs": [],
      "stateMutability": "nonpayable",
      "type": "function"
    },
    {
      "inputs": [
        {
          "internalType": "address",
          "name": "",
          "type": "address"
        }
      ],
      "name": "approved",
      "outputs": [
        {
          "internalType": "bool",
          "name": "",
          "type": "bool"
        }
      ],
      "stateMutability": "view",
      "type": "function"
    },
    {
      "inputs": [
        {
          "internalType": "address",
          "name": "_owner",
          "type": "address"
        }
      ],
      "name": "balanceOf",
      "outputs": [
        {
          "internalType": "uint256",
          "name": "",
          "type": "uint256"
        }
      ],
      "stateMutability": "view",
      "type": "function"
    },
    {
      "inputs": [],
      "name": "deployer",
      "outputs": [
        {
          "internalType": "address",
          "name": "",
          "type": "address"
        }
      ],
      "stateMutability": "view",
      "type": "function"
    },
    {
      "inputs": [],
      "name": "erc721Destination",
      "outputs": [
        {
          "internalType": "address",
          "name": "",
          "type": "address"
        }
      ],
      "stateMutability": "view",
      "type": "function"
    },
    {
      "inputs": [
        {
          "internalType": "uint256",
          "name": "_tokenId",
          "type": "uint256"
        }
      ],
      "name": "exists",
      "outputs": [
        {
          "internalType": "bool",
          "name": "",
          "type": "bool"
        }
      ],
      "stateMutability": "view",
      "type": "function"
    },
    {
      "inputs": [],
      "name": "getActiveStickers",
      "outputs": [
        {
          "internalType": "uint256[]",
          "name": "results",
          "type": "uint256[]"
        }
      ],
      "stateMutability": "view",
      "type": "function"
    },
    {
      "inputs": [
        {
          "internalType": "uint256",
          "name": "_tokenId",
          "type": "uint256"
        }
      ],
      "name": "getApproved",
      "outputs": [
        {
          "internalType": "address",
          "name": "",
          "type": "address"
        }
      ],
      "stateMutability": "view",
      "type": "function"
    },
    {
      "inputs": [],
      "name": "getIntegrity",
      "outputs": [
        {
          "internalType": "address",
          "name": "",
          "type": "address"
        },
        {
          "internalType": "address",
          "name": "",
          "type": "address"
        },
        {
          "internalType": "uint256",
          "name": "",
          "type": "uint256"
        },
        {
          "internalType": "bytes",
          "name": "",
          "type": "bytes"
        },
        {
          "internalType": "bytes4",
          "name": "",
          "type": "bytes4"
        }
      ],
      "stateMutability": "view",
      "type": "function"
    },
    {
      "inputs": [],
      "name": "getOptions",
      "outputs": [
        {
          "internalType": "string",
          "name": "",
          "type": "string"
        }
      ],
      "stateMutability": "view",
      "type": "function"
    },
    {
      "inputs": [
        {
          "internalType": "uint256",
          "name": "_stickerId",
          "type": "uint256"
        }
      ],
      "name": "getSticker",
      "outputs": [
        {
          "components": [
            {
              "internalType": "uint256",
              "name": "stickerId",
              "type": "uint256"
            },
            {
              "internalType": "uint256",
              "name": "oracaleId",
              "type": "uint256"
            },
            {
              "internalType": "address",
              "name": "owner",
              "type": "address"
            },
            {
              "internalType": "string",
              "name": "stickerUri",
              "type": "string"
            },
            {
              "internalType": "bool",
              "name": "utility",
              "type": "bool"
            },
            {
              "internalType": "uint256",
              "name": "duration",
              "type": "uint256"
            },
            {
              "internalType": "uint256",
              "name": "pps",
              "type": "uint256"
            },
            {
              "internalType": "uint256",
              "name": "creation",
              "type": "uint256"
            },
            {
              "internalType": "bool",
              "name": "active",
              "type": "bool"
            },
            {
              "internalType": "bool",
              "name": "completed",
              "type": "bool"
            },
            {
              "internalType": "bool",
              "name": "valid",
              "type": "bool"
            }
          ],
          "internalType": "struct StickersV2.Sticker",
          "name": "sticker",
          "type": "tuple"
        }
      ],
      "stateMutability": "view",
      "type": "function"
    },
    {
      "inputs": [],
      "name": "getStickerCount",
      "outputs": [
        {
          "internalType": "uint256",
          "name": "",
          "type": "uint256"
        }
      ],
      "stateMutability": "view",
      "type": "function"
    },
    {
      "inputs": [
        {
          "internalType": "address",
          "name": "_owner",
          "type": "address"
        },
        {
          "internalType": "address",
          "name": "_operator",
          "type": "address"
        }
      ],
      "name": "isApprovedForAll",
      "outputs": [
        {
          "internalType": "bool",
          "name": "",
          "type": "bool"
        }
      ],
      "stateMutability": "view",
      "type": "function"
    },
    {
      "inputs": [
        {
          "internalType": "address",
          "name": "addr",
          "type": "address"
        },
        {
          "internalType": "uint256",
          "name": "tokenId",
          "type": "uint256"
        }
      ],
      "name": "isApprovedOrOwner",
      "outputs": [
        {
          "internalType": "bool",
          "name": "",
          "type": "bool"
        }
      ],
      "stateMutability": "view",
      "type": "function"
    },
    {
      "inputs": [
        {
          "internalType": "address",
          "name": "addr",
          "type": "address"
        }
      ],
      "name": "isAuthenticated",
      "outputs": [
        {
          "internalType": "bool",
          "name": "",
          "type": "bool"
        }
      ],
      "stateMutability": "view",
      "type": "function"
    },
    {
      "inputs": [
        {
          "internalType": "address[]",
          "name": "addrs",
          "type": "address[]"
        }
      ],
      "name": "multiApprove",
      "outputs": [],
      "stateMutability": "nonpayable",
      "type": "function"
    },
    {
      "inputs": [
        {
          "internalType": "address[]",
          "name": "addrs",
          "type": "address[]"
        }
      ],
      "name": "multiRevoke",
      "outputs": [],
      "stateMutability": "nonpayable",
      "type": "function"
    },
    {
      "inputs": [],
      "name": "name",
      "outputs": [
        {
          "internalType": "string",
          "name": "",
          "type": "string"
        }
      ],
      "stateMutability": "view",
      "type": "function"
    },
    {
      "inputs": [
        {
          "internalType": "uint256",
          "name": "_tokenId",
          "type": "uint256"
        }
      ],
      "name": "ownerOf",
      "outputs": [
        {
          "internalType": "address",
          "name": "",
          "type": "address"
        }
      ],
      "stateMutability": "view",
      "type": "function"
    },
    {
      "inputs": [
        {
          "internalType": "uint256",
          "name": "pps",
          "type": "uint256"
        },
        {
          "internalType": "uint256",
          "name": "duration",
          "type": "uint256"
        },
        {
          "internalType": "bool",
          "name": "utility",
          "type": "bool"
        },
        {
          "internalType": "bytes",
          "name": "requestData",
          "type": "bytes"
        }
      ],
      "name": "request",
      "outputs": [],
      "stateMutability": "payable",
      "type": "function"
    },
    {
      "inputs": [
        {
          "internalType": "address",
          "name": "_from",
          "type": "address"
        },
        {
          "internalType": "address",
          "name": "_to",
          "type": "address"
        },
        {
          "internalType": "uint256",
          "name": "_tokenId",
          "type": "uint256"
        }
      ],
      "name": "safeTransferFrom",
      "outputs": [],
      "stateMutability": "nonpayable",
      "type": "function"
    },
    {
      "inputs": [
        {
          "internalType": "address",
          "name": "_from",
          "type": "address"
        },
        {
          "internalType": "address",
          "name": "_to",
          "type": "address"
        },
        {
          "internalType": "uint256",
          "name": "_tokenId",
          "type": "uint256"
        },
        {
          "internalType": "bytes",
          "name": "_data",
          "type": "bytes"
        }
      ],
      "name": "safeTransferFrom",
      "outputs": [],
      "stateMutability": "nonpayable",
      "type": "function"
    },
    {
      "inputs": [
        {
          "internalType": "address",
          "name": "_operator",
          "type": "address"
        },
        {
          "internalType": "bool",
          "name": "_approved",
          "type": "bool"
        }
      ],
      "name": "setApprovalForAll",
      "outputs": [],
      "stateMutability": "nonpayable",
      "type": "function"
    },
    {
      "inputs": [
        {
          "internalType": "string",
          "name": "_options",
          "type": "string"
        }
      ],
      "name": "setOptions",
      "outputs": [],
      "stateMutability": "nonpayable",
      "type": "function"
    },
    {
      "inputs": [
        {
          "internalType": "address",
          "name": "addr",
          "type": "address"
        },
        {
          "internalType": "bool",
          "name": "value",
          "type": "bool"
        }
      ],
      "name": "setPrivilages",
      "outputs": [],
      "stateMutability": "nonpayable",
      "type": "function"
    },
    {
      "inputs": [],
      "name": "setup",
      "outputs": [],
      "stateMutability": "nonpayable",
      "type": "function"
    },
    {
      "inputs": [],
      "name": "stickerOracle",
      "outputs": [
        {
          "internalType": "contract StickerOracle",
          "name": "",
          "type": "address"
        }
      ],
      "stateMutability": "view",
      "type": "function"
    },
    {
      "inputs": [
        {
          "internalType": "uint256",
          "name": "",
          "type": "uint256"
        }
      ],
      "name": "stickers",
      "outputs": [
        {
          "internalType": "uint256",
          "name": "stickerId",
          "type": "uint256"
        },
        {
          "internalType": "uint256",
          "name": "oracaleId",
          "type": "uint256"
        },
        {
          "internalType": "address",
          "name": "owner",
          "type": "address"
        },
        {
          "internalType": "string",
          "name": "stickerUri",
          "type": "string"
        },
        {
          "internalType": "bool",
          "name": "utility",
          "type": "bool"
        },
        {
          "internalType": "uint256",
          "name": "duration",
          "type": "uint256"
        },
        {
          "internalType": "uint256",
          "name": "pps",
          "type": "uint256"
        },
        {
          "internalType": "uint256",
          "name": "creation",
          "type": "uint256"
        },
        {
          "internalType": "bool",
          "name": "active",
          "type": "bool"
        },
        {
          "internalType": "bool",
          "name": "completed",
          "type": "bool"
        },
        {
          "internalType": "bool",
          "name": "valid",
          "type": "bool"
        }
      ],
      "stateMutability": "view",
      "type": "function"
    },
    {
      "inputs": [
        {
          "internalType": "bytes4",
          "name": "interfaceId",
          "type": "bytes4"
        }
      ],
      "name": "supportsInterface",
      "outputs": [
        {
          "internalType": "bool",
          "name": "",
          "type": "bool"
        }
      ],
      "stateMutability": "view",
      "type": "function"
    },
    {
      "inputs": [],
      "name": "symbol",
      "outputs": [
        {
          "internalType": "string",
          "name": "",
          "type": "string"
        }
      ],
      "stateMutability": "view",
      "type": "function"
    },
    {
      "inputs": [],
      "name": "tokenId",
      "outputs": [
        {
          "internalType": "uint256",
          "name": "",
          "type": "uint256"
        }
      ],
      "stateMutability": "view",
      "type": "function"
    },
    {
      "inputs": [
        {
          "internalType": "uint256",
          "name": "_tokenId",
          "type": "uint256"
        }
      ],
      "name": "tokenURI",
      "outputs": [
        {
          "internalType": "string",
          "name": "",
          "type": "string"
        }
      ],
      "stateMutability": "view",
      "type": "function"
    },
    {
      "inputs": [
        {
          "internalType": "address",
          "name": "_from",
          "type": "address"
        },
        {
          "internalType": "address",
          "name": "_to",
          "type": "address"
        },
        {
          "internalType": "uint256",
          "name": "_tokenId",
          "type": "uint256"
        }
      ],
      "name": "transferFrom",
      "outputs": [],
      "stateMutability": "nonpayable",
      "type": "function"
    },
    {
      "inputs": [
        {
          "internalType": "address",
          "name": "addr",
          "type": "address"
        }
      ],
      "name": "transferOwnership",
      "outputs": [],
      "stateMutability": "nonpayable",
      "type": "function"
    }
  ],
  "bytecode": "0x60806040523480156200001157600080fd5b50604051620025583803806200255883398101604081905262000034916200025d565b8151829082906200004d906005906020850190620000cd565b50805162000063906006906020840190620000cd565b505060078054336001600160a01b031991821681179092556000918252600960205260408220805460ff19166001179055600891909155600a805482166001600160a01b03988916179055600b8054909116959096169490941790945550600c5550620003349050565b828054620000db90620002f7565b90600052602060002090601f016020900481019282620000ff57600085556200014a565b82601f106200011a57805160ff19168380011785556200014a565b828001600101855582156200014a579182015b828111156200014a5782518255916020019190600101906200012d565b50620001589291506200015c565b5090565b5b808211156200015857600081556001016200015d565b80516001600160a01b03811681146200018b57600080fd5b919050565b634e487b7160e01b600052604160045260246000fd5b600082601f830112620001b857600080fd5b81516001600160401b0380821115620001d557620001d562000190565b604051601f8301601f19908116603f0116810190828211818310171562000200576200020062000190565b816040528381526020925086838588010111156200021d57600080fd5b600091505b8382101562000241578582018301518183018401529082019062000222565b83821115620002535760008385830101525b9695505050505050565b600080600080600060a086880312156200027657600080fd5b620002818662000173565b9450620002916020870162000173565b6040870151606088015191955093506001600160401b0380821115620002b657600080fd5b620002c489838a01620001a6565b93506080880151915080821115620002db57600080fd5b50620002ea88828901620001a6565b9150509295509295909350565b600181811c908216806200030c57607f821691505b602082108114156200032e57634e487b7160e01b600052602260045260246000fd5b50919050565b61221480620003446000396000f3fe6080604052600436106101995760003560e01c806384d4db06116100dd57806384d4db06146103f55780638f965d8014610408578063948509ea1461043f57806395d89b411461045f578063a22cb46514610474578063b88d4fde14610494578063ba0bba40146104b4578063c87b56dd146104c9578063cc2ee196146104e9578063d15d4150146104fe578063d49a2a7c1461051e578063d5f394881461056e578063d8b964e61461058e578063e985e9c5146105be578063f2fde38b146105de578063fe684c0e146105fe578063feb6ce691461061e57600080fd5b806301ffc9a71461019e57806306fdde03146101d3578063081812fc146101f5578063095ea7b31461022257806310a8c7a91461024457806317d70f7c1461026457806323b872dd1461028857806323d882d3146102a857806331ed86d2146102c857806342842e0e146102e8578063430c2081146103085780634f558e79146103285780636352211e1461034857806370a082311461036857806375467b261461039e5780637631dfdb146103c0578063780fae66146103e0575b600080fd5b3480156101aa57600080fd5b506101be6101b9366004611a0b565b61064b565b60405190151581526020015b60405180910390f35b3480156101df57600080fd5b506101e861069d565b6040516101ca9190611a7c565b34801561020157600080fd5b50610215610210366004611a8f565b61072f565b6040516101ca9190611aa8565b34801561022e57600080fd5b5061024261023d366004611ad1565b61074a565b005b34801561025057600080fd5b5061024261025f366004611b43565b61089f565b34801561027057600080fd5b5061027a600c5481565b6040519081526020016101ca565b34801561029457600080fd5b506102426102a3366004611bf4565b610936565b3480156102b457600080fd5b506102426102c3366004611c8c565b610aa6565b3480156102d457600080fd5b506102426102e3366004611b43565b610ae3565b3480156102f457600080fd5b50610242610303366004611bf4565b610b76565b34801561031457600080fd5b506101be610323366004611ad1565b610b96565b34801561033457600080fd5b506101be610343366004611a8f565b610bf5565b34801561035457600080fd5b50610215610363366004611a8f565b610c12565b34801561037457600080fd5b5061027a610383366004611cd4565b6001600160a01b031660009081526004602052604090205490565b3480156103aa57600080fd5b506103b3610c77565b6040516101ca9190611cf1565b3480156103cc57600080fd5b50600a54610215906001600160a01b031681565b3480156103ec57600080fd5b50600e5461027a565b610242610403366004611d63565b610da5565b34801561041457600080fd5b50610428610423366004611a8f565b611078565b6040516101ca9b9a99989796959493929190611dc5565b34801561044b57600080fd5b50600b54610215906001600160a01b031681565b34801561046b57600080fd5b506101e861116e565b34801561048057600080fd5b5061024261048f366004611e3a565b61117d565b3480156104a057600080fd5b506102426104af366004611e73565b6111ea565b3480156104c057600080fd5b506102426111fc565b3480156104d557600080fd5b506101e86104e4366004611a8f565b61136a565b3480156104f557600080fd5b506101e861140c565b34801561050a57600080fd5b506101be610519366004611cd4565b61141b565b34801561052a57600080fd5b50600754600c5460408051808201825260038152626e657760e81b602082015290516101ca9330936001600160a01b039091169290916335268a9f60e21b90611ec6565b34801561057a57600080fd5b50600754610215906001600160a01b031681565b34801561059a57600080fd5b506101be6105a9366004611cd4565b60096020526000908152604090205460ff1681565b3480156105ca57600080fd5b506101be6105d9366004611f14565b611454565b3480156105ea57600080fd5b506102426105f9366004611cd4565b611482565b34801561060a57600080fd5b50610242610619366004611e3a565b611528565b34801561062a57600080fd5b5061063e610639366004611a8f565b611603565b6040516101ca9190611f42565b60006001600160e01b031982166380ac58cd60e01b148061067c57506001600160e01b03198216635b5e139f60e01b145b8061069757506301ffc9a760e01b6001600160e01b03198316145b92915050565b6060600580546106ac90612005565b80601f01602080910402602001604051908101604052809291908181526020018280546106d890612005565b80156107255780601f106106fa57610100808354040283529160200191610725565b820191906000526020600020905b81548152906001019060200180831161070857829003601f168201915b5050505050905090565b6000908152600260205260409020546001600160a01b031690565b600061075582610c12565b9050806001600160a01b0316836001600160a01b031614156107b55760405162461bcd60e51b815260206004820152601460248201527331b0b73737ba1030b8383937bb329037bbb732b960611b60448201526064015b60405180910390fd5b336001600160a01b03821614806107d157506107d18133611454565b6108435760405162461bcd60e51b815260206004820152603d60248201527f4552433732313a20617070726f76652063616c6c6572206973206e6f7420746f60448201527f6b656e206f776e6572206f7220617070726f76656420666f7220616c6c00000060648201526084016107ac565b60008281526002602052604080822080546001600160a01b0319166001600160a01b0387811691821790925591518593918516917f8c5be1e5ebec7d5bd14f71427d1e84f3dd0314c0f7b2291e5b200ac8c7c3b92591a4505050565b6007546001600160a01b031633146108c95760405162461bcd60e51b81526004016107ac90612040565b80516108d457600080fd5b60005b8151811015610932576001600960008484815181106108f8576108f8612066565b6020908102919091018101516001600160a01b03168252810191909152604001600020805460ff19169115159190911790556001016108d7565b5050565b6109403382610b96565b6109845760405162461bcd60e51b81526020600482015260156024820152743737ba1030b8383937bb32b21037b91037bbb732b960591b60448201526064016107ac565b6001600160a01b0383166109d45760405162461bcd60e51b815260206004820152601760248201527673656e64696e6720746f206e756c6c206164647265737360481b60448201526064016107ac565b600081815260026020908152604080832080546001600160a01b03191690556001600160a01b038616835260049091528120805460019290610a17908490612092565b90915550506001600160a01b0382166000908152600460205260408120805460019290610a459084906120a9565b909155505060008181526020819052604080822080546001600160a01b0319166001600160a01b0386811691821790925591518493918716917fddf252ad1be2c89b69c2b068fc378daa952ba7f163c4a11628f55a4df523b3ef91a4505050565b6007546001600160a01b03163314610ad05760405162461bcd60e51b81526004016107ac90612040565b8051610932906010906020840190611959565b6007546001600160a01b03163314610b0d5760405162461bcd60e51b81526004016107ac90612040565b8051610b1857600080fd5b60005b815181101561093257600060096000848481518110610b3c57610b3c612066565b6020908102919091018101516001600160a01b03168252810191909152604001600020805460ff1916911515919091179055600101610b1b565b610b91838383604051806020016040528060008152506117a7565b505050565b600080610ba283610c12565b9050806001600160a01b0316846001600160a01b03161480610bc95750610bc98185611454565b80610bed5750836001600160a01b0316610be28461072f565b6001600160a01b0316145b949350505050565b6000908152602081905260409020546001600160a01b0316151590565b6000610c1d82610bf5565b610c5b5760405162461bcd60e51b815260206004820152600f60248201526e1a5b9d985b1a59081d1bdad95b9259608a1b60448201526064016107ac565b506000908152602081905260409020546001600160a01b031690565b60606000805b600e54811015610cda576000818152600d602052604090206008015462010000900460ff168015610cbf57506000818152600d602052604090206008015460ff165b15610cd25781610cce816120c1565b9250505b600101610c7d565b50806001600160401b03811115610cf357610cf3611afd565b604051908082528060200260200182016040528015610d1c578160200160208202803683370190505b5091506000905060005b600e54811015610da0576000818152600d602052604090206008015462010000900460ff168015610d6857506000818152600d602052604090206008015460ff165b15610d9857808383610d79816120c1565b945081518110610d8b57610d8b612066565b6020026020010181815250505b600101610d26565b505090565b811580610db0575083155b610dfb5760405162461bcd60e51b815260206004820152601c60248201527b707073206d757374206265207a65726f20696620756e74696c69747960201b60448201526064016107ac565b60115460ff16610e715760405162461bcd60e51b815260206004820152603b60248201527f6465706c6f79657220686173206e6f742073657420757020746869732073746960448201527a636b65727320636f6e7472616374207375636365737366756c6c7960281b60648201526084016107ac565b600a54604051631844598360e21b81526000916001600160a01b031690636111660c90610ea2903390600401611aa8565b608060405180830381865afa158015610ebf573d6000803e3d6000fd5b505050506040513d601f19601f82011682018060405250810190610ee391906120dc565b9050806060015115156001151514610f6e5760405162461bcd60e51b815260206004820152604260248201527f706c65617365207265676973746572207769746820737469636b6572206f726160448201527f636c652066697273742077697468207468652063757272656e74206164647265606482015261737360f01b608482015260a4016107ac565b8280610fff5750600a546001600160a01b031663a5058ff48686336040516001600160e01b031960e086901b168152600481019390935260248301919091526001600160a01b03166044820152606401602060405180830381865afa158015610fdb573d6000803e3d6000fd5b505050506040513d601f19601f82011682018060405250810190610fff9190612150565b6110715760405162461bcd60e51b815260206004820152603e60248201527f63616e6e6f74206166666f7264207468652050505320796f752068617665207360448201527f657420666f722074686174206475726174696f6e2063757272656e746c79000060648201526084016107ac565b5050505050565b600d602052600090815260409020805460018201546002830154600384018054939492936001600160a01b0390921692916110b290612005565b80601f01602080910402602001604051908101604052809291908181526020018280546110de90612005565b801561112b5780601f106111005761010080835404028352916020019161112b565b820191906000526020600020905b81548152906001019060200180831161110e57829003601f168201915b5050506004840154600585015460068601546007870154600890970154959660ff938416969295509093509181811691610100810482169162010000909104168b565b6060600680546106ac90612005565b3360008181526003602090815260408083206001600160a01b03871680855290835292819020805460ff191686151590811790915590519081529192917f17307eab39ab6107e8899845ad3d59bd9653f200f220920489ca2b5937696c3191015b60405180910390a35050565b6111f6848484846117a7565b50505050565b6007546001600160a01b031633146112265760405162461bcd60e51b81526004016107ac90612040565b60115460ff161561126e5760405162461bcd60e51b8152602060048201526012602482015271068617320616c7265616479207365742075760741b60448201526064016107ac565b600a54600c546040516312187ff160e21b81526001600160a01b0390921691634861ffc4916112a191309060040161216d565b602060405180830381865afa1580156112be573d6000803e3d6000fd5b505050506040513d601f19601f820116820180604052508101906112e29190612150565b156112f6576011805460ff19166001179055565b600a54600c54604051634564a42560e01b81526001600160a01b0390921691634564a4259161132991309060040161216d565b600060405180830381600087803b15801561134357600080fd5b505af1158015611357573d6000803e3d6000fd5b50506011805460ff191660011790555050565b600081815260016020526040902080546060919061138790612005565b80601f01602080910402602001604051908101604052809291908181526020018280546113b390612005565b80156114005780601f106113d557610100808354040283529160200191611400565b820191906000526020600020905b8154815290600101906020018083116113e357829003601f168201915b50505050509050919050565b6060601080546106ac90612005565b6007546000906001600160a01b03838116911614806106975750506001600160a01b031660009081526009602052604090205460ff1690565b6001600160a01b03918216600090815260036020908152604080832093909416825291909152205460ff1690565b6007546001600160a01b031633146114ac5760405162461bcd60e51b81526004016107ac90612040565b600780546001600160a01b03908116600090815260096020526040808220805460ff1990811690915584546001600160a01b03191693861693841790945582825280822080549094166001179093559151909133917f93091b3f3cd424efabc74e181f3799f3476ed758412561ed3b29515c51f567529190a350565b6007546001600160a01b031633146115525760405162461bcd60e51b81526004016107ac90612040565b6007546001600160a01b03838116911614156115a95760405162461bcd60e51b815260206004820152601660248201527531b0b73737ba1036b7b234b33c903232b83637bcb2b960511b60448201526064016107ac565b6001600160a01b038216600081815260096020908152604091829020805460ff1916851515908117909155915191825233917ff38de818d000d07d091732dd783c6855722d7bc1934d92b7635133289d34169591016111de565b6040805161016080820183526000808352602080840182905283850182905260608085018190526080850183905260a0850183905260c0850183905260e08501839052610100850183905261012085018390526101408501839052868352600d825291859020855193840186528054845260018101549184019190915260028101546001600160a01b03169483019490945260038401805493949293918401916116ac90612005565b80601f01602080910402602001604051908101604052809291908181526020018280546116d890612005565b80156117255780601f106116fa57610100808354040283529160200191611725565b820191906000526020600020905b81548152906001019060200180831161170857829003601f168201915b5050509183525050600482015460ff90811615156020830152600583015460408301526006830154606083015260078301546080830152600890920154808316151560a083015261010081048316151560c0830152620100009004909116151560e09091015261014081015190915015156001146117a257600080fd5b919050565b6117b2848484610936565b6117bf3385858585611817565b6111f65760405162461bcd60e51b815260206004820152602360248201527f45524337323120526563656976657220436f6e6669726d6174696f6e2049732060448201526210985960ea1b60648201526084016107ac565b6000833b61182757506001611950565b604051630a85bd0160e11b81526001600160a01b0385169063150b7a0290611859908990899088908890600401612184565b6020604051808303816000875af1925050508015611894575060408051601f3d908101601f19168201909252611891918101906121c1565b60015b61193a573d8080156118c2576040519150601f19603f3d011682016040523d82523d6000602084013e6118c7565b606091505b5080516119325760405162461bcd60e51b815260206004820152603360248201527f5468697320636f6e747261637420646f6573206e6f7420696d706c656d656e746044820152721030b71024a2a9219b9918a932b1b2b4bb32b960691b60648201526084016107ac565b805181602001fd5b6001600160e01b031916630a85bd0160e11b1490505b95945050505050565b82805461196590612005565b90600052602060002090601f01602090048101928261198757600085556119cd565b82601f106119a057805160ff19168380011785556119cd565b828001600101855582156119cd579182015b828111156119cd5782518255916020019190600101906119b2565b506119d99291506119dd565b5090565b5b808211156119d957600081556001016119de565b6001600160e01b031981168114611a0857600080fd5b50565b600060208284031215611a1d57600080fd5b8135611a28816119f2565b9392505050565b6000815180845260005b81811015611a5557602081850181015186830182015201611a39565b81811115611a67576000602083870101525b50601f01601f19169290920160200192915050565b602081526000611a286020830184611a2f565b600060208284031215611aa157600080fd5b5035919050565b6001600160a01b0391909116815260200190565b6001600160a01b0381168114611a0857600080fd5b60008060408385031215611ae457600080fd5b8235611aef81611abc565b946020939093013593505050565b634e487b7160e01b600052604160045260246000fd5b604051601f8201601f191681016001600160401b0381118282101715611b3b57611b3b611afd565b604052919050565b60006020808385031215611b5657600080fd5b82356001600160401b0380821115611b6d57600080fd5b818501915085601f830112611b8157600080fd5b813581811115611b9357611b93611afd565b8060051b9150611ba4848301611b13565b8181529183018401918481019088841115611bbe57600080fd5b938501935b83851015611be85784359250611bd883611abc565b8282529385019390850190611bc3565b98975050505050505050565b600080600060608486031215611c0957600080fd5b8335611c1481611abc565b92506020840135611c2481611abc565b929592945050506040919091013590565b60006001600160401b03831115611c4e57611c4e611afd565b611c61601f8401601f1916602001611b13565b9050828152838383011115611c7557600080fd5b828260208301376000602084830101529392505050565b600060208284031215611c9e57600080fd5b81356001600160401b03811115611cb457600080fd5b8201601f81018413611cc557600080fd5b610bed84823560208401611c35565b600060208284031215611ce657600080fd5b8135611a2881611abc565b6020808252825182820181905260009190848201906040850190845b81811015611d2957835183529284019291840191600101611d0d565b50909695505050505050565b8015158114611a0857600080fd5b600082601f830112611d5457600080fd5b611a2883833560208501611c35565b60008060008060808587031215611d7957600080fd5b84359350602085013592506040850135611d9281611d35565b915060608501356001600160401b03811115611dad57600080fd5b611db987828801611d43565b91505092959194509250565b8b8152602081018b90526001600160a01b038a16604082015261016060608201819052600090611df78382018c611a2f565b9915156080840152505060a081019690965260c086019490945260e085019290925215156101008401521515610120830152151561014090910152949350505050565b60008060408385031215611e4d57600080fd5b8235611e5881611abc565b91506020830135611e6881611d35565b809150509250929050565b60008060008060808587031215611e8957600080fd5b8435611e9481611abc565b93506020850135611ea481611abc565b92506040850135915060608501356001600160401b03811115611dad57600080fd5b6001600160a01b038681168252851660208201526040810184905260a060608201819052600090611ef990830185611a2f565b905063ffffffff60e01b831660808301529695505050505050565b60008060408385031215611f2757600080fd5b8235611f3281611abc565b91506020830135611e6881611abc565b60208152815160208201526020820151604082015260006040830151611f7360608401826001600160a01b03169052565b506060830151610160806080850152611f90610180850183611a2f565b91506080850151611fa560a086018215159052565b5060a085015160c085015260c085015160e085015260e0850151610100818187015280870151915050610120611fde8187018315159052565b8601519050610140611ff38682018315159052565b90950151151593019290925250919050565b600181811c9082168061201957607f821691505b6020821081141561203a57634e487b7160e01b600052602260045260246000fd5b50919050565b6020808252600c908201526b3737ba103232b83637bcb2b960a11b604082015260600190565b634e487b7160e01b600052603260045260246000fd5b634e487b7160e01b600052601160045260246000fd5b6000828210156120a4576120a461207c565b500390565b600082198211156120bc576120bc61207c565b500190565b60006000198214156120d5576120d561207c565b5060010190565b6000608082840312156120ee57600080fd5b604051608081018181106001600160401b038211171561211057612110611afd565b604052825161211e81611abc565b808252506020830151602082015260408301516040820152606083015161214481611d35565b60608201529392505050565b60006020828403121561216257600080fd5b8151611a2881611d35565b9182526001600160a01b0316602082015260400190565b6001600160a01b03858116825284166020820152604081018390526080606082018190526000906121b790830184611a2f565b9695505050505050565b6000602082840312156121d357600080fd5b8151611a28816119f256fea2646970667358221220a7e5db081a2027fda39648f75025252b0fe17db5be64ec0f1d539a415a18dbc964736f6c634300080c0033",
  "linkReferences": {},
  "deployedLinkReferences": {}
}