{
  "_format": "hh-sol-artifact-1",
  "contractName": "InfinityMint",
  "sourceName": "alpha/InfinityMint.sol",
  "abi": [
    {
      "inputs": [
        {
          "internalType": "string",
          "name": "tokenName",
          "type": "string"
        },
        {
          "internalType": "string",
          "name": "tokenSymbol",
          "type": "string"
        },
        {
          "internalType": "address",
          "name": "storageContract",
          "type": "address"
        },
        {
          "internalType": "address",
          "name": "valuesContract",
          "type": "address"
        },
        {
          "internalType": "address",
          "name": "minterContract",
          "type": "address"
        },
        {
          "internalType": "address",
          "name": "royaltyContract",
          "type": "address"
        }
      ],
      "stateMutability": "nonpayable",
      "type": "constructor"
    },
    {
      "anonymous": false,
      "inputs": [
        {
          "indexed": true,
          "internalType": "address",
          "name": "owner",
          "type": "address"
        },
        {
          "indexed": true,
          "internalType": "address",
          "name": "approved",
          "type": "address"
        },
        {
          "indexed": true,
          "internalType": "uint256",
          "name": "tokenId",
          "type": "uint256"
        }
      ],
      "name": "Approval",
      "type": "event"
    },
    {
      "anonymous": false,
      "inputs": [
        {
          "indexed": true,
          "internalType": "address",
          "name": "owner",
          "type": "address"
        },
        {
          "indexed": true,
          "internalType": "address",
          "name": "operator",
          "type": "address"
        },
        {
          "indexed": false,
          "internalType": "bool",
          "name": "approved",
          "type": "bool"
        }
      ],
      "name": "ApprovalForAll",
      "type": "event"
    },
    {
      "anonymous": false,
      "inputs": [
        {
          "indexed": true,
          "internalType": "address",
          "name": "sender",
          "type": "address"
        },
        {
          "indexed": true,
          "internalType": "address",
          "name": "changee",
          "type": "address"
        },
        {
          "indexed": false,
          "internalType": "bool",
          "name": "value",
          "type": "bool"
        }
      ],
      "name": "PermissionChange",
      "type": "event"
    },
    {
      "anonymous": false,
      "inputs": [
        {
          "indexed": false,
          "internalType": "uint32",
          "name": "tokenId",
          "type": "uint32"
        },
        {
          "indexed": false,
          "internalType": "bytes",
          "name": "encodedData",
          "type": "bytes"
        },
        {
          "indexed": true,
          "internalType": "address",
          "name": "sender",
          "type": "address"
        }
      ],
      "name": "TokenMinted",
      "type": "event"
    },
    {
      "anonymous": false,
      "inputs": [
        {
          "indexed": true,
          "internalType": "address",
          "name": "sender",
          "type": "address"
        },
        {
          "indexed": false,
          "internalType": "uint256",
          "name": "previewCount",
          "type": "uint256"
        }
      ],
      "name": "TokenPreviewComplete",
      "type": "event"
    },
    {
      "anonymous": false,
      "inputs": [
        {
          "indexed": false,
          "internalType": "uint32",
          "name": "tokenId",
          "type": "uint32"
        },
        {
          "indexed": false,
          "internalType": "bytes",
          "name": "encodedData",
          "type": "bytes"
        },
        {
          "indexed": true,
          "internalType": "address",
          "name": "sender",
          "type": "address"
        }
      ],
      "name": "TokenPreviewMinted",
      "type": "event"
    },
    {
      "anonymous": false,
      "inputs": [
        {
          "indexed": true,
          "internalType": "address",
          "name": "from",
          "type": "address"
        },
        {
          "indexed": true,
          "internalType": "address",
          "name": "to",
          "type": "address"
        },
        {
          "indexed": true,
          "internalType": "uint256",
          "name": "tokenId",
          "type": "uint256"
        }
      ],
      "name": "Transfer",
      "type": "event"
    },
    {
      "anonymous": false,
      "inputs": [
        {
          "indexed": true,
          "internalType": "address",
          "name": "from",
          "type": "address"
        },
        {
          "indexed": true,
          "internalType": "address",
          "name": "to",
          "type": "address"
        }
      ],
      "name": "TransferedOwnership",
      "type": "event"
    },
    {
      "inputs": [
        {
          "internalType": "address",
          "name": "_to",
          "type": "address"
        },
        {
          "internalType": "uint256",
          "name": "_tokenId",
          "type": "uint256"
        }
      ],
      "name": "approve",
      "outputs": [],
      "stateMutability": "nonpayable",
      "type": "function"
    },
    {
      "inputs": [
        {
          "internalType": "address",
          "name": "",
          "type": "address"
        }
      ],
      "name": "approved",
      "outputs": [
        {
          "internalType": "bool",
          "name": "",
          "type": "bool"
        }
      ],
      "stateMutability": "view",
      "type": "function"
    },
    {
      "inputs": [
        {
          "internalType": "address",
          "name": "_owner",
          "type": "address"
        }
      ],
      "name": "balanceOf",
      "outputs": [
        {
          "internalType": "uint256",
          "name": "",
          "type": "uint256"
        }
      ],
      "stateMutability": "view",
      "type": "function"
    },
    {
      "inputs": [],
      "name": "currentTokenId",
      "outputs": [
        {
          "internalType": "uint32",
          "name": "",
          "type": "uint32"
        }
      ],
      "stateMutability": "view",
      "type": "function"
    },
    {
      "inputs": [],
      "name": "deployer",
      "outputs": [
        {
          "internalType": "address",
          "name": "",
          "type": "address"
        }
      ],
      "stateMutability": "view",
      "type": "function"
    },
    {
      "inputs": [
        {
          "internalType": "uint32",
          "name": "tokenId",
          "type": "uint32"
        }
      ],
      "name": "depositStickerRoyalty",
      "outputs": [],
      "stateMutability": "payable",
      "type": "function"
    },
    {
      "inputs": [
        {
          "internalType": "uint32",
          "name": "royaltyType",
          "type": "uint32"
        }
      ],
      "name": "depositSystemRoyalty",
      "outputs": [],
      "stateMutability": "payable",
      "type": "function"
    },
    {
      "inputs": [
        {
          "internalType": "uint256",
          "name": "_tokenId",
          "type": "uint256"
        }
      ],
      "name": "exists",
      "outputs": [
        {
          "internalType": "bool",
          "name": "",
          "type": "bool"
        }
      ],
      "stateMutability": "view",
      "type": "function"
    },
    {
      "inputs": [
        {
          "internalType": "uint256",
          "name": "_tokenId",
          "type": "uint256"
        }
      ],
      "name": "getApproved",
      "outputs": [
        {
          "internalType": "address",
          "name": "",
          "type": "address"
        }
      ],
      "stateMutability": "view",
      "type": "function"
    },
    {
      "inputs": [],
      "name": "getPreview",
      "outputs": [],
      "stateMutability": "nonpayable",
      "type": "function"
    },
    {
      "inputs": [
        {
          "internalType": "address",
          "name": "receiver",
          "type": "address"
        },
        {
          "internalType": "uint32",
          "name": "pathId",
          "type": "uint32"
        },
        {
          "internalType": "uint32",
          "name": "pathSize",
          "type": "uint32"
        },
        {
          "internalType": "uint32[]",
          "name": "colours",
          "type": "uint32[]"
        },
        {
          "internalType": "bytes",
          "name": "mintData",
          "type": "bytes"
        },
        {
          "internalType": "uint32[]",
          "name": "assets",
          "type": "uint32[]"
        },
        {
          "internalType": "string[]",
          "name": "names",
          "type": "string[]"
        }
      ],
      "name": "implicitMint",
      "outputs": [],
      "stateMutability": "nonpayable",
      "type": "function"
    },
    {
      "inputs": [
        {
          "internalType": "address",
          "name": "_owner",
          "type": "address"
        },
        {
          "internalType": "address",
          "name": "_operator",
          "type": "address"
        }
      ],
      "name": "isApprovedForAll",
      "outputs": [
        {
          "internalType": "bool",
          "name": "",
          "type": "bool"
        }
      ],
      "stateMutability": "view",
      "type": "function"
    },
    {
      "inputs": [
        {
          "internalType": "address",
          "name": "addr",
          "type": "address"
        },
        {
          "internalType": "uint256",
          "name": "tokenId",
          "type": "uint256"
        }
      ],
      "name": "isApprovedOrOwner",
      "outputs": [
        {
          "internalType": "bool",
          "name": "",
          "type": "bool"
        }
      ],
      "stateMutability": "view",
      "type": "function"
    },
    {
      "inputs": [
        {
          "internalType": "address",
          "name": "addr",
          "type": "address"
        }
      ],
      "name": "isAuthenticated",
      "outputs": [
        {
          "internalType": "bool",
          "name": "",
          "type": "bool"
        }
      ],
      "stateMutability": "view",
      "type": "function"
    },
    {
      "inputs": [],
      "name": "mint",
      "outputs": [],
      "stateMutability": "payable",
      "type": "function"
    },
    {
      "inputs": [
        {
          "internalType": "bytes",
          "name": "data",
          "type": "bytes"
        }
      ],
      "name": "mintArguments",
      "outputs": [],
      "stateMutability": "payable",
      "type": "function"
    },
    {
      "inputs": [
        {
          "internalType": "uint32",
          "name": "index",
          "type": "uint32"
        }
      ],
      "name": "mintPreview",
      "outputs": [],
      "stateMutability": "payable",
      "type": "function"
    },
    {
      "inputs": [],
      "name": "minterController",
      "outputs": [
        {
          "internalType": "contract Minter",
          "name": "",
          "type": "address"
        }
      ],
      "stateMutability": "view",
      "type": "function"
    },
    {
      "inputs": [],
      "name": "mintsEnabled",
      "outputs": [
        {
          "internalType": "bool",
          "name": "",
          "type": "bool"
        }
      ],
      "stateMutability": "view",
      "type": "function"
    },
    {
      "inputs": [
        {
          "internalType": "address[]",
          "name": "addrs",
          "type": "address[]"
        }
      ],
      "name": "multiApprove",
      "outputs": [],
      "stateMutability": "nonpayable",
      "type": "function"
    },
    {
      "inputs": [
        {
          "internalType": "address[]",
          "name": "addrs",
          "type": "address[]"
        }
      ],
      "name": "multiRevoke",
      "outputs": [],
      "stateMutability": "nonpayable",
      "type": "function"
    },
    {
      "inputs": [],
      "name": "name",
      "outputs": [
        {
          "internalType": "string",
          "name": "",
          "type": "string"
        }
      ],
      "stateMutability": "view",
      "type": "function"
    },
    {
      "inputs": [
        {
          "internalType": "uint256",
          "name": "_tokenId",
          "type": "uint256"
        }
      ],
      "name": "ownerOf",
      "outputs": [
        {
          "internalType": "address",
          "name": "",
          "type": "address"
        }
      ],
      "stateMutability": "view",
      "type": "function"
    },
    {
      "inputs": [],
      "name": "royaltyController",
      "outputs": [
        {
          "internalType": "contract Royalty",
          "name": "",
          "type": "address"
        }
      ],
      "stateMutability": "view",
      "type": "function"
    },
    {
      "inputs": [
        {
          "internalType": "address",
          "name": "_from",
          "type": "address"
        },
        {
          "internalType": "address",
          "name": "_to",
          "type": "address"
        },
        {
          "internalType": "uint256",
          "name": "_tokenId",
          "type": "uint256"
        }
      ],
      "name": "safeTransferFrom",
      "outputs": [],
      "stateMutability": "nonpayable",
      "type": "function"
    },
    {
      "inputs": [
        {
          "internalType": "address",
          "name": "_from",
          "type": "address"
        },
        {
          "internalType": "address",
          "name": "_to",
          "type": "address"
        },
        {
          "internalType": "uint256",
          "name": "_tokenId",
          "type": "uint256"
        },
        {
          "internalType": "bytes",
          "name": "_data",
          "type": "bytes"
        }
      ],
      "name": "safeTransferFrom",
      "outputs": [],
      "stateMutability": "nonpayable",
      "type": "function"
    },
    {
      "inputs": [
        {
          "internalType": "address",
          "name": "_operator",
          "type": "address"
        },
        {
          "internalType": "bool",
          "name": "_approved",
          "type": "bool"
        }
      ],
      "name": "setApprovalForAll",
      "outputs": [],
      "stateMutability": "nonpayable",
      "type": "function"
    },
    {
      "inputs": [
        {
          "internalType": "address",
          "name": "minterContract",
          "type": "address"
        }
      ],
      "name": "setMinterController",
      "outputs": [],
      "stateMutability": "nonpayable",
      "type": "function"
    },
    {
      "inputs": [
        {
          "internalType": "bool",
          "name": "value",
          "type": "bool"
        }
      ],
      "name": "setMintsEnabled",
      "outputs": [],
      "stateMutability": "nonpayable",
      "type": "function"
    },
    {
      "inputs": [
        {
          "internalType": "address",
          "name": "addr",
          "type": "address"
        },
        {
          "internalType": "bool",
          "name": "value",
          "type": "bool"
        }
      ],
      "name": "setPrivilages",
      "outputs": [],
      "stateMutability": "nonpayable",
      "type": "function"
    },
    {
      "inputs": [
        {
          "internalType": "address",
          "name": "royaltyContract",
          "type": "address"
        }
      ],
      "name": "setRoyaltyController",
      "outputs": [],
      "stateMutability": "nonpayable",
      "type": "function"
    },
    {
      "inputs": [
        {
          "internalType": "address",
          "name": "storageContract",
          "type": "address"
        }
      ],
      "name": "setStorageController",
      "outputs": [],
      "stateMutability": "nonpayable",
      "type": "function"
    },
    {
      "inputs": [
        {
          "internalType": "uint32",
          "name": "tokenId",
          "type": "uint32"
        },
        {
          "internalType": "string",
          "name": "json",
          "type": "string"
        }
      ],
      "name": "setTokenURI",
      "outputs": [],
      "stateMutability": "nonpayable",
      "type": "function"
    },
    {
      "inputs": [],
      "name": "storageController",
      "outputs": [
        {
          "internalType": "contract InfinityMintStorage",
          "name": "",
          "type": "address"
        }
      ],
      "stateMutability": "view",
      "type": "function"
    },
    {
      "inputs": [
        {
          "internalType": "bytes4",
          "name": "interfaceId",
          "type": "bytes4"
        }
      ],
      "name": "supportsInterface",
      "outputs": [
        {
          "internalType": "bool",
          "name": "",
          "type": "bool"
        }
      ],
      "stateMutability": "view",
      "type": "function"
    },
    {
      "inputs": [],
      "name": "symbol",
      "outputs": [
        {
          "internalType": "string",
          "name": "",
          "type": "string"
        }
      ],
      "stateMutability": "view",
      "type": "function"
    },
    {
      "inputs": [],
      "name": "tokenPrice",
      "outputs": [
        {
          "internalType": "uint256",
          "name": "",
          "type": "uint256"
        }
      ],
      "stateMutability": "view",
      "type": "function"
    },
    {
      "inputs": [
        {
          "internalType": "uint256",
          "name": "tokenId",
          "type": "uint256"
        }
      ],
      "name": "tokenURI",
      "outputs": [
        {
          "internalType": "string",
          "name": "result",
          "type": "string"
        }
      ],
      "stateMutability": "view",
      "type": "function"
    },
    {
      "inputs": [],
      "name": "totalSupply",
      "outputs": [
        {
          "internalType": "uint256",
          "name": "",
          "type": "uint256"
        }
      ],
      "stateMutability": "view",
      "type": "function"
    },
    {
      "inputs": [
        {
          "internalType": "uint256[]",
          "name": "tokenIds",
          "type": "uint256[]"
        },
        {
          "internalType": "address",
          "name": "destination",
          "type": "address"
        }
      ],
      "name": "transferBatch",
      "outputs": [],
      "stateMutability": "nonpayable",
      "type": "function"
    },
    {
      "inputs": [
        {
          "internalType": "address",
          "name": "_from",
          "type": "address"
        },
        {
          "internalType": "address",
          "name": "_to",
          "type": "address"
        },
        {
          "internalType": "uint256",
          "name": "_tokenId",
          "type": "uint256"
        }
      ],
      "name": "transferFrom",
      "outputs": [],
      "stateMutability": "nonpayable",
      "type": "function"
    },
    {
      "inputs": [
        {
          "internalType": "address",
          "name": "addr",
          "type": "address"
        }
      ],
      "name": "transferOwnership",
      "outputs": [],
      "stateMutability": "nonpayable",
      "type": "function"
    },
    {
      "inputs": [],
      "name": "valuesController",
      "outputs": [
        {
          "internalType": "contract InfinityMintValues",
          "name": "",
          "type": "address"
        }
      ],
      "stateMutability": "view",
      "type": "function"
    },
    {
      "inputs": [],
      "name": "withdraw",
      "outputs": [],
      "stateMutability": "nonpayable",
      "type": "function"
    }
  ],
  "bytecode": "0x60806040523480156200001157600080fd5b506040516200511e3803806200511e833981016040819052620000349162000276565b8551869086906200004d906005906020850190620000e6565b50805162000063906006906020840190620000e6565b505060078054336001600160a01b031991821681179092556000918252600960205260408220805460ff19166001179055600891909155600a805482166001600160a01b03978816179055600c805482169587169590951790945550600d80548416918516919091179055600b8054909216921691909117905550620003669050565b828054620000f49062000329565b90600052602060002090601f01602090048101928262000118576000855562000163565b82601f106200013357805160ff191683800117855562000163565b8280016001018555821562000163579182015b828111156200016357825182559160200191906001019062000146565b506200017192915062000175565b5090565b5b8082111562000171576000815560010162000176565b634e487b7160e01b600052604160045260246000fd5b600082601f830112620001b457600080fd5b81516001600160401b0380821115620001d157620001d16200018c565b604051601f8301601f19908116603f01168101908282118183101715620001fc57620001fc6200018c565b816040528381526020925086838588010111156200021957600080fd5b600091505b838210156200023d57858201830151818301840152908201906200021e565b838211156200024f5760008385830101525b9695505050505050565b80516001600160a01b03811681146200027157600080fd5b919050565b60008060008060008060c087890312156200029057600080fd5b86516001600160401b0380821115620002a857600080fd5b620002b68a838b01620001a2565b97506020890151915080821115620002cd57600080fd5b50620002dc89828a01620001a2565b955050620002ed6040880162000259565b9350620002fd6060880162000259565b92506200030d6080880162000259565b91506200031d60a0880162000259565b90509295509295509295565b600181811c908216806200033e57607f821691505b602082108114156200036057634e487b7160e01b600052602260045260246000fd5b50919050565b614da880620003766000396000f3fe6080604052600436106102065760003560e01c80634c739476116101145780634c739476146104b85780634f558e79146104d85780636352211e146104f85780636bb54df21461051857806370a082311461052b5780637817d7c0146105615780637ff9b596146105825780638d6900a41461059757806395d89b41146105b7578063a22cb465146105cc578063a2d6b3c5146105ec578063b88d4fde1461060c578063c87b56dd1461062c578063c97caf1f1461064c578063d15d41501461066c578063d5f394881461068c578063d8b964e6146106ac578063e985e9c5146106dc578063ec2b46c3146106fc578063f107f8561461071c578063f2fde38b1461073c578063fe684c0e1461075c57600080fd5b80629a9b7b1461020b57806301ffc9a7146102495780630202def11461027957806304d5c3911461029b57806306fdde03146102ae578063081812fc146102d0578063095ea7b3146102fd5780630c380cf01461031d578063105c48131461033d57806310a8c7a91461035d57806311ed8c311461037d5780631249c58b1461039d57806318160ddd146103a55780631dc9e28a146103c85780631ff87064146103db57806323b872dd146103fb5780632edc48571461041b57806331ed86d21461043057806339e27d82146104505780633ccfd60b1461046357806342842e0e14610478578063430c208114610498575b600080fd5b34801561021757600080fd5b50600d5461022f90600160a01b900463ffffffff1681565b60405163ffffffff90911681526020015b60405180910390f35b34801561025557600080fd5b50610269610264366004613c23565b61077c565b6040519015158152602001610240565b34801561028557600080fd5b50610299610294366004613cfe565b6107ce565b005b6102996102a9366004613dc2565b61086b565b3480156102ba57600080fd5b506102c3610b5d565b6040516102409190613e37565b3480156102dc57600080fd5b506102f06102eb366004613e4a565b610bef565b6040516102409190613e63565b34801561030957600080fd5b50610299610318366004613e77565b610c0a565b34801561032957600080fd5b50600c546102f0906001600160a01b031681565b34801561034957600080fd5b50600d546102f0906001600160a01b031681565b34801561036957600080fd5b50610299610378366004613ea3565b610d5a565b34801561038957600080fd5b50610299610398366004613f3c565b610ded565b610299610e4c565b3480156103b157600080fd5b506103ba610f8b565b604051908152602001610240565b6102996103d6366004613fd1565b611000565b3480156103e757600080fd5b506102996103f6366004614005565b611167565b34801561040757600080fd5b50610299610416366004614054565b6111fc565b34801561042757600080fd5b50610299611377565b34801561043c57600080fd5b5061029961044b366004613ea3565b61176f565b61029961045e366004613dc2565b611802565b34801561046f57600080fd5b50610299611956565b34801561048457600080fd5b50610299610493366004614054565b611c18565b3480156104a457600080fd5b506102696104b3366004613e77565b611c33565b3480156104c457600080fd5b506102996104d3366004613f3c565b611c92565b3480156104e457600080fd5b506102696104f3366004613e4a565b611d0b565b34801561050457600080fd5b506102f0610513366004613e4a565b611d28565b610299610526366004613dc2565b611d8d565b34801561053757600080fd5b506103ba610546366004613f3c565b6001600160a01b031660009081526004602052604090205490565b34801561056d57600080fd5b50600d5461026990600160c01b900460ff1681565b34801561058e57600080fd5b506103ba611f57565b3480156105a357600080fd5b506102996105b23660046140a3565b611fa1565b3480156105c357600080fd5b506102c3612003565b3480156105d857600080fd5b506102996105e73660046140c0565b612012565b3480156105f857600080fd5b50600b546102f0906001600160a01b031681565b34801561061857600080fd5b506102996106273660046140f9565b61207f565b34801561063857600080fd5b506102c3610647366004613e4a565b612091565b34801561065857600080fd5b50610299610667366004614252565b6126d7565b34801561067857600080fd5b50610269610687366004613f3c565b612a6b565b34801561069857600080fd5b506007546102f0906001600160a01b031681565b3480156106b857600080fd5b506102696106c7366004613f3c565b60096020526000908152604090205460ff1681565b3480156106e857600080fd5b506102696106f7366004614330565b612aa4565b34801561070857600080fd5b50600a546102f0906001600160a01b031681565b34801561072857600080fd5b50610299610737366004613f3c565b612ad2565b34801561074857600080fd5b50610299610757366004613f3c565b612b4b565b34801561076857600080fd5b506102996107773660046140c0565b612bf1565b60006001600160e01b031982166380ac58cd60e01b14806107ad57506001600160e01b03198216635b5e139f60e01b145b806107c857506301ffc9a760e01b6001600160e01b03198316145b92915050565b602082511061082e5760405162461bcd60e51b815260206004820152602160248201527f706c656173652073706c697420757020696e746f206368756e6b73206f6620336044820152601960f91b60648201526084015b60405180910390fd5b60005b82518110156108665761085e33838584815181106108515761085161435e565b6020026020010151611c18565b600101610831565b505050565b60016008600082825461087e919061438a565b9091555050600854600a54604051636c51371d60e11b815263ffffffff841660048201526000916001600160a01b03169063d8a26e3a90602401600060405180830381865afa1580156108d5573d6000803e3d6000fd5b505050506040513d6000823e601f3d908101601f191682016040526108fd9190810190614544565b600a54604051631f7c4d3760e01b815263ffffffff86166004820152600160248201529192506001600160a01b031690631f7c4d3790604401602060405180830381865afa158015610953573d6000803e3d6000fd5b505050506040513d601f19601f820116820180604052508101906109779190614689565b6109be5760405162461bcd60e51b81526020600482015260186024820152771cdd1a58dad95c8818dbdb9d1c9858dd081b9bdd081cd95d60421b6044820152606401610825565b8061010001516001815181106109d6576109d661435e565b60200260200101516001600160a01b03166109ee3390565b6001600160a01b031614610a675760405162461bcd60e51b815260206004820152603a60248201527f53656e646572206d7573742062652074686520737469636b657220636f6e747260448201527930b1ba1030ba3a30b1b432b2103a37903a3434b9903a37b5b2b760311b6064820152608401610825565b600d5460408051635b6bf64160e01b815290516001600160a01b03909216916304caf36a9134918491635b6bf6419160048083019260209291908290030181865afa158015610aba573d6000803e3d6000fd5b505050506040513d601f19601f82011682018060405250810190610ade91906146a6565b6040516001600160e01b031960e085901b168152600481019290925260ff166024820152604401600060405180830381600087803b158015610b1f57600080fd5b505af1158015610b33573d6000803e3d6000fd5b50505050506008548114610b595760405162461bcd60e51b8152600401610825906146c9565b5050565b606060058054610b6c906146eb565b80601f0160208091040260200160405190810160405280929190818152602001828054610b98906146eb565b8015610be55780601f10610bba57610100808354040283529160200191610be5565b820191906000526020600020905b815481529060010190602001808311610bc857829003601f168201915b5050505050905090565b6000908152600260205260409020546001600160a01b031690565b6000610c1582611d28565b9050806001600160a01b0316836001600160a01b03161415610c705760405162461bcd60e51b815260206004820152601460248201527331b0b73737ba1030b8383937bb329037bbb732b960611b6044820152606401610825565b336001600160a01b0382161480610c8c5750610c8c8133612aa4565b610cfe5760405162461bcd60e51b815260206004820152603d60248201527f4552433732313a20617070726f76652063616c6c6572206973206e6f7420746f60448201527f6b656e206f776e6572206f7220617070726f76656420666f7220616c6c0000006064820152608401610825565b60008281526002602052604080822080546001600160a01b0319166001600160a01b0387811691821790925591518593918516917f8c5be1e5ebec7d5bd14f71427d1e84f3dd0314c0f7b2291e5b200ac8c7c3b92591a4505050565b6007546001600160a01b03163314610d845760405162461bcd60e51b815260040161082590614726565b8051610d8f57600080fd5b60005b8151811015610b5957600160096000848481518110610db357610db361435e565b6020908102919091018101516001600160a01b03168252810191909152604001600020805460ff1916911515919091179055600101610d92565b6007546001600160a01b03163314610e175760405162461bcd60e51b815260040161082590614726565b6001600160a01b038116610e2a57600080fd5b600d80546001600160a01b0319166001600160a01b0392909216919091179055565b600160086000828254610e5f919061438a565b9091555050600854600c546040516206259160e71b81526001600160a01b0390911690630312c88090610eb190600401602080825260089082015267189e5d19535a5b9d60c21b604082015260600190565b602060405180830381865afa158015610ece573d6000803e3d6000fd5b505050506040513d601f19601f82011682018060405250810190610ef29190614689565b15610f4f5760405162461bcd60e51b815260206004820152602760248201527f6d757374206d696e74207769746820627974654d696e7420696e7374656164206044820152661bd9881b5a5b9d60ca1b6064820152608401610825565b610f6760405180602001604052806000815250612ccc565b6008548114610f885760405162461bcd60e51b8152600401610825906146c9565b50565b600c5460405163e7b6dac960e01b81526000916001600160a01b03169063e7b6dac990610fba9060040161474c565b602060405180830381865afa158015610fd7573d6000803e3d6000fd5b505050506040513d601f19601f82011682018060405250810190610ffb919061476f565b905090565b600160086000828254611013919061438a565b9091555050600854600c546040516206259160e71b815260206004820152601460248201527364697361626c654d696e74417267756d656e747360601b60448201526001600160a01b0390911690630312c88090606401602060405180830381865afa158015611087573d6000803e3d6000fd5b505050506040513d601f19601f820116820180604052508101906110ab9190614689565b6110f55760405162461bcd60e51b815260206004820152601b60248201527a1b5a5b9d08185c99dd5b595b9d1cc8185c9948191a5cd8589b1959602a1b6044820152606401610825565b815161113d5760405162461bcd60e51b81526020600482015260176024820152766c656e677468206f66206279746573206973207a65726f60481b6044820152606401610825565b61114682612ccc565b6008548114610b595760405162461bcd60e51b8152600401610825906146c9565b611177338363ffffffff16611c33565b6111d65760405162461bcd60e51b815260206004820152602a60248201527f6973206e6f74204f776e65722c20617070726f766564206f7220617070726f76604482015269195908199bdc88185b1b60b21b6064820152608401610825565b63ffffffff82166000908152600160209081526040909120825161086692840190613b74565b6112063382611c33565b61124a5760405162461bcd60e51b81526020600482015260156024820152743737ba1030b8383937bb32b21037b91037bbb732b960591b6044820152606401610825565b6001600160a01b03831661129a5760405162461bcd60e51b815260206004820152601760248201527673656e64696e6720746f206e756c6c206164647265737360481b6044820152606401610825565b6112a5838383612e04565b600081815260026020908152604080832080546001600160a01b03191690556001600160a01b0386168352600490915281208054600192906112e8908490614788565b90915550506001600160a01b038216600090815260046020526040812080546001929061131690849061438a565b909155505060008181526020819052604080822080546001600160a01b0319166001600160a01b0386811691821790925591518493918716917fddf252ad1be2c89b69c2b068fc378daa952ba7f163c4a11628f55a4df523b3ef91a4505050565b6113826000806130c8565b6113f6576040805162461bcd60e51b81526020600482015260248101919091527f6661696c6564206d696e7420636865636b3a206d696e7473206172652064697360448201527f61626c65642c206d696e7473206172652061742061206d617820737570706c796064820152608401610825565b600c5460405163e7b6dac960e01b81526000916001600160a01b03169063e7b6dac9906114259060040161479f565b602060405180830381865afa158015611442573d6000803e3d6000fd5b505050506040513d601f19601f82011682018060405250810190611466919061476f565b116114ab5760405162461bcd60e51b81526020600482015260156024820152741c1c995d9a595ddcc8185c9948191a5cd8589b1959605a1b6044820152606401610825565b600a546001600160a01b031663e5725968336040518263ffffffff1660e01b81526004016114d99190613e63565b602060405180830381865afa1580156114f6573d6000803e3d6000fd5b505050506040513d601f19601f8201168201806040525081019061151a919061476f565b42116115895760405162461bcd60e51b815260206004820152603860248201527f706c65617365206d696e74207072657669657773206f72207761697420756e746044820152770696c207072657669657720636f756e7465722069732075760441b6064820152608401610825565b600b54600d5460408051631a5dad5160e01b8152600160a01b90920463ffffffff166004830152336024830152516000926001600160a01b031691631a5dad51916044808301926020929190829003018187875af11580156115ef573d6000803e3d6000fd5b505050506040513d601f19601f82011682018060405250810190611613919061476f565b600c5460405163e7b6dac960e01b815260206004820152601660248201527570726576696577436f6f6c646f776e5365636f6e647360501b60448201529192506000916001600160a01b039091169063e7b6dac990606401602060405180830381865afa158015611688573d6000803e3d6000fd5b505050506040513d601f19601f820116820180604052508101906116ac919061476f565b9050806116b75750603c5b600a546001600160a01b031663a22d583a336116d3844261438a565b6040518363ffffffff1660e01b81526004016116f09291906147c5565b600060405180830381600087803b15801561170a57600080fd5b505af115801561171e573d6000803e3d6000fd5b505050506117293390565b6001600160a01b03167f5714c3f2df77e79db463ef18f304b9c2c6b2502ed4d63b7cfdd9950416c926998360405161176391815260200190565b60405180910390a25050565b6007546001600160a01b031633146117995760405162461bcd60e51b815260040161082590614726565b80516117a457600080fd5b60005b8151811015610b59576000600960008484815181106117c8576117c861435e565b6020908102919091018101516001600160a01b03168252810191909152604001600020805460ff19169115159190911790556001016117a7565b600160086000828254611815919061438a565b90915550506008543461184b8160096000335b6001600160a01b0316815260208101919091526040016000205460ff16156130c8565b6118925760405162461bcd60e51b81526020600482015260186024820152773330b4b632b21036b4b73a103b32b934b334b1b0ba34b7b760411b6044820152606401610825565b600b54600d546040805163137655b160e31b815263ffffffff8781166004830152600160a01b909304909216602483015233604483015251611934926001600160a01b031691639bb2ad88916064808301926000929190829003018183875af1158015611903573d6000803e3d6000fd5b505050506040513d6000823e601f3d908101601f1916820160405261192b9190810190614544565b33600184613200565b506008548114610b595760405162461bcd60e51b8152600401610825906146c9565b600160086000828254611969919061438a565b9091555050600854600d546040516354fe9fd760e01b81526000916001600160a01b0316906354fe9fd7906119a2903390600401613e63565b602060405180830381865afa1580156119bf573d6000803e3d6000fd5b505050506040513d601f19601f820116820180604052508101906119e3919061476f565b905060008111611a2e5760405162461bcd60e51b81526020600482015260166024820152756e6f2062616c616e636520746f20776974686472617760501b6044820152606401610825565b6000611a3a8247614788565b1015611a845760405162461bcd60e51b815260206004820152601960248201527863616e6e6f74206166666f726420746f20776974686472617760381b6044820152606401610825565b600d546001600160a01b031663e8953af2336040518263ffffffff1660e01b8152600401611ab29190613e63565b6020604051808303816000875af1158015611ad1573d6000803e3d6000fd5b505050506040513d601f19601f82011682018060405250810190611af5919061476f565b905060008111611b5d5760405162461bcd60e51b815260206004820152602d60248201527f76616c75652072657475726e65642066726f6d20726f79616c747920636f6e7460448201526c1c9bdb1b195c881a5cc8189859609a1b6064820152608401610825565b604051600090339083908381818185875af1925050503d8060008114611b9f576040519150601f19603f3d011682016040523d82523d6000602084013e611ba4565b606091505b5050905080611bf55760405162461bcd60e51b815260206004820152601d60248201527f646964206e6f74207472616e73666572207375636365737366756c6c790000006044820152606401610825565b50506008548114610f885760405162461bcd60e51b8152600401610825906146c9565b6108668383836040518060200160405280600081525061363c565b600080611c3f83611d28565b9050806001600160a01b0316846001600160a01b03161480611c665750611c668185612aa4565b80611c8a5750836001600160a01b0316611c7f84610bef565b6001600160a01b0316145b949350505050565b6007546001600160a01b0316331480611cba57503360009081526009602052604090205460ff165b611cd65760405162461bcd60e51b8152600401610825906147de565b6001600160a01b038116611ce957600080fd5b600a80546001600160a01b0319166001600160a01b0392909216919091179055565b6000908152602081905260409020546001600160a01b0316151590565b6000611d3382611d0b565b611d715760405162461bcd60e51b815260206004820152600f60248201526e1a5b9d985b1a59081d1bdad95b9259608a1b6044820152606401610825565b506000908152602081905260409020546001600160a01b031690565b600160086000828254611da0919061438a565b90915550506008546007546001600160a01b0316331480611dd057503360009081526009602052604090205460ff165b611dec5760405162461bcd60e51b8152600401610825906147de565b600d60009054906101000a90046001600160a01b03166001600160a01b0316635b6bf6416040518163ffffffff1660e01b8152600401602060405180830381865afa158015611e3f573d6000803e3d6000fd5b505050506040513d601f19601f82011682018060405250810190611e6391906146a6565b60ff168263ffffffff161415611ec75760405162461bcd60e51b8152602060048201526024808201527f63616e2774206465706f73697420737469636b657220726f79616c74696573206044820152636865726560e01b6064820152608401610825565b600d546001600160a01b03166304caf36a346040516001600160e01b031960e084901b168152600481019190915263ffffffff85166024820152604401600060405180830381600087803b158015611f1e57600080fd5b505af1158015611f32573d6000803e3d6000fd5b505050506008548114610b595760405162461bcd60e51b8152600401610825906146c9565b600d5460408051633ffcdacb60e11b815290516000926001600160a01b031691637ff9b5969160048083019260209291908290030181865afa158015610fd7573d6000803e3d6000fd5b6007546001600160a01b0316331480611fc957503360009081526009602052604090205460ff165b611fe55760405162461bcd60e51b8152600401610825906147de565b600d8054911515600160c01b0260ff60c01b19909216919091179055565b606060068054610b6c906146eb565b3360008181526003602090815260408083206001600160a01b03871680855290835292819020805460ff191686151590811790915590519081529192917f17307eab39ab6107e8899845ad3d59bd9653f200f220920489ca2b5937696c3191015b60405180910390a35050565b61208b8484848461363c565b50505050565b600d54606090600160a01b900463ffffffff1682106120f25760405162461bcd60e51b815260206004820152601f60248201527f746f6b656e55524920666f72206e6f6e2d6578697374656e7420746f6b656e006044820152606401610825565b6040518060a0016040528060628152602001614d1160629139600a546040805163712a908d60e01b81523060048201526024810191909152600f60448201526e64656661756c74546f6b656e55524960881b60648201529192506000916001600160a01b039091169063712a908d90608401600060405180830381865afa158015612181573d6000803e3d6000fd5b505050506040513d6000823e601f3d908101601f191682016040526121a99190810190614804565b905080516000146121b8578091505b60006121c384611d28565b6000858152600160205260408120805492935090916121e1906146eb565b80601f016020809104026020016040519081016040528092919081815260200182805461220d906146eb565b801561225a5780601f1061222f5761010080835404028352916020019161225a565b820191906000526020600020905b81548152906001019060200180831161223d57829003601f168201915b5050600a5460408051636c17fd7960e01b815263ffffffff8c1660048201526024810191909152600d60448201526c666f726365546f6b656e55524960981b60648201529495506001600160a01b031693636c17fd79935060840191506122be9050565b602060405180830381865afa1580156122db573d6000803e3d6000fd5b505050506040513d601f19601f820116820180604052508101906122ff9190614689565b801561230b5750805115155b15612318578093506126cf565b600a54604051633f08e8e360e11b81526001600160a01b0390911690637e11d1c690612348908590600401614838565b602060405180830381865afa158015612365573d6000803e3d6000fd5b505050506040513d601f19601f820116820180604052508101906123899190614689565b806124005750600a54604051633f08e8e360e11b81526001600160a01b0390911690637e11d1c6906123bf903090600401614838565b602060405180830381865afa1580156123dc573d6000803e3d6000fd5b505050506040513d601f19601f820116820180604052508101906124009190614689565b156126c457600a54604051633f08e8e360e11b81526000916001600160a01b031690637e11d1c690612436908690600401614838565b602060405180830381865afa158015612453573d6000803e3d6000fd5b505050506040513d601f19601f820116820180604052508101906124779190614689565b6124815730612483565b825b600a5460405163712a908d60e01b81529192506000916001600160a01b039091169063712a908d906124e49085906004016001600160a01b03919091168152604060208201819052600490820152631c9bdbdd60e21b606082015260800190565b600060405180830381865afa158015612501573d6000803e3d6000fd5b505050506040513d6000823e601f3d908101601f191682016040526125299190810190614804565b600a80546040805163712a908d60e01b81526001600160a01b03878116600483015260248201929092526044810193909352690e4dedee8a6eaccccd2f60b31b6064840152929350600092169063712a908d90608401600060405180830381865afa15801561259c573d6000803e3d6000fd5b505050506040513d6000823e601f3d908101601f191682016040526125c49190810190614804565b9050805160001480156126635750600c546040516206259160e71b81526020600482015260136024820152720e4cadadeecca88caccc2ead8e8a6eaccccd2f606b1b60448201526001600160a01b0390911690630312c88090606401602060405180830381865afa15801561263d573d6000803e3d6000fd5b505050506040513d601f19601f820116820180604052508101906126619190614689565b155b156126865750604080518082019091526005815264173539b7b760d91b60208201525b8151156126bc5781612697896136ac565b826040516020016126aa9392919061486d565b60405160208183030381529060405296505b5050506126cf565b8051156126cf578093505b505050919050565b6007546001600160a01b03163314806126ff57503360009081526009602052604090205460ff165b61271b5760405162461bcd60e51b8152600401610825906147de565b600c5460405163e7b6dac960e01b81526001600160a01b039091169063e7b6dac9906127499060040161474c565b602060405180830381865afa158015612766573d6000803e3d6000fd5b505050506040513d601f19601f8201168201806040525081019061278a919061476f565b600d54600160a01b900463ffffffff1614156128045760405162461bcd60e51b815260206004820152603360248201527f6d617820737570706c7920686173206265656e2072656163686564207261697360448201527265206974206265666f7265206d696e74696e6760681b6064820152608401610825565b600c546040516206259160e71b815260206004820152600f60248201526e696e6372656d656e74616c4d6f646560881b60448201526001600160a01b0390911690630312c88090606401602060405180830381865afa15801561286b573d6000803e3d6000fd5b505050506040513d601f19601f8201168201806040525081019061288f9190614689565b8061291c5750600c546040516206259160e71b815260206004820152600b60248201526a6d6174636865644d6f646560a81b60448201526001600160a01b0390911690630312c88090606401602060405180830381865afa1580156128f8573d6000803e3d6000fd5b505050506040513d601f19601f8201168201806040525081019061291c9190614689565b15612a0957600b60009054906101000a90046001600160a01b03166001600160a01b031663573f86006040518163ffffffff1660e01b8152600401602060405180830381865afa158015612974573d6000803e3d6000fd5b505050506040513d601f19601f8201168201806040525081019061299891906148b0565b6001600160a01b0316638a25ad246129b18860016148cd565b6040516001600160e01b031960e084901b16815263ffffffff919091166004820152602401600060405180830381600087803b1580156129f057600080fd5b505af1158015612a04573d6000803e3d6000fd5b505050505b600d54612a6290612a5990600160a01b900463ffffffff16888886868a8a8f6000604051908082528060200260200182016040528015612a53578160200160208202803683370190505b506137d4565b88600034613200565b50505050505050565b6007546000906001600160a01b03838116911614806107c85750506001600160a01b031660009081526009602052604090205460ff1690565b6001600160a01b03918216600090815260036020908152604080832093909416825291909152205460ff1690565b6007546001600160a01b0316331480612afa57503360009081526009602052604090205460ff165b612b165760405162461bcd60e51b8152600401610825906147de565b6001600160a01b038116612b2957600080fd5b600b80546001600160a01b0319166001600160a01b0392909216919091179055565b6007546001600160a01b03163314612b755760405162461bcd60e51b815260040161082590614726565b600780546001600160a01b03908116600090815260096020526040808220805460ff1990811690915584546001600160a01b03191693861693841790945582825280822080549094166001179093559151909133917f93091b3f3cd424efabc74e181f3799f3476ed758412561ed3b29515c51f567529190a350565b6007546001600160a01b03163314612c1b5760405162461bcd60e51b815260040161082590614726565b6007546001600160a01b0383811691161415612c725760405162461bcd60e51b815260206004820152601660248201527531b0b73737ba1036b7b234b33c903232b83637bcb2b960511b6044820152606401610825565b6001600160a01b038216600081815260096020908152604091829020805460ff1916851515908117909155915191825233917ff38de818d000d07d091732dd783c6855722d7bc1934d92b7635133289d3416959101612073565b612cda346009600033611828565b612d6f5760405162461bcd60e51b815260206004820152605a60248201527f6661696c6564206d696e7420636865636b3a206d696e7473206172652064697360448201527f61626c65642c206d696e7473206172652061742061206d617820737570706c79606482015279040dee440f2deea40c8d2c840dcdee840e0c2f240cadcdeeaced60331b608482015260a401610825565b600b54600d54604051631bc8bf9360e01b8152610f88926001600160a01b031691631bc8bf9391612db491600160a01b900463ffffffff1690339087906004016148f5565b6000604051808303816000875af1158015612dd3573d6000803e3d6000fd5b505050506040513d6000823e601f3d908101601f19168201604052612dfb9190810190614544565b33600034613200565b600a5460408051636c17fd7960e01b815263ffffffff84166004820152602481019190915260066044820152651b1bd8dad95960d21b60648201526001600160a01b0390911690636c17fd7990608401602060405180830381865afa158015612e71573d6000803e3d6000fd5b505050506040513d601f19601f82011682018060405250810190612e959190614689565b151560011415612f1f5760405162461bcd60e51b815260206004820152604960248201527f5468697320746f6b656e206973206c6f636b656420616e64206e65656473207460448201527f6f20626520756e6c6f636b6564206265666f72652069742063616e20626520746064820152681c985b9cd9995c995960ba1b608482015260a401610825565b600a546040516320025d2160e21b81526001600160a01b0390911690638009748490612f519085908590600401614925565b600060405180830381600087803b158015612f6b57600080fd5b505af1158015612f7f573d6000803e3d6000fd5b5050600c546040516206259160e71b81526001600160a01b039091169250630312c8809150612fb090600401614944565b602060405180830381865afa158015612fcd573d6000803e3d6000fd5b505050506040513d601f19601f82011682018060405250810190612ff19190614689565b61086657600a54604051634fe61faf60e11b81526001600160a01b0390911690639fcc3f5e906130279085908590600401614925565b600060405180830381600087803b15801561304157600080fd5b505af1158015613055573d6000803e3d6000fd5b505050506001600160a01b0383161561086657600a54604051634f2609c760e11b81526001600160a01b0390911690639e4c138e9061309a9086908590600401614925565b600060405180830381600087803b1580156130b457600080fd5b505af1158015612a62573d6000803e3d6000fd5b600d54600090600160c01b900460ff1615806131615750600c5460405163e7b6dac960e01b81526001600160a01b039091169063e7b6dac99061310d9060040161474c565b602060405180830381865afa15801561312a573d6000803e3d6000fd5b505050506040513d601f19601f8201168201806040525081019061314e919061476f565b600d54600160a01b900463ffffffff1610155b806131ea57508180156131ea5750600d60009054906101000a90046001600160a01b03166001600160a01b0316637ff9b5966040518163ffffffff1660e01b8152600401602060405180830381865afa1580156131c2573d6000803e3d6000fd5b505050506040513d601f19601f820116820180604052508101906131e6919061476f565b8314155b156131f7575060006107c8565b50600192915050565b61322783600d60149054906101000a900463ffffffff1663ffffffff168660a0015161389a565b600a54600d5460405163c28cf06160e01b81526001600160a01b039092169163c28cf0619161326991600160a01b90910463ffffffff16908890600401614a44565b600060405180830381600087803b15801561328357600080fd5b505af1158015613297573d6000803e3d6000fd5b5050600c546040516206259160e71b81526001600160a01b039091169250630312c88091506132c890600401614944565b602060405180830381865afa1580156132e5573d6000803e3d6000fd5b505050506040513d601f19601f820116820180604052508101906133099190614689565b61338157600a54600d54604051634fe61faf60e11b81526001600160a01b0390921691639fcc3f5e9161334e918791600160a01b900463ffffffff1690600401614925565b600060405180830381600087803b15801561336857600080fd5b505af115801561337c573d6000803e3d6000fd5b505050505b600a54600c5460405163e7b6dac960e01b81526001600160a01b0392831692638ff58aa692879291169063e7b6dac9906133bd9060040161479f565b602060405180830381865afa1580156133da573d6000803e3d6000fd5b505050506040513d601f19601f820116820180604052508101906133fe919061476f565b6040518363ffffffff1660e01b815260040161341b9291906147c5565b600060405180830381600087803b15801561343557600080fd5b505af1158015613449573d6000803e3d6000fd5b5050600d5460408051631d4e010f60e11b815290516001600160a01b0390921693506304caf36a925084918491633a9c021e9160048083019260209291908290030181865afa1580156134a0573d6000803e3d6000fd5b505050506040513d601f19601f820116820180604052508101906134c491906146a6565b6040516001600160e01b031960e085901b168152600481019290925260ff166024820152604401600060405180830381600087803b15801561350557600080fd5b505af1158015613519573d6000803e3d6000fd5b5050505081156135af57600d80546001600160a01b038516917f8f2c63d2fb7a6762d60b5c413fcf4212bc46912b94c8b65172d780f1a2515a4491600160a01b900463ffffffff1690601461356d83614b47565b91906101000a81548163ffffffff021916908363ffffffff160217905550613594876139bb565b6040516135a2929190614b6b565b60405180910390a261208b565b600d80546001600160a01b038516917fef35cf177b2baefe03d86d3f735f32215ea0d2fb2f0548bc5f45ea6950e6889491600160a01b900463ffffffff169060146135f983614b47565b91906101000a81548163ffffffff021916908363ffffffff160217905550613620876139bb565b60405161362e929190614b6b565b60405180910390a250505050565b6136478484846111fc565b6136543385858585613a32565b61208b5760405162461bcd60e51b815260206004820152602360248201527f45524337323120526563656976657220436f6e6669726d6174696f6e2049732060448201526210985960ea1b6064820152608401610825565b6060816136d05750506040805180820190915260018152600360fc1b602082015290565b8160005b81156136fa57806136e481614b8a565b91506136f39050600a83614ba5565b91506136d4565b6000816001600160401b0381111561371457613714613c47565b6040519080825280601f01601f19166020018201604052801561373e576020820181803683370190505b509050815b85156137cb57613754600182614788565b90506000613763600a88614ba5565b61376e90600a614bc7565b6137789088614788565b613783906030614be6565b905060008160f81b9050808484815181106137a0576137a061435e565b60200101906001600160f81b031916908160001a9053506137c2600a89614ba5565b97505050613743565b50949350505050565b61383e604051806101200160405280600063ffffffff168152602001600063ffffffff168152602001600063ffffffff16815260200160006001600160a01b0316815260200160608152602001606081526020016060815260200160608152602001606081525090565b50604080516101208101825263ffffffff998a168152978916602089015298909716978601979097526001600160a01b039096166060850152608084015260a083019490945260c082015260e081019290925261010082015290565b6001600160a01b0383166138db5760405162461bcd60e51b81526020600482015260086024820152670c1e0c081b5a5b9d60c21b6044820152606401610825565b6138e482611d0b565b156139225760405162461bcd60e51b815260206004820152600e60248201526d185b1c9958591e481b5a5b9d195960921b6044820152606401610825565b6001600160a01b038316600090815260046020526040812080546001929061394b90849061438a565b909155505060008281526020819052604080822080546001600160a01b0319166001600160a01b03871690811790915590518492907fddf252ad1be2c89b69c2b068fc378daa952ba7f163c4a11628f55a4df523b3ef908290a46139b23330858585613a32565b61086657600080fd5b6060816000015182602001518360400151846060015185608001516040516020016139e69190614c0b565b60408051601f198184030181529082905260a088015160c089015160e08a01516101008b0151613a1c9998979695602001614c1e565b6040516020818303038152906040529050919050565b6000833b613a4257506001613b6b565b604051630a85bd0160e11b81526001600160a01b0385169063150b7a0290613a74908990899088908890600401614cc0565b6020604051808303816000875af1925050508015613aaf575060408051601f3d908101601f19168201909252613aac91810190614cf3565b60015b613b55573d808015613add576040519150601f19603f3d011682016040523d82523d6000602084013e613ae2565b606091505b508051613b4d5760405162461bcd60e51b815260206004820152603360248201527f5468697320636f6e747261637420646f6573206e6f7420696d706c656d656e746044820152721030b71024a2a9219b9918a932b1b2b4bb32b960691b6064820152608401610825565b805181602001fd5b6001600160e01b031916630a85bd0160e11b1490505b95945050505050565b828054613b80906146eb565b90600052602060002090601f016020900481019282613ba25760008555613be8565b82601f10613bbb57805160ff1916838001178555613be8565b82800160010185558215613be8579182015b82811115613be8578251825591602001919060010190613bcd565b50613bf4929150613bf8565b5090565b5b80821115613bf45760008155600101613bf9565b6001600160e01b031981168114610f8857600080fd5b600060208284031215613c3557600080fd5b8135613c4081613c0d565b9392505050565b634e487b7160e01b600052604160045260246000fd5b60405161012081016001600160401b0381118282101715613c8057613c80613c47565b60405290565b604051601f8201601f191681016001600160401b0381118282101715613cae57613cae613c47565b604052919050565b60006001600160401b03821115613ccf57613ccf613c47565b5060051b60200190565b6001600160a01b0381168114610f8857600080fd5b8035613cf981613cd9565b919050565b60008060408385031215613d1157600080fd5b82356001600160401b03811115613d2757600080fd5b8301601f81018513613d3857600080fd5b80356020613d4d613d4883613cb6565b613c86565b82815260059290921b83018101918181019088841115613d6c57600080fd5b938201935b83851015613d8a57843582529382019390820190613d71565b9550613d999050868201613cee565b93505050509250929050565b63ffffffff81168114610f8857600080fd5b8035613cf981613da5565b600060208284031215613dd457600080fd5b8135613c4081613da5565b60005b83811015613dfa578181015183820152602001613de2565b8381111561208b5750506000910152565b60008151808452613e23816020860160208601613ddf565b601f01601f19169290920160200192915050565b602081526000613c406020830184613e0b565b600060208284031215613e5c57600080fd5b5035919050565b6001600160a01b0391909116815260200190565b60008060408385031215613e8a57600080fd5b8235613e9581613cd9565b946020939093013593505050565b60006020808385031215613eb657600080fd5b82356001600160401b03811115613ecc57600080fd5b8301601f81018513613edd57600080fd5b8035613eeb613d4882613cb6565b81815260059190911b82018301908381019087831115613f0a57600080fd5b928401925b82841015613f31578335613f2281613cd9565b82529284019290840190613f0f565b979650505050505050565b600060208284031215613f4e57600080fd5b8135613c4081613cd9565b60006001600160401b03821115613f7257613f72613c47565b50601f01601f191660200190565b600082601f830112613f9157600080fd5b8135613f9f613d4882613f59565b818152846020838601011115613fb457600080fd5b816020850160208301376000918101602001919091529392505050565b600060208284031215613fe357600080fd5b81356001600160401b03811115613ff957600080fd5b611c8a84828501613f80565b6000806040838503121561401857600080fd5b823561402381613da5565b915060208301356001600160401b0381111561403e57600080fd5b61404a85828601613f80565b9150509250929050565b60008060006060848603121561406957600080fd5b833561407481613cd9565b9250602084013561408481613cd9565b929592945050506040919091013590565b8015158114610f8857600080fd5b6000602082840312156140b557600080fd5b8135613c4081614095565b600080604083850312156140d357600080fd5b82356140de81613cd9565b915060208301356140ee81614095565b809150509250929050565b6000806000806080858703121561410f57600080fd5b843561411a81613cd9565b9350602085013561412a81613cd9565b92506040850135915060608501356001600160401b0381111561414c57600080fd5b61415887828801613f80565b91505092959194509250565b600082601f83011261417557600080fd5b81356020614185613d4883613cb6565b82815260059290921b840181019181810190868411156141a457600080fd5b8286015b848110156141c85780356141bb81613da5565b83529183019183016141a8565b509695505050505050565b600082601f8301126141e457600080fd5b813560206141f4613d4883613cb6565b82815260059290921b8401810191818101908684111561421357600080fd5b8286015b848110156141c85780356001600160401b038111156142365760008081fd5b6142448986838b0101613f80565b845250918301918301614217565b600080600080600080600060e0888a03121561426d57600080fd5b61427688613cee565b965061428460208901613db7565b955061429260408901613db7565b945060608801356001600160401b03808211156142ae57600080fd5b6142ba8b838c01614164565b955060808a01359150808211156142d057600080fd5b6142dc8b838c01613f80565b945060a08a01359150808211156142f257600080fd5b6142fe8b838c01614164565b935060c08a013591508082111561431457600080fd5b506143218a828b016141d3565b91505092959891949750929550565b6000806040838503121561434357600080fd5b823561434e81613cd9565b915060208301356140ee81613cd9565b634e487b7160e01b600052603260045260246000fd5b634e487b7160e01b600052601160045260246000fd5b6000821982111561439d5761439d614374565b500190565b8051613cf981613da5565b8051613cf981613cd9565b600082601f8301126143c957600080fd5b815160206143d9613d4883613cb6565b82815260059290921b840181019181810190868411156143f857600080fd5b8286015b848110156141c857805161440f81613da5565b83529183019183016143fc565b600082601f83011261442d57600080fd5b815161443b613d4882613f59565b81815284602083860101111561445057600080fd5b611c8a826020830160208701613ddf565b600082601f83011261447257600080fd5b81516020614482613d4883613cb6565b82815260059290921b840181019181810190868411156144a157600080fd5b8286015b848110156141c85780516001600160401b038111156144c45760008081fd5b6144d28986838b010161441c565b8452509183019183016144a5565b600082601f8301126144f157600080fd5b81516020614501613d4883613cb6565b82815260059290921b8401810191818101908684111561452057600080fd5b8286015b848110156141c857805161453781613cd9565b8352918301918301614524565b60006020828403121561455657600080fd5b81516001600160401b038082111561456d57600080fd5b90830190610120828603121561458257600080fd5b61458a613c5d565b614593836143a2565b81526145a1602084016143a2565b60208201526145b2604084016143a2565b60408201526145c3606084016143ad565b60608201526080830151828111156145da57600080fd5b6145e6878286016143b8565b60808301525060a0830151828111156145fe57600080fd5b61460a8782860161441c565b60a08301525060c08301518281111561462257600080fd5b61462e878286016143b8565b60c08301525060e08301518281111561464657600080fd5b61465287828601614461565b60e083015250610100808401518381111561466c57600080fd5b614678888287016144e0565b918301919091525095945050505050565b60006020828403121561469b57600080fd5b8151613c4081614095565b6000602082840312156146b857600080fd5b815160ff81168114613c4057600080fd5b60208082526008908201526772652d656e74727960c01b604082015260600190565b600181811c908216806146ff57607f821691505b6020821081141561472057634e487b7160e01b600052602260045260246000fd5b50919050565b6020808252600c908201526b3737ba103232b83637bcb2b960a11b604082015260600190565b6020808252600990820152686d6178537570706c7960b81b604082015260600190565b60006020828403121561478157600080fd5b5051919050565b60008282101561479a5761479a614374565b500390565b6020808252600c908201526b1c1c995d9a595dd0dbdd5b9d60a21b604082015260600190565b6001600160a01b03929092168252602082015260400190565b6020808252600c908201526b1b9bdd08185c1c1c9bdd995960a21b604082015260600190565b60006020828403121561481657600080fd5b81516001600160401b0381111561482c57600080fd5b611c8a8482850161441c565b6001600160a01b03919091168152604060208201819052600990820152681d5cda5b99d49bdbdd60ba1b606082015260800190565b6000845161487f818460208901613ddf565b845190830190614893818360208901613ddf565b84519101906148a6818360208801613ddf565b0195945050505050565b6000602082840312156148c257600080fd5b8151613c4081613cd9565b600063ffffffff8083168185168083038211156148ec576148ec614374565b01949350505050565b63ffffffff841681526001600160a01b0383166020820152606060408201819052600090613b6b90830184613e0b565b6001600160a01b0392909216825263ffffffff16602082015260400190565b60208082526017908201527664697361626c6552656769737465726564546f6b656e7360481b604082015260600190565b600081518084526020808501945080840160005b838110156149ab57815163ffffffff1687529582019590820190600101614989565b509495945050505050565b600081518084526020808501808196508360051b8101915082860160005b858110156149fe5782840389526149ec848351613e0b565b988501989350908401906001016149d4565b5091979650505050505050565b600081518084526020808501945080840160005b838110156149ab5781516001600160a01b031687529582019590820190600101614a1f565b63ffffffff8316815260406020820152614a6760408201835163ffffffff169052565b60006020830151614a80606084018263ffffffff169052565b50604083015163ffffffff811660808401525060608301516001600160a01b03811660a08401525060808301516101208060c0850152614ac4610160850183614975565b915060a0850151603f19808685030160e0870152614ae28483613e0b565b935060c08701519150610100818786030181880152614b018584614975565b945060e08801519250818786030184880152614b1d85846149b6565b94508088015193505080868503016101408701525050614b3d8282614a0b565b9695505050505050565b600063ffffffff80831681811415614b6157614b61614374565b6001019392505050565b63ffffffff83168152604060208201526000611c8a6040830184613e0b565b6000600019821415614b9e57614b9e614374565b5060010190565b600082614bc257634e487b7160e01b600052601260045260246000fd5b500490565b6000816000190483118215151615614be157614be1614374565b500290565b600060ff821660ff84168060ff03821115614c0357614c03614374565b019392505050565b602081526000613c406020830184614975565b63ffffffff8a811682528981166020830152881660408201526001600160a01b038716606082015261012060808201819052600090614c5f83820189613e0b565b905082810360a0840152614c738188613e0b565b905082810360c0840152614c878187614975565b905082810360e0840152614c9b81866149b6565b9050828103610100840152614cb08185614a0b565b9c9b505050505050505050505050565b6001600160a01b0385811682528416602082015260408101839052608060608201819052600090614b3d90830184613e0b565b600060208284031215614d0557600080fd5b8151613c4081613c0d56fe68747470733a2f2f6261667962656968786d646b6d76766a6b736b746f7765687976777168363262776e7634766a61366c6c626c376b627a7662726765653561696d752e697066732e7733732e6c696e6b2f64656661756c745f7572692e6a736f6ea2646970667358221220aff772871147971b58dae7c01e1e8cf8cf3c32a7eb5a491ceaac3f7e8f241ad964736f6c634300080c0033",
  "linkReferences": {},
  "deployedLinkReferences": {}
}