{
  "_format": "hh-sol-artifact-1",
  "contractName": "InfinityMintProject",
  "sourceName": "alpha/InfinityMintProject.sol",
  "abi": [
    {
      "anonymous": false,
      "inputs": [
        {
          "indexed": true,
          "internalType": "address",
          "name": "sender",
          "type": "address"
        },
        {
          "indexed": true,
          "internalType": "address",
          "name": "changee",
          "type": "address"
        },
        {
          "indexed": false,
          "internalType": "bool",
          "name": "value",
          "type": "bool"
        }
      ],
      "name": "PermissionChange",
      "type": "event"
    },
    {
      "anonymous": false,
      "inputs": [
        {
          "indexed": true,
          "internalType": "address",
          "name": "from",
          "type": "address"
        },
        {
          "indexed": true,
          "internalType": "address",
          "name": "to",
          "type": "address"
        }
      ],
      "name": "TransferedOwnership",
      "type": "event"
    },
    {
      "inputs": [
        {
          "internalType": "address",
          "name": "",
          "type": "address"
        }
      ],
      "name": "approved",
      "outputs": [
        {
          "internalType": "bool",
          "name": "",
          "type": "bool"
        }
      ],
      "stateMutability": "view",
      "type": "function"
    },
    {
      "inputs": [],
      "name": "deployer",
      "outputs": [
        {
          "internalType": "address",
          "name": "",
          "type": "address"
        }
      ],
      "stateMutability": "view",
      "type": "function"
    },
    {
      "inputs": [],
      "name": "getCurrentTag",
      "outputs": [
        {
          "internalType": "bytes",
          "name": "",
          "type": "bytes"
        }
      ],
      "stateMutability": "view",
      "type": "function"
    },
    {
      "inputs": [],
      "name": "getCurrentVersion",
      "outputs": [
        {
          "internalType": "uint256",
          "name": "",
          "type": "uint256"
        }
      ],
      "stateMutability": "view",
      "type": "function"
    },
    {
      "inputs": [],
      "name": "getProject",
      "outputs": [
        {
          "internalType": "bytes",
          "name": "",
          "type": "bytes"
        }
      ],
      "stateMutability": "view",
      "type": "function"
    },
    {
      "inputs": [],
      "name": "getUpdates",
      "outputs": [
        {
          "internalType": "bytes[]",
          "name": "updates",
          "type": "bytes[]"
        }
      ],
      "stateMutability": "view",
      "type": "function"
    },
    {
      "inputs": [
        {
          "internalType": "uint256",
          "name": "version",
          "type": "uint256"
        }
      ],
      "name": "getVersion",
      "outputs": [
        {
          "internalType": "bytes",
          "name": "encodedProject",
          "type": "bytes"
        },
        {
          "internalType": "bytes",
          "name": "encodedTag",
          "type": "bytes"
        },
        {
          "internalType": "bytes",
          "name": "encodedInitialProject",
          "type": "bytes"
        }
      ],
      "stateMutability": "view",
      "type": "function"
    },
    {
      "inputs": [],
      "name": "getVersions",
      "outputs": [
        {
          "internalType": "uint256",
          "name": "",
          "type": "uint256"
        }
      ],
      "stateMutability": "view",
      "type": "function"
    },
    {
      "inputs": [
        {
          "internalType": "address",
          "name": "addr",
          "type": "address"
        }
      ],
      "name": "isAuthenticated",
      "outputs": [
        {
          "internalType": "bool",
          "name": "",
          "type": "bool"
        }
      ],
      "stateMutability": "view",
      "type": "function"
    },
    {
      "inputs": [
        {
          "internalType": "address[]",
          "name": "addrs",
          "type": "address[]"
        }
      ],
      "name": "multiApprove",
      "outputs": [],
      "stateMutability": "nonpayable",
      "type": "function"
    },
    {
      "inputs": [
        {
          "internalType": "address[]",
          "name": "addrs",
          "type": "address[]"
        }
      ],
      "name": "multiRevoke",
      "outputs": [],
      "stateMutability": "nonpayable",
      "type": "function"
    },
    {
      "inputs": [
        {
          "internalType": "bytes",
          "name": "project",
          "type": "bytes"
        }
      ],
      "name": "setInitialProject",
      "outputs": [],
      "stateMutability": "nonpayable",
      "type": "function"
    },
    {
      "inputs": [
        {
          "internalType": "address",
          "name": "addr",
          "type": "address"
        },
        {
          "internalType": "bool",
          "name": "value",
          "type": "bool"
        }
      ],
      "name": "setPrivilages",
      "outputs": [],
      "stateMutability": "nonpayable",
      "type": "function"
    },
    {
      "inputs": [
        {
          "internalType": "uint256",
          "name": "version",
          "type": "uint256"
        }
      ],
      "name": "setVersion",
      "outputs": [],
      "stateMutability": "nonpayable",
      "type": "function"
    },
    {
      "inputs": [
        {
          "internalType": "address",
          "name": "addr",
          "type": "address"
        }
      ],
      "name": "transferOwnership",
      "outputs": [],
      "stateMutability": "nonpayable",
      "type": "function"
    },
    {
      "inputs": [
        {
          "internalType": "bytes",
          "name": "project",
          "type": "bytes"
        },
        {
          "internalType": "bytes",
          "name": "tag",
          "type": "bytes"
        },
        {
          "internalType": "bool",
          "name": "setAsCurrentVersion",
          "type": "bool"
        }
      ],
      "name": "updateProject",
      "outputs": [],
      "stateMutability": "nonpayable",
      "type": "function"
    }
  ],
  "bytecode": "0x60806040526000600655600060075534801561001a57600080fd5b50600080546001600160a01b0319163390811782558152600260205260408120805460ff191660019081179091555561157b806100586000396000f3fe608060405234801561001057600080fd5b50600436106100d05760003560e01c80630b98a032146100d557806310a8c7a9146100ea57806331ed86d2146100fd578063408def1e146101105780634e275bcb146101235780636d0cc895146101415780636e57b70014610153578063a8a1d2731461015b578063b88da75914610170578063c13a474414610192578063d15d4150146101a5578063d5f39488146101c8578063d8b964e6146101f3578063f2fde38b14610216578063fabec44a14610229578063fe684c0e14610231575b600080fd5b6100e86100e3366004611082565b610244565b005b6100e86100f836600461110c565b61046b565b6100e861010b36600461110c565b610502565b6100e861011e3660046111b8565b610595565b61012b610666565b604051610138919061122d565b60405180910390f35b6006545b604051908152602001610138565b61012b610709565b6101636107e3565b6040516101389190611247565b61018361017e3660046111b8565b610a1d565b604051610138939291906112a9565b6100e86101a03660046112ec565b610c19565b6101b86101b3366004611328565b610d67565b6040519015158152602001610138565b6000546101db906001600160a01b031681565b6040516001600160a01b039091168152602001610138565b6101b8610201366004611328565b60026020526000908152604090205460ff1681565b6100e8610224366004611328565b610da2565b600754610145565b6100e861023f366004611343565b610e42565b6000546001600160a01b031633148061026c57503360009081526002602052604090205460ff165b6102915760405162461bcd60e51b815260040161028890611376565b60405180910390fd5b82516102af5760405162461bcd60e51b81526004016102889061139c565b81516102ed5760405162461bcd60e51b815260206004820152600d60248201526c189b185b9ac81d1859c81cd95d609a1b6044820152606401610288565b6005826040516102fd91906113c7565b90815260200160405180910390208054610316906113e3565b1590506103575760405162461bcd60e51b815260206004820152600f60248201526e1d1859c8185b1c9958591e481cd95d608a1b6044820152606401610288565b6006546103b25760405162461bcd60e51b815260206004820152602360248201527f696e697469616c2070726f6a656374206e6f7420736574206279206465706c6f6044820152623cb2b960e91b6064820152608401610288565b600654600090815260036020908152604090912084516103d492860190610f24565b50600654600090815260046020908152604090912083516103f792850190610f24565b50825160405161040f9133914291439160200161141e565b60405160208183030381529060405260058360405161042e91906113c7565b9081526020016040518091039020908051906020019061044f929190610f24565b50801561045d576006546007555b505060068054600101905550565b6000546001600160a01b031633146104955760405162461bcd60e51b815260040161028890611444565b80516104a057600080fd5b60005b81518110156104fe576001600260008484815181106104c4576104c461146a565b6020908102919091018101516001600160a01b03168252810191909152604001600020805460ff19169115159190911790556001016104a3565b5050565b6000546001600160a01b0316331461052c5760405162461bcd60e51b815260040161028890611444565b805161053757600080fd5b60005b81518110156104fe5760006002600084848151811061055b5761055b61146a565b6020908102919091018101516001600160a01b03168252810191909152604001600020805460ff191691151591909117905560010161053a565b6000546001600160a01b03163314806105bd57503360009081526002602052604090205460ff165b6105d95760405162461bcd60e51b815260040161028890611376565b600654811080156105ea5750600081115b6106285760405162461bcd60e51b815260206004820152600f60248201526e34b73b30b634b2103b32b939b4b7b760891b6044820152606401610288565b60008181526003602052604090208054610641906113e3565b151590506106615760405162461bcd60e51b81526004016102889061139c565b600755565b6007546000908152600460205260409020805460609190610686906113e3565b80601f01602080910402602001604051908101604052809291908181526020018280546106b2906113e3565b80156106ff5780601f106106d4576101008083540402835291602001916106ff565b820191906000526020600020905b8154815290600101906020018083116106e257829003601f168201915b5050505050905090565b60075460009081526003602052604081208054606092919061072a906113e3565b80601f0160208091040260200160405190810160405280929190818152602001828054610756906113e3565b80156107a35780601f10610778576101008083540402835291602001916107a3565b820191906000526020600020905b81548152906001019060200180831161078657829003601f168201915b505050505090508051600014156107de57505060408051808201909152600e81526d7b276c6f63616c273a747275657d60901b602082015290565b919050565b60606000805b60065481101561086d576000818152600460205260409020805461080c906113e3565b1580159150610852575060008181526004602052604090819020905160059161083491611480565b9081526020016040518091039020805461084d906113e3565b151590505b1561086557816108618161151c565b9250505b6001016107e9565b50806001600160401b0381111561088657610886610fbd565b6040519080825280602002602001820160405280156108b957816020015b60608152602001906001900390816108a45790505b5091506000905060005b600654811015610a1857600081815260046020526040902080546108e6906113e3565b158015915061092c575060008181526004602052604090819020905160059161090e91611480565b90815260200160405180910390208054610927906113e3565b151590505b15610a105760008181526004602052604090819020905160059161094f91611480565b90815260200160405180910390208054610968906113e3565b80601f0160208091040260200160405190810160405280929190818152602001828054610994906113e3565b80156109e15780601f106109b6576101008083540402835291602001916109e1565b820191906000526020600020905b8154815290600101906020018083116109c457829003601f168201915b50505050508383806109f29061151c565b945081518110610a0457610a0461146a565b60200260200101819052505b6001016108c3565b505090565b6000818152600360208181526040808420600483529084209380529190528054606092839283929091907f3617319a054d772f909f7c479a2cebe5066e836a939412e32403c99029b92eff908390610a74906113e3565b80601f0160208091040260200160405190810160405280929190818152602001828054610aa0906113e3565b8015610aed5780601f10610ac257610100808354040283529160200191610aed565b820191906000526020600020905b815481529060010190602001808311610ad057829003601f168201915b50505050509250818054610b00906113e3565b80601f0160208091040260200160405190810160405280929190818152602001828054610b2c906113e3565b8015610b795780601f10610b4e57610100808354040283529160200191610b79565b820191906000526020600020905b815481529060010190602001808311610b5c57829003601f168201915b50505050509150808054610b8c906113e3565b80601f0160208091040260200160405190810160405280929190818152602001828054610bb8906113e3565b8015610c055780601f10610bda57610100808354040283529160200191610c05565b820191906000526020600020905b815481529060010190602001808311610be857829003601f168201915b505050505090509250925092509193909250565b6000546001600160a01b03163314610c435760405162461bcd60e51b815260040161028890611444565b60065415610c915760405162461bcd60e51b815260206004820152601b60248201527a1a5b9a5d1a585b081c1c9bda9958dd08185b1c9958591e481cd95d602a1b6044820152606401610288565b60065460009081526003602090815260409091208251610cb392840190610f24565b5060408051808201825260078152661a5b9a5d1a585b60ca1b602080830191825260065460009081526004909152929092209051610cf19290610f24565b508051604051610d099133914291439160200161141e565b6040516020818303038152906040526005604051610d3490661a5b9a5d1a585b60ca1b815260070190565b90815260200160405180910390209080519060200190610d55929190610f24565b50506000600755600680546001019055565b600080546001600160a01b0383811691161480610d9c57506001600160a01b03821660009081526002602052604090205460ff165b92915050565b6000546001600160a01b03163314610dcc5760405162461bcd60e51b815260040161028890611444565b600080546001600160a01b03908116825260026020526040808320805460ff1990811690915583546001600160a01b03191692851692831784558284528184208054909116600117905551909133917f93091b3f3cd424efabc74e181f3799f3476ed758412561ed3b29515c51f567529190a350565b6000546001600160a01b03163314610e6c5760405162461bcd60e51b815260040161028890611444565b6000546001600160a01b0383811691161415610ec35760405162461bcd60e51b815260206004820152601660248201527531b0b73737ba1036b7b234b33c903232b83637bcb2b960511b6044820152606401610288565b6001600160a01b038216600081815260026020908152604091829020805460ff1916851515908117909155915191825233917ff38de818d000d07d091732dd783c6855722d7bc1934d92b7635133289d341695910160405180910390a35050565b828054610f30906113e3565b90600052602060002090601f016020900481019282610f525760008555610f98565b82601f10610f6b57805160ff1916838001178555610f98565b82800160010185558215610f98579182015b82811115610f98578251825591602001919060010190610f7d565b50610fa4929150610fa8565b5090565b5b80821115610fa45760008155600101610fa9565b634e487b7160e01b600052604160045260246000fd5b604051601f8201601f191681016001600160401b0381118282101715610ffb57610ffb610fbd565b604052919050565b600082601f83011261101457600080fd5b81356001600160401b0381111561102d5761102d610fbd565b611040601f8201601f1916602001610fd3565b81815284602083860101111561105557600080fd5b816020850160208301376000918101602001919091529392505050565b803580151581146107de57600080fd5b60008060006060848603121561109757600080fd5b83356001600160401b03808211156110ae57600080fd5b6110ba87838801611003565b945060208601359150808211156110d057600080fd5b506110dd86828701611003565b9250506110ec60408501611072565b90509250925092565b80356001600160a01b03811681146107de57600080fd5b6000602080838503121561111f57600080fd5b82356001600160401b038082111561113657600080fd5b818501915085601f83011261114a57600080fd5b81358181111561115c5761115c610fbd565b8060051b915061116d848301610fd3565b818152918301840191848101908884111561118757600080fd5b938501935b838510156111ac5761119d856110f5565b8252938501939085019061118c565b98975050505050505050565b6000602082840312156111ca57600080fd5b5035919050565b60005b838110156111ec5781810151838201526020016111d4565b838111156111fb576000848401525b50505050565b600081518084526112198160208601602086016111d1565b601f01601f19169290920160200192915050565b6020815260006112406020830184611201565b9392505050565b6000602080830181845280855180835260408601915060408160051b870101925083870160005b8281101561129c57603f1988860301845261128a858351611201565b9450928501929085019060010161126e565b5092979650505050505050565b6060815260006112bc6060830186611201565b82810360208401526112ce8186611201565b905082810360408401526112e28185611201565b9695505050505050565b6000602082840312156112fe57600080fd5b81356001600160401b0381111561131457600080fd5b61132084828501611003565b949350505050565b60006020828403121561133a57600080fd5b611240826110f5565b6000806040838503121561135657600080fd5b61135f836110f5565b915061136d60208401611072565b90509250929050565b6020808252600c908201526b1b9bdd08185c1c1c9bdd995960a21b604082015260600190565b602080825260119082015270189b185b9ac81c1c9bda9958dd081cd95d607a1b604082015260600190565b600082516113d98184602087016111d1565b9190910192915050565b600181811c908216806113f757607f821691505b6020821081141561141857634e487b7160e01b600052602260045260246000fd5b50919050565b6001600160a01b0394909416845260208401929092526040830152606082015260800190565b6020808252600c908201526b3737ba103232b83637bcb2b960a11b604082015260600190565b634e487b7160e01b600052603260045260246000fd5b600080835481600182811c91508083168061149c57607f831692505b60208084108214156114bc57634e487b7160e01b86526022600452602486fd5b8180156114d057600181146114e15761150e565b60ff1986168952848901965061150e565b60008a81526020902060005b868110156115065781548b8201529085019083016114ed565b505084890196505b509498975050505050505050565b600060001982141561153e57634e487b7160e01b600052601160045260246000fd5b506001019056fea2646970667358221220254f6743df4fcc0e777f30cccfacee83c635b7d53bd3383a2c4315c3a085f29d64736f6c634300080c0033",
  "linkReferences": {},
  "deployedLinkReferences": {}
}