{
  "_format": "hh-sol-artifact-1",
  "contractName": "EADStickers",
  "sourceName": "alpha/legacy/EADStickers.sol",
  "abi": [
    {
      "inputs": [
        {
          "internalType": "uint32",
          "name": "tokenId",
          "type": "uint32"
        },
        {
          "internalType": "address",
          "name": "erc721Destination",
          "type": "address"
        },
        {
          "internalType": "address",
          "name": "EASWalletAddress",
          "type": "address"
        },
        {
          "internalType": "address",
          "name": "valuesContract",
          "type": "address"
        }
      ],
      "stateMutability": "nonpayable",
      "type": "constructor"
    },
    {
      "anonymous": false,
      "inputs": [
        {
          "indexed": true,
          "internalType": "address",
          "name": "owner",
          "type": "address"
        },
        {
          "indexed": true,
          "internalType": "address",
          "name": "approved",
          "type": "address"
        },
        {
          "indexed": true,
          "internalType": "uint256",
          "name": "tokenId",
          "type": "uint256"
        }
      ],
      "name": "Approval",
      "type": "event"
    },
    {
      "anonymous": false,
      "inputs": [
        {
          "indexed": true,
          "internalType": "address",
          "name": "owner",
          "type": "address"
        },
        {
          "indexed": true,
          "internalType": "address",
          "name": "operator",
          "type": "address"
        },
        {
          "indexed": false,
          "internalType": "bool",
          "name": "approved",
          "type": "bool"
        }
      ],
      "name": "ApprovalForAll",
      "type": "event"
    },
    {
      "anonymous": false,
      "inputs": [
        {
          "indexed": false,
          "internalType": "uint32",
          "name": "stickerId",
          "type": "uint32"
        },
        {
          "indexed": true,
          "internalType": "address",
          "name": "sender",
          "type": "address"
        },
        {
          "indexed": false,
          "internalType": "uint256",
          "name": "price",
          "type": "uint256"
        },
        {
          "indexed": false,
          "internalType": "bytes",
          "name": "packed",
          "type": "bytes"
        }
      ],
      "name": "EASRequestAccepted",
      "type": "event"
    },
    {
      "anonymous": false,
      "inputs": [
        {
          "indexed": false,
          "internalType": "uint32",
          "name": "requestId",
          "type": "uint32"
        },
        {
          "indexed": true,
          "internalType": "address",
          "name": "sender",
          "type": "address"
        },
        {
          "indexed": false,
          "internalType": "uint256",
          "name": "price",
          "type": "uint256"
        },
        {
          "indexed": false,
          "internalType": "bytes",
          "name": "packed",
          "type": "bytes"
        }
      ],
      "name": "EASRequestAdded",
      "type": "event"
    },
    {
      "anonymous": false,
      "inputs": [
        {
          "indexed": false,
          "internalType": "uint32",
          "name": "requestId",
          "type": "uint32"
        },
        {
          "indexed": true,
          "internalType": "address",
          "name": "sender",
          "type": "address"
        },
        {
          "indexed": false,
          "internalType": "uint256",
          "name": "price",
          "type": "uint256"
        },
        {
          "indexed": false,
          "internalType": "bytes",
          "name": "packed",
          "type": "bytes"
        }
      ],
      "name": "EASRequestDenied",
      "type": "event"
    },
    {
      "anonymous": false,
      "inputs": [
        {
          "indexed": false,
          "internalType": "uint32",
          "name": "requestId",
          "type": "uint32"
        },
        {
          "indexed": true,
          "internalType": "address",
          "name": "sender",
          "type": "address"
        },
        {
          "indexed": false,
          "internalType": "uint256",
          "name": "price",
          "type": "uint256"
        },
        {
          "indexed": false,
          "internalType": "bytes",
          "name": "packed",
          "type": "bytes"
        }
      ],
      "name": "EASRequestWithdrew",
      "type": "event"
    },
    {
      "anonymous": false,
      "inputs": [
        {
          "indexed": false,
          "internalType": "uint32",
          "name": "requestId",
          "type": "uint32"
        },
        {
          "indexed": true,
          "internalType": "address",
          "name": "sender",
          "type": "address"
        },
        {
          "indexed": false,
          "internalType": "uint256",
          "name": "price",
          "type": "uint256"
        },
        {
          "indexed": false,
          "internalType": "bytes",
          "name": "packed",
          "type": "bytes"
        }
      ],
      "name": "EASStickerUpdated",
      "type": "event"
    },
    {
      "anonymous": false,
      "inputs": [
        {
          "indexed": true,
          "internalType": "address",
          "name": "sender",
          "type": "address"
        },
        {
          "indexed": true,
          "internalType": "address",
          "name": "changee",
          "type": "address"
        },
        {
          "indexed": false,
          "internalType": "bool",
          "name": "value",
          "type": "bool"
        }
      ],
      "name": "PermissionChange",
      "type": "event"
    },
    {
      "anonymous": false,
      "inputs": [
        {
          "indexed": true,
          "internalType": "address",
          "name": "from",
          "type": "address"
        },
        {
          "indexed": true,
          "internalType": "address",
          "name": "to",
          "type": "address"
        },
        {
          "indexed": true,
          "internalType": "uint256",
          "name": "tokenId",
          "type": "uint256"
        }
      ],
      "name": "Transfer",
      "type": "event"
    },
    {
      "anonymous": false,
      "inputs": [
        {
          "indexed": true,
          "internalType": "address",
          "name": "from",
          "type": "address"
        },
        {
          "indexed": true,
          "internalType": "address",
          "name": "to",
          "type": "address"
        }
      ],
      "name": "TransferedOwnership",
      "type": "event"
    },
    {
      "inputs": [],
      "name": "EASWallet",
      "outputs": [
        {
          "internalType": "contract Wallet",
          "name": "",
          "type": "address"
        }
      ],
      "stateMutability": "view",
      "type": "function"
    },
    {
      "inputs": [
        {
          "internalType": "address",
          "name": "sender",
          "type": "address"
        },
        {
          "internalType": "uint32",
          "name": "index",
          "type": "uint32"
        }
      ],
      "name": "acceptRequest",
      "outputs": [],
      "stateMutability": "nonpayable",
      "type": "function"
    },
    {
      "inputs": [
        {
          "internalType": "bytes",
          "name": "packed",
          "type": "bytes"
        }
      ],
      "name": "addRequest",
      "outputs": [],
      "stateMutability": "payable",
      "type": "function"
    },
    {
      "inputs": [
        {
          "internalType": "address",
          "name": "_to",
          "type": "address"
        },
        {
          "internalType": "uint256",
          "name": "_tokenId",
          "type": "uint256"
        }
      ],
      "name": "approve",
      "outputs": [],
      "stateMutability": "nonpayable",
      "type": "function"
    },
    {
      "inputs": [
        {
          "internalType": "address",
          "name": "",
          "type": "address"
        }
      ],
      "name": "approved",
      "outputs": [
        {
          "internalType": "bool",
          "name": "",
          "type": "bool"
        }
      ],
      "stateMutability": "view",
      "type": "function"
    },
    {
      "inputs": [
        {
          "internalType": "address",
          "name": "_owner",
          "type": "address"
        }
      ],
      "name": "balanceOf",
      "outputs": [
        {
          "internalType": "uint256",
          "name": "",
          "type": "uint256"
        }
      ],
      "stateMutability": "view",
      "type": "function"
    },
    {
      "inputs": [
        {
          "internalType": "uint32",
          "name": "stickerId",
          "type": "uint32"
        }
      ],
      "name": "burn",
      "outputs": [],
      "stateMutability": "nonpayable",
      "type": "function"
    },
    {
      "inputs": [],
      "name": "currentStickerId",
      "outputs": [
        {
          "internalType": "uint32",
          "name": "",
          "type": "uint32"
        }
      ],
      "stateMutability": "view",
      "type": "function"
    },
    {
      "inputs": [],
      "name": "currentTokenId",
      "outputs": [
        {
          "internalType": "uint32",
          "name": "",
          "type": "uint32"
        }
      ],
      "stateMutability": "view",
      "type": "function"
    },
    {
      "inputs": [
        {
          "internalType": "address",
          "name": "sender",
          "type": "address"
        },
        {
          "internalType": "uint32",
          "name": "index",
          "type": "uint32"
        }
      ],
      "name": "denyRequest",
      "outputs": [],
      "stateMutability": "nonpayable",
      "type": "function"
    },
    {
      "inputs": [],
      "name": "deployer",
      "outputs": [
        {
          "internalType": "address",
          "name": "",
          "type": "address"
        }
      ],
      "stateMutability": "view",
      "type": "function"
    },
    {
      "inputs": [],
      "name": "erc721",
      "outputs": [
        {
          "internalType": "address",
          "name": "",
          "type": "address"
        }
      ],
      "stateMutability": "view",
      "type": "function"
    },
    {
      "inputs": [],
      "name": "erc721TokenId",
      "outputs": [
        {
          "internalType": "uint256",
          "name": "",
          "type": "uint256"
        }
      ],
      "stateMutability": "view",
      "type": "function"
    },
    {
      "inputs": [
        {
          "internalType": "uint256",
          "name": "_tokenId",
          "type": "uint256"
        }
      ],
      "name": "exists",
      "outputs": [
        {
          "internalType": "bool",
          "name": "",
          "type": "bool"
        }
      ],
      "stateMutability": "view",
      "type": "function"
    },
    {
      "inputs": [
        {
          "internalType": "uint256",
          "name": "_tokenId",
          "type": "uint256"
        }
      ],
      "name": "getApproved",
      "outputs": [
        {
          "internalType": "address",
          "name": "",
          "type": "address"
        }
      ],
      "stateMutability": "view",
      "type": "function"
    },
    {
      "inputs": [],
      "name": "getIntegrity",
      "outputs": [
        {
          "internalType": "address",
          "name": "",
          "type": "address"
        },
        {
          "internalType": "address",
          "name": "",
          "type": "address"
        },
        {
          "internalType": "uint256",
          "name": "",
          "type": "uint256"
        },
        {
          "internalType": "bytes",
          "name": "",
          "type": "bytes"
        },
        {
          "internalType": "bytes4",
          "name": "",
          "type": "bytes4"
        }
      ],
      "stateMutability": "view",
      "type": "function"
    },
    {
      "inputs": [],
      "name": "getMyRequests",
      "outputs": [
        {
          "internalType": "bytes[]",
          "name": "result",
          "type": "bytes[]"
        }
      ],
      "stateMutability": "view",
      "type": "function"
    },
    {
      "inputs": [],
      "name": "getRequestCount",
      "outputs": [
        {
          "internalType": "uint256",
          "name": "",
          "type": "uint256"
        }
      ],
      "stateMutability": "view",
      "type": "function"
    },
    {
      "inputs": [],
      "name": "getRequests",
      "outputs": [
        {
          "internalType": "bytes[]",
          "name": "result",
          "type": "bytes[]"
        }
      ],
      "stateMutability": "view",
      "type": "function"
    },
    {
      "inputs": [
        {
          "internalType": "uint32",
          "name": "stickerId",
          "type": "uint32"
        }
      ],
      "name": "getSticker",
      "outputs": [
        {
          "internalType": "bytes",
          "name": "result",
          "type": "bytes"
        }
      ],
      "stateMutability": "view",
      "type": "function"
    },
    {
      "inputs": [],
      "name": "getStickerCount",
      "outputs": [
        {
          "internalType": "uint256",
          "name": "",
          "type": "uint256"
        }
      ],
      "stateMutability": "view",
      "type": "function"
    },
    {
      "inputs": [],
      "name": "getStickers",
      "outputs": [
        {
          "internalType": "uint32[]",
          "name": "result",
          "type": "uint32[]"
        }
      ],
      "stateMutability": "view",
      "type": "function"
    },
    {
      "inputs": [
        {
          "internalType": "address",
          "name": "_owner",
          "type": "address"
        },
        {
          "internalType": "address",
          "name": "_operator",
          "type": "address"
        }
      ],
      "name": "isApprovedForAll",
      "outputs": [
        {
          "internalType": "bool",
          "name": "",
          "type": "bool"
        }
      ],
      "stateMutability": "view",
      "type": "function"
    },
    {
      "inputs": [
        {
          "internalType": "address",
          "name": "addr",
          "type": "address"
        },
        {
          "internalType": "uint256",
          "name": "tokenId",
          "type": "uint256"
        }
      ],
      "name": "isApprovedOrOwner",
      "outputs": [
        {
          "internalType": "bool",
          "name": "",
          "type": "bool"
        }
      ],
      "stateMutability": "view",
      "type": "function"
    },
    {
      "inputs": [
        {
          "internalType": "address",
          "name": "addr",
          "type": "address"
        }
      ],
      "name": "isAuthenticated",
      "outputs": [
        {
          "internalType": "bool",
          "name": "",
          "type": "bool"
        }
      ],
      "stateMutability": "view",
      "type": "function"
    },
    {
      "inputs": [
        {
          "internalType": "uint32",
          "name": "stickerId",
          "type": "uint32"
        }
      ],
      "name": "isStickerFlagged",
      "outputs": [
        {
          "internalType": "bool",
          "name": "",
          "type": "bool"
        },
        {
          "internalType": "string",
          "name": "",
          "type": "string"
        }
      ],
      "stateMutability": "view",
      "type": "function"
    },
    {
      "inputs": [
        {
          "internalType": "address[]",
          "name": "addrs",
          "type": "address[]"
        }
      ],
      "name": "multiApprove",
      "outputs": [],
      "stateMutability": "nonpayable",
      "type": "function"
    },
    {
      "inputs": [
        {
          "internalType": "address[]",
          "name": "addrs",
          "type": "address[]"
        }
      ],
      "name": "multiRevoke",
      "outputs": [],
      "stateMutability": "nonpayable",
      "type": "function"
    },
    {
      "inputs": [],
      "name": "name",
      "outputs": [
        {
          "internalType": "string",
          "name": "",
          "type": "string"
        }
      ],
      "stateMutability": "view",
      "type": "function"
    },
    {
      "inputs": [
        {
          "internalType": "uint256",
          "name": "",
          "type": "uint256"
        }
      ],
      "name": "openRequests",
      "outputs": [
        {
          "internalType": "address",
          "name": "",
          "type": "address"
        }
      ],
      "stateMutability": "view",
      "type": "function"
    },
    {
      "inputs": [
        {
          "internalType": "uint256",
          "name": "_tokenId",
          "type": "uint256"
        }
      ],
      "name": "ownerOf",
      "outputs": [
        {
          "internalType": "address",
          "name": "",
          "type": "address"
        }
      ],
      "stateMutability": "view",
      "type": "function"
    },
    {
      "inputs": [
        {
          "internalType": "address",
          "name": "_from",
          "type": "address"
        },
        {
          "internalType": "address",
          "name": "_to",
          "type": "address"
        },
        {
          "internalType": "uint256",
          "name": "_tokenId",
          "type": "uint256"
        }
      ],
      "name": "safeTransferFrom",
      "outputs": [],
      "stateMutability": "nonpayable",
      "type": "function"
    },
    {
      "inputs": [
        {
          "internalType": "address",
          "name": "_from",
          "type": "address"
        },
        {
          "internalType": "address",
          "name": "_to",
          "type": "address"
        },
        {
          "internalType": "uint256",
          "name": "_tokenId",
          "type": "uint256"
        },
        {
          "internalType": "bytes",
          "name": "_data",
          "type": "bytes"
        }
      ],
      "name": "safeTransferFrom",
      "outputs": [],
      "stateMutability": "nonpayable",
      "type": "function"
    },
    {
      "inputs": [
        {
          "internalType": "address",
          "name": "_operator",
          "type": "address"
        },
        {
          "internalType": "bool",
          "name": "_approved",
          "type": "bool"
        }
      ],
      "name": "setApprovalForAll",
      "outputs": [],
      "stateMutability": "nonpayable",
      "type": "function"
    },
    {
      "inputs": [
        {
          "internalType": "bool",
          "name": "isEnabled",
          "type": "bool"
        }
      ],
      "name": "setEnabled",
      "outputs": [],
      "stateMutability": "nonpayable",
      "type": "function"
    },
    {
      "inputs": [
        {
          "internalType": "uint32",
          "name": "stickerId",
          "type": "uint32"
        },
        {
          "internalType": "bool",
          "name": "isFlagged",
          "type": "bool"
        },
        {
          "internalType": "string",
          "name": "reason",
          "type": "string"
        }
      ],
      "name": "setFlaggedSticker",
      "outputs": [],
      "stateMutability": "nonpayable",
      "type": "function"
    },
    {
      "inputs": [
        {
          "internalType": "address",
          "name": "addr",
          "type": "address"
        },
        {
          "internalType": "bool",
          "name": "value",
          "type": "bool"
        }
      ],
      "name": "setPrivilages",
      "outputs": [],
      "stateMutability": "nonpayable",
      "type": "function"
    },
    {
      "inputs": [
        {
          "internalType": "uint256",
          "name": "price",
          "type": "uint256"
        }
      ],
      "name": "setStickerPrice",
      "outputs": [],
      "stateMutability": "nonpayable",
      "type": "function"
    },
    {
      "inputs": [
        {
          "internalType": "address",
          "name": "EASWalletAddress",
          "type": "address"
        }
      ],
      "name": "setWalletAddresss",
      "outputs": [],
      "stateMutability": "nonpayable",
      "type": "function"
    },
    {
      "inputs": [],
      "name": "stickerPrice",
      "outputs": [
        {
          "internalType": "uint256",
          "name": "",
          "type": "uint256"
        }
      ],
      "stateMutability": "view",
      "type": "function"
    },
    {
      "inputs": [
        {
          "internalType": "bytes4",
          "name": "interfaceId",
          "type": "bytes4"
        }
      ],
      "name": "supportsInterface",
      "outputs": [
        {
          "internalType": "bool",
          "name": "",
          "type": "bool"
        }
      ],
      "stateMutability": "view",
      "type": "function"
    },
    {
      "inputs": [],
      "name": "symbol",
      "outputs": [
        {
          "internalType": "string",
          "name": "",
          "type": "string"
        }
      ],
      "stateMutability": "view",
      "type": "function"
    },
    {
      "inputs": [
        {
          "internalType": "uint256",
          "name": "stickerId",
          "type": "uint256"
        }
      ],
      "name": "tokenURI",
      "outputs": [
        {
          "internalType": "string",
          "name": "",
          "type": "string"
        }
      ],
      "stateMutability": "view",
      "type": "function"
    },
    {
      "inputs": [],
      "name": "totalSupply",
      "outputs": [
        {
          "internalType": "uint256",
          "name": "",
          "type": "uint256"
        }
      ],
      "stateMutability": "view",
      "type": "function"
    },
    {
      "inputs": [
        {
          "internalType": "address",
          "name": "_from",
          "type": "address"
        },
        {
          "internalType": "address",
          "name": "_to",
          "type": "address"
        },
        {
          "internalType": "uint256",
          "name": "_tokenId",
          "type": "uint256"
        }
      ],
      "name": "transferFrom",
      "outputs": [],
      "stateMutability": "nonpayable",
      "type": "function"
    },
    {
      "inputs": [
        {
          "internalType": "address",
          "name": "addr",
          "type": "address"
        }
      ],
      "name": "transferOwnership",
      "outputs": [],
      "stateMutability": "nonpayable",
      "type": "function"
    },
    {
      "inputs": [],
      "name": "transferOwnershipToTokenOwner",
      "outputs": [],
      "stateMutability": "nonpayable",
      "type": "function"
    },
    {
      "inputs": [
        {
          "internalType": "uint32",
          "name": "stickerId",
          "type": "uint32"
        },
        {
          "internalType": "bytes",
          "name": "packed",
          "type": "bytes"
        }
      ],
      "name": "updateSticker",
      "outputs": [],
      "stateMutability": "nonpayable",
      "type": "function"
    },
    {
      "inputs": [],
      "name": "valuesController",
      "outputs": [
        {
          "internalType": "contract InfinityMintValues",
          "name": "",
          "type": "address"
        }
      ],
      "stateMutability": "view",
      "type": "function"
    },
    {
      "inputs": [],
      "name": "verifyAuthenticity",
      "outputs": [
        {
          "internalType": "bool",
          "name": "",
          "type": "bool"
        }
      ],
      "stateMutability": "view",
      "type": "function"
    },
    {
      "inputs": [],
      "name": "versionType",
      "outputs": [
        {
          "internalType": "bytes",
          "name": "",
          "type": "bytes"
        }
      ],
      "stateMutability": "view",
      "type": "function"
    },
    {
      "inputs": [
        {
          "internalType": "uint32",
          "name": "index",
          "type": "uint32"
        }
      ],
      "name": "withdrawRequest",
      "outputs": [],
      "stateMutability": "nonpayable",
      "type": "function"
    }
  ],
  "bytecode": "0x60c06040526008608081905267537469636b65727360c01b60a09081526200002b916003919062000234565b503480156200003957600080fd5b506040516200495d3803806200495d8339810160408190526200005c91620002f7565b604080518082018252600c81526b22a0a2299029ba34b1b5b2b960a11b602080830191909152825180840184526004808252634541445360e01b82840152600080546001600160a01b0319908116339081178355825260028552868220805460ff1990811660019081179092559281556008805490931617909155600980546001600160a01b038916921682179055945163e7b6dac960e01b815290810192909252600e60248301526d62617365546f6b656e56616c756560901b60448301529192849163e7b6dac990606401602060405180830381865afa15801562000147573d6000803e3d6000fd5b505050506040513d601f19601f820116820180604052508101906200016d91906200035e565b6200017a90600162000378565b6005555081516200019390601290602085019062000234565b508051620001a990601390602084019062000234565b50505063ffffffff8416601455600480546001600160a01b0319166001600160a01b038581169190911790915560088054610100600160a81b0319166101009285169290920291909117905560408051808201909152600b8082526a454144537469636b65727360a81b6020909201918252620002299160039162000234565b5050505050620003e3565b8280546200024290620003a6565b90600052602060002090601f016020900481019282620002665760008555620002b1565b82601f106200028157805160ff1916838001178555620002b1565b82800160010185558215620002b1579182015b82811115620002b157825182559160200191906001019062000294565b50620002bf929150620002c3565b5090565b5b80821115620002bf5760008155600101620002c4565b80516001600160a01b0381168114620002f257600080fd5b919050565b600080600080608085870312156200030e57600080fd5b845163ffffffff811681146200032357600080fd5b93506200033360208601620002da565b92506200034360408601620002da565b91506200035360608601620002da565b905092959194509250565b6000602082840312156200037157600080fd5b5051919050565b6000816000190483118215151615620003a157634e487b7160e01b600052601160045260246000fd5b500290565b600181811c90821680620003bb57607f821691505b60208210811415620003dd57634e487b7160e01b600052602260045260246000fd5b50919050565b61456a80620003f36000396000f3fe60806040526004361061025e5760003560e01c8063780fae6611610140578063780fae66146103e75780637a5984c4146105c457806383ee7959146105e45780638813ce121461060457806388782c9c1461062657806389aae1961461063b5780638dc225091461065b57806391eace8b1461067b57806395d89b4114610690578063a22cb465146106a5578063b88d4fde146106c5578063bca6ce64146106e5578063c87b56dd14610705578063cd1a44db14610725578063d15d415014610745578063d18256e614610765578063d49a2a7c14610785578063d5f39488146107ab578063d8b964e6146107cb578063e16d93d3146107fb578063e38924351461081b578063e985e9c514610838578063f2fde38b14610858578063f4aa90c414610878578063fb5fea84146108a6578063fe684c0e146108b957600080fd5b80629a9b7b1461026357806301ffc9a7146102a157806306f5eae7146102d157806306fdde03146102fe578063081812fc14610313578063095ea7b31461034b5780630c380cf01461036d5780630e7b52c31461038d57806310a8c7a9146103a257806317239ccc146103c257806318160ddd146103e757806318ac19501461040c57806323b872dd1461042e57806324108f891461044e57806325f2858f1461046e57806331ed86d21461048e578063328d8f72146104ae57806332bd9693146104ce5780633fad1834146104e357806342842e0e146104f8578063430c2081146105185780634f558e79146105385780636352211e1461055857806364a11c5e1461057857806370a082311461058e5780637239c5ea146105ae575b600080fd5b34801561026f57600080fd5b5060045461028790600160a01b900463ffffffff1681565b60405163ffffffff90911681526020015b60405180910390f35b3480156102ad57600080fd5b506102c16102bc366004613a4a565b6108d9565b6040519015158152602001610298565b3480156102dd57600080fd5b506102f16102ec366004613a80565b61092b565b6040516102989190613af5565b34801561030a57600080fd5b506102f1610a01565b34801561031f57600080fd5b5061033361032e366004613b08565b610a93565b6040516001600160a01b039091168152602001610298565b34801561035757600080fd5b5061036b610366366004613b36565b610aae565b005b34801561037957600080fd5b50600954610333906001600160a01b031681565b34801561039957600080fd5b506102f1610c03565b3480156103ae57600080fd5b5061036b6103bd366004613ba8565b610c91565b3480156103ce57600080fd5b506008546103339061010090046001600160a01b031681565b3480156103f357600080fd5b5060065463ffffffff165b604051908152602001610298565b34801561041857600080fd5b50610421610d28565b6040516102989190613c59565b34801561043a57600080fd5b5061036b610449366004613ca3565b610e65565b34801561045a57600080fd5b5061036b610469366004613a80565b610fe0565b34801561047a57600080fd5b5061036b610489366004613ce4565b6111f2565b34801561049a57600080fd5b5061036b6104a9366004613ba8565b611437565b3480156104ba57600080fd5b5061036b6104c9366004613d2b565b6114ca565b3480156104da57600080fd5b506102c1611507565b3480156104ef57600080fd5b506103fe6115eb565b34801561050457600080fd5b5061036b610513366004613ca3565b611650565b34801561052457600080fd5b506102c1610533366004613b36565b61166b565b34801561054457600080fd5b506102c1610553366004613b08565b6116ca565b34801561056457600080fd5b50610333610573366004613b08565b6116e7565b34801561058457600080fd5b506103fe60055481565b34801561059a57600080fd5b506103fe6105a9366004613d48565b61174c565b3480156105ba57600080fd5b506103fe60145481565b3480156105d057600080fd5b5061036b6105df366004613a80565b611767565b3480156105f057600080fd5b5061036b6105ff366004613dca565b6117f8565b34801561061057600080fd5b506106196118db565b6040516102989190613e3f565b34801561063257600080fd5b5061036b611b40565b34801561064757600080fd5b5061036b610656366004613b08565b611cbc565b34801561066757600080fd5b5061036b610676366004613ce4565b611d05565b34801561068757600080fd5b506106196122a2565b34801561069c57600080fd5b506102f1612386565b3480156106b157600080fd5b5061036b6106c0366004613ea1565b612395565b3480156106d157600080fd5b5061036b6106e0366004613eef565b612402565b3480156106f157600080fd5b50600454610333906001600160a01b031681565b34801561071157600080fd5b506102f1610720366004613b08565b61240e565b34801561073157600080fd5b50610333610740366004613b08565b612687565b34801561075157600080fd5b506102c1610760366004613d48565b6126b1565b34801561077157600080fd5b5061036b610780366004613f5a565b6126e8565b34801561079157600080fd5b5061079a612880565b604051610298959493929190613fa9565b3480156107b757600080fd5b50600054610333906001600160a01b031681565b3480156107d757600080fd5b506102c16107e6366004613d48565b60026020526000908152604090205460ff1681565b34801561080757600080fd5b5061036b610816366004613d48565b612948565b34801561082757600080fd5b506006546102879063ffffffff1681565b34801561084457600080fd5b506102c1610853366004613ff7565b612ae7565b34801561086457600080fd5b5061036b610873366004613d48565b612b15565b34801561088457600080fd5b50610898610893366004613a80565b612bb5565b604051610298929190614025565b61036b6108b4366004614040565b612cb3565b3480156108c557600080fd5b5061036b6108d4366004613ea1565b612f83565b60006001600160e01b031982166380ac58cd60e01b148061090a57506001600160e01b03198216635b5e139f60e01b145b8061092557506301ffc9a760e01b6001600160e01b03198316145b92915050565b63ffffffff81166000908152600b6020526040902080546060919061094f90614074565b1515905061095c57600080fd5b63ffffffff82166000908152600b60205260409020805461097c90614074565b80601f01602080910402602001604051908101604052809291908181526020018280546109a890614074565b80156109f55780601f106109ca576101008083540402835291602001916109f5565b820191906000526020600020905b8154815290600101906020018083116109d857829003601f168201915b50505050509050919050565b606060128054610a1090614074565b80601f0160208091040260200160405190810160405280929190818152602001828054610a3c90614074565b8015610a895780601f10610a5e57610100808354040283529160200191610a89565b820191906000526020600020905b815481529060010190602001808311610a6c57829003601f168201915b5050505050905090565b6000908152600f60205260409020546001600160a01b031690565b6000610ab9826116e7565b9050806001600160a01b0316836001600160a01b03161415610b195760405162461bcd60e51b815260206004820152601460248201527331b0b73737ba1030b8383937bb329037bbb732b960611b60448201526064015b60405180910390fd5b336001600160a01b0382161480610b355750610b358133612ae7565b610ba75760405162461bcd60e51b815260206004820152603d60248201527f4552433732313a20617070726f76652063616c6c6572206973206e6f7420746f60448201527f6b656e206f776e6572206f7220617070726f76656420666f7220616c6c0000006064820152608401610b10565b6000828152600f602052604080822080546001600160a01b0319166001600160a01b0387811691821790925591518593918516917f8c5be1e5ebec7d5bd14f71427d1e84f3dd0314c0f7b2291e5b200ac8c7c3b92591a4505050565b60038054610c1090614074565b80601f0160208091040260200160405190810160405280929190818152602001828054610c3c90614074565b8015610c895780601f10610c5e57610100808354040283529160200191610c89565b820191906000526020600020905b815481529060010190602001808311610c6c57829003601f168201915b505050505081565b6000546001600160a01b03163314610cbb5760405162461bcd60e51b8152600401610b10906140a9565b8051610cc657600080fd5b60005b8151811015610d2457600160026000848481518110610cea57610cea6140cf565b6020908102919091018101516001600160a01b03168252810191909152604001600020805460ff1916911515919091179055600101610cc9565b5050565b60606000805b60065463ffffffff9081169082161015610d7f5763ffffffff81166000908152600b602052604090208054610d6290614074565b159050610d775781610d73816140fb565b9250505b600101610d2e565b5063ffffffff811615610e61578063ffffffff166001600160401b03811115610daa57610daa613b62565b604051908082528060200260200182016040528015610dd3578160200160208202803683370190505b5091506000905060005b60065463ffffffff9081169082161015610e5f5763ffffffff81166000908152600b602052604090208054610e1190614074565b159050610e5757808383610e24816140fb565b945063ffffffff1681518110610e3c57610e3c6140cf565b602002602001019063ffffffff16908163ffffffff16815250505b600101610ddd565b505b5090565b610e6f338261166b565b610eb35760405162461bcd60e51b81526020600482015260156024820152743737ba1030b8383937bb32b21037b91037bbb732b960591b6044820152606401610b10565b6001600160a01b038316610f035760405162461bcd60e51b815260206004820152601760248201527673656e64696e6720746f206e756c6c206164647265737360481b6044820152606401610b10565b610f0e83838361305e565b6000818152600f6020908152604080832080546001600160a01b03191690556001600160a01b038616835260119091528120805460019290610f5190849061411f565b90915550506001600160a01b0382166000908152601160205260408120805460019290610f7f908490614136565b90915550506000818152600d602052604080822080546001600160a01b0319166001600160a01b0386811691821790925591518493918716917fddf252ad1be2c89b69c2b068fc378daa952ba7f163c4a11628f55a4df523b3ef91a4505050565b6001806000828254610ff29190614136565b9091555050600154336000818152600c60205260409020805463ffffffff8516908110611021576110216140cf565b90600052602060002001805461103690614074565b1515905061104357600080fd5b6001600160a01b0381166000908152600c6020526040812080548291829163ffffffff8816908110611077576110776140cf565b90600052602060002001805461108c90614074565b80601f01602080910402602001604051908101604052809291908181526020018280546110b890614074565b80156111055780601f106110da57610100808354040283529160200191611105565b820191906000526020600020905b8154815290600101906020018083116110e857829003601f168201915b505050505080602001905181019061111d919061417e565b925092509250836001600160a01b0316826001600160a01b03161461114157600080fd5b6040516001600160a01b0383169084156108fc029085906000818181858888f19350505050158015611177573d6000803e3d6000fd5b50611188848763ffffffff166130e5565b816001600160a01b03167f539c264d9d06a66685457f3905dfd944e09a729aa1c826ea4b84b5d482ed9d4e8785846040516111c5939291906141e1565b60405180910390a2505050506001548114610d245760405162461bcd60e51b8152600401610b1090614206565b6000546001600160a01b031633148061121a57503360009081526002602052604090205460ff165b6112365760405162461bcd60e51b8152600401610b1090614228565b60018060008282546112489190614136565b90915550506001546001600160a01b0383166000908152600c60205260409020805463ffffffff8416908110611280576112806140cf565b90600052602060002001805461129590614074565b151590506112a257600080fd5b6001600160a01b0383166000908152600c6020526040812080548291829163ffffffff87169081106112d6576112d66140cf565b9060005260206000200180546112eb90614074565b80601f016020809104026020016040519081016040528092919081815260200182805461131790614074565b80156113645780601f1061133957610100808354040283529160200191611364565b820191906000526020600020905b81548152906001019060200180831161134757829003601f168201915b505050505080602001905181019061137c919061417e565b925092509250611392868663ffffffff166130e5565b6040516001600160a01b0383169084156108fc029085906000818181858888f193505050501580156113c8573d6000803e3d6000fd5b50856001600160a01b03167f6969f62ab7b8988531ace070eaf7cc452d709ae6164ac0a51cd8ef85bfeacff1868584604051611406939291906141e1565b60405180910390a250505060015481146114325760405162461bcd60e51b8152600401610b1090614206565b505050565b6000546001600160a01b031633146114615760405162461bcd60e51b8152600401610b10906140a9565b805161146c57600080fd5b60005b8151811015610d2457600060026000848481518110611490576114906140cf565b6020908102919091018101516001600160a01b03168252810191909152604001600020805460ff191691151591909117905560010161146f565b6000546001600160a01b031633146114f45760405162461bcd60e51b8152600401610b10906140a9565b6008805460ff1916911515919091179055565b6004546014546000805460405160248101939093526001600160a01b0390811660448401529092839283929091169060640160408051601f198184030181529181526020820180516001600160e01b031663f6c4c9c160e01b1790525161156e919061424e565b600060405180830381855afa9150503d80600081146115a9576040519150601f19603f3d011682016040523d82523d6000602084013e6115ae565b606091505b5091509150816115c15760009250505090565b808060200190518101906115d5919061426a565b6115e25760009250505090565b60019250505090565b600080805b60075481101561164a57600c600060078381548110611611576116116140cf565b60009182526020808320909101546001600160a01b031683528201929092526040019020546116409083614136565b91506001016115f0565b50919050565b61143283838360405180602001604052806000815250613385565b600080611677836116e7565b9050806001600160a01b0316846001600160a01b0316148061169e575061169e8185612ae7565b806116c25750836001600160a01b03166116b784610a93565b6001600160a01b0316145b949350505050565b6000908152600d60205260409020546001600160a01b0316151590565b60006116f2826116ca565b6117305760405162461bcd60e51b815260206004820152600f60248201526e1a5b9d985b1a59081d1bdad95b9259608a1b6044820152606401610b10565b506000908152600d60205260409020546001600160a01b031690565b6001600160a01b031660009081526011602052604090205490565b611777338263ffffffff1661166b565b61178057600080fd5b63ffffffff81166000908152600b6020526040812061179e9161389a565b63ffffffff81166000908152600f6020908152604080832080546001600160a01b0319908116909155600d835281842080549091169055338352601190915281208054600192906117f090849061411f565b909155505050565b6000546001600160a01b031633146118225760405162461bcd60e51b8152600401610b10906140a9565b60065463ffffffff9081169084161061183a57600080fd5b81158015611868575063ffffffff83166000908152600a60205260409020805461186390614074565b151590505b1561188b5763ffffffff83166000908152600a602052604081206114329161389a565b818160405160200161189e929190614025565b60408051601f1981840301815291815263ffffffff85166000908152600a602090815291902082516118d5939192909101906138d4565b50505050565b6000546060906001600160a01b031633148061190657503360009081526002602052604090205460ff165b6119225760405162461bcd60e51b8152600401610b1090614228565b6000805b60075481101561198057600c600060078381548110611947576119476140cf565b60009182526020808320909101546001600160a01b031683528201929092526040019020546119769083614136565b9150600101611926565b50806001600160401b0381111561199957611999613b62565b6040519080825280602002602001820160405280156119cc57816020015b60608152602001906001900390816119b75790505b5091506000905060005b600754811015610e5f5760005b600c6000600784815481106119fa576119fa6140cf565b60009182526020808320909101546001600160a01b03168352820192909252604001902054811015611b3757600c600060078481548110611a3d57611a3d6140cf565b60009182526020808320909101546001600160a01b031683528201929092526040019020805482908110611a7357611a736140cf565b906000526020600020018054611a8890614074565b80601f0160208091040260200160405190810160405280929190818152602001828054611ab490614074565b8015611b015780601f10611ad657610100808354040283529160200191611b01565b820191906000526020600020905b815481529060010190602001808311611ae457829003601f168201915b5050505050848480611b1290614287565b955081518110611b2457611b246140cf565b60209081029190910101526001016119e3565b506001016119d6565b6001806000828254611b529190614136565b9091555050600154600480546014546040516331a9108f60e11b8152928301526000916001600160a01b0390911690636352211e90602401602060405180830381865afa158015611ba7573d6000803e3d6000fd5b505050506040513d601f19601f82011682018060405250810190611bcb91906142a2565b6000549091506001600160a01b0380831691161415611c375760405162461bcd60e51b815260206004820152602260248201527f6f776e6572206f662074686520746f6b656e20697320746865206465706c6f7960448201526132b960f11b6064820152608401610b10565b336001600160a01b03821614611c8e5760405162461bcd60e51b815260206004820152601c60248201527b39b2b73232b91036bab9ba103132903a3432903732bb9037bbb732b960211b6044820152606401610b10565b611c9781612b15565b506001548114611cb95760405162461bcd60e51b8152600401610b1090614206565b50565b6000546001600160a01b0316331480611ce457503360009081526002602052604090205460ff165b611d005760405162461bcd60e51b8152600401610b1090614228565b600555565b6000546001600160a01b0316331480611d2d57503360009081526002602052604090205460ff165b611d495760405162461bcd60e51b8152600401610b1090614228565b6001806000828254611d5b9190614136565b90915550506001546001600160a01b0383166000908152600c60205260409020805463ffffffff8416908110611d9357611d936140cf565b906000526020600020018054611da890614074565b15159050611db557600080fd5b6001600160a01b0383166000908152600c6020526040812080548291829163ffffffff8716908110611de957611de96140cf565b906000526020600020018054611dfe90614074565b80601f0160208091040260200160405190810160405280929190818152602001828054611e2a90614074565b8015611e775780601f10611e4c57610100808354040283529160200191611e77565b820191906000526020600020905b815481529060010190602001808311611e5a57829003601f168201915b5050505050806020019051810190611e8f919061417e565b925092509250816001600160a01b0316866001600160a01b031614611f045760405162461bcd60e51b815260206004820152602560248201527f73656e64657220616e642073617665642073656e646572206172652064696666604482015264195c995b9d60da1b6064820152608401610b10565b600654611f1990839063ffffffff16836133f5565b828282604051602001611f2e939291906142bf565b60408051601f1981840301815291815260065463ffffffff166000908152600b60209081529190208251611f67939192909101906138d4565b506064831180611f75575082155b8015611fef575060095460405163e7b6dac960e01b81526002916001600160a01b03169063e7b6dac990611fab906004016142e9565b602060405180830381865afa158015611fc8573d6000803e3d6000fd5b505050506040513d601f19601f82011682018060405250810190611fec919061430f565b10155b1561222057600083156120a15760095460405163e7b6dac960e01b81526001600160a01b039091169063e7b6dac99061202a906004016142e9565b602060405180830381865afa158015612047573d6000803e3d6000fd5b505050506040513d601f19601f8201168201806040525081019061206b919061430f565b612076606486614328565b612080919061434a565b9050600061208e828661411f565b11156120a15761209e818561411f565b93505b60045460145460405160009283926001600160a01b039091169185916120cd9160240190815260200190565b60408051601f198184030181529181526020820180516001600160e01b03166304d5c39160e01b17905251612102919061424e565b60006040518083038185875af1925050503d806000811461213f576040519150601f19603f3d011682016040523d82523d6000602084013e612144565b606091505b5091509150816121b35780516121aa5760405162461bcd60e51b815260206004820152602560248201527f63616e6e6f74206465706f73697420726f79616c747920746f206d61696e2045604482015264524337323160d81b6064820152608401610b10565b80518082602001fd5b600860019054906101000a90046001600160a01b03166001600160a01b031663d0e30db0876040518263ffffffff1660e01b81526004016000604051808303818588803b15801561220357600080fd5b505af1158015612217573d6000803e3d6000fd5b50505050505050505b612230868663ffffffff166130e5565b600680546001600160a01b038816917f99990c22f7fd4c57460e4343c3fa483b5546966debbf9e3c14986572e221d4ab9163ffffffff16906000612273836140fb565b91906101000a81548163ffffffff021916908363ffffffff1602179055508584604051611406939291906141e1565b336000908152600c60209081526040808320805482518185028101850190935280835260609492939192909184015b8282101561237d5783829060005260206000200180546122f090614074565b80601f016020809104026020016040519081016040528092919081815260200182805461231c90614074565b80156123695780601f1061233e57610100808354040283529160200191612369565b820191906000526020600020905b81548152906001019060200180831161234c57829003601f168201915b5050505050815260200190600101906122d1565b50505050905090565b606060138054610a1090614074565b3360008181526010602090815260408083206001600160a01b03871680855290835292819020805460ff191686151590811790915590519081529192917f17307eab39ab6107e8899845ad3d59bd9653f200f220920489ca2b5937696c3191015b60405180910390a35050565b6118d584848484613385565b6000818152600e6020526040902080546060919061242b90614074565b1590508015612459575063ffffffff82166000908152600b60205260409020805461245590614074565b1590505b156124a65760405162461bcd60e51b815260206004820181905260248201527f546f6b656e2055524920666f72206e6f6e206578697374656e7420746f6b656e6044820152606401610b10565b6000828152600e6020526040902080546124bf90614074565b1590506124df576000828152600e60205260409020805461097c90614074565b63ffffffff82166000908152600b60205260409020805461258a919061250490614074565b80601f016020809104026020016040519081016040528092919081815260200182805461253090614074565b801561257d5780601f106125525761010080835404028352916020019161257d565b820191906000526020600020905b81548152906001019060200180831161256057829003601f168201915b5050505050601454613516565b6125d55760405162461bcd60e51b815260206004820152601c60248201527b1c995c5d595cdd081a5cc81b9bdd081cd859995b1e481c1858dad95960221b6044820152606401610b10565b63ffffffff82166000908152600b60205260408120805461267d91906125fa90614074565b80601f016020809104026020016040519081016040528092919081815260200182805461262690614074565b80156126735780601f1061264857610100808354040283529160200191612673565b820191906000526020600020905b81548152906001019060200180831161265657829003601f168201915b5050505050613536565b5095945050505050565b6007818154811061269757600080fd5b6000918252602090912001546001600160a01b0316905081565b600080546001600160a01b03838116911614806109255750506001600160a01b031660009081526002602052604090205460ff1690565b336126f98163ffffffff851661166b565b61270257600080fd5b61270e82601454613516565b61272a5760405162461bcd60e51b8152600401610b1090614369565b60085460ff166127b75760405162461bcd60e51b815260206004820152604c60248201527f737469636b65727320617265206e6f7420656e61626c6564207269676874206e60448201527f6f7720616e64206e65656420746f20626520656e61626c656420696e206f726460648201526b657220746f2075706461746560a01b608482015260a401610b10565b60006127c283613536565b63ffffffff88166000908152600b6020526040812080549296509094506127ef935091506125fa90614074565b9350505050806001600160a01b0316826001600160a01b0316146128525760405162461bcd60e51b815260206004820152601a6024820152793a393cb4b733903a379031b430b733b2903a34329037bbb732b960311b6044820152606401610b10565b63ffffffff85166000908152600b602090815260409091208551612878928701906138d4565b505050505050565b6000806000606060003060008054906101000a90046001600160a01b031660145460036335268a9f60e21b8180546128b790614074565b80601f01602080910402602001604051908101604052809291908181526020018280546128e390614074565b80156129305780601f1061290557610100808354040283529160200191612930565b820191906000526020600020905b81548152906001019060200180831161291357829003601f168201915b50505050509150945094509450945094509091929394565b6000546001600160a01b031633146129725760405162461bcd60e51b8152600401610b10906140a9565b803b6129b45760405162461bcd60e51b81526020600482015260116024820152701a5cc81b9bdd08184818dbdb9d1c9858dd607a1b6044820152606401610b10565b60008054906101000a90046001600160a01b03166001600160a01b0316816001600160a01b031663d5f394886040518163ffffffff1660e01b8152600401602060405180830381865afa158015612a0f573d6000803e3d6000fd5b505050506040513d601f19601f82011682018060405250810190612a3391906142a2565b6001600160a01b031614612abf5760405162461bcd60e51b815260206004820152604760248201527f746865206465706c6f79657220666f72207468697320636f6e7472616374206160448201527f6e64207468652077616c6c657420636f6e7472616374206d757374206265207460648201526668652073616d6560c81b608482015260a401610b10565b600880546001600160a01b0390921661010002610100600160a81b0319909216919091179055565b6001600160a01b03918216600090815260106020908152604080832093909416825291909152205460ff1690565b6000546001600160a01b03163314612b3f5760405162461bcd60e51b8152600401610b10906140a9565b600080546001600160a01b03908116825260026020526040808320805460ff1990811690915583546001600160a01b03191692851692831784558284528184208054909116600117905551909133917f93091b3f3cd424efabc74e181f3799f3476ed758412561ed3b29515c51f567529190a350565b63ffffffff81166000908152600a60205260408120805460609190612bd990614074565b15159050612bf95750506040805160208101909152600080825292909150565b63ffffffff83166000908152600a602052604090208054612c1990614074565b80601f0160208091040260200160405190810160405280929190818152602001828054612c4590614074565b8015612c925780601f10612c6757610100808354040283529160200191612c92565b820191906000526020600020905b815481529060010190602001808311612c7557829003601f168201915b5050505050806020019051810190612caa91906143c0565b91509150915091565b6001806000828254612cc59190614136565b90915550506001546005543414612d165760405162461bcd60e51b81526020600482015260156024820152746e6f742074686520737469636b657220707269636560581b6044820152606401610b10565b612d2282601454613516565b612d3e5760405162461bcd60e51b8152600401610b1090614369565b60085460ff16612d9f5760405162461bcd60e51b815260206004820152602660248201527f6e6f206e657720737469636b6572732063616e206265206164646564207269676044820152656874206e6f7760d01b6064820152608401610b10565b336064612dab8261174c565b10612e445760405162461bcd60e51b815260206004820152605f60248201527f796f752068617665206d696e74656420746865206d6178696d756d20616d6f7560448201527f6e74206f6620737469636b65727320746f20746869732077616c6c65742c207560648201527f736520616e6f746865722077616c6c657420746f206d696e74206d6f72652e00608482015260a401610b10565b6001600160a01b0381166000908152600c60209081526040918290209151612e7291349185918891016142bf565b60408051601f19818403018152919052815460018101835560009283526020928390208251612ea794919092019201906138d4565b50612eb181613560565b612f0157600780546001810182556000919091527fa66cc928b5edb82af9bd49922954155ab7b0942694bea4ce44661d9a8736c6880180546001600160a01b0319166001600160a01b0383161790555b6001600160a01b0381166000818152600c60205260409020547fee6f3d99a97df3a4e7071686a3397d4bc92ebb8050fc8f0a2ef05ada1f553f8d90612f489060019061411f565b3486604051612f59939291906141e1565b60405180910390a2506001548114610d245760405162461bcd60e51b8152600401610b1090614206565b6000546001600160a01b03163314612fad5760405162461bcd60e51b8152600401610b10906140a9565b6000546001600160a01b03838116911614156130045760405162461bcd60e51b815260206004820152601660248201527531b0b73737ba1036b7b234b33c903232b83637bcb2b960511b6044820152606401610b10565b6001600160a01b038216600081815260026020908152604091829020805460ff1916851515908117909155915191825233917ff38de818d000d07d091732dd783c6855722d7bc1934d92b7635133289d34169591016123f6565b63ffffffff81166000908152600b602052604081208054839291829161308891906125fa90614074565b509250925050828282876040516020016130a59493929190614406565b60408051601f1981840301815291815263ffffffff85166000908152600b602090815291902082516130dc939192909101906138d4565b50505050505050565b6001600160a01b0382166000908152600c602052604081205461310a9060019061411f565b1161317257604080516000808252602082019092529061313a565b60608152602001906001900390816131255790505b506001600160a01b0383166000908152600c6020908152604090912082516131689391929190910190613954565b50610d24826135c0565b6001600160a01b0382166000908152600c60205260408120546131979060019061411f565b6001600160401b038111156131ae576131ae613b62565b6040519080825280602002602001820160405280156131e157816020015b60608152602001906001900390816131cc5790505b506001600160a01b0384166000908152600c6020908152604080832080548251818502810185019093528083529495509293909291849084015b828210156132c757838290600052602060002001805461323a90614074565b80601f016020809104026020016040519081016040528092919081815260200182805461326690614074565b80156132b35780601f10613288576101008083540402835291602001916132b3565b820191906000526020600020905b81548152906001019060200180831161329657829003601f168201915b50505050508152602001906001019061321b565b5050505090506000805b825181101561332d57848114613325578281815181106132f3576132f36140cf565b602002602001015184838061330790614287565b945081518110613319576133196140cf565b60200260200101819052505b6001016132d1565b506001600160a01b0385166000908152600c60209081526040909120845161335792860190613954565b506001600160a01b0385166000908152600c602052604090205461337e5761337e856135c0565b5050505050565b613390848484610e65565b61339d3385858585613758565b6118d55760405162461bcd60e51b815260206004820152602360248201527f45524337323120526563656976657220436f6e6669726d6174696f6e2049732060448201526210985960ea1b6064820152608401610b10565b6001600160a01b0383166134365760405162461bcd60e51b81526020600482015260086024820152670c1e0c081b5a5b9d60c21b6044820152606401610b10565b61343f826116ca565b1561347d5760405162461bcd60e51b815260206004820152600e60248201526d185b1c9958591e481b5a5b9d195960921b6044820152606401610b10565b6001600160a01b03831660009081526011602052604081208054600192906134a6908490614136565b90915550506000828152600d602052604080822080546001600160a01b0319166001600160a01b03871690811790915590518492907fddf252ad1be2c89b69c2b068fc378daa952ba7f163c4a11628f55a4df523b3ef908290a461350d3330858585613758565b61143257600080fd5b60008061352284613536565b50505063ffffffff16831491505092915050565b60006060806000848060200190518101906135519190614451565b93509350935093509193509193565b6000805b6007548110156135b757826001600160a01b03166007828154811061358b5761358b6140cf565b6000918252602090912001546001600160a01b031614156135af5750600192915050565b600101613564565b50600092915050565b6007546135cf9060019061411f565b6135f0576040805160008152602081019182905251610d24916007916139ad565b6007546000906136029060019061411f565b6001600160401b0381111561361957613619613b62565b604051908082528060200260200182016040528015613642578160200160208202803683370190505b5090506000600780548060200260200160405190810160405280929190818152602001828054801561369d57602002820191906000526020600020905b81546001600160a01b0316815260019091019060200180831161367f575b505050505090506000805b825181101561374457846001600160a01b03168382815181106136cd576136cd6140cf565b60200260200101516001600160a01b031614156136ec576001016136a8565b8281815181106136fe576136fe6140cf565b602002602001015184838061371290614287565b945081518110613724576137246140cf565b6001600160a01b03909216602092830291909101909101526001016136a8565b50825161337e9060079060208601906139ad565b6000833b61376857506001613891565b604051630a85bd0160e11b81526001600160a01b0385169063150b7a029061379a9089908990889088906004016144da565b6020604051808303816000875af19250505080156137d5575060408051601f3d908101601f191682019092526137d291810190614517565b60015b61387b573d808015613803576040519150601f19603f3d011682016040523d82523d6000602084013e613808565b606091505b5080516138735760405162461bcd60e51b815260206004820152603360248201527f5468697320636f6e747261637420646f6573206e6f7420696d706c656d656e746044820152721030b71024a2a9219b9918a932b1b2b4bb32b960691b6064820152608401610b10565b805181602001fd5b6001600160e01b031916630a85bd0160e11b1490505b95945050505050565b5080546138a690614074565b6000825580601f106138b6575050565b601f016020900490600052602060002090810190611cb99190613a02565b8280546138e090614074565b90600052602060002090601f0160209004810192826139025760008555613948565b82601f1061391b57805160ff1916838001178555613948565b82800160010185558215613948579182015b8281111561394857825182559160200191906001019061392d565b50610e61929150613a02565b8280548282559060005260206000209081019282156139a1579160200282015b828111156139a157825180516139919184916020909101906138d4565b5091602001919060010190613974565b50610e61929150613a17565b828054828255906000526020600020908101928215613948579160200282015b8281111561394857825182546001600160a01b0319166001600160a01b039091161782556020909201916001909101906139cd565b5b80821115610e615760008155600101613a03565b80821115610e61576000613a2b828261389a565b50600101613a17565b6001600160e01b031981168114611cb957600080fd5b600060208284031215613a5c57600080fd5b8135613a6781613a34565b9392505050565b63ffffffff81168114611cb957600080fd5b600060208284031215613a9257600080fd5b8135613a6781613a6e565b60005b83811015613ab8578181015183820152602001613aa0565b838111156118d55750506000910152565b60008151808452613ae1816020860160208601613a9d565b601f01601f19169290920160200192915050565b602081526000613a676020830184613ac9565b600060208284031215613b1a57600080fd5b5035919050565b6001600160a01b0381168114611cb957600080fd5b60008060408385031215613b4957600080fd5b8235613b5481613b21565b946020939093013593505050565b634e487b7160e01b600052604160045260246000fd5b604051601f8201601f191681016001600160401b0381118282101715613ba057613ba0613b62565b604052919050565b60006020808385031215613bbb57600080fd5b82356001600160401b0380821115613bd257600080fd5b818501915085601f830112613be657600080fd5b813581811115613bf857613bf8613b62565b8060051b9150613c09848301613b78565b8181529183018401918481019088841115613c2357600080fd5b938501935b83851015613c4d5784359250613c3d83613b21565b8282529385019390850190613c28565b98975050505050505050565b6020808252825182820181905260009190848201906040850190845b81811015613c9757835163ffffffff1683529284019291840191600101613c75565b50909695505050505050565b600080600060608486031215613cb857600080fd5b8335613cc381613b21565b92506020840135613cd381613b21565b929592945050506040919091013590565b60008060408385031215613cf757600080fd5b8235613d0281613b21565b91506020830135613d1281613a6e565b809150509250929050565b8015158114611cb957600080fd5b600060208284031215613d3d57600080fd5b8135613a6781613d1d565b600060208284031215613d5a57600080fd5b8135613a6781613b21565b60006001600160401b03821115613d7e57613d7e613b62565b50601f01601f191660200190565b6000613d9f613d9a84613d65565b613b78565b9050828152838383011115613db357600080fd5b828260208301376000602084830101529392505050565b600080600060608486031215613ddf57600080fd5b8335613dea81613a6e565b92506020840135613dfa81613d1d565b915060408401356001600160401b03811115613e1557600080fd5b8401601f81018613613e2657600080fd5b613e3586823560208401613d8c565b9150509250925092565b6000602080830181845280855180835260408601915060408160051b870101925083870160005b82811015613e9457603f19888603018452613e82858351613ac9565b94509285019290850190600101613e66565b5092979650505050505050565b60008060408385031215613eb457600080fd5b8235613ebf81613b21565b91506020830135613d1281613d1d565b600082601f830112613ee057600080fd5b613a6783833560208501613d8c565b60008060008060808587031215613f0557600080fd5b8435613f1081613b21565b93506020850135613f2081613b21565b92506040850135915060608501356001600160401b03811115613f4257600080fd5b613f4e87828801613ecf565b91505092959194509250565b60008060408385031215613f6d57600080fd5b8235613f7881613a6e565b915060208301356001600160401b03811115613f9357600080fd5b613f9f85828601613ecf565b9150509250929050565b6001600160a01b038681168252851660208201526040810184905260a060608201819052600090613fdc90830185613ac9565b905063ffffffff60e01b831660808301529695505050505050565b6000806040838503121561400a57600080fd5b823561401581613b21565b91506020830135613d1281613b21565b82151581526040602082015260006116c26040830184613ac9565b60006020828403121561405257600080fd5b81356001600160401b0381111561406857600080fd5b6116c284828501613ecf565b600181811c9082168061408857607f821691505b6020821081141561164a57634e487b7160e01b600052602260045260246000fd5b6020808252600c908201526b3737ba103232b83637bcb2b960a11b604082015260600190565b634e487b7160e01b600052603260045260246000fd5b634e487b7160e01b600052601160045260246000fd5b600063ffffffff80831681811415614115576141156140e5565b6001019392505050565b600082821015614131576141316140e5565b500390565b60008219821115614149576141496140e5565b500190565b600061415c613d9a84613d65565b905082815283838301111561417057600080fd5b613a67836020830184613a9d565b60008060006060848603121561419357600080fd5b8351925060208401516141a581613b21565b60408501519092506001600160401b038111156141c157600080fd5b8401601f810186136141d257600080fd5b613e358682516020840161414e565b63ffffffff841681528260208201526060604082015260006138916060830184613ac9565b60208082526008908201526772652d656e74727960c01b604082015260600190565b6020808252600c908201526b1b9bdd08185c1c1c9bdd995960a21b604082015260600190565b60008251614260818460208701613a9d565b9190910192915050565b60006020828403121561427c57600080fd5b8151613a6781613d1d565b600060001982141561429b5761429b6140e5565b5060010190565b6000602082840312156142b457600080fd5b8151613a6781613b21565b8381526001600160a01b038316602082015260606040820181905260009061389190830184613ac9565b6020808252600c908201526b1cdd1a58dad95c94dc1b1a5d60a21b604082015260600190565b60006020828403121561432157600080fd5b5051919050565b60008261434557634e487b7160e01b600052601260045260246000fd5b500490565b6000816000190483118215151615614364576143646140e5565b500290565b6020808252601d908201527f796f7572207061636b656420737469636b657220697320756e73616665000000604082015260600190565b600082601f8301126143b157600080fd5b613a678383516020850161414e565b600080604083850312156143d357600080fd5b82516143de81613d1d565b60208401519092506001600160401b038111156143fa57600080fd5b613f9f858286016143a0565b63ffffffff851681526080602082015260006144256080830186613ac9565b82810360408401526144378186613ac9565b91505060018060a01b038316606083015295945050505050565b6000806000806080858703121561446757600080fd5b845161447281613a6e565b60208601519094506001600160401b038082111561448f57600080fd5b61449b888389016143a0565b945060408701519150808211156144b157600080fd5b506144be878288016143a0565b92505060608501516144cf81613b21565b939692955090935050565b6001600160a01b038581168252841660208201526040810183905260806060820181905260009061450d90830184613ac9565b9695505050505050565b60006020828403121561452957600080fd5b8151613a6781613a3456fea26469706673582212201c029f08b3234844a9fbe5816a2ef728c87e62673febf467bbda45746716422964736f6c634300080c0033",
  "linkReferences": {},
  "deployedLinkReferences": {}
}