{
  "_format": "hh-sol-artifact-1",
  "contractName": "DefaultMinter",
  "sourceName": "alpha/core/minter/DefaultMinter.sol",
  "abi": [
    {
      "inputs": [
        {
          "internalType": "address",
          "name": "valuesContract",
          "type": "address"
        },
        {
          "internalType": "address",
          "name": "storageContract",
          "type": "address"
        },
        {
          "internalType": "address",
          "name": "assetContract",
          "type": "address"
        },
        {
          "internalType": "address",
          "name": "randomNumberContract",
          "type": "address"
        }
      ],
      "stateMutability": "nonpayable",
      "type": "constructor"
    },
    {
      "anonymous": false,
      "inputs": [
        {
          "indexed": true,
          "internalType": "address",
          "name": "sender",
          "type": "address"
        },
        {
          "indexed": true,
          "internalType": "address",
          "name": "changee",
          "type": "address"
        },
        {
          "indexed": false,
          "internalType": "bool",
          "name": "value",
          "type": "bool"
        }
      ],
      "name": "PermissionChange",
      "type": "event"
    },
    {
      "anonymous": false,
      "inputs": [
        {
          "indexed": true,
          "internalType": "address",
          "name": "from",
          "type": "address"
        },
        {
          "indexed": true,
          "internalType": "address",
          "name": "to",
          "type": "address"
        }
      ],
      "name": "TransferedOwnership",
      "type": "event"
    },
    {
      "inputs": [
        {
          "internalType": "address",
          "name": "",
          "type": "address"
        }
      ],
      "name": "approved",
      "outputs": [
        {
          "internalType": "bool",
          "name": "",
          "type": "bool"
        }
      ],
      "stateMutability": "view",
      "type": "function"
    },
    {
      "inputs": [],
      "name": "assetController",
      "outputs": [
        {
          "internalType": "contract Asset",
          "name": "",
          "type": "address"
        }
      ],
      "stateMutability": "view",
      "type": "function"
    },
    {
      "inputs": [],
      "name": "deployer",
      "outputs": [
        {
          "internalType": "address",
          "name": "",
          "type": "address"
        }
      ],
      "stateMutability": "view",
      "type": "function"
    },
    {
      "inputs": [
        {
          "internalType": "uint32",
          "name": "currentTokenId",
          "type": "uint32"
        },
        {
          "internalType": "address",
          "name": "sender",
          "type": "address"
        }
      ],
      "name": "getPreview",
      "outputs": [
        {
          "internalType": "uint256",
          "name": "previewCount",
          "type": "uint256"
        }
      ],
      "stateMutability": "nonpayable",
      "type": "function"
    },
    {
      "inputs": [
        {
          "internalType": "address",
          "name": "addr",
          "type": "address"
        }
      ],
      "name": "isAuthenticated",
      "outputs": [
        {
          "internalType": "bool",
          "name": "",
          "type": "bool"
        }
      ],
      "stateMutability": "view",
      "type": "function"
    },
    {
      "inputs": [
        {
          "internalType": "uint32",
          "name": "currentTokenId",
          "type": "uint32"
        },
        {
          "internalType": "address",
          "name": "sender",
          "type": "address"
        },
        {
          "internalType": "bytes",
          "name": "",
          "type": "bytes"
        }
      ],
      "name": "mint",
      "outputs": [
        {
          "components": [
            {
              "internalType": "uint32",
              "name": "pathId",
              "type": "uint32"
            },
            {
              "internalType": "uint32",
              "name": "pathSize",
              "type": "uint32"
            },
            {
              "internalType": "uint32",
              "name": "currentTokenId",
              "type": "uint32"
            },
            {
              "internalType": "address",
              "name": "owner",
              "type": "address"
            },
            {
              "internalType": "uint32[]",
              "name": "colours",
              "type": "uint32[]"
            },
            {
              "internalType": "bytes",
              "name": "mintData",
              "type": "bytes"
            },
            {
              "internalType": "uint32[]",
              "name": "assets",
              "type": "uint32[]"
            },
            {
              "internalType": "string[]",
              "name": "names",
              "type": "string[]"
            },
            {
              "internalType": "address[]",
              "name": "destinations",
              "type": "address[]"
            }
          ],
          "internalType": "struct InfinityMintObject.InfinityObject",
          "name": "",
          "type": "tuple"
        }
      ],
      "stateMutability": "nonpayable",
      "type": "function"
    },
    {
      "inputs": [
        {
          "internalType": "uint32",
          "name": "index",
          "type": "uint32"
        },
        {
          "internalType": "uint32",
          "name": "currentTokenId",
          "type": "uint32"
        },
        {
          "internalType": "address",
          "name": "sender",
          "type": "address"
        }
      ],
      "name": "mintPreview",
      "outputs": [
        {
          "components": [
            {
              "internalType": "uint32",
              "name": "pathId",
              "type": "uint32"
            },
            {
              "internalType": "uint32",
              "name": "pathSize",
              "type": "uint32"
            },
            {
              "internalType": "uint32",
              "name": "currentTokenId",
              "type": "uint32"
            },
            {
              "internalType": "address",
              "name": "owner",
              "type": "address"
            },
            {
              "internalType": "uint32[]",
              "name": "colours",
              "type": "uint32[]"
            },
            {
              "internalType": "bytes",
              "name": "mintData",
              "type": "bytes"
            },
            {
              "internalType": "uint32[]",
              "name": "assets",
              "type": "uint32[]"
            },
            {
              "internalType": "string[]",
              "name": "names",
              "type": "string[]"
            },
            {
              "internalType": "address[]",
              "name": "destinations",
              "type": "address[]"
            }
          ],
          "internalType": "struct InfinityMintObject.InfinityObject",
          "name": "",
          "type": "tuple"
        }
      ],
      "stateMutability": "view",
      "type": "function"
    },
    {
      "inputs": [
        {
          "internalType": "address[]",
          "name": "addrs",
          "type": "address[]"
        }
      ],
      "name": "multiApprove",
      "outputs": [],
      "stateMutability": "nonpayable",
      "type": "function"
    },
    {
      "inputs": [
        {
          "internalType": "address[]",
          "name": "addrs",
          "type": "address[]"
        }
      ],
      "name": "multiRevoke",
      "outputs": [],
      "stateMutability": "nonpayable",
      "type": "function"
    },
    {
      "inputs": [],
      "name": "randomNumberController",
      "outputs": [
        {
          "internalType": "contract RandomNumber",
          "name": "",
          "type": "address"
        }
      ],
      "stateMutability": "view",
      "type": "function"
    },
    {
      "inputs": [
        {
          "internalType": "address",
          "name": "assetContract",
          "type": "address"
        }
      ],
      "name": "setAssetController",
      "outputs": [],
      "stateMutability": "nonpayable",
      "type": "function"
    },
    {
      "inputs": [
        {
          "internalType": "address",
          "name": "addr",
          "type": "address"
        },
        {
          "internalType": "bool",
          "name": "value",
          "type": "bool"
        }
      ],
      "name": "setPrivilages",
      "outputs": [],
      "stateMutability": "nonpayable",
      "type": "function"
    },
    {
      "inputs": [
        {
          "internalType": "address",
          "name": "randomNumberContract",
          "type": "address"
        }
      ],
      "name": "setRandomNumberController",
      "outputs": [],
      "stateMutability": "nonpayable",
      "type": "function"
    },
    {
      "inputs": [
        {
          "internalType": "address",
          "name": "storageContract",
          "type": "address"
        }
      ],
      "name": "setStorageController",
      "outputs": [],
      "stateMutability": "nonpayable",
      "type": "function"
    },
    {
      "inputs": [],
      "name": "storageController",
      "outputs": [
        {
          "internalType": "contract InfinityMintStorage",
          "name": "",
          "type": "address"
        }
      ],
      "stateMutability": "view",
      "type": "function"
    },
    {
      "inputs": [
        {
          "internalType": "address",
          "name": "addr",
          "type": "address"
        }
      ],
      "name": "transferOwnership",
      "outputs": [],
      "stateMutability": "nonpayable",
      "type": "function"
    },
    {
      "inputs": [],
      "name": "valuesController",
      "outputs": [
        {
          "internalType": "contract InfinityMintValues",
          "name": "",
          "type": "address"
        }
      ],
      "stateMutability": "view",
      "type": "function"
    }
  ],
  "bytecode": "0x60806040523480156200001157600080fd5b5060405162001c6a38038062001c6a8339810160408190526200003491620000cc565b60008054336001600160a01b0319918216811783558252600260205260408220805460ff19166001908117909155919091556004805482166001600160a01b03968716179055600580548216948616949094179093556003805484169285169290921790915560068054909216921691909117905562000129565b80516001600160a01b0381168114620000c757600080fd5b919050565b60008060008060808587031215620000e357600080fd5b620000ee85620000af565b9350620000fe60208601620000af565b92506200010e60408601620000af565b91506200011e60608601620000af565b905092959194509250565b611b3180620001396000396000f3fe608060405234801561001057600080fd5b50600436106100db5760003560e01c80630c380cf0146100e057806310a8c7a9146101105780631a5dad51146101255780631bc8bf931461014657806331ed86d2146101665780634c73947614610179578063573f86001461018c5780636fa13f3c1461019f5780639bb2ad88146101b2578063aed5ef82146101c5578063d15d4150146101d8578063d5f39488146101fb578063d8b964e61461020e578063ec2b46c314610231578063f2fde38b14610244578063fe528b1814610257578063fe684c0e1461026a575b600080fd5b6004546100f3906001600160a01b031681565b6040516001600160a01b0390911681526020015b60405180910390f35b61012361011e3660046110f7565b61027d565b005b6101386101333660046111a7565b61031d565b604051908152602001610107565b610159610154366004611207565b6108d3565b60405161010791906114b5565b6101236101743660046110f7565b610a47565b6101236101873660046114c8565b610ada565b6003546100f3906001600160a01b031681565b6101236101ad3660046114c8565b610b40565b6101596101c03660046114e5565b610ba6565b6006546100f3906001600160a01b031681565b6101eb6101e63660046114c8565b610d41565b6040519015158152602001610107565b6000546100f3906001600160a01b031681565b6101eb61021c3660046114c8565b60026020526000908152604090205460ff1681565b6005546100f3906001600160a01b031681565b6101236102523660046114c8565b610d78565b6101236102653660046114c8565b610e18565b610123610278366004611530565b610e7e565b6000546001600160a01b031633146102b05760405162461bcd60e51b81526004016102a790611563565b60405180910390fd5b80516102bb57600080fd5b60005b8151811015610319576001600260008484815181106102df576102df611589565b6020908102919091018101516001600160a01b03168252810191909152604001600020805460ff19169115159190911790556001016102be565b5050565b600080546001600160a01b031633148061034657503360009081526002602052604090205460ff165b6103625760405162461bcd60e51b81526004016102a79061159f565b6004805460405163e7b6dac960e01b8152602092810192909252600c60248301526b1c1c995d9a595dd0dbdd5b9d60a21b60448301526001600160a01b03169063e7b6dac990606401602060405180830381865afa1580156103c8573d6000803e3d6000fd5b505050506040513d601f19601f820116820180604052508101906103ec91906115c5565b9050806103f8576108cd565b6006546004805460405163e7b6dac960e01b81526000936001600160a01b039081169363a0d0ca0f939091169163e7b6dac99161045391016020808252600990820152681b985b5950dbdd5b9d60ba1b604082015260600190565b602060405180830381865afa158015610470573d6000803e3d6000fd5b505050506040513d601f19601f8201168201806040525081019061049491906115c5565b6040518263ffffffff1660e01b81526004016104b291815260200190565b6020604051808303816000875af11580156104d1573d6000803e3d6000fd5b505050506040513d601f19601f820116820180604052508101906104f591906115c5565b60035460065460405163433ee8cd60e01b81529293506000926001600160a01b039283169263433ee8cd92610532928a92909116906004016115de565b6000604051808303816000875af1158015610551573d6000803e3d6000fd5b505050506040513d6000823e601f3d908101601f191682016040526105799190810190611760565b905060006106456000600360009054906101000a90046001600160a01b03166001600160a01b03166346e4e7c96040518163ffffffff1660e01b8152600401602060405180830381865afa1580156105d5573d6000803e3d6000fd5b505050506040513d601f19601f820116820180604052508101906105f9919061185a565b602085015160408601516060870151608088015160a08901518c60005b60405190808252806020026020018201604052801561063f578160200160208202803683370190505b50610f60565b600554604051632adccb2560e21b81529192506001600160a01b03169063ab732c949061067b9088906000908690600401611877565b600060405180830381600087803b15801561069557600080fd5b505af11580156106a9573d6000803e3d6000fd5b506001925050505b848163ffffffff1610156108c85763ffffffff811660408084019190915260035483516006549251638e6e826d60e01b81526001600160a01b0392831693638e6e826d9361070593929116906004016115de565b6000604051808303816000875af1158015610724573d6000803e3d6000fd5b505050506040513d6000823e601f3d908101601f1916820160405261074c91908101906118a7565b60c0830152600354825160065460405163eb2c2da360e01b81526001600160a01b039384169363eb2c2da3936107899390929116906004016115de565b6000604051808303816000875af11580156107a8573d6000803e3d6000fd5b505050506040513d6000823e601f3d908101601f191682016040526107d091908101906118a7565b6080830152600354600654604051632637f35160e11b8152600481018790526001600160a01b039182166024820152911690634c6fe6a2906044016000604051808303816000875af115801561082a573d6000803e3d6000fd5b505050506040513d6000823e601f3d908101601f1916820160405261085291908101906118e3565b60e0830152600554604051632adccb2560e21b81526001600160a01b039091169063ab732c949061088b90899085908790600401611917565b600060405180830381600087803b1580156108a557600080fd5b505af11580156108b9573d6000803e3d6000fd5b505050508060010190506106b1565b505050505b92915050565b6108db610fc4565b6000546001600160a01b031633148061090357503360009081526002602052604090205460ff165b61091f5760405162461bcd60e51b81526004016102a79061159f565b60035460065460405163433ee8cd60e01b81526000926001600160a01b039081169263433ee8cd92610957928a9216906004016115de565b6000604051808303816000875af1158015610976573d6000803e3d6000fd5b505050506040513d6000823e601f3d908101601f1916820160405261099e9190810190611760565b9050610a3c85600360009054906101000a90046001600160a01b03166001600160a01b03166346e4e7c96040518163ffffffff1660e01b8152600401602060405180830381865afa1580156109f7573d6000803e3d6000fd5b505050506040513d601f19601f82011682018060405250810190610a1b919061185a565b602084015160408501516060860151608087015160a08801518b6000610616565b9150505b9392505050565b6000546001600160a01b03163314610a715760405162461bcd60e51b81526004016102a790611563565b8051610a7c57600080fd5b60005b815181101561031957600060026000848481518110610aa057610aa0611589565b6020908102919091018101516001600160a01b03168252810191909152604001600020805460ff1916911515919091179055600101610a7f565b6000546001600160a01b0316331480610b0257503360009081526002602052604090205460ff165b610b1e5760405162461bcd60e51b81526004016102a79061159f565b600580546001600160a01b0319166001600160a01b0392909216919091179055565b6000546001600160a01b0316331480610b6857503360009081526002602052604090205460ff165b610b845760405162461bcd60e51b81526004016102a79061159f565b600680546001600160a01b0319166001600160a01b0392909216919091179055565b610bae610fc4565b6000546001600160a01b0316331480610bd657503360009081526002602052604090205460ff165b610bf25760405162461bcd60e51b81526004016102a79061159f565b60055460405163fccc3cd560e01b81526001600160a01b03848116600483015263ffffffff87166024830152600092169063fccc3cd590604401600060405180830381865afa158015610c49573d6000803e3d6000fd5b505050506040513d6000823e601f3d908101601f19168201604052610c7191908101906119b6565b9050826001600160a01b031681606001516001600160a01b031614610cc45760405162461bcd60e51b81526020600482015260096024820152683130b21037bbb732b960b91b60448201526064016102a7565b8463ffffffff16816040015163ffffffff1614610d0f5760405162461bcd60e51b81526020600482015260096024820152680c4c2c840d2dcc8caf60bb1b60448201526064016102a7565b610a3c84826000015183602001518460c001518560e0015186608001518760a001518860600151896101000151610f60565b600080546001600160a01b03838116911614806108cd5750506001600160a01b031660009081526002602052604090205460ff1690565b6000546001600160a01b03163314610da25760405162461bcd60e51b81526004016102a790611563565b600080546001600160a01b03908116825260026020526040808320805460ff1990811690915583546001600160a01b03191692851692831784558284528184208054909116600117905551909133917f93091b3f3cd424efabc74e181f3799f3476ed758412561ed3b29515c51f567529190a350565b6000546001600160a01b0316331480610e4057503360009081526002602052604090205460ff165b610e5c5760405162461bcd60e51b81526004016102a79061159f565b600380546001600160a01b0319166001600160a01b0392909216919091179055565b6000546001600160a01b03163314610ea85760405162461bcd60e51b81526004016102a790611563565b6000546001600160a01b0383811691161415610eff5760405162461bcd60e51b815260206004820152601660248201527531b0b73737ba1036b7b234b33c903232b83637bcb2b960511b60448201526064016102a7565b6001600160a01b038216600081815260026020908152604091829020805460ff1916851515908117909155915191825233917ff38de818d000d07d091732dd783c6855722d7bc1934d92b7635133289d341695910160405180910390a35050565b610f68610fc4565b50604080516101208101825263ffffffff998a168152978916602089015298909716978601979097526001600160a01b039096166060850152608084015260a083019490945260c082015260e081019290925261010082015290565b604051806101200160405280600063ffffffff168152602001600063ffffffff168152602001600063ffffffff16815260200160006001600160a01b0316815260200160608152602001606081526020016060815260200160608152602001606081525090565b634e487b7160e01b600052604160045260246000fd5b60405160c081016001600160401b03811182821017156110635761106361102b565b60405290565b60405161012081016001600160401b03811182821017156110635761106361102b565b604051601f8201601f191681016001600160401b03811182821017156110b4576110b461102b565b604052919050565b60006001600160401b038211156110d5576110d561102b565b5060051b60200190565b6001600160a01b03811681146110f457600080fd5b50565b6000602080838503121561110a57600080fd5b82356001600160401b0381111561112057600080fd5b8301601f8101851361113157600080fd5b803561114461113f826110bc565b61108c565b81815260059190911b8201830190838101908783111561116357600080fd5b928401925b8284101561118a57833561117b816110df565b82529284019290840190611168565b979650505050505050565b63ffffffff811681146110f457600080fd5b600080604083850312156111ba57600080fd5b82356111c581611195565b915060208301356111d5816110df565b809150509250929050565b60006001600160401b038211156111f9576111f961102b565b50601f01601f191660200190565b60008060006060848603121561121c57600080fd5b833561122781611195565b92506020840135611237816110df565b915060408401356001600160401b0381111561125257600080fd5b8401601f8101861361126357600080fd5b803561127161113f826111e0565b81815287602083850101111561128657600080fd5b816020840160208301376000602083830101528093505050509250925092565b600081518084526020808501945080840160005b838110156112dc57815163ffffffff16875295820195908201906001016112ba565b509495945050505050565b60005b838110156113025781810151838201526020016112ea565b83811115611311576000848401525b50505050565b6000815180845261132f8160208601602086016112e7565b601f01601f19169290920160200192915050565b600081518084526020808501808196508360051b8101915082860160005b8581101561138b578284038952611379848351611317565b98850198935090840190600101611361565b5091979650505050505050565b600081518084526020808501945080840160005b838110156112dc5781516001600160a01b0316875295820195908201906001016113ac565b805163ffffffff168252600061012060208301516113f7602086018263ffffffff169052565b50604083015161140f604086018263ffffffff169052565b50606083015161142a60608601826001600160a01b03169052565b506080830151816080860152611442828601826112a6565b91505060a083015184820360a086015261145c8282611317565b91505060c083015184820360c086015261147682826112a6565b91505060e083015184820360e08601526114908282611343565b91505061010080840151858303828701526114ab8382611398565b9695505050505050565b602081526000610a4060208301846113d1565b6000602082840312156114da57600080fd5b8135610a40816110df565b6000806000606084860312156114fa57600080fd5b833561150581611195565b9250602084013561151581611195565b91506040840135611525816110df565b809150509250925092565b6000806040838503121561154357600080fd5b823561154e816110df565b9150602083013580151581146111d557600080fd5b6020808252600c908201526b3737ba103232b83637bcb2b960a11b604082015260600190565b634e487b7160e01b600052603260045260246000fd5b6020808252600c908201526b1b9bdd08185c1c1c9bdd995960a21b604082015260600190565b6000602082840312156115d757600080fd5b5051919050565b63ffffffff9290921682526001600160a01b0316602082015260400190565b805161160881611195565b919050565b600082601f83011261161e57600080fd5b8151602061162e61113f836110bc565b82815260059290921b8401810191818101908684111561164d57600080fd5b8286015b8481101561167157805161166481611195565b8352918301918301611651565b509695505050505050565b600061168a61113f846111e0565b905082815283838301111561169e57600080fd5b610a408360208301846112e7565b600082601f8301126116bd57600080fd5b815160206116cd61113f836110bc565b82815260059290921b840181019181810190868411156116ec57600080fd5b8286015b848110156116715780516001600160401b0381111561170f5760008081fd5b8701603f810189136117215760008081fd5b61173289868301516040840161167c565b8452509183019183016116f0565b600082601f83011261175157600080fd5b610a408383516020850161167c565b60006020828403121561177257600080fd5b81516001600160401b038082111561178957600080fd5b9083019060c0828603121561179d57600080fd5b6117a5611041565b6117ae836115fd565b81526117bc602084016115fd565b60208201526040830151828111156117d357600080fd5b6117df8782860161160d565b6040830152506060830151828111156117f757600080fd5b611803878286016116ac565b60608301525060808301518281111561181b57600080fd5b6118278782860161160d565b60808301525060a08301518281111561183f57600080fd5b61184b87828601611740565b60a08301525095945050505050565b60006020828403121561186c57600080fd5b8151610a4081611195565b60018060a01b038416815282602082015260606040820152600061189e60608301846113d1565b95945050505050565b6000602082840312156118b957600080fd5b81516001600160401b038111156118cf57600080fd5b6118db8482850161160d565b949350505050565b6000602082840312156118f557600080fd5b81516001600160401b0381111561190b57600080fd5b6118db848285016116ac565b6001600160a01b038416815263ffffffff8316602082015260606040820181905260009061189e908301846113d1565b8051611608816110df565b600082601f83011261196357600080fd5b8151602061197361113f836110bc565b82815260059290921b8401810191818101908684111561199257600080fd5b8286015b848110156116715780516119a9816110df565b8352918301918301611996565b6000602082840312156119c857600080fd5b81516001600160401b03808211156119df57600080fd5b9083019061012082860312156119f457600080fd5b6119fc611069565b611a05836115fd565b8152611a13602084016115fd565b6020820152611a24604084016115fd565b6040820152611a3560608401611947565b6060820152608083015182811115611a4c57600080fd5b611a588782860161160d565b60808301525060a083015182811115611a7057600080fd5b611a7c87828601611740565b60a08301525060c083015182811115611a9457600080fd5b611aa08782860161160d565b60c08301525060e083015182811115611ab857600080fd5b611ac4878286016116ac565b60e0830152506101008084015183811115611ade57600080fd5b611aea88828701611952565b91830191909152509594505050505056fea26469706673582212207fa571ff756eff645560e8f71ea83d659ce01ed0ca34f671231a4c5615f4958864736f6c634300080c0033",
  "linkReferences": {},
  "deployedLinkReferences": {}
}