{
  "_format": "hh-sol-artifact-1",
  "contractName": "DefaultRoyalty",
  "sourceName": "alpha/core/royalty/DefaultRoyalty.sol",
  "abi": [
    {
      "inputs": [
        {
          "internalType": "address",
          "name": "valuesContract",
          "type": "address"
        }
      ],
      "stateMutability": "nonpayable",
      "type": "constructor"
    },
    {
      "anonymous": false,
      "inputs": [
        {
          "indexed": true,
          "internalType": "address",
          "name": "sender",
          "type": "address"
        },
        {
          "indexed": false,
          "internalType": "uint256",
          "name": "amount",
          "type": "uint256"
        },
        {
          "indexed": false,
          "internalType": "uint256",
          "name": "newTotal",
          "type": "uint256"
        }
      ],
      "name": "DispensedRoyalty",
      "type": "event"
    },
    {
      "anonymous": false,
      "inputs": [
        {
          "indexed": true,
          "internalType": "address",
          "name": "sender",
          "type": "address"
        },
        {
          "indexed": true,
          "internalType": "address",
          "name": "changee",
          "type": "address"
        },
        {
          "indexed": false,
          "internalType": "bool",
          "name": "value",
          "type": "bool"
        }
      ],
      "name": "PermissionChange",
      "type": "event"
    },
    {
      "anonymous": false,
      "inputs": [
        {
          "indexed": true,
          "internalType": "address",
          "name": "from",
          "type": "address"
        },
        {
          "indexed": true,
          "internalType": "address",
          "name": "to",
          "type": "address"
        }
      ],
      "name": "TransferedOwnership",
      "type": "event"
    },
    {
      "inputs": [],
      "name": "SPLIT_TYPE_MINT",
      "outputs": [
        {
          "internalType": "uint8",
          "name": "",
          "type": "uint8"
        }
      ],
      "stateMutability": "view",
      "type": "function"
    },
    {
      "inputs": [],
      "name": "SPLIT_TYPE_STICKER",
      "outputs": [
        {
          "internalType": "uint8",
          "name": "",
          "type": "uint8"
        }
      ],
      "stateMutability": "view",
      "type": "function"
    },
    {
      "inputs": [
        {
          "internalType": "address",
          "name": "",
          "type": "address"
        }
      ],
      "name": "approved",
      "outputs": [
        {
          "internalType": "bool",
          "name": "",
          "type": "bool"
        }
      ],
      "stateMutability": "view",
      "type": "function"
    },
    {
      "inputs": [
        {
          "internalType": "uint256",
          "name": "_tokenPrice",
          "type": "uint256"
        }
      ],
      "name": "changePrice",
      "outputs": [],
      "stateMutability": "nonpayable",
      "type": "function"
    },
    {
      "inputs": [
        {
          "internalType": "uint256",
          "name": "",
          "type": "uint256"
        }
      ],
      "name": "counter",
      "outputs": [
        {
          "internalType": "uint256",
          "name": "",
          "type": "uint256"
        }
      ],
      "stateMutability": "view",
      "type": "function"
    },
    {
      "inputs": [],
      "name": "deployer",
      "outputs": [
        {
          "internalType": "address",
          "name": "",
          "type": "address"
        }
      ],
      "stateMutability": "view",
      "type": "function"
    },
    {
      "inputs": [
        {
          "internalType": "address",
          "name": "addr",
          "type": "address"
        }
      ],
      "name": "dispenseRoyalty",
      "outputs": [
        {
          "internalType": "uint256",
          "name": "total",
          "type": "uint256"
        }
      ],
      "stateMutability": "nonpayable",
      "type": "function"
    },
    {
      "inputs": [],
      "name": "erc721Destination",
      "outputs": [
        {
          "internalType": "address",
          "name": "",
          "type": "address"
        }
      ],
      "stateMutability": "view",
      "type": "function"
    },
    {
      "inputs": [
        {
          "internalType": "uint256",
          "name": "",
          "type": "uint256"
        }
      ],
      "name": "freebies",
      "outputs": [
        {
          "internalType": "uint256",
          "name": "",
          "type": "uint256"
        }
      ],
      "stateMutability": "view",
      "type": "function"
    },
    {
      "inputs": [
        {
          "internalType": "uint256",
          "name": "value",
          "type": "uint256"
        },
        {
          "internalType": "uint256",
          "name": "splitType",
          "type": "uint256"
        }
      ],
      "name": "incrementBalance",
      "outputs": [],
      "stateMutability": "nonpayable",
      "type": "function"
    },
    {
      "inputs": [
        {
          "internalType": "address",
          "name": "addr",
          "type": "address"
        }
      ],
      "name": "isAuthenticated",
      "outputs": [
        {
          "internalType": "bool",
          "name": "",
          "type": "bool"
        }
      ],
      "stateMutability": "view",
      "type": "function"
    },
    {
      "inputs": [],
      "name": "lastTokenPrice",
      "outputs": [
        {
          "internalType": "uint256",
          "name": "",
          "type": "uint256"
        }
      ],
      "stateMutability": "view",
      "type": "function"
    },
    {
      "inputs": [
        {
          "internalType": "address[]",
          "name": "addrs",
          "type": "address[]"
        }
      ],
      "name": "multiApprove",
      "outputs": [],
      "stateMutability": "nonpayable",
      "type": "function"
    },
    {
      "inputs": [
        {
          "internalType": "address[]",
          "name": "addrs",
          "type": "address[]"
        }
      ],
      "name": "multiRevoke",
      "outputs": [],
      "stateMutability": "nonpayable",
      "type": "function"
    },
    {
      "inputs": [],
      "name": "originalTokenPrice",
      "outputs": [
        {
          "internalType": "uint256",
          "name": "",
          "type": "uint256"
        }
      ],
      "stateMutability": "view",
      "type": "function"
    },
    {
      "inputs": [
        {
          "internalType": "uint256",
          "name": "splitType",
          "type": "uint256"
        }
      ],
      "name": "registerFree",
      "outputs": [],
      "stateMutability": "nonpayable",
      "type": "function"
    },
    {
      "inputs": [
        {
          "internalType": "address",
          "name": "addr",
          "type": "address"
        },
        {
          "internalType": "bool",
          "name": "value",
          "type": "bool"
        }
      ],
      "name": "setPrivilages",
      "outputs": [],
      "stateMutability": "nonpayable",
      "type": "function"
    },
    {
      "inputs": [],
      "name": "stickerSplit",
      "outputs": [
        {
          "internalType": "uint256",
          "name": "",
          "type": "uint256"
        }
      ],
      "stateMutability": "view",
      "type": "function"
    },
    {
      "inputs": [],
      "name": "tokenPrice",
      "outputs": [
        {
          "internalType": "uint256",
          "name": "",
          "type": "uint256"
        }
      ],
      "stateMutability": "view",
      "type": "function"
    },
    {
      "inputs": [
        {
          "internalType": "address",
          "name": "addr",
          "type": "address"
        }
      ],
      "name": "transferOwnership",
      "outputs": [],
      "stateMutability": "nonpayable",
      "type": "function"
    },
    {
      "inputs": [
        {
          "internalType": "address",
          "name": "",
          "type": "address"
        }
      ],
      "name": "values",
      "outputs": [
        {
          "internalType": "uint256",
          "name": "",
          "type": "uint256"
        }
      ],
      "stateMutability": "view",
      "type": "function"
    }
  ],
  "bytecode": "0x60806040523480156200001157600080fd5b506040516200113f3803806200113f833981016040819052620000349162000576565b600080546001600160a01b0319908116339081178355825260026020526040808320805460ff1916600190811790915592909255600380546001600160a01b038516921682179055905163e7b6dac960e01b815282919063e7b6dac990620000c1906004016020808252600e908201526d62617365546f6b656e56616c756560901b604082015260600190565b602060405180830381865afa158015620000df573d6000803e3d6000fd5b505050506040513d601f19601f82011682018060405250810190620001059190620005a8565b60035460405163e7b6dac960e01b815260206004820152600d60248201526c7374617274696e67507269636560981b60448201526001600160a01b039091169063e7b6dac990606401602060405180830381865afa1580156200016c573d6000803e3d6000fd5b505050506040513d601f19601f82011682018060405250810190620001929190620005a8565b6200019e9190620005c2565b60075560035460405163e7b6dac960e01b815260206004820152600e60248201526d62617365546f6b656e56616c756560901b60448201526001600160a01b039091169063e7b6dac990606401602060405180830381865afa15801562000209573d6000803e3d6000fd5b505050506040513d601f19601f820116820180604052508101906200022f9190620005a8565b60035460405163e7b6dac960e01b815260206004820152600d60248201526c7374617274696e67507269636560981b60448201526001600160a01b039091169063e7b6dac990606401602060405180830381865afa15801562000296573d6000803e3d6000fd5b505050506040513d601f19601f82011682018060405250810190620002bc9190620005a8565b620002c89190620005c2565b60095560035460405163e7b6dac960e01b815260206004820152600e60248201526d62617365546f6b656e56616c756560901b60448201526001600160a01b039091169063e7b6dac990606401602060405180830381865afa15801562000333573d6000803e3d6000fd5b505050506040513d601f19601f82011682018060405250810190620003599190620005a8565b60035460405163e7b6dac960e01b815260206004820152600d60248201526c7374617274696e67507269636560981b60448201526001600160a01b039091169063e7b6dac990606401602060405180830381865afa158015620003c0573d6000803e3d6000fd5b505050506040513d601f19601f82011682018060405250810190620003e69190620005a8565b620003f29190620005c2565b60085560035460405163e7b6dac960e01b815260206004820152600c60248201526b1cdd1a58dad95c94dc1b1a5d60a21b60448201526064916001600160a01b03169063e7b6dac9908301602060405180830381865afa1580156200045b573d6000803e3d6000fd5b505050506040513d601f19601f82011682018060405250810190620004819190620005a8565b1115620004de5760405162461bcd60e51b815260206004820152602160248201527f737469636b65722073706c697420697320612076616c7565206f7665722031306044820152600360fc1b606482015260840160405180910390fd5b60035460405163e7b6dac960e01b815260206004820152600c60248201526b1cdd1a58dad95c94dc1b1a5d60a21b60448201526001600160a01b039091169063e7b6dac990606401602060405180830381865afa15801562000544573d6000803e3d6000fd5b505050506040513d601f19601f820116820180604052508101906200056a9190620005a8565b600a5550620005f09050565b6000602082840312156200058957600080fd5b81516001600160a01b0381168114620005a157600080fd5b9392505050565b600060208284031215620005bb57600080fd5b5051919050565b6000816000190483118215151615620005eb57634e487b7160e01b600052601160045260246000fd5b500290565b610b3f80620006006000396000f3fe608060405234801561001057600080fd5b50600436106101075760003560e01c806304caf36a1461010c5780630d494e971461012157806310a8c7a91461013d57806331ed86d2146101505780633a9c021e1461016357806354fe9fd71461017d5780635b6bf6411461019d5780637ff9b596146101a5578063948509ea146101ae578063a2b40d19146101d9578063a9313769146101ec578063b1f525c6146101f5578063b64d7df114610215578063c26623f01461021e578063d15d41501461023e578063d5f3948814610261578063d8b964e614610274578063e8953af214610297578063f2fde38b146102aa578063f80335a2146102bd578063fe684c0e146102d0575b600080fd5b61011f61011a3660046108ac565b6102e3565b005b61012a60085481565b6040519081526020015b60405180910390f35b61011f61014b366004610900565b6103ea565b61011f61015e366004610900565b610481565b61016b600081565b60405160ff9091168152602001610134565b61012a61018b3660046109c5565b60056020526000908152604090205481565b61016b600181565b61012a60075481565b6004546101c1906001600160a01b031681565b6040516001600160a01b039091168152602001610134565b61011f6101e73660046109e7565b610514565b61012a600a5481565b61012a6102033660046109e7565b600c6020526000908152604090205481565b61012a60095481565b61012a61022c3660046109e7565b60066020526000908152604090205481565b61025161024c3660046109c5565b610548565b6040519015158152602001610134565b6000546101c1906001600160a01b031681565b6102516102823660046109c5565b60026020526000908152604090205460ff1681565b61012a6102a53660046109c5565b610583565b61011f6102b83660046109c5565b6106c4565b61011f6102cb3660046109e7565b610764565b61011f6102de366004610a00565b6107ca565b6000546001600160a01b031633148061030b57503360009081526002602052604090205460ff165b6103305760405162461bcd60e51b815260040161032790610a3c565b60405180910390fd5b60018060008282546103429190610a78565b90915550506001548261035d5761035882610764565b6103c4565b6000828152600c6020526040902054610377906001610a78565b6000838152600c602090815260408083209390935581546001600160a01b031682526005905220546103aa908490610a78565b600080546001600160a01b03168152600560205260409020555b60015481146103e55760405162461bcd60e51b815260040161032790610a90565b505050565b6000546001600160a01b031633146104145760405162461bcd60e51b815260040161032790610ab2565b805161041f57600080fd5b60005b815181101561047d5760016002600084848151811061044357610443610ad8565b6020908102919091018101516001600160a01b03168252810191909152604001600020805460ff1916911515919091179055600101610422565b5050565b6000546001600160a01b031633146104ab5760405162461bcd60e51b815260040161032790610ab2565b80516104b657600080fd5b60005b815181101561047d576000600260008484815181106104da576104da610ad8565b6020908102919091018101516001600160a01b03168252810191909152604001600020805460ff19169115159190911790556001016104b9565b6000546001600160a01b0316331461053e5760405162461bcd60e51b815260040161032790610ab2565b6007805460095555565b600080546001600160a01b038381169116148061057d57506001600160a01b03821660009081526002602052604090205460ff165b92915050565b600080546001600160a01b03163314806105ac57503360009081526002602052604090205460ff165b6105c85760405162461bcd60e51b815260040161032790610a3c565b60018060008282546105da9190610a78565b90915550506001546001600160a01b0383166000908152600560205260409020546106425760405162461bcd60e51b8152602060048201526018602482015277496e76616c6964206f7220456d707479206164647265737360401b6044820152606401610327565b6001600160a01b03831660008181526005602090815260408083208054908490558151818152928301939093529194507f2cbba200147d9b2ecc06e0ff06af07d3630a1d26383fb0b6385fa32a327b7822910160405180910390a260015481146106be5760405162461bcd60e51b815260040161032790610a90565b50919050565b6000546001600160a01b031633146106ee5760405162461bcd60e51b815260040161032790610ab2565b600080546001600160a01b03908116825260026020526040808320805460ff1990811690915583546001600160a01b03191692851692831784558284528184208054909116600117905551909133917f93091b3f3cd424efabc74e181f3799f3476ed758412561ed3b29515c51f567529190a350565b6000546001600160a01b031633148061078c57503360009081526002602052604090205460ff165b6107a85760405162461bcd60e51b815260040161032790610a3c565b60008181526006602052604081208054916107c283610aee565b919050555050565b6000546001600160a01b031633146107f45760405162461bcd60e51b815260040161032790610ab2565b6000546001600160a01b038381169116141561084b5760405162461bcd60e51b815260206004820152601660248201527531b0b73737ba1036b7b234b33c903232b83637bcb2b960511b6044820152606401610327565b6001600160a01b038216600081815260026020908152604091829020805460ff1916851515908117909155915191825233917ff38de818d000d07d091732dd783c6855722d7bc1934d92b7635133289d341695910160405180910390a35050565b600080604083850312156108bf57600080fd5b50508035926020909101359150565b634e487b7160e01b600052604160045260246000fd5b80356001600160a01b03811681146108fb57600080fd5b919050565b6000602080838503121561091357600080fd5b823567ffffffffffffffff8082111561092b57600080fd5b818501915085601f83011261093f57600080fd5b813581811115610951576109516108ce565b8060051b604051601f19603f83011681018181108582111715610976576109766108ce565b60405291825284820192508381018501918883111561099457600080fd5b938501935b828510156109b9576109aa856108e4565b84529385019392850192610999565b98975050505050505050565b6000602082840312156109d757600080fd5b6109e0826108e4565b9392505050565b6000602082840312156109f957600080fd5b5035919050565b60008060408385031215610a1357600080fd5b610a1c836108e4565b915060208301358015158114610a3157600080fd5b809150509250929050565b6020808252600c908201526b1b9bdd08185c1c1c9bdd995960a21b604082015260600190565b634e487b7160e01b600052601160045260246000fd5b60008219821115610a8b57610a8b610a62565b500190565b60208082526008908201526772652d656e74727960c01b604082015260600190565b6020808252600c908201526b3737ba103232b83637bcb2b960a11b604082015260600190565b634e487b7160e01b600052603260045260246000fd5b6000600019821415610b0257610b02610a62565b506001019056fea2646970667358221220a5c268d6baf3b560f11b508b63a5174ee262ae64e514e0b7581a830734373bab64736f6c634300080c0033",
  "linkReferences": {},
  "deployedLinkReferences": {}
}