{
  "_format": "hh-sol-artifact-1",
  "contractName": "SelectiveMinter",
  "sourceName": "alpha/core/minter/SelectiveMinter.sol",
  "abi": [
    {
      "inputs": [
        {
          "internalType": "address",
          "name": "valuesContract",
          "type": "address"
        },
        {
          "internalType": "address",
          "name": "storageContract",
          "type": "address"
        },
        {
          "internalType": "address",
          "name": "assetContract",
          "type": "address"
        },
        {
          "internalType": "address",
          "name": "randomNumberContract",
          "type": "address"
        }
      ],
      "stateMutability": "nonpayable",
      "type": "constructor"
    },
    {
      "anonymous": false,
      "inputs": [
        {
          "indexed": true,
          "internalType": "address",
          "name": "sender",
          "type": "address"
        },
        {
          "indexed": true,
          "internalType": "address",
          "name": "changee",
          "type": "address"
        },
        {
          "indexed": false,
          "internalType": "bool",
          "name": "value",
          "type": "bool"
        }
      ],
      "name": "PermissionChange",
      "type": "event"
    },
    {
      "anonymous": false,
      "inputs": [
        {
          "indexed": true,
          "internalType": "address",
          "name": "from",
          "type": "address"
        },
        {
          "indexed": true,
          "internalType": "address",
          "name": "to",
          "type": "address"
        }
      ],
      "name": "TransferedOwnership",
      "type": "event"
    },
    {
      "inputs": [
        {
          "internalType": "address",
          "name": "",
          "type": "address"
        }
      ],
      "name": "approved",
      "outputs": [
        {
          "internalType": "bool",
          "name": "",
          "type": "bool"
        }
      ],
      "stateMutability": "view",
      "type": "function"
    },
    {
      "inputs": [],
      "name": "assetController",
      "outputs": [
        {
          "internalType": "contract Asset",
          "name": "",
          "type": "address"
        }
      ],
      "stateMutability": "view",
      "type": "function"
    },
    {
      "inputs": [],
      "name": "deployer",
      "outputs": [
        {
          "internalType": "address",
          "name": "",
          "type": "address"
        }
      ],
      "stateMutability": "view",
      "type": "function"
    },
    {
      "inputs": [
        {
          "internalType": "uint32",
          "name": "currentTokenId",
          "type": "uint32"
        },
        {
          "internalType": "address",
          "name": "sender",
          "type": "address"
        }
      ],
      "name": "getPreview",
      "outputs": [
        {
          "internalType": "uint256",
          "name": "previewCount",
          "type": "uint256"
        }
      ],
      "stateMutability": "nonpayable",
      "type": "function"
    },
    {
      "inputs": [
        {
          "internalType": "address",
          "name": "addr",
          "type": "address"
        }
      ],
      "name": "isAuthenticated",
      "outputs": [
        {
          "internalType": "bool",
          "name": "",
          "type": "bool"
        }
      ],
      "stateMutability": "view",
      "type": "function"
    },
    {
      "inputs": [
        {
          "internalType": "uint32",
          "name": "currentTokenId",
          "type": "uint32"
        },
        {
          "internalType": "address",
          "name": "sender",
          "type": "address"
        },
        {
          "internalType": "bytes",
          "name": "mintData",
          "type": "bytes"
        }
      ],
      "name": "mint",
      "outputs": [
        {
          "components": [
            {
              "internalType": "uint32",
              "name": "pathId",
              "type": "uint32"
            },
            {
              "internalType": "uint32",
              "name": "pathSize",
              "type": "uint32"
            },
            {
              "internalType": "uint32",
              "name": "currentTokenId",
              "type": "uint32"
            },
            {
              "internalType": "address",
              "name": "owner",
              "type": "address"
            },
            {
              "internalType": "uint32[]",
              "name": "colours",
              "type": "uint32[]"
            },
            {
              "internalType": "bytes",
              "name": "mintData",
              "type": "bytes"
            },
            {
              "internalType": "uint32[]",
              "name": "assets",
              "type": "uint32[]"
            },
            {
              "internalType": "string[]",
              "name": "names",
              "type": "string[]"
            },
            {
              "internalType": "address[]",
              "name": "destinations",
              "type": "address[]"
            }
          ],
          "internalType": "struct InfinityMintObject.InfinityObject",
          "name": "",
          "type": "tuple"
        }
      ],
      "stateMutability": "nonpayable",
      "type": "function"
    },
    {
      "inputs": [
        {
          "internalType": "uint32",
          "name": "index",
          "type": "uint32"
        },
        {
          "internalType": "uint32",
          "name": "currentTokenId",
          "type": "uint32"
        },
        {
          "internalType": "address",
          "name": "sender",
          "type": "address"
        }
      ],
      "name": "mintPreview",
      "outputs": [
        {
          "components": [
            {
              "internalType": "uint32",
              "name": "pathId",
              "type": "uint32"
            },
            {
              "internalType": "uint32",
              "name": "pathSize",
              "type": "uint32"
            },
            {
              "internalType": "uint32",
              "name": "currentTokenId",
              "type": "uint32"
            },
            {
              "internalType": "address",
              "name": "owner",
              "type": "address"
            },
            {
              "internalType": "uint32[]",
              "name": "colours",
              "type": "uint32[]"
            },
            {
              "internalType": "bytes",
              "name": "mintData",
              "type": "bytes"
            },
            {
              "internalType": "uint32[]",
              "name": "assets",
              "type": "uint32[]"
            },
            {
              "internalType": "string[]",
              "name": "names",
              "type": "string[]"
            },
            {
              "internalType": "address[]",
              "name": "destinations",
              "type": "address[]"
            }
          ],
          "internalType": "struct InfinityMintObject.InfinityObject",
          "name": "",
          "type": "tuple"
        }
      ],
      "stateMutability": "view",
      "type": "function"
    },
    {
      "inputs": [
        {
          "internalType": "address[]",
          "name": "addrs",
          "type": "address[]"
        }
      ],
      "name": "multiApprove",
      "outputs": [],
      "stateMutability": "nonpayable",
      "type": "function"
    },
    {
      "inputs": [
        {
          "internalType": "address[]",
          "name": "addrs",
          "type": "address[]"
        }
      ],
      "name": "multiRevoke",
      "outputs": [],
      "stateMutability": "nonpayable",
      "type": "function"
    },
    {
      "inputs": [],
      "name": "randomNumberController",
      "outputs": [
        {
          "internalType": "contract RandomNumber",
          "name": "",
          "type": "address"
        }
      ],
      "stateMutability": "view",
      "type": "function"
    },
    {
      "inputs": [
        {
          "internalType": "address",
          "name": "assetContract",
          "type": "address"
        }
      ],
      "name": "setAssetController",
      "outputs": [],
      "stateMutability": "nonpayable",
      "type": "function"
    },
    {
      "inputs": [
        {
          "internalType": "address",
          "name": "addr",
          "type": "address"
        },
        {
          "internalType": "bool",
          "name": "value",
          "type": "bool"
        }
      ],
      "name": "setPrivilages",
      "outputs": [],
      "stateMutability": "nonpayable",
      "type": "function"
    },
    {
      "inputs": [
        {
          "internalType": "address",
          "name": "randomNumberContract",
          "type": "address"
        }
      ],
      "name": "setRandomNumberController",
      "outputs": [],
      "stateMutability": "nonpayable",
      "type": "function"
    },
    {
      "inputs": [
        {
          "internalType": "address",
          "name": "storageContract",
          "type": "address"
        }
      ],
      "name": "setStorageController",
      "outputs": [],
      "stateMutability": "nonpayable",
      "type": "function"
    },
    {
      "inputs": [],
      "name": "storageController",
      "outputs": [
        {
          "internalType": "contract InfinityMintStorage",
          "name": "",
          "type": "address"
        }
      ],
      "stateMutability": "view",
      "type": "function"
    },
    {
      "inputs": [
        {
          "internalType": "address",
          "name": "addr",
          "type": "address"
        }
      ],
      "name": "transferOwnership",
      "outputs": [],
      "stateMutability": "nonpayable",
      "type": "function"
    },
    {
      "inputs": [],
      "name": "valuesController",
      "outputs": [
        {
          "internalType": "contract InfinityMintValues",
          "name": "",
          "type": "address"
        }
      ],
      "stateMutability": "view",
      "type": "function"
    }
  ],
  "bytecode": "0x60806040523480156200001157600080fd5b5060405162001c9a38038062001c9a8339810160408190526200003491620000cc565b60008054336001600160a01b0319918216811783558252600260205260408220805460ff19166001908117909155919091556004805482166001600160a01b03968716179055600580548216948616949094179093556003805484169285169290921790915560068054909216921691909117905562000129565b80516001600160a01b0381168114620000c757600080fd5b919050565b60008060008060808587031215620000e357600080fd5b620000ee85620000af565b9350620000fe60208601620000af565b92506200010e60408601620000af565b91506200011e60608601620000af565b905092959194509250565b611b6180620001396000396000f3fe608060405234801561001057600080fd5b50600436106100db5760003560e01c80630c380cf0146100e057806310a8c7a9146101105780631a5dad51146101255780631bc8bf931461014657806331ed86d2146101665780634c73947614610179578063573f86001461018c5780636fa13f3c1461019f5780639bb2ad88146101b2578063aed5ef82146101c5578063d15d4150146101d8578063d5f39488146101fb578063d8b964e61461020e578063ec2b46c314610231578063f2fde38b14610244578063fe528b1814610257578063fe684c0e1461026a575b600080fd5b6004546100f3906001600160a01b031681565b6040516001600160a01b0390911681526020015b60405180910390f35b61012361011e366004611127565b61027d565b005b6101386101333660046111d7565b61031d565b604051908152602001610107565b610159610154366004611237565b6108d3565b60405161010791906114e5565b610123610174366004611127565b610a77565b6101236101873660046114f8565b610b0a565b6003546100f3906001600160a01b031681565b6101236101ad3660046114f8565b610b70565b6101596101c0366004611515565b610bd6565b6006546100f3906001600160a01b031681565b6101eb6101e63660046114f8565b610d71565b6040519015158152602001610107565b6000546100f3906001600160a01b031681565b6101eb61021c3660046114f8565b60026020526000908152604090205460ff1681565b6005546100f3906001600160a01b031681565b6101236102523660046114f8565b610da8565b6101236102653660046114f8565b610e48565b610123610278366004611560565b610eae565b6000546001600160a01b031633146102b05760405162461bcd60e51b81526004016102a790611593565b60405180910390fd5b80516102bb57600080fd5b60005b8151811015610319576001600260008484815181106102df576102df6115b9565b6020908102919091018101516001600160a01b03168252810191909152604001600020805460ff19169115159190911790556001016102be565b5050565b600080546001600160a01b031633148061034657503360009081526002602052604090205460ff165b6103625760405162461bcd60e51b81526004016102a7906115cf565b6004805460405163e7b6dac960e01b8152602092810192909252600c60248301526b1c1c995d9a595dd0dbdd5b9d60a21b60448301526001600160a01b03169063e7b6dac990606401602060405180830381865afa1580156103c8573d6000803e3d6000fd5b505050506040513d601f19601f820116820180604052508101906103ec91906115f5565b9050806103f8576108cd565b6006546004805460405163e7b6dac960e01b81526000936001600160a01b039081169363a0d0ca0f939091169163e7b6dac99161045391016020808252600990820152681b985b5950dbdd5b9d60ba1b604082015260600190565b602060405180830381865afa158015610470573d6000803e3d6000fd5b505050506040513d601f19601f8201168201806040525081019061049491906115f5565b6040518263ffffffff1660e01b81526004016104b291815260200190565b6020604051808303816000875af11580156104d1573d6000803e3d6000fd5b505050506040513d601f19601f820116820180604052508101906104f591906115f5565b60035460065460405163433ee8cd60e01b81529293506000926001600160a01b039283169263433ee8cd92610532928a929091169060040161160e565b6000604051808303816000875af1158015610551573d6000803e3d6000fd5b505050506040513d6000823e601f3d908101601f191682016040526105799190810190611790565b905060006106456000600360009054906101000a90046001600160a01b03166001600160a01b03166346e4e7c96040518163ffffffff1660e01b8152600401602060405180830381865afa1580156105d5573d6000803e3d6000fd5b505050506040513d601f19601f820116820180604052508101906105f9919061188a565b602085015160408601516060870151608088015160a08901518c60005b60405190808252806020026020018201604052801561063f578160200160208202803683370190505b50610f90565b600554604051632adccb2560e21b81529192506001600160a01b03169063ab732c949061067b90889060009086906004016118a7565b600060405180830381600087803b15801561069557600080fd5b505af11580156106a9573d6000803e3d6000fd5b506001925050505b848163ffffffff1610156108c85763ffffffff811660408084019190915260035483516006549251638e6e826d60e01b81526001600160a01b0392831693638e6e826d93610705939291169060040161160e565b6000604051808303816000875af1158015610724573d6000803e3d6000fd5b505050506040513d6000823e601f3d908101601f1916820160405261074c91908101906118d7565b60c0830152600354825160065460405163eb2c2da360e01b81526001600160a01b039384169363eb2c2da39361078993909291169060040161160e565b6000604051808303816000875af11580156107a8573d6000803e3d6000fd5b505050506040513d6000823e601f3d908101601f191682016040526107d091908101906118d7565b6080830152600354600654604051632637f35160e11b8152600481018790526001600160a01b039182166024820152911690634c6fe6a2906044016000604051808303816000875af115801561082a573d6000803e3d6000fd5b505050506040513d6000823e601f3d908101601f191682016040526108529190810190611913565b60e0830152600554604051632adccb2560e21b81526001600160a01b039091169063ab732c949061088b90899085908790600401611947565b600060405180830381600087803b1580156108a557600080fd5b505af11580156108b9573d6000803e3d6000fd5b505050508060010190506106b1565b505050505b92915050565b6108db610ff4565b6000546001600160a01b031633148061090357503360009081526002602052604090205460ff165b61091f5760405162461bcd60e51b81526004016102a7906115cf565b60035482516000916001600160a01b031690637bd6ec4a9061094a908601602090810190870161188a565b60065460405160e084901b6001600160e01b031916815263ffffffff928316600482015291891660248301526001600160a01b031660448201526064016000604051808303816000875af11580156109a6573d6000803e3d6000fd5b505050506040513d6000823e601f3d908101601f191682016040526109ce9190810190611790565b9050610a6c85600360009054906101000a90046001600160a01b03166001600160a01b03166346e4e7c96040518163ffffffff1660e01b8152600401602060405180830381865afa158015610a27573d6000803e3d6000fd5b505050506040513d601f19601f82011682018060405250810190610a4b919061188a565b602084015160408501516060860151608087015160a08801518b6000610616565b9150505b9392505050565b6000546001600160a01b03163314610aa15760405162461bcd60e51b81526004016102a790611593565b8051610aac57600080fd5b60005b815181101561031957600060026000848481518110610ad057610ad06115b9565b6020908102919091018101516001600160a01b03168252810191909152604001600020805460ff1916911515919091179055600101610aaf565b6000546001600160a01b0316331480610b3257503360009081526002602052604090205460ff165b610b4e5760405162461bcd60e51b81526004016102a7906115cf565b600580546001600160a01b0319166001600160a01b0392909216919091179055565b6000546001600160a01b0316331480610b9857503360009081526002602052604090205460ff165b610bb45760405162461bcd60e51b81526004016102a7906115cf565b600680546001600160a01b0319166001600160a01b0392909216919091179055565b610bde610ff4565b6000546001600160a01b0316331480610c0657503360009081526002602052604090205460ff165b610c225760405162461bcd60e51b81526004016102a7906115cf565b60055460405163fccc3cd560e01b81526001600160a01b03848116600483015263ffffffff87166024830152600092169063fccc3cd590604401600060405180830381865afa158015610c79573d6000803e3d6000fd5b505050506040513d6000823e601f3d908101601f19168201604052610ca191908101906119e6565b9050826001600160a01b031681606001516001600160a01b031614610cf45760405162461bcd60e51b81526020600482015260096024820152683130b21037bbb732b960b91b60448201526064016102a7565b8463ffffffff16816040015163ffffffff1614610d3f5760405162461bcd60e51b81526020600482015260096024820152680c4c2c840d2dcc8caf60bb1b60448201526064016102a7565b610a6c84826000015183602001518460c001518560e0015186608001518760a001518860600151896101000151610f90565b600080546001600160a01b03838116911614806108cd5750506001600160a01b031660009081526002602052604090205460ff1690565b6000546001600160a01b03163314610dd25760405162461bcd60e51b81526004016102a790611593565b600080546001600160a01b03908116825260026020526040808320805460ff1990811690915583546001600160a01b03191692851692831784558284528184208054909116600117905551909133917f93091b3f3cd424efabc74e181f3799f3476ed758412561ed3b29515c51f567529190a350565b6000546001600160a01b0316331480610e7057503360009081526002602052604090205460ff165b610e8c5760405162461bcd60e51b81526004016102a7906115cf565b600380546001600160a01b0319166001600160a01b0392909216919091179055565b6000546001600160a01b03163314610ed85760405162461bcd60e51b81526004016102a790611593565b6000546001600160a01b0383811691161415610f2f5760405162461bcd60e51b815260206004820152601660248201527531b0b73737ba1036b7b234b33c903232b83637bcb2b960511b60448201526064016102a7565b6001600160a01b038216600081815260026020908152604091829020805460ff1916851515908117909155915191825233917ff38de818d000d07d091732dd783c6855722d7bc1934d92b7635133289d341695910160405180910390a35050565b610f98610ff4565b50604080516101208101825263ffffffff998a168152978916602089015298909716978601979097526001600160a01b039096166060850152608084015260a083019490945260c082015260e081019290925261010082015290565b604051806101200160405280600063ffffffff168152602001600063ffffffff168152602001600063ffffffff16815260200160006001600160a01b0316815260200160608152602001606081526020016060815260200160608152602001606081525090565b634e487b7160e01b600052604160045260246000fd5b60405160c081016001600160401b03811182821017156110935761109361105b565b60405290565b60405161012081016001600160401b03811182821017156110935761109361105b565b604051601f8201601f191681016001600160401b03811182821017156110e4576110e461105b565b604052919050565b60006001600160401b038211156111055761110561105b565b5060051b60200190565b6001600160a01b038116811461112457600080fd5b50565b6000602080838503121561113a57600080fd5b82356001600160401b0381111561115057600080fd5b8301601f8101851361116157600080fd5b803561117461116f826110ec565b6110bc565b81815260059190911b8201830190838101908783111561119357600080fd5b928401925b828410156111ba5783356111ab8161110f565b82529284019290840190611198565b979650505050505050565b63ffffffff8116811461112457600080fd5b600080604083850312156111ea57600080fd5b82356111f5816111c5565b915060208301356112058161110f565b809150509250929050565b60006001600160401b038211156112295761122961105b565b50601f01601f191660200190565b60008060006060848603121561124c57600080fd5b8335611257816111c5565b925060208401356112678161110f565b915060408401356001600160401b0381111561128257600080fd5b8401601f8101861361129357600080fd5b80356112a161116f82611210565b8181528760208385010111156112b657600080fd5b816020840160208301376000602083830101528093505050509250925092565b600081518084526020808501945080840160005b8381101561130c57815163ffffffff16875295820195908201906001016112ea565b509495945050505050565b60005b8381101561133257818101518382015260200161131a565b83811115611341576000848401525b50505050565b6000815180845261135f816020860160208601611317565b601f01601f19169290920160200192915050565b600081518084526020808501808196508360051b8101915082860160005b858110156113bb5782840389526113a9848351611347565b98850198935090840190600101611391565b5091979650505050505050565b600081518084526020808501945080840160005b8381101561130c5781516001600160a01b0316875295820195908201906001016113dc565b805163ffffffff16825260006101206020830151611427602086018263ffffffff169052565b50604083015161143f604086018263ffffffff169052565b50606083015161145a60608601826001600160a01b03169052565b506080830151816080860152611472828601826112d6565b91505060a083015184820360a086015261148c8282611347565b91505060c083015184820360c08601526114a682826112d6565b91505060e083015184820360e08601526114c08282611373565b91505061010080840151858303828701526114db83826113c8565b9695505050505050565b602081526000610a706020830184611401565b60006020828403121561150a57600080fd5b8135610a708161110f565b60008060006060848603121561152a57600080fd5b8335611535816111c5565b92506020840135611545816111c5565b915060408401356115558161110f565b809150509250925092565b6000806040838503121561157357600080fd5b823561157e8161110f565b91506020830135801515811461120557600080fd5b6020808252600c908201526b3737ba103232b83637bcb2b960a11b604082015260600190565b634e487b7160e01b600052603260045260246000fd5b6020808252600c908201526b1b9bdd08185c1c1c9bdd995960a21b604082015260600190565b60006020828403121561160757600080fd5b5051919050565b63ffffffff9290921682526001600160a01b0316602082015260400190565b8051611638816111c5565b919050565b600082601f83011261164e57600080fd5b8151602061165e61116f836110ec565b82815260059290921b8401810191818101908684111561167d57600080fd5b8286015b848110156116a1578051611694816111c5565b8352918301918301611681565b509695505050505050565b60006116ba61116f84611210565b90508281528383830111156116ce57600080fd5b610a70836020830184611317565b600082601f8301126116ed57600080fd5b815160206116fd61116f836110ec565b82815260059290921b8401810191818101908684111561171c57600080fd5b8286015b848110156116a15780516001600160401b0381111561173f5760008081fd5b8701603f810189136117515760008081fd5b6117628986830151604084016116ac565b845250918301918301611720565b600082601f83011261178157600080fd5b610a70838351602085016116ac565b6000602082840312156117a257600080fd5b81516001600160401b03808211156117b957600080fd5b9083019060c082860312156117cd57600080fd5b6117d5611071565b6117de8361162d565b81526117ec6020840161162d565b602082015260408301518281111561180357600080fd5b61180f8782860161163d565b60408301525060608301518281111561182757600080fd5b611833878286016116dc565b60608301525060808301518281111561184b57600080fd5b6118578782860161163d565b60808301525060a08301518281111561186f57600080fd5b61187b87828601611770565b60a08301525095945050505050565b60006020828403121561189c57600080fd5b8151610a70816111c5565b60018060a01b03841681528260208201526060604082015260006118ce6060830184611401565b95945050505050565b6000602082840312156118e957600080fd5b81516001600160401b038111156118ff57600080fd5b61190b8482850161163d565b949350505050565b60006020828403121561192557600080fd5b81516001600160401b0381111561193b57600080fd5b61190b848285016116dc565b6001600160a01b038416815263ffffffff831660208201526060604082018190526000906118ce90830184611401565b80516116388161110f565b600082601f83011261199357600080fd5b815160206119a361116f836110ec565b82815260059290921b840181019181810190868411156119c257600080fd5b8286015b848110156116a15780516119d98161110f565b83529183019183016119c6565b6000602082840312156119f857600080fd5b81516001600160401b0380821115611a0f57600080fd5b908301906101208286031215611a2457600080fd5b611a2c611099565b611a358361162d565b8152611a436020840161162d565b6020820152611a546040840161162d565b6040820152611a6560608401611977565b6060820152608083015182811115611a7c57600080fd5b611a888782860161163d565b60808301525060a083015182811115611aa057600080fd5b611aac87828601611770565b60a08301525060c083015182811115611ac457600080fd5b611ad08782860161163d565b60c08301525060e083015182811115611ae857600080fd5b611af4878286016116dc565b60e0830152506101008084015183811115611b0e57600080fd5b611b1a88828701611982565b91830191909152509594505050505056fea264697066735822122058de6449efd21dd27d6304e338130d1f8cee43f6dede2a1084c81de3d485255564736f6c634300080c0033",
  "linkReferences": {},
  "deployedLinkReferences": {}
}