{
  "_format": "hh-sol-artifact-1",
  "contractName": "TokenWallet",
  "sourceName": "alpha/links/TokenWallet.sol",
  "abi": [
    {
      "inputs": [
        {
          "internalType": "uint32",
          "name": "tokenId",
          "type": "uint32"
        },
        {
          "internalType": "address",
          "name": "erc721Destination",
          "type": "address"
        }
      ],
      "stateMutability": "nonpayable",
      "type": "constructor"
    },
    {
      "anonymous": false,
      "inputs": [
        {
          "indexed": true,
          "internalType": "address",
          "name": "sender",
          "type": "address"
        },
        {
          "indexed": false,
          "internalType": "uint256",
          "name": "amount",
          "type": "uint256"
        },
        {
          "indexed": false,
          "internalType": "uint256",
          "name": "newTotal",
          "type": "uint256"
        }
      ],
      "name": "Deposit",
      "type": "event"
    },
    {
      "anonymous": false,
      "inputs": [
        {
          "indexed": true,
          "internalType": "address",
          "name": "sender",
          "type": "address"
        },
        {
          "indexed": true,
          "internalType": "address",
          "name": "changee",
          "type": "address"
        },
        {
          "indexed": false,
          "internalType": "bool",
          "name": "value",
          "type": "bool"
        }
      ],
      "name": "PermissionChange",
      "type": "event"
    },
    {
      "anonymous": false,
      "inputs": [
        {
          "indexed": true,
          "internalType": "address",
          "name": "sender",
          "type": "address"
        },
        {
          "indexed": false,
          "internalType": "uint256",
          "name": "amount",
          "type": "uint256"
        },
        {
          "indexed": false,
          "internalType": "uint256",
          "name": "newTotal",
          "type": "uint256"
        }
      ],
      "name": "Transfer",
      "type": "event"
    },
    {
      "anonymous": false,
      "inputs": [
        {
          "indexed": true,
          "internalType": "address",
          "name": "from",
          "type": "address"
        },
        {
          "indexed": true,
          "internalType": "address",
          "name": "to",
          "type": "address"
        }
      ],
      "name": "TransferedOwnership",
      "type": "event"
    },
    {
      "anonymous": false,
      "inputs": [
        {
          "indexed": true,
          "internalType": "address",
          "name": "sender",
          "type": "address"
        },
        {
          "indexed": false,
          "internalType": "uint256",
          "name": "amount",
          "type": "uint256"
        },
        {
          "indexed": false,
          "internalType": "uint256",
          "name": "newTotal",
          "type": "uint256"
        }
      ],
      "name": "Withdraw",
      "type": "event"
    },
    {
      "inputs": [
        {
          "internalType": "address",
          "name": "",
          "type": "address"
        }
      ],
      "name": "approved",
      "outputs": [
        {
          "internalType": "bool",
          "name": "",
          "type": "bool"
        }
      ],
      "stateMutability": "view",
      "type": "function"
    },
    {
      "inputs": [],
      "name": "availableBalance",
      "outputs": [
        {
          "internalType": "uint256",
          "name": "",
          "type": "uint256"
        }
      ],
      "stateMutability": "view",
      "type": "function"
    },
    {
      "inputs": [
        {
          "internalType": "address",
          "name": "to",
          "type": "address"
        },
        {
          "internalType": "bytes",
          "name": "data",
          "type": "bytes"
        }
      ],
      "name": "call",
      "outputs": [
        {
          "internalType": "bool",
          "name": "",
          "type": "bool"
        },
        {
          "internalType": "bytes",
          "name": "",
          "type": "bytes"
        }
      ],
      "stateMutability": "nonpayable",
      "type": "function"
    },
    {
      "inputs": [
        {
          "internalType": "address",
          "name": "to",
          "type": "address"
        },
        {
          "internalType": "uint256",
          "name": "value",
          "type": "uint256"
        },
        {
          "internalType": "bytes",
          "name": "data",
          "type": "bytes"
        }
      ],
      "name": "call",
      "outputs": [
        {
          "internalType": "bool",
          "name": "",
          "type": "bool"
        },
        {
          "internalType": "bytes",
          "name": "",
          "type": "bytes"
        }
      ],
      "stateMutability": "nonpayable",
      "type": "function"
    },
    {
      "inputs": [],
      "name": "currentTokenId",
      "outputs": [
        {
          "internalType": "uint32",
          "name": "",
          "type": "uint32"
        }
      ],
      "stateMutability": "view",
      "type": "function"
    },
    {
      "inputs": [
        {
          "internalType": "address",
          "name": "to",
          "type": "address"
        },
        {
          "internalType": "bytes",
          "name": "data",
          "type": "bytes"
        }
      ],
      "name": "delegateCall",
      "outputs": [
        {
          "internalType": "bool",
          "name": "",
          "type": "bool"
        },
        {
          "internalType": "bytes",
          "name": "",
          "type": "bytes"
        }
      ],
      "stateMutability": "nonpayable",
      "type": "function"
    },
    {
      "inputs": [],
      "name": "deployer",
      "outputs": [
        {
          "internalType": "address",
          "name": "",
          "type": "address"
        }
      ],
      "stateMutability": "view",
      "type": "function"
    },
    {
      "inputs": [],
      "name": "deposit",
      "outputs": [],
      "stateMutability": "payable",
      "type": "function"
    },
    {
      "inputs": [],
      "name": "empty",
      "outputs": [],
      "stateMutability": "nonpayable",
      "type": "function"
    },
    {
      "inputs": [],
      "name": "erc721",
      "outputs": [
        {
          "internalType": "address",
          "name": "",
          "type": "address"
        }
      ],
      "stateMutability": "view",
      "type": "function"
    },
    {
      "inputs": [],
      "name": "getIntegrity",
      "outputs": [
        {
          "internalType": "address",
          "name": "",
          "type": "address"
        },
        {
          "internalType": "address",
          "name": "",
          "type": "address"
        },
        {
          "internalType": "uint256",
          "name": "",
          "type": "uint256"
        },
        {
          "internalType": "bytes",
          "name": "",
          "type": "bytes"
        },
        {
          "internalType": "bytes4",
          "name": "",
          "type": "bytes4"
        }
      ],
      "stateMutability": "view",
      "type": "function"
    },
    {
      "inputs": [
        {
          "internalType": "address",
          "name": "addr",
          "type": "address"
        }
      ],
      "name": "isAuthenticated",
      "outputs": [
        {
          "internalType": "bool",
          "name": "",
          "type": "bool"
        }
      ],
      "stateMutability": "view",
      "type": "function"
    },
    {
      "inputs": [
        {
          "internalType": "address[]",
          "name": "addrs",
          "type": "address[]"
        }
      ],
      "name": "multiApprove",
      "outputs": [],
      "stateMutability": "nonpayable",
      "type": "function"
    },
    {
      "inputs": [
        {
          "internalType": "address[]",
          "name": "addrs",
          "type": "address[]"
        }
      ],
      "name": "multiRevoke",
      "outputs": [],
      "stateMutability": "nonpayable",
      "type": "function"
    },
    {
      "inputs": [
        {
          "internalType": "address",
          "name": "",
          "type": "address"
        },
        {
          "internalType": "address",
          "name": "",
          "type": "address"
        },
        {
          "internalType": "uint256",
          "name": "",
          "type": "uint256"
        },
        {
          "internalType": "bytes",
          "name": "",
          "type": "bytes"
        }
      ],
      "name": "onERC721Received",
      "outputs": [
        {
          "internalType": "bytes4",
          "name": "",
          "type": "bytes4"
        }
      ],
      "stateMutability": "pure",
      "type": "function"
    },
    {
      "inputs": [
        {
          "internalType": "address payable",
          "name": "to",
          "type": "address"
        },
        {
          "internalType": "uint256",
          "name": "amount",
          "type": "uint256"
        }
      ],
      "name": "send",
      "outputs": [],
      "stateMutability": "nonpayable",
      "type": "function"
    },
    {
      "inputs": [
        {
          "internalType": "address",
          "name": "addr",
          "type": "address"
        },
        {
          "internalType": "bool",
          "name": "value",
          "type": "bool"
        }
      ],
      "name": "setPrivilages",
      "outputs": [],
      "stateMutability": "nonpayable",
      "type": "function"
    },
    {
      "inputs": [
        {
          "internalType": "address",
          "name": "to",
          "type": "address"
        },
        {
          "internalType": "bytes",
          "name": "data",
          "type": "bytes"
        }
      ],
      "name": "staticCall",
      "outputs": [
        {
          "internalType": "bool",
          "name": "",
          "type": "bool"
        },
        {
          "internalType": "bytes",
          "name": "",
          "type": "bytes"
        }
      ],
      "stateMutability": "view",
      "type": "function"
    },
    {
      "inputs": [
        {
          "internalType": "address",
          "name": "erc721Destination",
          "type": "address"
        },
        {
          "internalType": "address",
          "name": "to",
          "type": "address"
        },
        {
          "internalType": "uint256",
          "name": "tokenId",
          "type": "uint256"
        }
      ],
      "name": "transfer",
      "outputs": [],
      "stateMutability": "nonpayable",
      "type": "function"
    },
    {
      "inputs": [
        {
          "internalType": "address",
          "name": "addr",
          "type": "address"
        }
      ],
      "name": "transferOwnership",
      "outputs": [],
      "stateMutability": "nonpayable",
      "type": "function"
    },
    {
      "inputs": [],
      "name": "transferOwnershipToCurrentOwner",
      "outputs": [],
      "stateMutability": "nonpayable",
      "type": "function"
    },
    {
      "inputs": [],
      "name": "walletType",
      "outputs": [
        {
          "internalType": "bytes",
          "name": "",
          "type": "bytes"
        }
      ],
      "stateMutability": "view",
      "type": "function"
    },
    {
      "inputs": [
        {
          "internalType": "uint256",
          "name": "amount",
          "type": "uint256"
        }
      ],
      "name": "withdraw",
      "outputs": [],
      "stateMutability": "nonpayable",
      "type": "function"
    },
    {
      "stateMutability": "payable",
      "type": "receive"
    }
  ],
  "bytecode": "0x60c060405260066080819052651dd85b1b195d60d21b60a0908152620000299160049190620000c8565b503480156200003757600080fd5b5060405162001c9438038062001c948339810160408190526200005a916200016e565b60008054336001600160a01b0319918216811783558252600260205260408220805460ff1916600190811790915591909155600580546001600160c01b031916600160a01b63ffffffff9590951694909402909116929092176001600160a01b0391909116179055620001fd565b828054620000d690620001c0565b90600052602060002090601f016020900481019282620000fa576000855562000145565b82601f106200011557805160ff191683800117855562000145565b8280016001018555821562000145579182015b828111156200014557825182559160200191906001019062000128565b506200015392915062000157565b5090565b5b8082111562000153576000815560010162000158565b600080604083850312156200018257600080fd5b825163ffffffff811681146200019757600080fd5b60208401519092506001600160a01b0381168114620001b557600080fd5b809150509250929050565b600181811c90821680620001d557607f821691505b60208210811415620001f757634e487b7160e01b600052602260045260246000fd5b50919050565b611a87806200020d6000396000f3fe6080604052600436106101135760003560e01c80629a9b7b1461017557806310a8c7a9146101b3578063150b7a02146101d55780631b8b921d1461021a5780631eb2d0e5146102485780632e1a7d4d1461025d57806331ed86d21461027d57806356e7b7aa1461029d5780635b648b0a146102bd5780636a221657146102df5780636dbf2fa0146102ff578063ab2f0e511461031f578063bca6ce641461033d578063beabacc814610375578063d0679d3414610395578063d0e30db0146103b5578063d15d4150146103bd578063d49a2a7c146103ed578063d5f3948814610413578063d8b964e614610433578063f2a75fe414610463578063f2fde38b14610478578063fe684c0e1461049857600080fd5b3661017057346003600082825461012a91906114a8565b9091555050600354604080513481526020810192909252805133927f90890809c654f11d6e72a28fa60149770a0d11ec6c92319d6ceb2bb0a4ea1a1592908290030190a2005b600080fd5b34801561018157600080fd5b5060055461019990600160a01b900463ffffffff1681565b60405163ffffffff90911681526020015b60405180910390f35b3480156101bf57600080fd5b506101d36101ce3660046114fb565b6104b8565b005b3480156101e157600080fd5b506102016101f0366004611607565b630a85bd0160e11b95945050505050565b6040516001600160e01b031990911681526020016101aa565b34801561022657600080fd5b5061023a610235366004611679565b610558565b6040516101aa92919061171a565b34801561025457600080fd5b506101d3610707565b34801561026957600080fd5b506101d361027836600461173d565b61088b565b34801561028957600080fd5b506101d36102983660046114fb565b6109f8565b3480156102a957600080fd5b5061023a6102b8366004611679565b610a8b565b3480156102c957600080fd5b506102d2610b54565b6040516101aa9190611756565b3480156102eb57600080fd5b5061023a6102fa366004611679565b610be2565b34801561030b57600080fd5b5061023a61031a366004611770565b610c91565b34801561032b57600080fd5b506003546040519081526020016101aa565b34801561034957600080fd5b5060055461035d906001600160a01b031681565b6040516001600160a01b0390911681526020016101aa565b34801561038157600080fd5b506101d36103903660046117cb565b610e41565b3480156103a157600080fd5b506101d36103b036600461180c565b610f2e565b6101d361108c565b3480156103c957600080fd5b506103dd6103d8366004611838565b6110e4565b60405190151581526020016101aa565b3480156103f957600080fd5b5061040261111f565b6040516101aa959493929190611855565b34801561041f57600080fd5b5060005461035d906001600160a01b031681565b34801561043f57600080fd5b506103dd61044e366004611838565b60026020526000908152604090205460ff1681565b34801561046f57600080fd5b506101d36111f3565b34801561048457600080fd5b506101d3610493366004611838565b611310565b3480156104a457600080fd5b506101d36104b33660046118a3565b6113b0565b6000546001600160a01b031633146104eb5760405162461bcd60e51b81526004016104e2906118e1565b60405180910390fd5b80516104f657600080fd5b60005b81518110156105545760016002600084848151811061051a5761051a611907565b6020908102919091018101516001600160a01b03168252810191909152604001600020805460ff19169115159190911790556001016104f9565b5050565b600080546060906001600160a01b031633148061058457503360009081526002602052604090205460ff165b6105a05760405162461bcd60e51b81526004016104e29061191d565b60018060008282546105b291906114a8565b909155505060015460005a905060006105cb823a611943565b90508060035410156105ef5760405162461bcd60e51b81526004016104e290611962565b6000806001600160a01b038a16348a8a60405161060d9291906119b0565b60006040518083038185875af1925050503d806000811461064a576040519150601f19603f3d011682016040523d82523d6000602084013e61064f565b606091505b50915091505a61065f90856119c0565b610669903a611943565b604051909350339084156108fc029085906000818181858888f19350505050158015610699573d6000803e3d6000fd5b506000836003546106aa91906119c0565b11156106cd5782600360008282546106c291906119c0565b9250508190556106d5565b600060038190555b509095509350505060015481146106fe5760405162461bcd60e51b81526004016104e2906119d7565b50935093915050565b600180600082825461071991906114a8565b90915550506001546005546040516331a9108f60e11b8152600160a01b820463ffffffff1660048201526000916001600160a01b031690636352211e90602401602060405180830381865afa158015610776573d6000803e3d6000fd5b505050506040513d601f19601f8201168201806040525081019061079a91906119f9565b6000549091506001600160a01b03808316911614156108065760405162461bcd60e51b815260206004820152602260248201527f6f776e6572206f662074686520746f6b656e20697320746865206465706c6f7960448201526132b960f11b60648201526084016104e2565b336001600160a01b0382161461085d5760405162461bcd60e51b815260206004820152601c60248201527b39b2b73232b91036bab9ba103132903a3432903732bb9037bbb732b960211b60448201526064016104e2565b61086681611310565b5060015481146108885760405162461bcd60e51b81526004016104e2906119d7565b50565b6000546001600160a01b03163314806108b357503360009081526002602052604090205460ff165b6108cf5760405162461bcd60e51b81526004016104e29061191d565b60018060008282546108e191906114a8565b909155505060015460035482111561092e5760405162461bcd60e51b815260206004820152601060248201526f4e6f7420656e6f7567682066756e647360801b60448201526064016104e2565b604051339083156108fc029084906000818181858888f1935050505015801561095b573d6000803e3d6000fd5b5060008260035461096c91906119c0565b111561098f57816003600082825461098491906119c0565b925050819055610997565b600060038190555b5060035460408051848152602081019290925233917ff279e6a1f5e320cca91135676d9cb6e44ca8a08c0b88342bcdb1144f6511b568910160405180910390a260015481146105545760405162461bcd60e51b81526004016104e2906119d7565b6000546001600160a01b03163314610a225760405162461bcd60e51b81526004016104e2906118e1565b8051610a2d57600080fd5b60005b815181101561055457600060026000848481518110610a5157610a51611907565b6020908102919091018101516001600160a01b03168252810191909152604001600020805460ff1916911515919091179055600101610a30565b600080546060906001600160a01b03163314610ab95760405162461bcd60e51b81526004016104e2906118e1565b6001806000828254610acb91906114a8565b90915550506001546040516001600160a01b03871690610aee90879087906119b0565b600060405180830381855af49150503d8060008114610b29576040519150601f19603f3d011682016040523d82523d6000602084013e610b2e565b606091505b509250925060015481146106fe5760405162461bcd60e51b81526004016104e2906119d7565b60048054610b6190611a16565b80601f0160208091040260200160405190810160405280929190818152602001828054610b8d90611a16565b8015610bda5780601f10610baf57610100808354040283529160200191610bda565b820191906000526020600020905b815481529060010190602001808311610bbd57829003601f168201915b505050505081565b600080546060906001600160a01b0316331480610c0e57503360009081526002602052604090205460ff165b610c2a5760405162461bcd60e51b81526004016104e29061191d565b846001600160a01b03168484604051610c449291906119b0565b600060405180830381855afa9150503d8060008114610c7f576040519150601f19603f3d011682016040523d82523d6000602084013e610c84565b606091505b5091509150935093915050565b600080546060906001600160a01b0316331480610cbd57503360009081526002602052604090205460ff165b610cd95760405162461bcd60e51b81526004016104e29061191d565b6001806000828254610ceb91906114a8565b909155505060015460005a90506000610d04823a611943565b9050806003541015610d285760405162461bcd60e51b81526004016104e290611962565b6000808a6001600160a01b03168a8a8a604051610d469291906119b0565b60006040518083038185875af1925050503d8060008114610d83576040519150601f19603f3d011682016040523d82523d6000602084013e610d88565b606091505b50915091505a610d9890856119c0565b610da2903a611943565b604051909350339084156108fc029085906000818181858888f19350505050158015610dd2573d6000803e3d6000fd5b50600083600354610de391906119c0565b1115610e06578260036000828254610dfb91906119c0565b925050819055610e0e565b600060038190555b50909550935050506001548114610e375760405162461bcd60e51b81526004016104e2906119d7565b5094509492505050565b6000546001600160a01b0316331480610e6957503360009081526002602052604090205460ff165b610e855760405162461bcd60e51b81526004016104e29061191d565b6001806000828254610e9791906114a8565b9091555050600154604051632142170760e11b81523060048201526001600160a01b038481166024830152604482018490528516906342842e0e90606401600060405180830381600087803b158015610eef57600080fd5b505af1158015610f03573d6000803e3d6000fd5b505050506001548114610f285760405162461bcd60e51b81526004016104e2906119d7565b50505050565b6000546001600160a01b0316331480610f5657503360009081526002602052604090205460ff165b610f725760405162461bcd60e51b81526004016104e29061191d565b6001806000828254610f8491906114a8565b9091555050600154600354821115610fd95760405162461bcd60e51b8152602060048201526018602482015277139bdd08195b9bdd59da08199d5b991cc81d1bc81cd95b9960421b60448201526064016104e2565b8160036000828254610feb91906119c0565b90915550506040516001600160a01b0384169083156108fc029084906000818181858888f19350505050158015611026573d6000803e3d6000fd5b5060035460408051848152602081019290925233917f7fa9aafeb8bb803d77de5d84bc2f2edbd842ca91b20cd5020aa21dfe26ab0be9910160405180910390a260015481146110875760405162461bcd60e51b81526004016104e2906119d7565b505050565b346003600082825461109e91906114a8565b9091555050600354604080513481526020810192909252805133927f90890809c654f11d6e72a28fa60149770a0d11ec6c92319d6ceb2bb0a4ea1a1592908290030190a2565b600080546001600160a01b038381169116148061111957506001600160a01b03821660009081526002602052604090205460ff165b92915050565b600080546005546004805484938493606093859330936001600160a01b031692600160a01b900463ffffffff1691906335268a9f60e21b90829061116290611a16565b80601f016020809104026020016040519081016040528092919081815260200182805461118e90611a16565b80156111db5780601f106111b0576101008083540402835291602001916111db565b820191906000526020600020905b8154815290600101906020018083116111be57829003601f168201915b50505050509150945094509450945094509091929394565b6000546001600160a01b0316331461121d5760405162461bcd60e51b81526004016104e2906118e1565b600180600082825461122f91906114a8565b909155505060015460035461127d5760405162461bcd60e51b81526020600482015260146024820152734e6f2066756e647320746f20776974686472617760601b60448201526064016104e2565b600354604051339180156108fc02916000818181858888f193505050501580156112ab573d6000803e3d6000fd5b50600354604080519182526000602083015233917ff279e6a1f5e320cca91135676d9cb6e44ca8a08c0b88342bcdb1144f6511b568910160405180910390a2600060035560015481146108885760405162461bcd60e51b81526004016104e2906119d7565b6000546001600160a01b0316331461133a5760405162461bcd60e51b81526004016104e2906118e1565b600080546001600160a01b03908116825260026020526040808320805460ff1990811690915583546001600160a01b03191692851692831784558284528184208054909116600117905551909133917f93091b3f3cd424efabc74e181f3799f3476ed758412561ed3b29515c51f567529190a350565b6000546001600160a01b031633146113da5760405162461bcd60e51b81526004016104e2906118e1565b6000546001600160a01b03838116911614156114315760405162461bcd60e51b815260206004820152601660248201527531b0b73737ba1036b7b234b33c903232b83637bcb2b960511b60448201526064016104e2565b6001600160a01b038216600081815260026020908152604091829020805460ff1916851515908117909155915191825233917ff38de818d000d07d091732dd783c6855722d7bc1934d92b7635133289d341695910160405180910390a35050565b634e487b7160e01b600052601160045260246000fd5b600082198211156114bb576114bb611492565b500190565b634e487b7160e01b600052604160045260246000fd5b6001600160a01b038116811461088857600080fd5b80356114f6816114d6565b919050565b6000602080838503121561150e57600080fd5b82356001600160401b038082111561152557600080fd5b818501915085601f83011261153957600080fd5b81358181111561154b5761154b6114c0565b8060051b604051601f19603f83011681018181108582111715611570576115706114c0565b60405291825284820192508381018501918883111561158e57600080fd5b938501935b828510156115b3576115a4856114eb565b84529385019392850192611593565b98975050505050505050565b60008083601f8401126115d157600080fd5b5081356001600160401b038111156115e857600080fd5b60208301915083602082850101111561160057600080fd5b9250929050565b60008060008060006080868803121561161f57600080fd5b853561162a816114d6565b9450602086013561163a816114d6565b93506040860135925060608601356001600160401b0381111561165c57600080fd5b611668888289016115bf565b969995985093965092949392505050565b60008060006040848603121561168e57600080fd5b8335611699816114d6565b925060208401356001600160401b038111156116b457600080fd5b6116c0868287016115bf565b9497909650939450505050565b6000815180845260005b818110156116f3576020818501810151868301820152016116d7565b81811115611705576000602083870101525b50601f01601f19169290920160200192915050565b821515815260406020820152600061173560408301846116cd565b949350505050565b60006020828403121561174f57600080fd5b5035919050565b60208152600061176960208301846116cd565b9392505050565b6000806000806060858703121561178657600080fd5b8435611791816114d6565b93506020850135925060408501356001600160401b038111156117b357600080fd5b6117bf878288016115bf565b95989497509550505050565b6000806000606084860312156117e057600080fd5b83356117eb816114d6565b925060208401356117fb816114d6565b929592945050506040919091013590565b6000806040838503121561181f57600080fd5b823561182a816114d6565b946020939093013593505050565b60006020828403121561184a57600080fd5b8135611769816114d6565b6001600160a01b038681168252851660208201526040810184905260a060608201819052600090611888908301856116cd565b905063ffffffff60e01b831660808301529695505050505050565b600080604083850312156118b657600080fd5b82356118c1816114d6565b9150602083013580151581146118d657600080fd5b809150509250929050565b6020808252600c908201526b3737ba103232b83637bcb2b960a11b604082015260600190565b634e487b7160e01b600052603260045260246000fd5b6020808252600c908201526b1b9bdd08185c1c1c9bdd995960a21b604082015260600190565b600081600019048311821515161561195d5761195d611492565b500290565b6020808252602e908201527f4e6f7420656e6f7567682066756e647320746f20636f7665722074686520636f60408201526d1cdd081bd9881d1a194818d85b1b60921b606082015260800190565b8183823760009101908152919050565b6000828210156119d2576119d2611492565b500390565b60208082526008908201526772652d656e74727960c01b604082015260600190565b600060208284031215611a0b57600080fd5b8151611769816114d6565b600181811c90821680611a2a57607f821691505b60208210811415611a4b57634e487b7160e01b600052602260045260246000fd5b5091905056fea2646970667358221220498877828ded9d23f88c5eb416ead60d7ecebaa80e10d03f7783b6e0df44917064736f6c634300080c0033",
  "linkReferences": {},
  "deployedLinkReferences": {}
}