{
  "_format": "hh-sol-artifact-1",
  "contractName": "SimpleAny",
  "sourceName": "alpha/core/assets/SimpleAny.sol",
  "abi": [
    {
      "inputs": [
        {
          "internalType": "string",
          "name": "_tokenName",
          "type": "string"
        },
        {
          "internalType": "address",
          "name": "valuesContract",
          "type": "address"
        }
      ],
      "stateMutability": "nonpayable",
      "type": "constructor"
    },
    {
      "anonymous": false,
      "inputs": [
        {
          "indexed": true,
          "internalType": "address",
          "name": "sender",
          "type": "address"
        },
        {
          "indexed": true,
          "internalType": "address",
          "name": "changee",
          "type": "address"
        },
        {
          "indexed": false,
          "internalType": "bool",
          "name": "value",
          "type": "bool"
        }
      ],
      "name": "PermissionChange",
      "type": "event"
    },
    {
      "anonymous": false,
      "inputs": [
        {
          "indexed": true,
          "internalType": "address",
          "name": "from",
          "type": "address"
        },
        {
          "indexed": true,
          "internalType": "address",
          "name": "to",
          "type": "address"
        }
      ],
      "name": "TransferedOwnership",
      "type": "event"
    },
    {
      "inputs": [
        {
          "internalType": "uint256",
          "name": "rarity",
          "type": "uint256"
        }
      ],
      "name": "addAsset",
      "outputs": [],
      "stateMutability": "nonpayable",
      "type": "function"
    },
    {
      "inputs": [
        {
          "internalType": "uint256[]",
          "name": "rarities",
          "type": "uint256[]"
        }
      ],
      "name": "addAssets",
      "outputs": [],
      "stateMutability": "nonpayable",
      "type": "function"
    },
    {
      "inputs": [
        {
          "internalType": "string",
          "name": "name",
          "type": "string"
        }
      ],
      "name": "addName",
      "outputs": [],
      "stateMutability": "nonpayable",
      "type": "function"
    },
    {
      "inputs": [
        {
          "internalType": "address",
          "name": "",
          "type": "address"
        }
      ],
      "name": "approved",
      "outputs": [
        {
          "internalType": "bool",
          "name": "",
          "type": "bool"
        }
      ],
      "stateMutability": "view",
      "type": "function"
    },
    {
      "inputs": [],
      "name": "assetsType",
      "outputs": [
        {
          "internalType": "string",
          "name": "",
          "type": "string"
        }
      ],
      "stateMutability": "view",
      "type": "function"
    },
    {
      "inputs": [
        {
          "internalType": "string[]",
          "name": "newNames",
          "type": "string[]"
        }
      ],
      "name": "combineNames",
      "outputs": [],
      "stateMutability": "nonpayable",
      "type": "function"
    },
    {
      "inputs": [],
      "name": "deployer",
      "outputs": [
        {
          "internalType": "address",
          "name": "",
          "type": "address"
        }
      ],
      "stateMutability": "view",
      "type": "function"
    },
    {
      "inputs": [
        {
          "internalType": "uint32[]",
          "name": "pathIds",
          "type": "uint32[]"
        }
      ],
      "name": "flatPathSections",
      "outputs": [],
      "stateMutability": "nonpayable",
      "type": "function"
    },
    {
      "inputs": [
        {
          "internalType": "uint32",
          "name": "pathId",
          "type": "uint32"
        },
        {
          "internalType": "contract RandomNumber",
          "name": "randomNumberController",
          "type": "address"
        }
      ],
      "name": "getColours",
      "outputs": [
        {
          "internalType": "uint32[]",
          "name": "result",
          "type": "uint32[]"
        }
      ],
      "stateMutability": "nonpayable",
      "type": "function"
    },
    {
      "inputs": [
        {
          "internalType": "uint32",
          "name": "",
          "type": "uint32"
        },
        {
          "internalType": "uint32",
          "name": "",
          "type": "uint32"
        },
        {
          "internalType": "contract RandomNumber",
          "name": "",
          "type": "address"
        }
      ],
      "name": "getMintData",
      "outputs": [
        {
          "internalType": "bytes",
          "name": "",
          "type": "bytes"
        }
      ],
      "stateMutability": "nonpayable",
      "type": "function"
    },
    {
      "inputs": [
        {
          "internalType": "uint256",
          "name": "nameCount",
          "type": "uint256"
        },
        {
          "internalType": "contract RandomNumber",
          "name": "randomNumberController",
          "type": "address"
        }
      ],
      "name": "getNames",
      "outputs": [
        {
          "internalType": "string[]",
          "name": "results",
          "type": "string[]"
        }
      ],
      "stateMutability": "nonpayable",
      "type": "function"
    },
    {
      "inputs": [],
      "name": "getNextPath",
      "outputs": [
        {
          "internalType": "uint32",
          "name": "",
          "type": "uint32"
        }
      ],
      "stateMutability": "view",
      "type": "function"
    },
    {
      "inputs": [
        {
          "internalType": "contract RandomNumber",
          "name": "randomNumberController",
          "type": "address"
        }
      ],
      "name": "getNextPathId",
      "outputs": [
        {
          "internalType": "uint32",
          "name": "",
          "type": "uint32"
        }
      ],
      "stateMutability": "nonpayable",
      "type": "function"
    },
    {
      "inputs": [
        {
          "internalType": "uint256",
          "name": "pathId",
          "type": "uint256"
        }
      ],
      "name": "getPathSections",
      "outputs": [
        {
          "internalType": "uint256[]",
          "name": "",
          "type": "uint256[]"
        }
      ],
      "stateMutability": "view",
      "type": "function"
    },
    {
      "inputs": [
        {
          "internalType": "uint32",
          "name": "pathId",
          "type": "uint32"
        }
      ],
      "name": "getPathSize",
      "outputs": [
        {
          "internalType": "uint32",
          "name": "",
          "type": "uint32"
        }
      ],
      "stateMutability": "view",
      "type": "function"
    },
    {
      "inputs": [
        {
          "internalType": "uint32",
          "name": "pathId",
          "type": "uint32"
        },
        {
          "internalType": "contract RandomNumber",
          "name": "randomNumberController",
          "type": "address"
        }
      ],
      "name": "getRandomAsset",
      "outputs": [
        {
          "internalType": "uint32[]",
          "name": "assetsId",
          "type": "uint32[]"
        }
      ],
      "stateMutability": "view",
      "type": "function"
    },
    {
      "inputs": [
        {
          "internalType": "uint256",
          "name": "sectionId",
          "type": "uint256"
        }
      ],
      "name": "getSectionAssets",
      "outputs": [
        {
          "internalType": "uint256[]",
          "name": "",
          "type": "uint256[]"
        }
      ],
      "stateMutability": "view",
      "type": "function"
    },
    {
      "inputs": [
        {
          "internalType": "address",
          "name": "addr",
          "type": "address"
        }
      ],
      "name": "isAuthenticated",
      "outputs": [
        {
          "internalType": "bool",
          "name": "",
          "type": "bool"
        }
      ],
      "stateMutability": "view",
      "type": "function"
    },
    {
      "inputs": [
        {
          "internalType": "uint32",
          "name": "pathId",
          "type": "uint32"
        }
      ],
      "name": "isValidPath",
      "outputs": [
        {
          "internalType": "bool",
          "name": "",
          "type": "bool"
        }
      ],
      "stateMutability": "view",
      "type": "function"
    },
    {
      "inputs": [
        {
          "internalType": "address[]",
          "name": "addrs",
          "type": "address[]"
        }
      ],
      "name": "multiApprove",
      "outputs": [],
      "stateMutability": "nonpayable",
      "type": "function"
    },
    {
      "inputs": [
        {
          "internalType": "address[]",
          "name": "addrs",
          "type": "address[]"
        }
      ],
      "name": "multiRevoke",
      "outputs": [],
      "stateMutability": "nonpayable",
      "type": "function"
    },
    {
      "inputs": [
        {
          "internalType": "uint256",
          "name": "",
          "type": "uint256"
        }
      ],
      "name": "names",
      "outputs": [
        {
          "internalType": "string",
          "name": "",
          "type": "string"
        }
      ],
      "stateMutability": "view",
      "type": "function"
    },
    {
      "inputs": [
        {
          "internalType": "uint32",
          "name": "currentTokenId",
          "type": "uint32"
        },
        {
          "internalType": "contract RandomNumber",
          "name": "randomNumberController",
          "type": "address"
        }
      ],
      "name": "pickPath",
      "outputs": [
        {
          "components": [
            {
              "internalType": "uint32",
              "name": "pathId",
              "type": "uint32"
            },
            {
              "internalType": "uint32",
              "name": "pathSize",
              "type": "uint32"
            },
            {
              "internalType": "uint32[]",
              "name": "assets",
              "type": "uint32[]"
            },
            {
              "internalType": "string[]",
              "name": "names",
              "type": "string[]"
            },
            {
              "internalType": "uint32[]",
              "name": "colours",
              "type": "uint32[]"
            },
            {
              "internalType": "bytes",
              "name": "mintData",
              "type": "bytes"
            }
          ],
          "internalType": "struct Asset.PartialStruct",
          "name": "",
          "type": "tuple"
        }
      ],
      "stateMutability": "nonpayable",
      "type": "function"
    },
    {
      "inputs": [
        {
          "internalType": "uint32",
          "name": "pathId",
          "type": "uint32"
        },
        {
          "internalType": "uint32",
          "name": "currentTokenId",
          "type": "uint32"
        },
        {
          "internalType": "contract RandomNumber",
          "name": "randomNumberController",
          "type": "address"
        }
      ],
      "name": "pickPath",
      "outputs": [
        {
          "components": [
            {
              "internalType": "uint32",
              "name": "pathId",
              "type": "uint32"
            },
            {
              "internalType": "uint32",
              "name": "pathSize",
              "type": "uint32"
            },
            {
              "internalType": "uint32[]",
              "name": "assets",
              "type": "uint32[]"
            },
            {
              "internalType": "string[]",
              "name": "names",
              "type": "string[]"
            },
            {
              "internalType": "uint32[]",
              "name": "colours",
              "type": "uint32[]"
            },
            {
              "internalType": "bytes",
              "name": "mintData",
              "type": "bytes"
            }
          ],
          "internalType": "struct Asset.PartialStruct",
          "name": "",
          "type": "tuple"
        }
      ],
      "stateMutability": "nonpayable",
      "type": "function"
    },
    {
      "inputs": [
        {
          "internalType": "uint256[]",
          "name": "_assets",
          "type": "uint256[]"
        }
      ],
      "name": "pushSectionAssets",
      "outputs": [],
      "stateMutability": "nonpayable",
      "type": "function"
    },
    {
      "inputs": [],
      "name": "resetAssets",
      "outputs": [],
      "stateMutability": "nonpayable",
      "type": "function"
    },
    {
      "inputs": [],
      "name": "resetNames",
      "outputs": [],
      "stateMutability": "nonpayable",
      "type": "function"
    },
    {
      "inputs": [],
      "name": "resetPaths",
      "outputs": [],
      "stateMutability": "nonpayable",
      "type": "function"
    },
    {
      "inputs": [
        {
          "internalType": "uint32[]",
          "name": "assets",
          "type": "uint32[]"
        }
      ],
      "name": "setLastAssets",
      "outputs": [],
      "stateMutability": "nonpayable",
      "type": "function"
    },
    {
      "inputs": [
        {
          "internalType": "uint32",
          "name": "pathId",
          "type": "uint32"
        }
      ],
      "name": "setLastPathId",
      "outputs": [],
      "stateMutability": "nonpayable",
      "type": "function"
    },
    {
      "inputs": [
        {
          "internalType": "string[]",
          "name": "newNames",
          "type": "string[]"
        }
      ],
      "name": "setNames",
      "outputs": [],
      "stateMutability": "nonpayable",
      "type": "function"
    },
    {
      "inputs": [
        {
          "internalType": "uint32",
          "name": "pathId",
          "type": "uint32"
        }
      ],
      "name": "setNextPathId",
      "outputs": [],
      "stateMutability": "nonpayable",
      "type": "function"
    },
    {
      "inputs": [
        {
          "internalType": "uint256",
          "name": "newPathCount",
          "type": "uint256"
        }
      ],
      "name": "setPathCount",
      "outputs": [],
      "stateMutability": "nonpayable",
      "type": "function"
    },
    {
      "inputs": [
        {
          "internalType": "uint32",
          "name": "pathId",
          "type": "uint32"
        },
        {
          "internalType": "bool",
          "name": "value",
          "type": "bool"
        }
      ],
      "name": "setPathDisabled",
      "outputs": [],
      "stateMutability": "nonpayable",
      "type": "function"
    },
    {
      "inputs": [
        {
          "internalType": "uint32[]",
          "name": "pathIds",
          "type": "uint32[]"
        },
        {
          "internalType": "uint256[][]",
          "name": "_sections",
          "type": "uint256[][]"
        }
      ],
      "name": "setPathSections",
      "outputs": [],
      "stateMutability": "nonpayable",
      "type": "function"
    },
    {
      "inputs": [
        {
          "internalType": "uint32",
          "name": "pathId",
          "type": "uint32"
        },
        {
          "internalType": "uint32",
          "name": "pathSize",
          "type": "uint32"
        }
      ],
      "name": "setPathSize",
      "outputs": [],
      "stateMutability": "nonpayable",
      "type": "function"
    },
    {
      "inputs": [
        {
          "internalType": "uint32[]",
          "name": "newPathSizes",
          "type": "uint32[]"
        }
      ],
      "name": "setPathSizes",
      "outputs": [],
      "stateMutability": "nonpayable",
      "type": "function"
    },
    {
      "inputs": [
        {
          "internalType": "address",
          "name": "addr",
          "type": "address"
        },
        {
          "internalType": "bool",
          "name": "value",
          "type": "bool"
        }
      ],
      "name": "setPrivilages",
      "outputs": [],
      "stateMutability": "nonpayable",
      "type": "function"
    },
    {
      "inputs": [
        {
          "internalType": "uint32",
          "name": "sectionId",
          "type": "uint32"
        },
        {
          "internalType": "uint256[]",
          "name": "_assets",
          "type": "uint256[]"
        }
      ],
      "name": "setSectionAssets",
      "outputs": [],
      "stateMutability": "nonpayable",
      "type": "function"
    },
    {
      "inputs": [
        {
          "internalType": "address",
          "name": "addr",
          "type": "address"
        }
      ],
      "name": "transferOwnership",
      "outputs": [],
      "stateMutability": "nonpayable",
      "type": "function"
    }
  ],
  "bytecode": "0x60c06040526005608081905264185cdcd95d60da1b60a090815262000028916006919062000167565b5060408051808201909152600780825266191959985d5b1d60ca1b602090920191825262000057918162000167565b50600f80546001600160401b03191690556011805460ff191690553480156200007f57600080fd5b5060405162003dbd38038062003dbd833981016040819052620000a29162000240565b60008054336001600160a01b03199182168117835582526002602090815260408320805460ff19166001908117909155838155600580549093166001600160a01b03861617909255600d8054928301815583527fd7b6990105719101dabeb77144f2a3385c8033acd3af97e9423a695e81ad1eb590910191909155825162000131916006919085019062000167565b5060408051808201909152600380825262616e7960e81b60209092019182526200015e9160079162000167565b5050506200036e565b828054620001759062000331565b90600052602060002090601f016020900481019282620001995760008555620001e4565b82601f10620001b457805160ff1916838001178555620001e4565b82800160010185558215620001e4579182015b82811115620001e4578251825591602001919060010190620001c7565b50620001f2929150620001f6565b5090565b5b80821115620001f25760008155600101620001f7565b634e487b7160e01b600052604160045260246000fd5b80516001600160a01b03811681146200023b57600080fd5b919050565b600080604083850312156200025457600080fd5b82516001600160401b03808211156200026c57600080fd5b818501915085601f8301126200028157600080fd5b8151818111156200029657620002966200020d565b604051601f8201601f19908116603f01168101908382118183101715620002c157620002c16200020d565b81604052828152602093508884848701011115620002de57600080fd5b600091505b82821015620003025784820184015181830185015290830190620002e3565b82821115620003145760008484830101525b95506200032691505085820162000223565b925050509250929050565b600181811c908216806200034657607f821691505b602082108114156200036857634e487b7160e01b600052602260045260246000fd5b50919050565b613a3f806200037e6000396000f3fe608060405234801561001057600080fd5b50600436106101e85760003560e01c80638c9fcab91161010b5780638c9fcab9146103b25780638e6e826d146103c5578063a57b3b45146103e5578063a85f3298146103f8578063b895bcb71461040b578063bfb05d031461041e578063c40f4a2514610431578063d15d415014610444578063d5f3948814610457578063d8b964e614610482578063d935232c146104a5578063dccd935c146104b8578063e6ef8955146104c0578063e7214f4f146104d3578063e96aeef3146104e6578063eb2c2da3146104f9578063f2fde38b1461050c578063f60a74361461051f578063fe684c0e14610532578063ff220d6d1461054557600080fd5b80630b71d256146101ed57806310a8c7a91461020257806311456b471461021557806331ed86d2146102285780633406bfac1461023b57806335697ba7146102435780633840c21a1461026c5780633982e0c41461027f578063433ee8cd1461029257806343bebe4e146102b2578063453dc933146102da5780634622ab03146102ed57806346e4e7c91461030d5780634c6fe6a21461031b578063593c7b271461033b5780637730f4fa1461034e5780637ba8dcd6146103715780637bd6ec4a146103795780637cf8031e1461038c5780638a25ad241461039f575b600080fd5b6102006101fb366004612f7d565b61054d565b005b610200610210366004613014565b6105e0565b610200610223366004613121565b610677565b610200610236366004613014565b6106fe565b610200610791565b610256610251366004612f7d565b610830565b604051610263919061315d565b60405180910390f35b61020061027a3660046131a1565b610892565b61020061028d366004613273565b6108e9565b6102a56102a03660046132aa565b6109d2565b60405161026391906133b9565b6102c56102c0366004613455565b6109f6565b60405163ffffffff9091168152602001610263565b6102006102e83660046131a1565b610a56565b6103006102fb366004612f7d565b610b03565b6040516102639190613470565b600f5463ffffffff166102c5565b61032e610329366004613483565b610baf565b60405161026391906134a8565b610200610349366004613528565b6111ef565b61036161035c366004613455565b611246565b6040519015158152602001610263565b610300611277565b6102a561038736600461355c565b611284565b61020061039a3660046135fe565b611478565b6102006103ad366004613455565b6114e5565b6102566103c0366004612f7d565b61154f565b6103d86103d33660046132aa565b6115c2565b6040516102639190613632565b6102006103f3366004613645565b611c44565b610200610406366004612f7d565b611cd9565b6102c5610419366004613678565b611d22565b61020061042c36600461369c565b611fe7565b61020061043f366004613528565b61204d565b610361610452366004613678565b6120c4565b60005461046a906001600160a01b031681565b6040516001600160a01b039091168152602001610263565b610361610490366004613678565b60026020526000908152604090205460ff1681565b6102006104b3366004613455565b6120fb565b61020061215b565b6102006104ce3660046136e9565b6121ad565b6102006104e1366004613528565b612263565b6103006104f436600461355c565b6122ba565b6103d86105073660046132aa565b6122da565b61020061051a366004613678565b6128c2565b61020061052d3660046135fe565b612962565b6102006105403660046137bd565b612a60565b610200612b42565b6000546001600160a01b031633146105805760405162461bcd60e51b8152600401610577906137db565b60405180910390fd5b606481111561058e57600080fd5b600d80546001818101835560009283527fd7b6990105719101dabeb77144f2a3385c8033acd3af97e9423a695e81ad1eb5909101839055600b8054919290916105d8908490613817565b909155505050565b6000546001600160a01b0316331461060a5760405162461bcd60e51b8152600401610577906137db565b805161061557600080fd5b60005b8151811015610673576001600260008484815181106106395761063961382f565b6020908102919091018101516001600160a01b03168252810191909152604001600020805460ff1916911515919091179055600101610618565b5050565b6000546001600160a01b031633148061069f57503360009081526002602052604090205460ff165b6106bb5760405162461bcd60e51b815260040161057790613845565b601080546001810182556000919091528151610673917f1b6847dc741a1b0cd08d278845f9d819d87b734759afb55fe2de5cb82a9ae67201906020840190612c30565b6000546001600160a01b031633146107285760405162461bcd60e51b8152600401610577906137db565b805161073357600080fd5b60005b8151811015610673576000600260008484815181106107575761075761382f565b6020908102919091018101516001600160a01b03168252810191909152604001600020805460ff1916911515919091179055600101610736565b6000546001600160a01b03163314806107b957503360009081526002602052604090205460ff165b6107d55760405162461bcd60e51b815260040161057790613845565b6107e1600d6000612cb4565b6107ed600c6000612cd5565b600d805460018101825560009182527fd7b6990105719101dabeb77144f2a3385c8033acd3af97e9423a695e81ad1eb501819055600b556011805460ff19169055565b60008181526004602090815260409182902080548351818402810184019094528084526060939283018282801561088657602002820191906000526020600020905b815481526020019060010190808311610872575b50505050509050919050565b6000546001600160a01b03163314806108ba57503360009081526002602052604090205460ff165b6108d65760405162461bcd60e51b815260040161057790613845565b8051610673906010906020840190612cf3565b6000546001600160a01b031633148061091157503360009081526002602052604090205460ff165b61092d5760405162461bcd60e51b815260040161057790613845565b600a548263ffffffff161480156109415750805b1561098557600a545b60008181526003602052604090205460ff161561098157600854811061096f5750600a545b806109798161386b565b91505061094a565b600a555b600a548263ffffffff161115801561099a5750805b156109aa5763ffffffff8216600a555b63ffffffff919091166000908152600360205260409020805460ff1916911515919091179055565b6109da612d4c565b6109ed6109e683611d22565b8484611284565b90505b92915050565b60095460009063ffffffff831610610a1057506001919050565b60098263ffffffff1681548110610a2957610a2961382f565b90600052602060002090600891828204019190066004029054906101000a900463ffffffff169050919050565b6000546001600160a01b0316331480610a7e57503360009081526002602052604090205460ff165b610a9a5760405162461bcd60e51b815260040161057790613845565b6064815110610aa857600080fd5b60005b8151811015610673576010828281518110610ac857610ac861382f565b60209081029190910181015182546001810184556000938452928290208151610afa9491909101929190910190612c30565b50600101610aab565b60108181548110610b1357600080fd5b906000526020600020016000915090508054610b2e90613886565b80601f0160208091040260200160405190810160405280929190818152602001828054610b5a90613886565b8015610ba75780601f10610b7c57610100808354040283529160200191610ba7565b820191906000526020600020905b815481529060010190602001808311610b8a57829003601f168201915b505050505081565b60606000610bbb612b9e565b6005546040516206259160e71b815260206004820152600b60248201526a6d6174636865644d6f646560a81b60448201529192506001600160a01b031690630312c88090606401602060405180830381865afa158015610c1f573d6000803e3d6000fd5b505050506040513d601f19601f82011682018060405250810190610c4391906138c1565b158015610cd857506005546040516206259160e71b815260206004820152600f60248201526e696e6372656d656e74616c4d6f646560881b60448201526001600160a01b0390911690630312c88090606401602060405180830381865afa158015610cb2573d6000803e3d6000fd5b505050506040513d601f19601f82011682018060405250810190610cd691906138c1565b155b15610fc55783158015610d7257506005546040516206259160e71b815260206004820152601060248201526f6d75737447656e65726174654e616d6560801b60448201526001600160a01b0390911690630312c88090606401602060405180830381865afa158015610d4e573d6000803e3d6000fd5b505050506040513d601f19601f82011682018060405250810190610d7291906138c1565b15610d7c57600193505b831580610d895750601054155b15610ddf5760408051600180825281830190925290816020015b6060815260200190600190039081610da35790505091508082600081518110610dce57610dce61382f565b6020026020010181905250506109f0565b610dea846001613817565b6001600160401b03811115610e0157610e01612f96565b604051908082528060200260200182016040528015610e3457816020015b6060815260200190600190039081610e1f5790505b50915060005b848163ffffffff161015610fa15760105460405163a0d0ca0f60e01b81526000916001600160a01b0387169163a0d0ca0f91610e7c9160040190815260200190565b6020604051808303816000875af1158015610e9b573d6000803e3d6000fd5b505050506040513d601f19601f82011682018060405250810190610ebf91906138de565b6010549091508110610ecf575060005b60108181548110610ee257610ee261382f565b906000526020600020018054610ef790613886565b80601f0160208091040260200160405190810160405280929190818152602001828054610f2390613886565b8015610f705780601f10610f4557610100808354040283529160200191610f70565b820191906000526020600020905b815481529060010190602001808311610f5357829003601f168201915b5050505050848363ffffffff1681518110610f8d57610f8d61382f565b602090810291909101015250600101610e3a565b5080828581518110610fb557610fb561382f565b60200260200101819052506111e8565b6040805160028082526060820190925290816020015b6060815260200190600190039081610fdb57505060105490925061102c57604051806020016040528060008152508260008151811061101c5761101c61382f565b60200260200101819052506111c8565b601054600f5463ffffffff16101561110257600f5460108054909163ffffffff1690811061105c5761105c61382f565b90600052602060002001805461107190613886565b80601f016020809104026020016040519081016040528092919081815260200182805461109d90613886565b80156110ea5780601f106110bf576101008083540402835291602001916110ea565b820191906000526020600020905b8154815290600101906020018083116110cd57829003601f168201915b50505050508260008151811061101c5761101c61382f565b60106000815481106111165761111661382f565b90600052602060002001805461112b90613886565b80601f016020809104026020016040519081016040528092919081815260200182805461115790613886565b80156111a45780601f10611179576101008083540402835291602001916111a4565b820191906000526020600020905b81548152906001019060200180831161118757829003601f168201915b5050505050826000815181106111bc576111bc61382f565b60200260200101819052505b80826001815181106111dc576111dc61382f565b60200260200101819052505b5092915050565b6000546001600160a01b031633148061121757503360009081526002602052604090205460ff165b6112335760405162461bcd60e51b815260040161057790613845565b8051610673906009906020840190612d8e565b60006008548263ffffffff161080156109f057505063ffffffff1660009081526003602052604090205460ff161590565b60078054610b2e90613886565b61128c612d4c565b611295846120fb565b6112a26104e185846115c2565b6040518060c001604052808563ffffffff1681526020016112c2866109f6565b63ffffffff168152602001600e80548060200260200160405190810160405280929190818152602001828054801561134557602002820191906000526020600020906000905b82829054906101000a900463ffffffff1663ffffffff16815260200190600401906020826003010492830192600103820291508084116113085790505b505050918352505060055460405163e7b6dac960e01b815260206004820181905260096024830152681b985b5950dbdd5b9d60ba1b60448301529092019161144f916001600160a01b038781169263a0d0ca0f92919091169063e7b6dac990606401602060405180830381865afa1580156113c4573d6000803e3d6000fd5b505050506040513d601f19601f820116820180604052508101906113e891906138de565b6040518263ffffffff1660e01b815260040161140691815260200190565b6020604051808303816000875af1158015611425573d6000803e3d6000fd5b505050506040513d601f19601f8201168201806040525081019061144991906138de565b85610baf565b815260200161145e86856122da565b815260200161146e8686866122ba565b9052949350505050565b6000546001600160a01b031633146114a25760405162461bcd60e51b8152600401610577906137db565b600c80546001810182556000919091528151610673917fdf6966c971051c3d54ec59162606531493a51404a002842f56009d7e5cf4a8c701906020840190612e38565b6000546001600160a01b031633148061150d57503360009081526002602052604090205460ff165b6115295760405162461bcd60e51b815260040161057790613845565b600f805463ffffffff909216600160201b0263ffffffff60201b19909216919091179055565b6060600c82815481106115645761156461382f565b9060005260206000200180548060200260200160405190810160405280929190818152602001828054801561088657602002820191906000526020600020908154815260200190600101908083116108725750505050509050919050565b6060600b54600014156115d4576109f0565b60115460609060ff161561165d5760008052600460209081527f17ef568e3e12ab5b9c7254a8d58478811de00f9e6eb34345acd53bf8fd09d3ec805460408051828502810185019091528181529283018282801561165157602002820191906000526020600020905b81548152602001906001019080831161163d575b505050505090506116c0565b63ffffffff8416600090815260046020908152604091829020805483518184028101840190945280845290918301828280156116b857602002820191906000526020600020905b8154815260200190600101908083116116a4575b505050505090505b600080846001600160a01b031663bfa0b1336040518163ffffffff1660e01b8152600401602060405180830381865afa158015611701573d6000803e3d6000fd5b505050506040513d601f19601f8201168201806040525081019061172591906138de565b9050825160001415611739575050506109f0565b82516001600160401b0381111561175257611752612f96565b60405190808252806020026020018201604052801561177b578160200160208202803683370190505b50935060608060005b8551811015611c3857600c8682815181106117a1576117a161382f565b6020026020010151815481106117b9576117b961382f565b9060005260206000200180548060200260200160405190810160405280929190818152602001828054801561180d57602002820191906000526020600020905b8154815260200190600101908083116117f9575b5050505050915081516000141561185a576000878661182b8161386b565b97508151811061183d5761183d61382f565b63ffffffff90921660209283029190910190910152600101611784565b815160011480156118a25750600d8260008151811061187b5761187b61382f565b6020026020010151815481106118935761189361382f565b90600052602060002001546064145b156118ce57816000815181106118ba576118ba61382f565b602002602001015187868061182b9061386b565b81516001600160401b038111156118e7576118e7612f96565b604051908082528060200260200182016040528015611910578160200160208202803683370190505b5092506000805b8351811015611ad457845182141561192e57611ad4565b8381815181106119405761194061382f565b60200260200101516000141561195857600101611917565b600084828151811061196c5761196c61382f565b6020026020010151600d8054905011156119ba57600d8583815181106119945761199461382f565b6020026020010151815481106119ac576119ac61382f565b906000526020600020015490505b8060641480611a7357506001600160a01b038b16637881bab960648a8a87866119e3898c613817565b6119ed9190613817565b6119f79190613817565b611a019190613817565b611a0b9190613817565b6040516001600160e01b031960e085901b16815260048101929092526024820152604401602060405180830381865afa158015611a4c573d6000803e3d6000fd5b505050506040513d601f19601f82011682018060405250810190611a7091906138de565b81115b15611acb57848281518110611a8a57611a8a61382f565b6020026020010151868480611a9e9061386b565b955081518110611ab057611ab061382f565b602002602001019063ffffffff16908163ffffffff16815250505b50600101611917565b50600060018211611b375784600081518110611af257611af261382f565b6020026020010151898880611b069061386b565b995081518110611b1857611b1861382f565b602002602001019063ffffffff16908163ffffffff1681525050611c2e565b60028210611c2e57896001600160a01b0316637881bab983888a868a51611b5e9190613817565b611b689190613817565b611b729190613817565b6040516001600160e01b031960e085901b16815260048101929092526024820152604401602060405180830381865afa158015611bb3573d6000803e3d6000fd5b505050506040513d601f19601f82011682018060405250810190611bd791906138de565b90508451811015611bf457848181518110611af257611af261382f565b60008988611c018161386b565b995081518110611c1357611c1361382f565b602002602001019063ffffffff16908163ffffffff16815250505b5050600101611784565b50505050505092915050565b6000546001600160a01b0316331480611c6c57503360009081526002602052604090205460ff165b611c885760405162461bcd60e51b815260040161057790613845565b8060098363ffffffff1681548110611ca257611ca261382f565b90600052602060002090600891828204019190066004026101000a81548163ffffffff021916908363ffffffff1602179055505050565b6000546001600160a01b0316331480611d0157503360009081526002602052604090205460ff165b611d1d5760405162461bcd60e51b815260040161057790613845565b600855565b60006008546001148015611d475750600a5460009081526003602052604090205460ff165b15611d855760405162461bcd60e51b815260206004820152600e60248201526d4e6f2076616c696420706174687360901b6044820152606401610577565b6005546040516206259160e71b815260206004820152600b60248201526a1a5b98dc995b595b9d185b60aa1b60448201526001600160a01b0390911690630312c88090606401602060405180830381865afa158015611de8573d6000803e3d6000fd5b505050506040513d601f19601f82011682018060405250810190611e0c91906138c1565b15611f2d57600f8054600160201b900463ffffffff16906004611e2e836138f7565b82546101009290920a63ffffffff818102199093169183160217909155600f805463ffffffff191692909116918217905560085411611e9757600a54600f805467ffffffffffffffff1916600160201b63ffffffff90931692830263ffffffff19161790911790555b600f5463ffffffff1660009081526003602052604090205460ff1615611f1f57600854600f5463ffffffff1610611ee557600a54600f805463ffffffff191663ffffffff9092169190911790555b600f805463ffffffff16906000611efb836138f7565b91906101000a81548163ffffffff021916908363ffffffff16021790555050611e97565b5050600f5463ffffffff1690565b60085460405163a0d0ca0f60e01b81526000916001600160a01b0385169163a0d0ca0f91611f619160040190815260200190565b6020604051808303816000875af1158015611f80573d6000803e3d6000fd5b505050506040513d601f19601f82011682018060405250810190611fa491906138de565b63ffffffff811660009081526003602052604090205490915060ff1680611fd357506008548163ffffffff1610155b156109f05750600a5492915050565b919050565b6000546001600160a01b031633146120115760405162461bcd60e51b8152600401610577906137db565b80600c8363ffffffff168154811061202b5761202b61382f565b906000526020600020019080519060200190612048929190612e38565b505050565b6000546001600160a01b031633146120775760405162461bcd60e51b8152600401610577906137db565b600080526004602090815281516120b3917f17ef568e3e12ab5b9c7254a8d58478811de00f9e6eb34345acd53bf8fd09d3ec9190840190612e72565b50506011805460ff19166001179055565b600080546001600160a01b03838116911614806109f05750506001600160a01b031660009081526002602052604090205460ff1690565b6000546001600160a01b031633148061212357503360009081526002602052604090205460ff165b61213f5760405162461bcd60e51b815260040161057790613845565b600f805463ffffffff191663ffffffff92909216919091179055565b6000546001600160a01b031633148061218357503360009081526002602052604090205460ff165b61219f5760405162461bcd60e51b815260040161057790613845565b6121ab60106000612eb5565b565b6000546001600160a01b031633146121d75760405162461bcd60e51b8152600401610577906137db565b80518251146121e557600080fd5b60005b8251811015612048578181815181106122035761220361382f565b6020026020010151600460008584815181106122215761222161382f565b602002602001015163ffffffff1681526020019081526020016000209080519060200190612250929190612e38565b508061225b8161386b565b9150506121e8565b6000546001600160a01b031633148061228b57503360009081526002602052604090205460ff165b6122a75760405162461bcd60e51b815260040161057790613845565b805161067390600e906020840190612d8e565b6040805180820190915260028152617b7d60f01b60208201529392505050565b606060006122e7846109f6565b60055460405163e7b6dac960e01b815260206004820152600f60248201526e636f6c6f75724368756e6b53697a6560881b60448201529192506000916001600160a01b039091169063e7b6dac990606401602060405180830381865afa158015612355573d6000803e3d6000fd5b505050506040513d601f19601f8201168201806040525081019061237991906138de565b905060008111612387575060045b808263ffffffff16116125ae5760408051600480825260a0820190925290602082016080803683370190505060405163a0d0ca0f60e01b815262ffffff60048201529093506001600160a01b0385169063a0d0ca0f906024016020604051808303816000875af11580156123ff573d6000803e3d6000fd5b505050506040513d601f19601f8201168201806040525081019061242391906138de565b836000815181106124365761243661382f565b602002602001019063ffffffff16908163ffffffff168152505081836001815181106124645761246461382f565b63ffffffff928316602091820292909201015260405163a0d0ca0f60e01b815260048101919091526001600160a01b0385169063a0d0ca0f906024016020604051808303816000875af11580156124bf573d6000803e3d6000fd5b505050506040513d601f19601f820116820180604052508101906124e391906138de565b836002815181106124f6576124f661382f565b63ffffffff9092166020928302919091019091015260055460405163e7b6dac960e01b81526001600160a01b039091169063e7b6dac9906125399060040161391b565b602060405180830381865afa158015612556573d6000803e3d6000fd5b505050506040513d601f19601f8201168201806040525081019061257a91906138de565b8360038151811061258d5761258d61382f565b602002602001019063ffffffff16908163ffffffff168152505050506109f0565b60006125c08263ffffffff8516613957565b6125cb906001613817565b905060006125da82600261396b565b90508360006125ea836002613997565b63ffffffff166001600160401b0381111561260757612607612f96565b604051908082528060200260200182016040528015612630578160200160208202803683370190505b50965060005b8363ffffffff1681101561276b5780158061265957506126576002826139bf565b155b156126fc5760405163a0d0ca0f60e01b815262ffffff60048201526001600160a01b038a169063a0d0ca0f906024016020604051808303816000875af11580156126a7573d6000803e3d6000fd5b505050506040513d601f19601f820116820180604052508101906126cb91906138de565b8882815181106126dd576126dd61382f565b602002602001019063ffffffff16908163ffffffff1681525050612763565b6000826127088161386b565b935061271490886139d3565b6127249063ffffffff86166139f2565b90508681116127335780612735565b865b8983815181106127475761274761382f565b602002602001019063ffffffff16908163ffffffff1681525050505b600101612636565b5060405163a0d0ca0f60e01b815263ffffffff60048201526001600160a01b0389169063a0d0ca0f906024016020604051808303816000875af11580156127b6573d6000803e3d6000fd5b505050506040513d601f19601f820116820180604052508101906127da91906138de565b87600289516127e991906139f2565b815181106127f9576127f961382f565b63ffffffff9092166020928302919091019091015260055460405163e7b6dac960e01b81526001600160a01b039091169063e7b6dac99061283c9060040161391b565b602060405180830381865afa158015612859573d6000803e3d6000fd5b505050506040513d601f19601f8201168201806040525081019061287d91906138de565b876001895161288c91906139f2565b8151811061289c5761289c61382f565b602002602001019063ffffffff16908163ffffffff168152505050505050505092915050565b6000546001600160a01b031633146128ec5760405162461bcd60e51b8152600401610577906137db565b600080546001600160a01b03908116825260026020526040808320805460ff1990811690915583546001600160a01b03191692851692831784558284528184208054909116600117905551909133917f93091b3f3cd424efabc74e181f3799f3476ed758412561ed3b29515c51f567529190a350565b6000546001600160a01b0316331461298c5760405162461bcd60e51b8152600401610577906137db565b60005b81518110156106735760648282815181106129ac576129ac61382f565b60200260200101511115612a0d5760405162461bcd60e51b815260206004820152602260248201527f6f6e65206f66206d6f7265207261726974696573206172652061626f76652031604482015261030360f41b6064820152608401610577565b600d828281518110612a2157612a2161382f565b60209081029190910181015182546001818101855560009485529284200155600b805491929091612a53908490613817565b909155505060010161298f565b6000546001600160a01b03163314612a8a5760405162461bcd60e51b8152600401610577906137db565b6000546001600160a01b0383811691161415612ae15760405162461bcd60e51b815260206004820152601660248201527531b0b73737ba1036b7b234b33c903232b83637bcb2b960511b6044820152606401610577565b6001600160a01b038216600081815260026020908152604091829020805460ff1916851515908117909155915191825233917ff38de818d000d07d091732dd783c6855722d7bc1934d92b7635133289d341695910160405180910390a35050565b6000546001600160a01b0316331480612b6a57503360009081526002602052604090205460ff165b612b865760405162461bcd60e51b815260040161057790613845565b612b9260096000612ed3565b60006008819055600a55565b606060068054612bad90613886565b80601f0160208091040260200160405190810160405280929190818152602001828054612bd990613886565b8015612c265780601f10612bfb57610100808354040283529160200191612c26565b820191906000526020600020905b815481529060010190602001808311612c0957829003601f168201915b5050505050905090565b828054612c3c90613886565b90600052602060002090601f016020900481019282612c5e5760008555612ca4565b82601f10612c7757805160ff1916838001178555612ca4565b82800160010185558215612ca4579182015b82811115612ca4578251825591602001919060010190612c89565b50612cb0929150612ef4565b5090565b5080546000825590600052602060002090810190612cd29190612ef4565b50565b5080546000825590600052602060002090810190612cd29190612f09565b828054828255906000526020600020908101928215612d40579160200282015b82811115612d405782518051612d30918491602090910190612c30565b5091602001919060010190612d13565b50612cb0929150612f26565b6040518060c00160405280600063ffffffff168152602001600063ffffffff168152602001606081526020016060815260200160608152602001606081525090565b82805482825590600052602060002090600701600890048101928215612ca45791602002820160005b83821115612dfb57835183826101000a81548163ffffffff021916908363ffffffff1602179055509260200192600401602081600301049283019260010302612db7565b8015612e2b5782816101000a81549063ffffffff0219169055600401602081600301049283019260010302612dfb565b5050612cb0929150612ef4565b828054828255906000526020600020908101928215612ca45791602002820182811115612ca4578251825591602001919060010190612c89565b828054828255906000526020600020908101928215612ca4579160200282015b82811115612ca4578251829063ffffffff16905591602001919060010190612e92565b5080546000825590600052602060002090810190612cd29190612f26565b508054600082556007016008900490600052602060002090810190612cd291905b5b80821115612cb05760008155600101612ef5565b80821115612cb0576000612f1d8282612cb4565b50600101612f09565b80821115612cb0576000612f3a8282612f43565b50600101612f26565b508054612f4f90613886565b6000825580601f10612f5f575050565b601f016020900490600052602060002090810190612cd29190612ef4565b600060208284031215612f8f57600080fd5b5035919050565b634e487b7160e01b600052604160045260246000fd5b604051601f8201601f191681016001600160401b0381118282101715612fd457612fd4612f96565b604052919050565b60006001600160401b03821115612ff557612ff5612f96565b5060051b60200190565b6001600160a01b0381168114612cd257600080fd5b6000602080838503121561302757600080fd5b82356001600160401b0381111561303d57600080fd5b8301601f8101851361304e57600080fd5b803561306161305c82612fdc565b612fac565b81815260059190911b8201830190838101908783111561308057600080fd5b928401925b828410156130a757833561309881612fff565b82529284019290840190613085565b979650505050505050565b600082601f8301126130c357600080fd5b81356001600160401b038111156130dc576130dc612f96565b6130ef601f8201601f1916602001612fac565b81815284602083860101111561310457600080fd5b816020850160208301376000918101602001919091529392505050565b60006020828403121561313357600080fd5b81356001600160401b0381111561314957600080fd5b613155848285016130b2565b949350505050565b6020808252825182820181905260009190848201906040850190845b8181101561319557835183529284019291840191600101613179565b50909695505050505050565b600060208083850312156131b457600080fd5b82356001600160401b03808211156131cb57600080fd5b818501915085601f8301126131df57600080fd5b81356131ed61305c82612fdc565b81815260059190911b8301840190848101908883111561320c57600080fd5b8585015b83811015613244578035858111156132285760008081fd5b6132368b89838a01016130b2565b845250918601918601613210565b5098975050505050505050565b803563ffffffff81168114611fe257600080fd5b8015158114612cd257600080fd5b6000806040838503121561328657600080fd5b61328f83613251565b9150602083013561329f81613265565b809150509250929050565b600080604083850312156132bd57600080fd5b6132c683613251565b9150602083013561329f81612fff565b600081518084526020808501945080840160005b8381101561330c57815163ffffffff16875295820195908201906001016132ea565b509495945050505050565b6000815180845260005b8181101561333d57602081850181015186830182015201613321565b8181111561334f576000602083870101525b50601f01601f19169290920160200192915050565b600081518084526020808501808196508360051b8101915082860160005b858110156133ac57828403895261339a848351613317565b98850198935090840190600101613382565b5091979650505050505050565b60208152600063ffffffff80845116602084015280602085015116604084015250604083015160c060608401526133f360e08401826132d6565b90506060840151601f19808584030160808601526134118383613364565b925060808601519150808584030160a086015261342e83836132d6565b925060a08601519150808584030160c08601525061344c8282613317565b95945050505050565b60006020828403121561346757600080fd5b6109ed82613251565b6020815260006109ed6020830184613317565b6000806040838503121561349657600080fd5b82359150602083013561329f81612fff565b6020815260006109ed6020830184613364565b600082601f8301126134cc57600080fd5b813560206134dc61305c83612fdc565b82815260059290921b840181019181810190868411156134fb57600080fd5b8286015b8481101561351d5761351081613251565b83529183019183016134ff565b509695505050505050565b60006020828403121561353a57600080fd5b81356001600160401b0381111561355057600080fd5b613155848285016134bb565b60008060006060848603121561357157600080fd5b61357a84613251565b925061358860208501613251565b9150604084013561359881612fff565b809150509250925092565b600082601f8301126135b457600080fd5b813560206135c461305c83612fdc565b82815260059290921b840181019181810190868411156135e357600080fd5b8286015b8481101561351d57803583529183019183016135e7565b60006020828403121561361057600080fd5b81356001600160401b0381111561362657600080fd5b613155848285016135a3565b6020815260006109ed60208301846132d6565b6000806040838503121561365857600080fd5b61366183613251565b915061366f60208401613251565b90509250929050565b60006020828403121561368a57600080fd5b813561369581612fff565b9392505050565b600080604083850312156136af57600080fd5b6136b883613251565b915060208301356001600160401b038111156136d357600080fd5b6136df858286016135a3565b9150509250929050565b600080604083850312156136fc57600080fd5b82356001600160401b038082111561371357600080fd5b61371f868387016134bb565b935060209150818501358181111561373657600080fd5b8501601f8101871361374757600080fd5b803561375561305c82612fdc565b81815260059190911b8201840190848101908983111561377457600080fd5b8584015b838110156137ac578035868111156137905760008081fd5b61379e8c89838901016135a3565b845250918601918601613778565b508096505050505050509250929050565b600080604083850312156137d057600080fd5b823561328f81612fff565b6020808252600c908201526b3737ba103232b83637bcb2b960a11b604082015260600190565b634e487b7160e01b600052601160045260246000fd5b6000821982111561382a5761382a613801565b500190565b634e487b7160e01b600052603260045260246000fd5b6020808252600c908201526b1b9bdd08185c1c1c9bdd995960a21b604082015260600190565b600060001982141561387f5761387f613801565b5060010190565b600181811c9082168061389a57607f821691505b602082108114156138bb57634e487b7160e01b600052602260045260246000fd5b50919050565b6000602082840312156138d357600080fd5b815161369581613265565b6000602082840312156138f057600080fd5b5051919050565b600063ffffffff8083168181141561391157613911613801565b6001019392505050565b6020808252600c908201526b6578747261436f6c6f75727360a01b604082015260600190565b634e487b7160e01b600052601260045260246000fd5b60008261396657613966613941565b500490565b600063ffffffff8083168185168183048111821515161561398e5761398e613801565b02949350505050565b600063ffffffff8083168185168083038211156139b6576139b6613801565b01949350505050565b6000826139ce576139ce613941565b500690565b60008160001904831182151516156139ed576139ed613801565b500290565b600082821015613a0457613a04613801565b50039056fea26469706673582212204812244464af40815aebba264387e49a443e309c86b1474bf1a3b4f692c682a664736f6c634300080c0033",
  "linkReferences": {},
  "deployedLinkReferences": {}
}