{
  "_format": "hh-sol-artifact-1",
  "contractName": "InfinityMintLinker",
  "sourceName": "alpha/InfinityMintLinker.sol",
  "abi": [
    {
      "inputs": [
        {
          "internalType": "address",
          "name": "storageDestination",
          "type": "address"
        },
        {
          "internalType": "address",
          "name": "erc721Destination",
          "type": "address"
        }
      ],
      "stateMutability": "nonpayable",
      "type": "constructor"
    },
    {
      "anonymous": false,
      "inputs": [
        {
          "indexed": true,
          "internalType": "address",
          "name": "sender",
          "type": "address"
        },
        {
          "indexed": true,
          "internalType": "address",
          "name": "changee",
          "type": "address"
        },
        {
          "indexed": false,
          "internalType": "bool",
          "name": "value",
          "type": "bool"
        }
      ],
      "name": "PermissionChange",
      "type": "event"
    },
    {
      "anonymous": false,
      "inputs": [
        {
          "indexed": true,
          "internalType": "address",
          "name": "from",
          "type": "address"
        },
        {
          "indexed": true,
          "internalType": "address",
          "name": "to",
          "type": "address"
        }
      ],
      "name": "TransferedOwnership",
      "type": "event"
    },
    {
      "inputs": [
        {
          "internalType": "uint256",
          "name": "index",
          "type": "uint256"
        },
        {
          "internalType": "string",
          "name": "key",
          "type": "string"
        },
        {
          "internalType": "bytes",
          "name": "versionType",
          "type": "bytes"
        },
        {
          "internalType": "bool",
          "name": "isErc721",
          "type": "bool"
        },
        {
          "internalType": "bool",
          "name": "verifyIntegrity",
          "type": "bool"
        },
        {
          "internalType": "bool",
          "name": "forcedOnly",
          "type": "bool"
        },
        {
          "internalType": "bool",
          "name": "permanent",
          "type": "bool"
        }
      ],
      "name": "addSupport",
      "outputs": [],
      "stateMutability": "nonpayable",
      "type": "function"
    },
    {
      "inputs": [
        {
          "internalType": "address",
          "name": "",
          "type": "address"
        }
      ],
      "name": "approved",
      "outputs": [
        {
          "internalType": "bool",
          "name": "",
          "type": "bool"
        }
      ],
      "stateMutability": "view",
      "type": "function"
    },
    {
      "inputs": [
        {
          "internalType": "string",
          "name": "keyToChange",
          "type": "string"
        },
        {
          "internalType": "string",
          "name": "key",
          "type": "string"
        }
      ],
      "name": "changeLinkKey",
      "outputs": [],
      "stateMutability": "nonpayable",
      "type": "function"
    },
    {
      "inputs": [],
      "name": "clearLinks",
      "outputs": [],
      "stateMutability": "nonpayable",
      "type": "function"
    },
    {
      "inputs": [],
      "name": "deployer",
      "outputs": [
        {
          "internalType": "address",
          "name": "",
          "type": "address"
        }
      ],
      "stateMutability": "view",
      "type": "function"
    },
    {
      "inputs": [],
      "name": "erc721Location",
      "outputs": [
        {
          "internalType": "address",
          "name": "",
          "type": "address"
        }
      ],
      "stateMutability": "view",
      "type": "function"
    },
    {
      "inputs": [
        {
          "internalType": "uint256",
          "name": "tokenId",
          "type": "uint256"
        },
        {
          "internalType": "string",
          "name": "key",
          "type": "string"
        },
        {
          "internalType": "address",
          "name": "destination",
          "type": "address"
        }
      ],
      "name": "forceLink",
      "outputs": [],
      "stateMutability": "nonpayable",
      "type": "function"
    },
    {
      "inputs": [
        {
          "internalType": "uint256",
          "name": "index",
          "type": "uint256"
        }
      ],
      "name": "getLink",
      "outputs": [
        {
          "components": [
            {
              "internalType": "uint256",
              "name": "index",
              "type": "uint256"
            },
            {
              "internalType": "bytes",
              "name": "versionType",
              "type": "bytes"
            },
            {
              "internalType": "bytes4",
              "name": "interfaceId",
              "type": "bytes4"
            },
            {
              "internalType": "string",
              "name": "key",
              "type": "string"
            },
            {
              "internalType": "bool",
              "name": "erc721",
              "type": "bool"
            },
            {
              "internalType": "bool",
              "name": "verifyIntegrity",
              "type": "bool"
            },
            {
              "internalType": "bool",
              "name": "forcedOnly",
              "type": "bool"
            },
            {
              "internalType": "bool",
              "name": "permanent",
              "type": "bool"
            },
            {
              "internalType": "bool",
              "name": "active",
              "type": "bool"
            }
          ],
          "internalType": "struct InfinityMintLinker.Link",
          "name": "",
          "type": "tuple"
        }
      ],
      "stateMutability": "view",
      "type": "function"
    },
    {
      "inputs": [
        {
          "internalType": "string",
          "name": "key",
          "type": "string"
        }
      ],
      "name": "getLinkByKey",
      "outputs": [
        {
          "components": [
            {
              "internalType": "uint256",
              "name": "index",
              "type": "uint256"
            },
            {
              "internalType": "bytes",
              "name": "versionType",
              "type": "bytes"
            },
            {
              "internalType": "bytes4",
              "name": "interfaceId",
              "type": "bytes4"
            },
            {
              "internalType": "string",
              "name": "key",
              "type": "string"
            },
            {
              "internalType": "bool",
              "name": "erc721",
              "type": "bool"
            },
            {
              "internalType": "bool",
              "name": "verifyIntegrity",
              "type": "bool"
            },
            {
              "internalType": "bool",
              "name": "forcedOnly",
              "type": "bool"
            },
            {
              "internalType": "bool",
              "name": "permanent",
              "type": "bool"
            },
            {
              "internalType": "bool",
              "name": "active",
              "type": "bool"
            }
          ],
          "internalType": "struct InfinityMintLinker.Link",
          "name": "",
          "type": "tuple"
        }
      ],
      "stateMutability": "view",
      "type": "function"
    },
    {
      "inputs": [
        {
          "internalType": "address",
          "name": "addr",
          "type": "address"
        }
      ],
      "name": "isAuthenticated",
      "outputs": [
        {
          "internalType": "bool",
          "name": "",
          "type": "bool"
        }
      ],
      "stateMutability": "view",
      "type": "function"
    },
    {
      "inputs": [
        {
          "internalType": "address[]",
          "name": "addrs",
          "type": "address[]"
        }
      ],
      "name": "multiApprove",
      "outputs": [],
      "stateMutability": "nonpayable",
      "type": "function"
    },
    {
      "inputs": [
        {
          "internalType": "address[]",
          "name": "addrs",
          "type": "address[]"
        }
      ],
      "name": "multiRevoke",
      "outputs": [],
      "stateMutability": "nonpayable",
      "type": "function"
    },
    {
      "inputs": [
        {
          "internalType": "uint256",
          "name": "tokenId",
          "type": "uint256"
        },
        {
          "internalType": "string",
          "name": "key",
          "type": "string"
        },
        {
          "internalType": "address",
          "name": "destination",
          "type": "address"
        }
      ],
      "name": "setLink",
      "outputs": [],
      "stateMutability": "nonpayable",
      "type": "function"
    },
    {
      "inputs": [
        {
          "internalType": "address",
          "name": "addr",
          "type": "address"
        },
        {
          "internalType": "bool",
          "name": "value",
          "type": "bool"
        }
      ],
      "name": "setPrivilages",
      "outputs": [],
      "stateMutability": "nonpayable",
      "type": "function"
    },
    {
      "inputs": [
        {
          "internalType": "uint256",
          "name": "index",
          "type": "uint256"
        }
      ],
      "name": "toggleSupport",
      "outputs": [],
      "stateMutability": "nonpayable",
      "type": "function"
    },
    {
      "inputs": [
        {
          "internalType": "address",
          "name": "addr",
          "type": "address"
        }
      ],
      "name": "transferOwnership",
      "outputs": [],
      "stateMutability": "nonpayable",
      "type": "function"
    },
    {
      "inputs": [
        {
          "internalType": "uint256",
          "name": "tokenId",
          "type": "uint256"
        },
        {
          "internalType": "string",
          "name": "key",
          "type": "string"
        }
      ],
      "name": "unlink",
      "outputs": [],
      "stateMutability": "nonpayable",
      "type": "function"
    }
  ],
  "bytecode": "0x608060405260006006553480156200001657600080fd5b5060405162002edf38038062002edf8339810160408190526200003991620000b0565b60008054336001600160a01b0319918216811783558252600260205260408220805460ff19166001908117909155919091556004805482166001600160a01b039485161790556003805490911691909216179055620000e8565b80516001600160a01b0381168114620000ab57600080fd5b919050565b60008060408385031215620000c457600080fd5b620000cf8362000093565b9150620000df6020840162000093565b90509250929050565b612de780620000f86000396000f3fe608060405234801561001057600080fd5b50600436106100db5760003560e01c806310a8c7a9146100e057806313e7f9e7146100f557806314e62d8b1461011e57806314ea079d146101315780632a8624ed146101445780632f9fe8cf1461016f57806331ed86d214610182578063393b6df31461019557806375ca64fe146101a85780639e952267146101b0578063bbdc2e65146101c3578063d15d4150146101d6578063d25146b0146101f9578063d5f394881461020c578063d8b964e61461021f578063f2fde38b14610242578063fe684c0e14610255575b600080fd5b6100f36100ee3660046121aa565b610268565b005b610108610103366004612290565b610308565b6040516101159190612329565b60405180910390f35b6100f361012c366004612483565b610323565b6100f361013f366004612549565b61057a565b600354610157906001600160a01b031681565b6040516001600160a01b039091168152602001610115565b6100f361017d366004612562565b610637565b6100f36101903660046121aa565b610830565b6101086101a3366004612549565b6108c3565b6100f3610ae7565b6100f36101be3660046125cd565b610b6c565b6100f36101d1366004612618565b610f66565b6101e96101e4366004612676565b610f9e565b6040519015158152602001610115565b6100f3610207366004612618565b610fd5565b600054610157906001600160a01b031681565b6101e961022d366004612676565b60026020526000908152604090205460ff1681565b6100f3610250366004612676565b61134b565b6100f361026336600461269a565b6113eb565b6000546001600160a01b0316331461029b5760405162461bcd60e51b8152600401610292906126d3565b60405180910390fd5b80516102a657600080fd5b60005b8151811015610304576001600260008484815181106102ca576102ca6126f9565b6020908102919091018101516001600160a01b03168252810191909152604001600020805460ff19169115159190911790556001016102a9565b5050565b610310612019565b61031a83836114cd565b90505b92915050565b6000546001600160a01b031633148061034b57503360009081526002602052604090205460ff165b6103675760405162461bcd60e51b81526004016102929061270f565b602087106103c35760405162461bcd60e51b815260206004820152602360248201527f63616e206f6e6c7920686176652061206d6178696d756d20696e646578206f6660448201526210199960e91b6064820152608401610292565b600087815260056020526040902060040154600160201b900460ff1615156001141561042c5760405162461bcd60e51b81526020600482015260186024820152771b1a5b9ac8185b1c9958591e48195cdd18589b1a5cda195960421b6044820152606401610292565b604080516101208101825288815260208082018881526335268a9f60e21b83850152606083018a9052871515608084015286151560a084015285151560c084015284151560e08401526001610100840181905260008c815260058452949094208351815590518051939491936104aa93928501929190910190612067565b50604082015160028201805463ffffffff191660e09290921c919091179055606082015180516104e4916003840191602090910190612067565b506080820151600491909101805460a084015160c085015160e08601516101009687015161ffff1990941695151561ff001916959095179115159095021763ffff00001916620100009415159490940263ff0000001916939093176301000000921515929092029190911760ff60201b1916600160201b9215159290920291909117905550506006805460010190555050505050565b6000546001600160a01b03163314806105a257503360009081526002602052604090205460ff165b6105be5760405162461bcd60e51b81526004016102929061270f565b600081815260056020526040902060030180546105da90612735565b151590506106195760405162461bcd60e51b815260206004820152600c60248201526b696e76616c6964206c696e6b60a01b6044820152606401610292565b6000908152600560205260409020600401805460ff60201b19169055565b6000546001600160a01b031633148061065f57503360009081526002602052604090205460ff165b61067b5760405162461bcd60e51b81526004016102929061270f565b600061068785856114cd565b90506106938383611817565b156107015760405162461bcd60e51b815260206004820152603860248201527f63616e6e6f74206368616e6765206b657920746f2074686174206b65792061736044820152772074686174206b657920616c72656164792065786973747360401b6064820152608401610292565b82828080601f016020809104026020016040519081016040528093929190818152602001838380828437600092018290525060608601949094525050825182525060056020908152604090912082518155818301518051849361076b926001850192910190612067565b50604082015160028201805463ffffffff191660e09290921c919091179055606082015180516107a5916003840191602090910190612067565b506080820151600491909101805460a084015160c085015160e08601516101009687015161ffff1990941695151561ff001916959095179115159095021763ffff00001916620100009415159490940263ff0000001916939093176301000000921515929092029190911760ff60201b1916600160201b921515929092029190911790555050505050565b6000546001600160a01b0316331461085a5760405162461bcd60e51b8152600401610292906126d3565b805161086557600080fd5b60005b815181101561030457600060026000848481518110610889576108896126f9565b6020908102919091018101516001600160a01b03168252810191909152604001600020805460ff1916911515919091179055600101610868565b6108cb612019565b600082815260056020526040902060030180546108e790612735565b151590506109295760405162461bcd60e51b815260206004820152600f60248201526e1b1a5b9ac81a5cc81a5b9d985b1a59608a1b6044820152606401610292565b60056000838152602001908152602001600020604051806101200160405290816000820154815260200160018201805461096290612735565b80601f016020809104026020016040519081016040528092919081815260200182805461098e90612735565b80156109db5780601f106109b0576101008083540402835291602001916109db565b820191906000526020600020905b8154815290600101906020018083116109be57829003601f168201915b5050509183525050600282015460e01b6001600160e01b0319166020820152600382018054604090920191610a0f90612735565b80601f0160208091040260200160405190810160405280929190818152602001828054610a3b90612735565b8015610a885780601f10610a5d57610100808354040283529160200191610a88565b820191906000526020600020905b815481529060010190602001808311610a6b57829003601f168201915b50505091835250506004919091015460ff80821615156020840152610100820481161515604084015262010000820481161515606084015263010000008204811615156080840152600160201b90910416151560a09091015292915050565b6000546001600160a01b03163314610b115760405162461bcd60e51b8152600401610292906126d3565b60005b600654811015610b6457600081815260056020526040902060040154600160201b900460ff1615610b5c576000818152600560205260409020600401805460ff60201b191690555b600101610b14565b506000600655565b610b763384611963565b610b925760405162461bcd60e51b815260040161029290612770565b6000610b9e83836114cd565b60048054604051636c51371d60e11b815263ffffffff8816928101929092529192506000916001600160a01b03169063d8a26e3a90602401600060405180830381865afa158015610bf3573d6000803e3d6000fd5b505050506040513d6000823e601f3d908101601f19168201604052610c1b9190810190612967565b90508160e001511515600115151415610c735760405162461bcd60e51b815260206004820152601a6024820152791b1a5b9ac818d85b881b995d995c881899481d5b9b1a5b9ad95960321b6044820152606401610292565b60c0820151151560011415610ce45760405162461bcd60e51b815260206004820152603160248201527f6c696e6b206d757374206265206d616e61676564207468726f75676820616e20604482015270195e1d195c9b985b0818dbdb9d1c9858dd607a1b6064820152608401610292565b8151151580610d7e5750600480546040805163db8b7da360e01b81529283018890526024830152600f60448301526e063616e556e6c696e6b496e6465783608c1b60648301526001600160a01b03169063db8b7da390608401602060405180830381865afa158015610d5a573d6000803e3d6000fd5b505050506040513d601f19601f82011682018060405250810190610d7e9190612aac565b610dda5760405162461bcd60e51b815260206004820152602760248201527f696e64657820302063616e6e6f7420626520756e6c696e6b656420617420746860448201526669732074696d6560c81b6064820152608401610292565b81516001141580610e765750600480546040805163db8b7da360e01b81529283018890526024830152600f60448301526e63616e556e6c696e6b496e6465783160881b60648301526001600160a01b03169063db8b7da390608401602060405180830381865afa158015610e52573d6000803e3d6000fd5b505050506040513d601f19601f82011682018060405250810190610e769190612aac565b610ed25760405162461bcd60e51b815260206004820152602760248201527f696e64657820312063616e6e6f7420626520756e6c696e6b656420617420746860448201526669732074696d6560c81b6064820152608401610292565b6000816101000151836000015181518110610eef57610eef6126f9565b6001600160a01b0392831660209182029290920101526004805460405163c28cf06160e01b815292169163c28cf06191610f2d918991869101612b98565b600060405180830381600087803b158015610f4757600080fd5b505af1158015610f5b573d6000803e3d6000fd5b505050505050505050565b610f703385611963565b610f8c5760405162461bcd60e51b815260040161029290612770565b610f9884848484611a89565b50505050565b600080546001600160a01b038381169116148061031d5750506001600160a01b031660009081526002602052604090205460ff1690565b6000546001600160a01b0316331480610ffd57503360009081526002602052604090205460ff165b6110195760405162461bcd60e51b81526004016102929061270f565b600061102584846114cd565b60048054604051636c51371d60e11b815263ffffffff8916928101929092529192506000916001600160a01b03169063d8a26e3a90602401600060405180830381865afa15801561107a573d6000803e3d6000fd5b505050506040513d6000823e601f3d908101601f191682016040526110a29190810190612967565b905080610100015151600014156111445781516110c0906001612cb1565b6001600160401b038111156110d7576110d7612100565b604051908082528060200260200182016040528015611100578160200160208202803683370190505b5061010082018190528251815185929190811061111f5761111f6126f9565b60200260200101906001600160a01b031690816001600160a01b0316815250506112e0565b610100810151518251106112a3578151600090611162906001612cb1565b6001600160401b0381111561117957611179612100565b6040519080825280602002602001820160405280156111a2578160200160208202803683370190505b50905060005b81518110156112975783518114156111f257848282815181106111cd576111cd6126f9565b60200260200101906001600160a01b031690816001600160a01b03168152505061128f565b8261010001515181108015611238575060006001600160a01b03168361010001518281518110611224576112246126f9565b60200260200101516001600160a01b031614155b1561128f578261010001518181518110611254576112546126f9565b602002602001015182828151811061126e5761126e6126f9565b60200260200101906001600160a01b031690816001600160a01b0316815250505b6001016111a8565b506101008201526112e0565b828161010001518360000151815181106112bf576112bf6126f9565b60200260200101906001600160a01b031690816001600160a01b0316815250505b6004805460405163c28cf06160e01b81526001600160a01b039091169163c28cf06191611311918a91869101612b98565b600060405180830381600087803b15801561132b57600080fd5b505af115801561133f573d6000803e3d6000fd5b50505050505050505050565b6000546001600160a01b031633146113755760405162461bcd60e51b8152600401610292906126d3565b600080546001600160a01b03908116825260026020526040808320805460ff1990811690915583546001600160a01b03191692851692831784558284528184208054909116600117905551909133917f93091b3f3cd424efabc74e181f3799f3476ed758412561ed3b29515c51f567529190a350565b6000546001600160a01b031633146114155760405162461bcd60e51b8152600401610292906126d3565b6000546001600160a01b038381169116141561146c5760405162461bcd60e51b815260206004820152601660248201527531b0b73737ba1036b7b234b33c903232b83637bcb2b960511b6044820152606401610292565b6001600160a01b038216600081815260026020908152604091829020805460ff1916851515908117909155915191825233917ff38de818d000d07d091732dd783c6855722d7bc1934d92b7635133289d341695910160405180910390a35050565b6114d5612019565b816114f25760405162461bcd60e51b815260040161029290612cc9565b6114fa612019565b6000805b6006548110156117d357600081815260056020526040902060030180546115e3919061152990612735565b80601f016020809104026020016040519081016040528092919081815260200182805461155590612735565b80156115a25780601f10611577576101008083540402835291602001916115a2565b820191906000526020600020905b81548152906001019060200180831161158557829003601f168201915b505050505087878080601f016020809104026020016040519081016040528093929190818152602001838380828437600092019190915250611f7792505050565b80156116075750600081815260056020526040902060040154600160201b900460ff165b156117cb576001915060056000828152602001908152602001600020604051806101200160405290816000820154815260200160018201805461164990612735565b80601f016020809104026020016040519081016040528092919081815260200182805461167590612735565b80156116c25780601f10611697576101008083540402835291602001916116c2565b820191906000526020600020905b8154815290600101906020018083116116a557829003601f168201915b5050509183525050600282015460e01b6001600160e01b03191660208201526003820180546040909201916116f690612735565b80601f016020809104026020016040519081016040528092919081815260200182805461172290612735565b801561176f5780601f106117445761010080835404028352916020019161176f565b820191906000526020600020905b81548152906001019060200180831161175257829003601f168201915b50505091835250506004919091015460ff80821615156020840152610100820481161515604084015262010000820481161515606084015263010000008204811615156080840152600160201b90910416151560a09091015292505b6001016114fe565b508061180f5760405162461bcd60e51b815260206004820152600b60248201526a1ad95e481a5b9d985b1a5960aa1b6044820152606401610292565b509392505050565b6000816118365760405162461bcd60e51b815260040161029290612cc9565b60005b600654811015611959576000818152600560205260409020600301805461191e919061186490612735565b80601f016020809104026020016040519081016040528092919081815260200182805461189090612735565b80156118dd5780601f106118b2576101008083540402835291602001916118dd565b820191906000526020600020905b8154815290600101906020018083116118c057829003601f168201915b505050505085858080601f016020809104026020016040519081016040528093929190818152602001838380828437600092019190915250611f7792505050565b80156119425750600081815260056020526040902060040154600160201b900460ff165b1561195157600191505061031d565b600101611839565b5060009392505050565b6003546040516001600160a01b03848116602483015260448201849052600092839283929091169060640160408051601f198184030181529181526020820180516001600160e01b031663430c208160e01b179052516119c39190612cec565b600060405180830381855afa9150503d80600081146119fe576040519150601f19603f3d011682016040523d82523d6000602084013e611a03565b606091505b509150915081611a64578051611a5b5760405162461bcd60e51b815260206004820152601d60248201527f697320617070726f766564206f72206f776e65722072657665727465640000006044820152606401610292565b80518082602001fd5b600081806020019051810190611a7a9190612aac565b15156001149695505050505050565b6000611a9584846114cd565b60048054604051636c51371d60e11b815263ffffffff8916928101929092529192506000916001600160a01b03169063d8a26e3a90602401600060405180830381865afa158015611aea573d6000803e3d6000fd5b505050506040513d6000823e601f3d908101601f19168201604052611b129190810190612967565b90508160c001511515600115151415611b675760405162461bcd60e51b815260206004820152601760248201527631b0b73737ba1031329039b2ba10313c903634b735b2b960491b6044820152606401610292565b610100810151511580611bba575061010081015151825110611b8a576001611bba565b6101008101518251815160009291908110611ba757611ba76126f9565b60200260200101516001600160a01b0316145b611c105760405162461bcd60e51b815260206004820152602160248201527f70726576696f7573206c696e6b20616c72656164792065737461626c697368656044820152601960fa1b6064820152608401610292565b8160a0015115611e0c576000806000806000876001600160a01b031663d49a2a7c6040518163ffffffff1660e01b81526004016000604051808303816000875af1158015611c62573d6000803e3d6000fd5b505050506040513d6000823e601f3d908101601f19168201604052611c8a9190810190612d08565b94509450945094509450611c9b3390565b6001600160a01b0316846001600160a01b031614611ce85760405162461bcd60e51b815260206004820152600a60248201526906d69736d6174636820360b41b6044820152606401610292565b876001600160a01b0316856001600160a01b031614611d365760405162461bcd60e51b815260206004820152600a6024820152696d69736d61746368203160b01b6044820152606401610292565b828b14611d725760405162461bcd60e51b815260206004820152600a60248201526936b4b9b6b0ba31b4101960b11b6044820152606401610292565b611d80828860200151611f77565b611db95760405162461bcd60e51b815260206004820152600a6024820152696d69736d61746368203360b01b6044820152606401610292565b60408701516001600160e01b0319828116911614611e065760405162461bcd60e51b815260206004820152600a6024820152691b5a5cdb585d18da080d60b21b6044820152606401610292565b50505050505b61010081015151611e245781516110c0906001612cb1565b610100810151518251106112a3578151600090611e42906001612cb1565b6001600160401b03811115611e5957611e59612100565b604051908082528060200260200182016040528015611e82578160200160208202803683370190505b50905060005b8151811015611297578351811415611ed25784828281518110611ead57611ead6126f9565b60200260200101906001600160a01b031690816001600160a01b031681525050611f6f565b8261010001515181108015611f18575060006001600160a01b03168361010001518281518110611f0457611f046126f9565b60200260200101516001600160a01b031614155b15611f6f578261010001518181518110611f3457611f346126f9565b6020026020010151828281518110611f4e57611f4e6126f9565b60200260200101906001600160a01b031690816001600160a01b0316815250505b600101611e88565b8151815160009184918491908114611f95576000935050505061031d565b60005b8181101561200c57828181518110611fb257611fb26126f9565b602001015160f81c60f81b6001600160f81b031916848281518110611fd957611fd96126f9565b01602001516001600160f81b03191614611ffa57600094505050505061031d565b8061200481612d96565b915050611f98565b5060019695505050505050565b60408051610120810182526000808252606060208301819052928201819052828201929092526080810182905260a0810182905260c0810182905260e0810182905261010081019190915290565b82805461207390612735565b90600052602060002090601f01602090048101928261209557600085556120db565b82601f106120ae57805160ff19168380011785556120db565b828001600101855582156120db579182015b828111156120db5782518255916020019190600101906120c0565b506120e79291506120eb565b5090565b5b808211156120e757600081556001016120ec565b634e487b7160e01b600052604160045260246000fd5b60405161012081016001600160401b038111828210171561213957612139612100565b60405290565b604051601f8201601f191681016001600160401b038111828210171561216757612167612100565b604052919050565b60006001600160401b0382111561218857612188612100565b5060051b60200190565b6001600160a01b03811681146121a757600080fd5b50565b600060208083850312156121bd57600080fd5b82356001600160401b038111156121d357600080fd5b8301601f810185136121e457600080fd5b80356121f76121f28261216f565b61213f565b81815260059190911b8201830190838101908783111561221657600080fd5b928401925b8284101561223d57833561222e81612192565b8252928401929084019061221b565b979650505050505050565b60008083601f84011261225a57600080fd5b5081356001600160401b0381111561227157600080fd5b60208301915083602082850101111561228957600080fd5b9250929050565b600080602083850312156122a357600080fd5b82356001600160401b038111156122b957600080fd5b6122c585828601612248565b90969095509350505050565b60005b838110156122ec5781810151838201526020016122d4565b83811115610f985750506000910152565b600081518084526123158160208601602086016122d1565b601f01601f19169290920160200192915050565b6020815281516020820152600060208301516101208060408501526123526101408501836122fd565b9150604085015161236f60608601826001600160e01b0319169052565b506060850151848303601f1901608086015261238b83826122fd565b92505060808501516123a160a086018215159052565b5060a085015180151560c08601525060c085015180151560e08601525060e08501516101006123d38187018315159052565b90950151151593019290925250919050565b60006001600160401b038211156123fe576123fe612100565b50601f01601f191660200190565b600061241a6121f2846123e5565b905082815283838301111561242e57600080fd5b828260208301376000602084830101529392505050565b600082601f83011261245657600080fd5b61031a8383356020850161240c565b80151581146121a757600080fd5b803561247e81612465565b919050565b600080600080600080600060e0888a03121561249e57600080fd5b8735965060208801356001600160401b03808211156124bc57600080fd5b818a0191508a601f8301126124d057600080fd5b6124df8b83356020850161240c565b975060408a01359150808211156124f557600080fd5b506125028a828b01612445565b95505061251160608901612473565b935061251f60808901612473565b925061252d60a08901612473565b915061253b60c08901612473565b905092959891949750929550565b60006020828403121561255b57600080fd5b5035919050565b6000806000806040858703121561257857600080fd5b84356001600160401b038082111561258f57600080fd5b61259b88838901612248565b909650945060208701359150808211156125b457600080fd5b506125c187828801612248565b95989497509550505050565b6000806000604084860312156125e257600080fd5b8335925060208401356001600160401b038111156125ff57600080fd5b61260b86828701612248565b9497909650939450505050565b6000806000806060858703121561262e57600080fd5b8435935060208501356001600160401b0381111561264b57600080fd5b61265787828801612248565b909450925050604085013561266b81612192565b939692955090935050565b60006020828403121561268857600080fd5b813561269381612192565b9392505050565b600080604083850312156126ad57600080fd5b82356126b881612192565b915060208301356126c881612465565b809150509250929050565b6020808252600c908201526b3737ba103232b83637bcb2b960a11b604082015260600190565b634e487b7160e01b600052603260045260246000fd5b6020808252600c908201526b1b9bdd08185c1c1c9bdd995960a21b604082015260600190565b600181811c9082168061274957607f821691505b6020821081141561276a57634e487b7160e01b600052602260045260246000fd5b50919050565b6020808252600990820152683737ba1037bbb732b960b91b604082015260600190565b805163ffffffff8116811461247e57600080fd5b805161247e81612192565b600082601f8301126127c357600080fd5b815160206127d36121f28361216f565b82815260059290921b840181019181810190868411156127f257600080fd5b8286015b848110156128145761280781612793565b83529183019183016127f6565b509695505050505050565b600061282d6121f2846123e5565b905082815283838301111561284157600080fd5b6126938360208301846122d1565b600082601f83011261286057600080fd5b61031a8383516020850161281f565b600082601f83011261288057600080fd5b815160206128906121f28361216f565b82815260059290921b840181019181810190868411156128af57600080fd5b8286015b848110156128145780516001600160401b038111156128d25760008081fd5b8701603f810189136128e45760008081fd5b6128f589868301516040840161281f565b8452509183019183016128b3565b600082601f83011261291457600080fd5b815160206129246121f28361216f565b82815260059290921b8401810191818101908684111561294357600080fd5b8286015b8481101561281457805161295a81612192565b8352918301918301612947565b60006020828403121561297957600080fd5b81516001600160401b038082111561299057600080fd5b9083019061012082860312156129a557600080fd5b6129ad612116565b6129b683612793565b81526129c460208401612793565b60208201526129d560408401612793565b60408201526129e6606084016127a7565b60608201526080830151828111156129fd57600080fd5b612a09878286016127b2565b60808301525060a083015182811115612a2157600080fd5b612a2d8782860161284f565b60a08301525060c083015182811115612a4557600080fd5b612a51878286016127b2565b60c08301525060e083015182811115612a6957600080fd5b612a758782860161286f565b60e0830152506101008084015183811115612a8f57600080fd5b612a9b88828701612903565b918301919091525095945050505050565b600060208284031215612abe57600080fd5b815161269381612465565b600081518084526020808501945080840160005b83811015612aff57815163ffffffff1687529582019590820190600101612add565b509495945050505050565b600081518084526020808501808196508360051b8101915082860160005b85811015612b52578284038952612b408483516122fd565b98850198935090840190600101612b28565b5091979650505050505050565b600081518084526020808501945080840160005b83811015612aff5781516001600160a01b031687529582019590820190600101612b73565b63ffffffff8316815260406020820152612bbb60408201835163ffffffff169052565b60006020830151612bd4606084018263ffffffff169052565b50604083015163ffffffff811660808401525060608301516001600160a01b03811660a08401525060808301516101208060c0850152612c18610160850183612ac9565b915060a0850151603f19808685030160e0870152612c3684836122fd565b935060c08701519150610100818786030181880152612c558584612ac9565b945060e08801519250818786030184880152612c718584612b0a565b94508088015193505080868503016101408701525050612c918282612b5f565b9695505050505050565b634e487b7160e01b600052601160045260246000fd5b60008219821115612cc457612cc4612c9b565b500190565b602080825260099082015268626c616e6b206b657960b81b604082015260600190565b60008251612cfe8184602087016122d1565b9190910192915050565b600080600080600060a08688031215612d2057600080fd5b8551612d2b81612192565b6020870151909550612d3c81612192565b6040870151606088015191955093506001600160401b03811115612d5f57600080fd5b612d6b8882890161284f565b925050608086015163ffffffff60e01b81168114612d8857600080fd5b809150509295509295909350565b6000600019821415612daa57612daa612c9b565b506001019056fea2646970667358221220b11c94ca19f9ee82735fea4f91cec647071f68c634fa85c2930f44424b4cfbf064736f6c634300080c0033",
  "linkReferences": {},
  "deployedLinkReferences": {}
}