{
  "_format": "hh-sol-artifact-1",
  "contractName": "SimpleToken",
  "sourceName": "alpha/core/assets/SimpleToken.sol",
  "abi": [
    {
      "inputs": [
        {
          "internalType": "string",
          "name": "_tokenName",
          "type": "string"
        },
        {
          "internalType": "address",
          "name": "valuesContract",
          "type": "address"
        }
      ],
      "stateMutability": "nonpayable",
      "type": "constructor"
    },
    {
      "anonymous": false,
      "inputs": [
        {
          "indexed": true,
          "internalType": "address",
          "name": "sender",
          "type": "address"
        },
        {
          "indexed": true,
          "internalType": "address",
          "name": "changee",
          "type": "address"
        },
        {
          "indexed": false,
          "internalType": "bool",
          "name": "value",
          "type": "bool"
        }
      ],
      "name": "PermissionChange",
      "type": "event"
    },
    {
      "anonymous": false,
      "inputs": [
        {
          "indexed": true,
          "internalType": "address",
          "name": "from",
          "type": "address"
        },
        {
          "indexed": true,
          "internalType": "address",
          "name": "to",
          "type": "address"
        }
      ],
      "name": "TransferedOwnership",
      "type": "event"
    },
    {
      "inputs": [
        {
          "internalType": "uint256",
          "name": "rarity",
          "type": "uint256"
        }
      ],
      "name": "addAsset",
      "outputs": [],
      "stateMutability": "nonpayable",
      "type": "function"
    },
    {
      "inputs": [
        {
          "internalType": "uint256[]",
          "name": "rarities",
          "type": "uint256[]"
        }
      ],
      "name": "addAssets",
      "outputs": [],
      "stateMutability": "nonpayable",
      "type": "function"
    },
    {
      "inputs": [
        {
          "internalType": "string",
          "name": "name",
          "type": "string"
        }
      ],
      "name": "addName",
      "outputs": [],
      "stateMutability": "nonpayable",
      "type": "function"
    },
    {
      "inputs": [
        {
          "internalType": "address",
          "name": "",
          "type": "address"
        }
      ],
      "name": "approved",
      "outputs": [
        {
          "internalType": "bool",
          "name": "",
          "type": "bool"
        }
      ],
      "stateMutability": "view",
      "type": "function"
    },
    {
      "inputs": [],
      "name": "assetsType",
      "outputs": [
        {
          "internalType": "string",
          "name": "",
          "type": "string"
        }
      ],
      "stateMutability": "view",
      "type": "function"
    },
    {
      "inputs": [
        {
          "internalType": "string[]",
          "name": "newNames",
          "type": "string[]"
        }
      ],
      "name": "combineNames",
      "outputs": [],
      "stateMutability": "nonpayable",
      "type": "function"
    },
    {
      "inputs": [],
      "name": "deployer",
      "outputs": [
        {
          "internalType": "address",
          "name": "",
          "type": "address"
        }
      ],
      "stateMutability": "view",
      "type": "function"
    },
    {
      "inputs": [
        {
          "internalType": "uint32[]",
          "name": "pathIds",
          "type": "uint32[]"
        }
      ],
      "name": "flatPathSections",
      "outputs": [],
      "stateMutability": "nonpayable",
      "type": "function"
    },
    {
      "inputs": [
        {
          "internalType": "uint32",
          "name": "pathId",
          "type": "uint32"
        },
        {
          "internalType": "contract RandomNumber",
          "name": "randomNumberController",
          "type": "address"
        }
      ],
      "name": "getColours",
      "outputs": [
        {
          "internalType": "uint32[]",
          "name": "result",
          "type": "uint32[]"
        }
      ],
      "stateMutability": "nonpayable",
      "type": "function"
    },
    {
      "inputs": [
        {
          "internalType": "uint32",
          "name": "pathId",
          "type": "uint32"
        },
        {
          "internalType": "uint32",
          "name": "tokenId",
          "type": "uint32"
        },
        {
          "internalType": "contract RandomNumber",
          "name": "randomNumberController",
          "type": "address"
        }
      ],
      "name": "getMintData",
      "outputs": [
        {
          "internalType": "bytes",
          "name": "",
          "type": "bytes"
        }
      ],
      "stateMutability": "nonpayable",
      "type": "function"
    },
    {
      "inputs": [
        {
          "internalType": "uint256",
          "name": "nameCount",
          "type": "uint256"
        },
        {
          "internalType": "contract RandomNumber",
          "name": "randomNumberController",
          "type": "address"
        }
      ],
      "name": "getNames",
      "outputs": [
        {
          "internalType": "string[]",
          "name": "results",
          "type": "string[]"
        }
      ],
      "stateMutability": "nonpayable",
      "type": "function"
    },
    {
      "inputs": [],
      "name": "getNextPath",
      "outputs": [
        {
          "internalType": "uint32",
          "name": "",
          "type": "uint32"
        }
      ],
      "stateMutability": "view",
      "type": "function"
    },
    {
      "inputs": [
        {
          "internalType": "contract RandomNumber",
          "name": "randomNumberController",
          "type": "address"
        }
      ],
      "name": "getNextPathId",
      "outputs": [
        {
          "internalType": "uint32",
          "name": "",
          "type": "uint32"
        }
      ],
      "stateMutability": "nonpayable",
      "type": "function"
    },
    {
      "inputs": [
        {
          "internalType": "uint256",
          "name": "pathId",
          "type": "uint256"
        }
      ],
      "name": "getPathSections",
      "outputs": [
        {
          "internalType": "uint256[]",
          "name": "",
          "type": "uint256[]"
        }
      ],
      "stateMutability": "view",
      "type": "function"
    },
    {
      "inputs": [
        {
          "internalType": "uint32",
          "name": "pathId",
          "type": "uint32"
        }
      ],
      "name": "getPathSize",
      "outputs": [
        {
          "internalType": "uint32",
          "name": "",
          "type": "uint32"
        }
      ],
      "stateMutability": "view",
      "type": "function"
    },
    {
      "inputs": [
        {
          "internalType": "uint32",
          "name": "pathId",
          "type": "uint32"
        },
        {
          "internalType": "contract RandomNumber",
          "name": "randomNumberController",
          "type": "address"
        }
      ],
      "name": "getRandomAsset",
      "outputs": [
        {
          "internalType": "uint32[]",
          "name": "assetsId",
          "type": "uint32[]"
        }
      ],
      "stateMutability": "view",
      "type": "function"
    },
    {
      "inputs": [
        {
          "internalType": "uint256",
          "name": "sectionId",
          "type": "uint256"
        }
      ],
      "name": "getSectionAssets",
      "outputs": [
        {
          "internalType": "uint256[]",
          "name": "",
          "type": "uint256[]"
        }
      ],
      "stateMutability": "view",
      "type": "function"
    },
    {
      "inputs": [
        {
          "internalType": "address",
          "name": "addr",
          "type": "address"
        }
      ],
      "name": "isAuthenticated",
      "outputs": [
        {
          "internalType": "bool",
          "name": "",
          "type": "bool"
        }
      ],
      "stateMutability": "view",
      "type": "function"
    },
    {
      "inputs": [
        {
          "internalType": "uint32",
          "name": "pathId",
          "type": "uint32"
        }
      ],
      "name": "isValidPath",
      "outputs": [
        {
          "internalType": "bool",
          "name": "",
          "type": "bool"
        }
      ],
      "stateMutability": "view",
      "type": "function"
    },
    {
      "inputs": [
        {
          "internalType": "address[]",
          "name": "addrs",
          "type": "address[]"
        }
      ],
      "name": "multiApprove",
      "outputs": [],
      "stateMutability": "nonpayable",
      "type": "function"
    },
    {
      "inputs": [
        {
          "internalType": "address[]",
          "name": "addrs",
          "type": "address[]"
        }
      ],
      "name": "multiRevoke",
      "outputs": [],
      "stateMutability": "nonpayable",
      "type": "function"
    },
    {
      "inputs": [
        {
          "internalType": "uint256",
          "name": "",
          "type": "uint256"
        }
      ],
      "name": "names",
      "outputs": [
        {
          "internalType": "string",
          "name": "",
          "type": "string"
        }
      ],
      "stateMutability": "view",
      "type": "function"
    },
    {
      "inputs": [
        {
          "internalType": "uint32",
          "name": "currentTokenId",
          "type": "uint32"
        },
        {
          "internalType": "contract RandomNumber",
          "name": "randomNumberController",
          "type": "address"
        }
      ],
      "name": "pickPath",
      "outputs": [
        {
          "components": [
            {
              "internalType": "uint32",
              "name": "pathId",
              "type": "uint32"
            },
            {
              "internalType": "uint32",
              "name": "pathSize",
              "type": "uint32"
            },
            {
              "internalType": "uint32[]",
              "name": "assets",
              "type": "uint32[]"
            },
            {
              "internalType": "string[]",
              "name": "names",
              "type": "string[]"
            },
            {
              "internalType": "uint32[]",
              "name": "colours",
              "type": "uint32[]"
            },
            {
              "internalType": "bytes",
              "name": "mintData",
              "type": "bytes"
            }
          ],
          "internalType": "struct Asset.PartialStruct",
          "name": "",
          "type": "tuple"
        }
      ],
      "stateMutability": "nonpayable",
      "type": "function"
    },
    {
      "inputs": [
        {
          "internalType": "uint32",
          "name": "pathId",
          "type": "uint32"
        },
        {
          "internalType": "uint32",
          "name": "currentTokenId",
          "type": "uint32"
        },
        {
          "internalType": "contract RandomNumber",
          "name": "randomNumberController",
          "type": "address"
        }
      ],
      "name": "pickPath",
      "outputs": [
        {
          "components": [
            {
              "internalType": "uint32",
              "name": "pathId",
              "type": "uint32"
            },
            {
              "internalType": "uint32",
              "name": "pathSize",
              "type": "uint32"
            },
            {
              "internalType": "uint32[]",
              "name": "assets",
              "type": "uint32[]"
            },
            {
              "internalType": "string[]",
              "name": "names",
              "type": "string[]"
            },
            {
              "internalType": "uint32[]",
              "name": "colours",
              "type": "uint32[]"
            },
            {
              "internalType": "bytes",
              "name": "mintData",
              "type": "bytes"
            }
          ],
          "internalType": "struct Asset.PartialStruct",
          "name": "",
          "type": "tuple"
        }
      ],
      "stateMutability": "nonpayable",
      "type": "function"
    },
    {
      "inputs": [
        {
          "internalType": "uint256[]",
          "name": "_assets",
          "type": "uint256[]"
        }
      ],
      "name": "pushSectionAssets",
      "outputs": [],
      "stateMutability": "nonpayable",
      "type": "function"
    },
    {
      "inputs": [],
      "name": "resetAssets",
      "outputs": [],
      "stateMutability": "nonpayable",
      "type": "function"
    },
    {
      "inputs": [],
      "name": "resetNames",
      "outputs": [],
      "stateMutability": "nonpayable",
      "type": "function"
    },
    {
      "inputs": [],
      "name": "resetPaths",
      "outputs": [],
      "stateMutability": "nonpayable",
      "type": "function"
    },
    {
      "inputs": [
        {
          "internalType": "uint32[]",
          "name": "assets",
          "type": "uint32[]"
        }
      ],
      "name": "setLastAssets",
      "outputs": [],
      "stateMutability": "nonpayable",
      "type": "function"
    },
    {
      "inputs": [
        {
          "internalType": "uint32",
          "name": "pathId",
          "type": "uint32"
        }
      ],
      "name": "setLastPathId",
      "outputs": [],
      "stateMutability": "nonpayable",
      "type": "function"
    },
    {
      "inputs": [
        {
          "internalType": "uint32",
          "name": "index",
          "type": "uint32"
        },
        {
          "internalType": "bytes",
          "name": "_mintData",
          "type": "bytes"
        }
      ],
      "name": "setMintData",
      "outputs": [],
      "stateMutability": "nonpayable",
      "type": "function"
    },
    {
      "inputs": [
        {
          "internalType": "string[]",
          "name": "newNames",
          "type": "string[]"
        }
      ],
      "name": "setNames",
      "outputs": [],
      "stateMutability": "nonpayable",
      "type": "function"
    },
    {
      "inputs": [
        {
          "internalType": "uint32",
          "name": "pathId",
          "type": "uint32"
        }
      ],
      "name": "setNextPathId",
      "outputs": [],
      "stateMutability": "nonpayable",
      "type": "function"
    },
    {
      "inputs": [
        {
          "internalType": "uint256",
          "name": "newPathCount",
          "type": "uint256"
        }
      ],
      "name": "setPathCount",
      "outputs": [],
      "stateMutability": "nonpayable",
      "type": "function"
    },
    {
      "inputs": [
        {
          "internalType": "uint32",
          "name": "pathId",
          "type": "uint32"
        },
        {
          "internalType": "bool",
          "name": "value",
          "type": "bool"
        }
      ],
      "name": "setPathDisabled",
      "outputs": [],
      "stateMutability": "nonpayable",
      "type": "function"
    },
    {
      "inputs": [
        {
          "internalType": "uint32[]",
          "name": "pathIds",
          "type": "uint32[]"
        },
        {
          "internalType": "uint256[][]",
          "name": "_sections",
          "type": "uint256[][]"
        }
      ],
      "name": "setPathSections",
      "outputs": [],
      "stateMutability": "nonpayable",
      "type": "function"
    },
    {
      "inputs": [
        {
          "internalType": "uint32",
          "name": "pathId",
          "type": "uint32"
        },
        {
          "internalType": "uint32",
          "name": "pathSize",
          "type": "uint32"
        }
      ],
      "name": "setPathSize",
      "outputs": [],
      "stateMutability": "nonpayable",
      "type": "function"
    },
    {
      "inputs": [
        {
          "internalType": "uint32[]",
          "name": "newPathSizes",
          "type": "uint32[]"
        }
      ],
      "name": "setPathSizes",
      "outputs": [],
      "stateMutability": "nonpayable",
      "type": "function"
    },
    {
      "inputs": [
        {
          "internalType": "address",
          "name": "addr",
          "type": "address"
        },
        {
          "internalType": "bool",
          "name": "value",
          "type": "bool"
        }
      ],
      "name": "setPrivilages",
      "outputs": [],
      "stateMutability": "nonpayable",
      "type": "function"
    },
    {
      "inputs": [
        {
          "internalType": "uint32",
          "name": "sectionId",
          "type": "uint32"
        },
        {
          "internalType": "uint256[]",
          "name": "_assets",
          "type": "uint256[]"
        }
      ],
      "name": "setSectionAssets",
      "outputs": [],
      "stateMutability": "nonpayable",
      "type": "function"
    },
    {
      "inputs": [
        {
          "internalType": "address",
          "name": "addr",
          "type": "address"
        }
      ],
      "name": "transferOwnership",
      "outputs": [],
      "stateMutability": "nonpayable",
      "type": "function"
    }
  ],
  "bytecode": "0x60c06040526005608081905264185cdcd95d60da1b60a09081526200002891600691906200016a565b5060408051808201909152600780825266191959985d5b1d60ca1b60209092019182526200005791816200016a565b50600f80546001600160401b03191690556011805460ff191690553480156200007f57600080fd5b50604051620049bf380380620049bf833981016040819052620000a29162000243565b60008054336001600160a01b03199182168117835582526002602090815260408320805460ff19166001908117909155838155600580549093166001600160a01b03861617909255600d8054928301815583527fd7b6990105719101dabeb77144f2a3385c8033acd3af97e9423a695e81ad1eb59091019190915582516200013191600691908501906200016a565b50604080518082019091526006808252651bd89a9958dd60d21b602090920191825262000161916007916200016a565b50505062000371565b828054620001789062000334565b90600052602060002090601f0160209004810192826200019c5760008555620001e7565b82601f10620001b757805160ff1916838001178555620001e7565b82800160010185558215620001e7579182015b82811115620001e7578251825591602001919060010190620001ca565b50620001f5929150620001f9565b5090565b5b80821115620001f55760008155600101620001fa565b634e487b7160e01b600052604160045260246000fd5b80516001600160a01b03811681146200023e57600080fd5b919050565b600080604083850312156200025757600080fd5b82516001600160401b03808211156200026f57600080fd5b818501915085601f8301126200028457600080fd5b81518181111562000299576200029962000210565b604051601f8201601f19908116603f01168101908382118183101715620002c457620002c462000210565b81604052828152602093508884848701011115620002e157600080fd5b600091505b82821015620003055784820184015181830185015290830190620002e6565b82821115620003175760008484830101525b95506200032991505085820162000226565b925050509250929050565b600181811c908216806200034957607f821691505b602082108114156200036b57634e487b7160e01b600052602260045260246000fd5b50919050565b61463e80620003816000396000f3fe608060405234801561001057600080fd5b50600436106101f35760003560e01c80638a25ad24116101165780638a25ad24146103bd5780638c9fcab9146103d05780638e6e826d146103e3578063a57b3b4514610403578063a85f329814610416578063b895bcb714610429578063bfb05d031461043c578063c40f4a251461044f578063d15d415014610462578063d5f3948814610475578063d8b964e6146104a0578063d935232c146104c3578063dccd935c146104d6578063e6ef8955146104de578063e7214f4f146104f1578063e96aeef314610504578063eb2c2da314610517578063f2fde38b1461052a578063f60a74361461053d578063fe684c0e14610550578063ff220d6d1461056357600080fd5b80630b71d256146101f857806310a8c7a91461020d57806311456b471461022057806331ed86d2146102335780633406bfac1461024657806335697ba71461024e5780633840c21a146102775780633982e0c41461028a578063433ee8cd1461029d57806343bebe4e146102bd578063453dc933146102e55780634622ab03146102f857806346e4e7c9146103185780634c6fe6a214610326578063593c7b27146103465780637730f4fa146103595780637ba8dcd61461037c5780637bc62e09146103845780637bd6ec4a146103975780637cf8031e146103aa575b600080fd5b61020b6102063660046137fb565b61056b565b005b61020b61021b366004613892565b6105fe565b61020b61022e3660046139b0565b610695565b61020b610241366004613892565b61071c565b61020b6107af565b61026161025c3660046137fb565b61084e565b60405161026e91906139e4565b60405180910390f35b61020b610285366004613a28565b6108b0565b61020b610298366004613af8565b610907565b6102b06102ab366004613b31565b6109f0565b60405161026e9190613c51565b6102d06102cb366004613ced565b610a14565b60405163ffffffff909116815260200161026e565b61020b6102f3366004613a28565b610a74565b61030b6103063660046137fb565b610b21565b60405161026e9190613d0a565b600f5463ffffffff166102d0565b610339610334366004613d1d565b610bcd565b60405161026e9190613d42565b61020b610354366004613dc4565b61120d565b61036c610367366004613ced565b611264565b604051901515815260200161026e565b61030b611295565b61020b610392366004613df8565b6112a2565b6102b06103a5366004613e5b565b611403565b61020b6103b8366004613f01565b6115f9565b61020b6103cb366004613ced565b611666565b6102616103de3660046137fb565b6116d0565b6103f66103f1366004613b31565b611743565b60405161026e9190613f35565b61020b610411366004613f48565b611dc5565b61020b6104243660046137fb565b611e5a565b6102d0610437366004613f76565b611ea3565b61020b61044a366004613f93565b612168565b61020b61045d366004613dc4565b6121c9565b61036c610470366004613f76565b612240565b600054610488906001600160a01b031681565b6040516001600160a01b03909116815260200161026e565b61036c6104ae366004613f76565b60026020526000908152604090205460ff1681565b61020b6104d1366004613ced565b612277565b61020b6122d7565b61020b6104ec366004613fd8565b612329565b61020b6104ff366004613dc4565b6123df565b61030b610512366004613e5b565b612436565b6103f6610525366004613b31565b61298e565b61020b610538366004613f76565b612f76565b61020b61054b366004613f01565b613016565b61020b61055e3660046140ac565b613114565b61020b6131f6565b6000546001600160a01b0316331461059e5760405162461bcd60e51b8152600401610595906140ca565b60405180910390fd5b60648111156105ac57600080fd5b600d80546001818101835560009283527fd7b6990105719101dabeb77144f2a3385c8033acd3af97e9423a695e81ad1eb5909101839055600b8054919290916105f6908490614106565b909155505050565b6000546001600160a01b031633146106285760405162461bcd60e51b8152600401610595906140ca565b805161063357600080fd5b60005b8151811015610691576001600260008484815181106106575761065761411e565b6020908102919091018101516001600160a01b03168252810191909152604001600020805460ff1916911515919091179055600101610636565b5050565b6000546001600160a01b03163314806106bd57503360009081526002602052604090205460ff165b6106d95760405162461bcd60e51b815260040161059590614134565b601080546001810182556000919091528151610691917f1b6847dc741a1b0cd08d278845f9d819d87b734759afb55fe2de5cb82a9ae672019060208401906134ae565b6000546001600160a01b031633146107465760405162461bcd60e51b8152600401610595906140ca565b805161075157600080fd5b60005b8151811015610691576000600260008484815181106107755761077561411e565b6020908102919091018101516001600160a01b03168252810191909152604001600020805460ff1916911515919091179055600101610754565b6000546001600160a01b03163314806107d757503360009081526002602052604090205460ff165b6107f35760405162461bcd60e51b815260040161059590614134565b6107ff600d6000613532565b61080b600c6000613553565b600d805460018101825560009182527fd7b6990105719101dabeb77144f2a3385c8033acd3af97e9423a695e81ad1eb501819055600b556011805460ff19169055565b6000818152600460209081526040918290208054835181840281018401909452808452606093928301828280156108a457602002820191906000526020600020905b815481526020019060010190808311610890575b50505050509050919050565b6000546001600160a01b03163314806108d857503360009081526002602052604090205460ff165b6108f45760405162461bcd60e51b815260040161059590614134565b8051610691906010906020840190613571565b6000546001600160a01b031633148061092f57503360009081526002602052604090205460ff165b61094b5760405162461bcd60e51b815260040161059590614134565b600a548263ffffffff1614801561095f5750805b156109a357600a545b60008181526003602052604090205460ff161561099f57600854811061098d5750600a545b806109978161415a565b915050610968565b600a555b600a548263ffffffff16111580156109b85750805b156109c85763ffffffff8216600a555b63ffffffff919091166000908152600360205260409020805460ff1916911515919091179055565b6109f86135ca565b610a0b610a0483611ea3565b8484611403565b90505b92915050565b60095460009063ffffffff831610610a2e57506001919050565b60098263ffffffff1681548110610a4757610a4761411e565b90600052602060002090600891828204019190066004029054906101000a900463ffffffff169050919050565b6000546001600160a01b0316331480610a9c57503360009081526002602052604090205460ff165b610ab85760405162461bcd60e51b815260040161059590614134565b6064815110610ac657600080fd5b60005b8151811015610691576010828281518110610ae657610ae661411e565b60209081029190910181015182546001810184556000938452928290208151610b1894919091019291909101906134ae565b50600101610ac9565b60108181548110610b3157600080fd5b906000526020600020016000915090508054610b4c90614175565b80601f0160208091040260200160405190810160405280929190818152602001828054610b7890614175565b8015610bc55780601f10610b9a57610100808354040283529160200191610bc5565b820191906000526020600020905b815481529060010190602001808311610ba857829003601f168201915b505050505081565b60606000610bd9613252565b6005546040516206259160e71b815260206004820152600b60248201526a6d6174636865644d6f646560a81b60448201529192506001600160a01b031690630312c88090606401602060405180830381865afa158015610c3d573d6000803e3d6000fd5b505050506040513d601f19601f82011682018060405250810190610c6191906141b0565b158015610cf657506005546040516206259160e71b815260206004820152600f60248201526e696e6372656d656e74616c4d6f646560881b60448201526001600160a01b0390911690630312c88090606401602060405180830381865afa158015610cd0573d6000803e3d6000fd5b505050506040513d601f19601f82011682018060405250810190610cf491906141b0565b155b15610fe35783158015610d9057506005546040516206259160e71b815260206004820152601060248201526f6d75737447656e65726174654e616d6560801b60448201526001600160a01b0390911690630312c88090606401602060405180830381865afa158015610d6c573d6000803e3d6000fd5b505050506040513d601f19601f82011682018060405250810190610d9091906141b0565b15610d9a57600193505b831580610da75750601054155b15610dfd5760408051600180825281830190925290816020015b6060815260200190600190039081610dc15790505091508082600081518110610dec57610dec61411e565b602002602001018190525050610a0e565b610e08846001614106565b6001600160401b03811115610e1f57610e1f613814565b604051908082528060200260200182016040528015610e5257816020015b6060815260200190600190039081610e3d5790505b50915060005b848163ffffffff161015610fbf5760105460405163a0d0ca0f60e01b81526000916001600160a01b0387169163a0d0ca0f91610e9a9160040190815260200190565b6020604051808303816000875af1158015610eb9573d6000803e3d6000fd5b505050506040513d601f19601f82011682018060405250810190610edd91906141cd565b6010549091508110610eed575060005b60108181548110610f0057610f0061411e565b906000526020600020018054610f1590614175565b80601f0160208091040260200160405190810160405280929190818152602001828054610f4190614175565b8015610f8e5780601f10610f6357610100808354040283529160200191610f8e565b820191906000526020600020905b815481529060010190602001808311610f7157829003601f168201915b5050505050848363ffffffff1681518110610fab57610fab61411e565b602090810291909101015250600101610e58565b5080828581518110610fd357610fd361411e565b6020026020010181905250611206565b6040805160028082526060820190925290816020015b6060815260200190600190039081610ff957505060105490925061104a57604051806020016040528060008152508260008151811061103a5761103a61411e565b60200260200101819052506111e6565b601054600f5463ffffffff16101561112057600f5460108054909163ffffffff1690811061107a5761107a61411e565b90600052602060002001805461108f90614175565b80601f01602080910402602001604051908101604052809291908181526020018280546110bb90614175565b80156111085780601f106110dd57610100808354040283529160200191611108565b820191906000526020600020905b8154815290600101906020018083116110eb57829003601f168201915b50505050508260008151811061103a5761103a61411e565b60106000815481106111345761113461411e565b90600052602060002001805461114990614175565b80601f016020809104026020016040519081016040528092919081815260200182805461117590614175565b80156111c25780601f10611197576101008083540402835291602001916111c2565b820191906000526020600020905b8154815290600101906020018083116111a557829003601f168201915b5050505050826000815181106111da576111da61411e565b60200260200101819052505b80826001815181106111fa576111fa61411e565b60200260200101819052505b5092915050565b6000546001600160a01b031633148061123557503360009081526002602052604090205460ff165b6112515760405162461bcd60e51b815260040161059590614134565b805161069190600990602084019061360c565b60006008548263ffffffff16108015610a0e57505063ffffffff1660009081526003602052604090205460ff161590565b60078054610b4c90614175565b6000546001600160a01b03163314806112ca57503360009081526002602052604090205460ff165b6112e65760405162461bcd60e51b815260040161059590614134565b63ffffffff82166000908152601260205260409020805461139e919061130b90614175565b80601f016020809104026020016040519081016040528092919081815260200182805461133790614175565b80156113845780601f1061135957610100808354040283529160200191611384565b820191906000526020600020905b81548152906001019060200180831161136757829003601f168201915b5050505050604051806020016040528060008152506132e4565b6113d85760405162461bcd60e51b815260206004820152600b60248201526a105b1c9958591e481cd95d60aa1b6044820152606401610595565b63ffffffff8216600090815260126020908152604090912082516113fe928401906134ae565b505050565b61140b6135ca565b61141484612277565b6114216104ff8584611743565b6040518060c001604052808563ffffffff16815260200161144186610a14565b63ffffffff168152602001600e8054806020026020016040519081016040528092919081815260200182805480156114c457602002820191906000526020600020906000905b82829054906101000a900463ffffffff1663ffffffff16815260200190600401906020826003010492830192600103820291508084116114875790505b505050918352505060055460405163e7b6dac960e01b815260206004820181905260096024830152681b985b5950dbdd5b9d60ba1b6044830152909201916115ce916001600160a01b038781169263a0d0ca0f92919091169063e7b6dac990606401602060405180830381865afa158015611543573d6000803e3d6000fd5b505050506040513d601f19601f8201168201806040525081019061156791906141cd565b6040518263ffffffff1660e01b815260040161158591815260200190565b6020604051808303816000875af11580156115a4573d6000803e3d6000fd5b505050506040513d601f19601f820116820180604052508101906115c891906141cd565b85610bcd565b81526020016115dd868561298e565b81526020016115ed868686612436565b905290505b9392505050565b6000546001600160a01b031633146116235760405162461bcd60e51b8152600401610595906140ca565b600c80546001810182556000919091528151610691917fdf6966c971051c3d54ec59162606531493a51404a002842f56009d7e5cf4a8c7019060208401906136b6565b6000546001600160a01b031633148061168e57503360009081526002602052604090205460ff165b6116aa5760405162461bcd60e51b815260040161059590614134565b600f805463ffffffff909216600160201b0263ffffffff60201b19909216919091179055565b6060600c82815481106116e5576116e561411e565b906000526020600020018054806020026020016040519081016040528092919081815260200182805480156108a457602002820191906000526020600020908154815260200190600101908083116108905750505050509050919050565b6060600b546000141561175557610a0e565b60115460609060ff16156117de5760008052600460209081527f17ef568e3e12ab5b9c7254a8d58478811de00f9e6eb34345acd53bf8fd09d3ec80546040805182850281018501909152818152928301828280156117d257602002820191906000526020600020905b8154815260200190600101908083116117be575b50505050509050611841565b63ffffffff84166000908152600460209081526040918290208054835181840281018401909452808452909183018282801561183957602002820191906000526020600020905b815481526020019060010190808311611825575b505050505090505b600080846001600160a01b031663bfa0b1336040518163ffffffff1660e01b8152600401602060405180830381865afa158015611882573d6000803e3d6000fd5b505050506040513d601f19601f820116820180604052508101906118a691906141cd565b90508251600014156118ba57505050610a0e565b82516001600160401b038111156118d3576118d3613814565b6040519080825280602002602001820160405280156118fc578160200160208202803683370190505b50935060608060005b8551811015611db957600c8682815181106119225761192261411e565b60200260200101518154811061193a5761193a61411e565b9060005260206000200180548060200260200160405190810160405280929190818152602001828054801561198e57602002820191906000526020600020905b81548152602001906001019080831161197a575b505050505091508151600014156119db57600087866119ac8161415a565b9750815181106119be576119be61411e565b63ffffffff90921660209283029190910190910152600101611905565b81516001148015611a235750600d826000815181106119fc576119fc61411e565b602002602001015181548110611a1457611a1461411e565b90600052602060002001546064145b15611a4f5781600081518110611a3b57611a3b61411e565b60200260200101518786806119ac9061415a565b81516001600160401b03811115611a6857611a68613814565b604051908082528060200260200182016040528015611a91578160200160208202803683370190505b5092506000805b8351811015611c55578451821415611aaf57611c55565b838181518110611ac157611ac161411e565b602002602001015160001415611ad957600101611a98565b6000848281518110611aed57611aed61411e565b6020026020010151600d805490501115611b3b57600d858381518110611b1557611b1561411e565b602002602001015181548110611b2d57611b2d61411e565b906000526020600020015490505b8060641480611bf457506001600160a01b038b16637881bab960648a8a8786611b64898c614106565b611b6e9190614106565b611b789190614106565b611b829190614106565b611b8c9190614106565b6040516001600160e01b031960e085901b16815260048101929092526024820152604401602060405180830381865afa158015611bcd573d6000803e3d6000fd5b505050506040513d601f19601f82011682018060405250810190611bf191906141cd565b81115b15611c4c57848281518110611c0b57611c0b61411e565b6020026020010151868480611c1f9061415a565b955081518110611c3157611c3161411e565b602002602001019063ffffffff16908163ffffffff16815250505b50600101611a98565b50600060018211611cb85784600081518110611c7357611c7361411e565b6020026020010151898880611c879061415a565b995081518110611c9957611c9961411e565b602002602001019063ffffffff16908163ffffffff1681525050611daf565b60028210611daf57896001600160a01b0316637881bab983888a868a51611cdf9190614106565b611ce99190614106565b611cf39190614106565b6040516001600160e01b031960e085901b16815260048101929092526024820152604401602060405180830381865afa158015611d34573d6000803e3d6000fd5b505050506040513d601f19601f82011682018060405250810190611d5891906141cd565b90508451811015611d7557848181518110611c7357611c7361411e565b60008988611d828161415a565b995081518110611d9457611d9461411e565b602002602001019063ffffffff16908163ffffffff16815250505b5050600101611905565b50505050505092915050565b6000546001600160a01b0316331480611ded57503360009081526002602052604090205460ff165b611e095760405162461bcd60e51b815260040161059590614134565b8060098363ffffffff1681548110611e2357611e2361411e565b90600052602060002090600891828204019190066004026101000a81548163ffffffff021916908363ffffffff1602179055505050565b6000546001600160a01b0316331480611e8257503360009081526002602052604090205460ff165b611e9e5760405162461bcd60e51b815260040161059590614134565b600855565b60006008546001148015611ec85750600a5460009081526003602052604090205460ff165b15611f065760405162461bcd60e51b815260206004820152600e60248201526d4e6f2076616c696420706174687360901b6044820152606401610595565b6005546040516206259160e71b815260206004820152600b60248201526a1a5b98dc995b595b9d185b60aa1b60448201526001600160a01b0390911690630312c88090606401602060405180830381865afa158015611f69573d6000803e3d6000fd5b505050506040513d601f19601f82011682018060405250810190611f8d91906141b0565b156120ae57600f8054600160201b900463ffffffff16906004611faf836141e6565b82546101009290920a63ffffffff818102199093169183160217909155600f805463ffffffff19169290911691821790556008541161201857600a54600f805467ffffffffffffffff1916600160201b63ffffffff90931692830263ffffffff19161790911790555b600f5463ffffffff1660009081526003602052604090205460ff16156120a057600854600f5463ffffffff161061206657600a54600f805463ffffffff191663ffffffff9092169190911790555b600f805463ffffffff1690600061207c836141e6565b91906101000a81548163ffffffff021916908363ffffffff16021790555050612018565b5050600f5463ffffffff1690565b60085460405163a0d0ca0f60e01b81526000916001600160a01b0385169163a0d0ca0f916120e29160040190815260200190565b6020604051808303816000875af1158015612101573d6000803e3d6000fd5b505050506040513d601f19601f8201168201806040525081019061212591906141cd565b63ffffffff811660009081526003602052604090205490915060ff168061215457506008548163ffffffff1610155b15610a0e5750600a5492915050565b919050565b6000546001600160a01b031633146121925760405162461bcd60e51b8152600401610595906140ca565b80600c8363ffffffff16815481106121ac576121ac61411e565b9060005260206000200190805190602001906113fe9291906136b6565b6000546001600160a01b031633146121f35760405162461bcd60e51b8152600401610595906140ca565b6000805260046020908152815161222f917f17ef568e3e12ab5b9c7254a8d58478811de00f9e6eb34345acd53bf8fd09d3ec91908401906136f0565b50506011805460ff19166001179055565b600080546001600160a01b0383811691161480610a0e5750506001600160a01b031660009081526002602052604090205460ff1690565b6000546001600160a01b031633148061229f57503360009081526002602052604090205460ff165b6122bb5760405162461bcd60e51b815260040161059590614134565b600f805463ffffffff191663ffffffff92909216919091179055565b6000546001600160a01b03163314806122ff57503360009081526002602052604090205460ff165b61231b5760405162461bcd60e51b815260040161059590614134565b61232760106000613733565b565b6000546001600160a01b031633146123535760405162461bcd60e51b8152600401610595906140ca565b805182511461236157600080fd5b60005b82518110156113fe5781818151811061237f5761237f61411e565b60200260200101516004600085848151811061239d5761239d61411e565b602002602001015163ffffffff16815260200190815260200160002090805190602001906123cc9291906136b6565b50806123d78161415a565b915050612364565b6000546001600160a01b031633148061240757503360009081526002602052604090205460ff165b6124235760405162461bcd60e51b815260040161059590614134565b805161069190600e90602084019061360c565b6005546040516206259160e71b815260206004820152601060248201526f6d696e7444617461557365506174687360801b604482015260609182916001600160a01b0390911690630312c88090606401602060405180830381865afa1580156124a3573d6000803e3d6000fd5b505050506040513d601f19601f820116820180604052508101906124c791906141b0565b156125845763ffffffff8516600090815260126020526040902080546124ec90614175565b80601f016020809104026020016040519081016040528092919081815260200182805461251890614175565b80156125655780601f1061253a57610100808354040283529160200191612565565b820191906000526020600020905b81548152906001019060200180831161254857829003601f168201915b505050505080602001905181019061257d919061424f565b905061296a565b6005546040516206259160e71b81526020600482015260126024820152716d696e744461746147656e6572617469766560701b60448201526001600160a01b0390911690630312c88090606401602060405180830381865afa1580156125ee573d6000803e3d6000fd5b505050506040513d601f19601f8201168201806040525081019061261291906141b0565b801561263e575063ffffffff85166000908152601260205260409020805461263990614175565b151590505b156128c95763ffffffff8516600090815260126020526040812080548291829182919061266a90614175565b80601f016020809104026020016040519081016040528092919081815260200182805461269690614175565b80156126e35780601f106126b8576101008083540402835291602001916126e3565b820191906000526020600020905b8154815290600101906020018083116126c657829003601f168201915b50505050508060200190518101906126fb91906142f2565b9350935093509350606060005b8263ffffffff168110156128be576000896001600160a01b031663a0d0ca0f8684815181106127395761273961411e565b60200260200101516040518263ffffffff1660e01b8152600401612769919063ffffffff91909116815260200190565b6020604051808303816000875af1158015612788573d6000803e3d6000fd5b505050506040513d601f19601f820116820180604052508101906127ac91906141cd565b90508582815181106127c0576127c061411e565b602002602001015163ffffffff168110156127f8578582815181106127e7576127e761411e565b602002602001015163ffffffff1690505b8287838151811061280b5761280b61411e565b602002602001015161281c83613386565b6128276001886143fd565b63ffffffff168514156128495760405180602001604052806000815250612864565b604051806040016040528060018152602001600b60fa1b8152505b6040516020016128779493929190614422565b60405160208183030381529060405292508260405160200161289991906144a9565b60405160208183030381529060405297505080806128b69061415a565b915050612708565b50505050505061296a565b63ffffffff8416600090815260126020526040902080546128e990614175565b80601f016020809104026020016040519081016040528092919081815260200182805461291590614175565b80156129625780601f1061293757610100808354040283529160200191612962565b820191906000526020600020905b81548152906001019060200180831161294557829003601f168201915b505050505090505b80516129865750506040805160208101909152600081526115f2565b949350505050565b6060600061299b84610a14565b60055460405163e7b6dac960e01b815260206004820152600f60248201526e636f6c6f75724368756e6b53697a6560881b60448201529192506000916001600160a01b039091169063e7b6dac990606401602060405180830381865afa158015612a09573d6000803e3d6000fd5b505050506040513d601f19601f82011682018060405250810190612a2d91906141cd565b905060008111612a3b575060045b808263ffffffff1611612c625760408051600480825260a0820190925290602082016080803683370190505060405163a0d0ca0f60e01b815262ffffff60048201529093506001600160a01b0385169063a0d0ca0f906024016020604051808303816000875af1158015612ab3573d6000803e3d6000fd5b505050506040513d601f19601f82011682018060405250810190612ad791906141cd565b83600081518110612aea57612aea61411e565b602002602001019063ffffffff16908163ffffffff16815250508183600181518110612b1857612b1861411e565b63ffffffff928316602091820292909201015260405163a0d0ca0f60e01b815260048101919091526001600160a01b0385169063a0d0ca0f906024016020604051808303816000875af1158015612b73573d6000803e3d6000fd5b505050506040513d601f19601f82011682018060405250810190612b9791906141cd565b83600281518110612baa57612baa61411e565b63ffffffff9092166020928302919091019091015260055460405163e7b6dac960e01b81526001600160a01b039091169063e7b6dac990612bed906004016144f5565b602060405180830381865afa158015612c0a573d6000803e3d6000fd5b505050506040513d601f19601f82011682018060405250810190612c2e91906141cd565b83600381518110612c4157612c4161411e565b602002602001019063ffffffff16908163ffffffff16815250505050610a0e565b6000612c748263ffffffff8516614531565b612c7f906001614106565b90506000612c8e826002614545565b9050836000612c9e836002614571565b63ffffffff166001600160401b03811115612cbb57612cbb613814565b604051908082528060200260200182016040528015612ce4578160200160208202803683370190505b50965060005b8363ffffffff16811015612e1f57801580612d0d5750612d0b600282614599565b155b15612db05760405163a0d0ca0f60e01b815262ffffff60048201526001600160a01b038a169063a0d0ca0f906024016020604051808303816000875af1158015612d5b573d6000803e3d6000fd5b505050506040513d601f19601f82011682018060405250810190612d7f91906141cd565b888281518110612d9157612d9161411e565b602002602001019063ffffffff16908163ffffffff1681525050612e17565b600082612dbc8161415a565b9350612dc890886145ad565b612dd89063ffffffff86166145cc565b9050868111612de75780612de9565b865b898381518110612dfb57612dfb61411e565b602002602001019063ffffffff16908163ffffffff1681525050505b600101612cea565b5060405163a0d0ca0f60e01b815263ffffffff60048201526001600160a01b0389169063a0d0ca0f906024016020604051808303816000875af1158015612e6a573d6000803e3d6000fd5b505050506040513d601f19601f82011682018060405250810190612e8e91906141cd565b8760028951612e9d91906145cc565b81518110612ead57612ead61411e565b63ffffffff9092166020928302919091019091015260055460405163e7b6dac960e01b81526001600160a01b039091169063e7b6dac990612ef0906004016144f5565b602060405180830381865afa158015612f0d573d6000803e3d6000fd5b505050506040513d601f19601f82011682018060405250810190612f3191906141cd565b8760018951612f4091906145cc565b81518110612f5057612f5061411e565b602002602001019063ffffffff16908163ffffffff168152505050505050505092915050565b6000546001600160a01b03163314612fa05760405162461bcd60e51b8152600401610595906140ca565b600080546001600160a01b03908116825260026020526040808320805460ff1990811690915583546001600160a01b03191692851692831784558284528184208054909116600117905551909133917f93091b3f3cd424efabc74e181f3799f3476ed758412561ed3b29515c51f567529190a350565b6000546001600160a01b031633146130405760405162461bcd60e51b8152600401610595906140ca565b60005b81518110156106915760648282815181106130605761306061411e565b602002602001015111156130c15760405162461bcd60e51b815260206004820152602260248201527f6f6e65206f66206d6f7265207261726974696573206172652061626f76652031604482015261030360f41b6064820152608401610595565b600d8282815181106130d5576130d561411e565b60209081029190910181015182546001818101855560009485529284200155600b805491929091613107908490614106565b9091555050600101613043565b6000546001600160a01b0316331461313e5760405162461bcd60e51b8152600401610595906140ca565b6000546001600160a01b03838116911614156131955760405162461bcd60e51b815260206004820152601660248201527531b0b73737ba1036b7b234b33c903232b83637bcb2b960511b6044820152606401610595565b6001600160a01b038216600081815260026020908152604091829020805460ff1916851515908117909155915191825233917ff38de818d000d07d091732dd783c6855722d7bc1934d92b7635133289d341695910160405180910390a35050565b6000546001600160a01b031633148061321e57503360009081526002602052604090205460ff165b61323a5760405162461bcd60e51b815260040161059590614134565b61324660096000613751565b60006008819055600a55565b60606006805461326190614175565b80601f016020809104026020016040519081016040528092919081815260200182805461328d90614175565b80156132da5780601f106132af576101008083540402835291602001916132da565b820191906000526020600020905b8154815290600101906020018083116132bd57829003601f168201915b5050505050905090565b81518151600091849184919081146133025760009350505050610a0e565b60005b818110156133795782818151811061331f5761331f61411e565b602001015160f81c60f81b6001600160f81b0319168482815181106133465761334661411e565b01602001516001600160f81b03191614613367576000945050505050610a0e565b806133718161415a565b915050613305565b5060019695505050505050565b6060816133aa5750506040805180820190915260018152600360fc1b602082015290565b8160005b81156133d457806133be8161415a565b91506133cd9050600a83614531565b91506133ae565b6000816001600160401b038111156133ee576133ee613814565b6040519080825280601f01601f191660200182016040528015613418576020820181803683370190505b509050815b85156134a55761342e6001826145cc565b9050600061343d600a88614531565b61344890600a6145ad565b61345290886145cc565b61345d9060306145e3565b905060008160f81b90508084848151811061347a5761347a61411e565b60200101906001600160f81b031916908160001a90535061349c600a89614531565b9750505061341d565b50949350505050565b8280546134ba90614175565b90600052602060002090601f0160209004810192826134dc5760008555613522565b82601f106134f557805160ff1916838001178555613522565b82800160010185558215613522579182015b82811115613522578251825591602001919060010190613507565b5061352e929150613772565b5090565b50805460008255906000526020600020908101906135509190613772565b50565b50805460008255906000526020600020908101906135509190613787565b8280548282559060005260206000209081019282156135be579160200282015b828111156135be57825180516135ae9184916020909101906134ae565b5091602001919060010190613591565b5061352e9291506137a4565b6040518060c00160405280600063ffffffff168152602001600063ffffffff168152602001606081526020016060815260200160608152602001606081525090565b828054828255906000526020600020906007016008900481019282156135225791602002820160005b8382111561367957835183826101000a81548163ffffffff021916908363ffffffff1602179055509260200192600401602081600301049283019260010302613635565b80156136a95782816101000a81549063ffffffff0219169055600401602081600301049283019260010302613679565b505061352e929150613772565b8280548282559060005260206000209081019282156135225791602002820182811115613522578251825591602001919060010190613507565b828054828255906000526020600020908101928215613522579160200282015b82811115613522578251829063ffffffff16905591602001919060010190613710565b508054600082559060005260206000209081019061355091906137a4565b50805460008255600701600890049060005260206000209081019061355091905b5b8082111561352e5760008155600101613773565b8082111561352e57600061379b8282613532565b50600101613787565b8082111561352e5760006137b882826137c1565b506001016137a4565b5080546137cd90614175565b6000825580601f106137dd575050565b601f0160209004906000526020600020908101906135509190613772565b60006020828403121561380d57600080fd5b5035919050565b634e487b7160e01b600052604160045260246000fd5b604051601f8201601f191681016001600160401b038111828210171561385257613852613814565b604052919050565b60006001600160401b0382111561387357613873613814565b5060051b60200190565b6001600160a01b038116811461355057600080fd5b600060208083850312156138a557600080fd5b82356001600160401b038111156138bb57600080fd5b8301601f810185136138cc57600080fd5b80356138df6138da8261385a565b61382a565b81815260059190911b820183019083810190878311156138fe57600080fd5b928401925b828410156139255783356139168161387d565b82529284019290840190613903565b979650505050505050565b60006001600160401b0382111561394957613949613814565b50601f01601f191660200190565b60006139656138da84613930565b905082815283838301111561397957600080fd5b828260208301376000602084830101529392505050565b600082601f8301126139a157600080fd5b610a0b83833560208501613957565b6000602082840312156139c257600080fd5b81356001600160401b038111156139d857600080fd5b61298684828501613990565b6020808252825182820181905260009190848201906040850190845b81811015613a1c57835183529284019291840191600101613a00565b50909695505050505050565b60006020808385031215613a3b57600080fd5b82356001600160401b0380821115613a5257600080fd5b818501915085601f830112613a6657600080fd5b8135613a746138da8261385a565b81815260059190911b83018401908481019088831115613a9357600080fd5b8585015b83811015613acb57803585811115613aaf5760008081fd5b613abd8b89838a0101613990565b845250918601918601613a97565b5098975050505050505050565b63ffffffff8116811461355057600080fd5b801515811461355057600080fd5b60008060408385031215613b0b57600080fd5b8235613b1681613ad8565b91506020830135613b2681613aea565b809150509250929050565b60008060408385031215613b4457600080fd5b8235613b4f81613ad8565b91506020830135613b268161387d565b600081518084526020808501945080840160005b83811015613b9557815163ffffffff1687529582019590820190600101613b73565b509495945050505050565b60005b83811015613bbb578181015183820152602001613ba3565b83811115613bca576000848401525b50505050565b60008151808452613be8816020860160208601613ba0565b601f01601f19169290920160200192915050565b600081518084526020808501808196508360051b8101915082860160005b85811015613c44578284038952613c32848351613bd0565b98850198935090840190600101613c1a565b5091979650505050505050565b60208152600063ffffffff80845116602084015280602085015116604084015250604083015160c06060840152613c8b60e0840182613b5f565b90506060840151601f1980858403016080860152613ca98383613bfc565b925060808601519150808584030160a0860152613cc68383613b5f565b925060a08601519150808584030160c086015250613ce48282613bd0565b95945050505050565b600060208284031215613cff57600080fd5b81356115f281613ad8565b602081526000610a0b6020830184613bd0565b60008060408385031215613d3057600080fd5b823591506020830135613b268161387d565b602081526000610a0b6020830184613bfc565b600082601f830112613d6657600080fd5b81356020613d766138da8361385a565b82815260059290921b84018101918181019086841115613d9557600080fd5b8286015b84811015613db9578035613dac81613ad8565b8352918301918301613d99565b509695505050505050565b600060208284031215613dd657600080fd5b81356001600160401b03811115613dec57600080fd5b61298684828501613d55565b60008060408385031215613e0b57600080fd5b8235613e1681613ad8565b915060208301356001600160401b03811115613e3157600080fd5b8301601f81018513613e4257600080fd5b613e5185823560208401613957565b9150509250929050565b600080600060608486031215613e7057600080fd5b8335613e7b81613ad8565b92506020840135613e8b81613ad8565b91506040840135613e9b8161387d565b809150509250925092565b600082601f830112613eb757600080fd5b81356020613ec76138da8361385a565b82815260059290921b84018101918181019086841115613ee657600080fd5b8286015b84811015613db95780358352918301918301613eea565b600060208284031215613f1357600080fd5b81356001600160401b03811115613f2957600080fd5b61298684828501613ea6565b602081526000610a0b6020830184613b5f565b60008060408385031215613f5b57600080fd5b8235613f6681613ad8565b91506020830135613b2681613ad8565b600060208284031215613f8857600080fd5b81356115f28161387d565b60008060408385031215613fa657600080fd5b8235613fb181613ad8565b915060208301356001600160401b03811115613fcc57600080fd5b613e5185828601613ea6565b60008060408385031215613feb57600080fd5b82356001600160401b038082111561400257600080fd5b61400e86838701613d55565b935060209150818501358181111561402557600080fd5b8501601f8101871361403657600080fd5b80356140446138da8261385a565b81815260059190911b8201840190848101908983111561406357600080fd5b8584015b8381101561409b5780358681111561407f5760008081fd5b61408d8c8983890101613ea6565b845250918601918601614067565b508096505050505050509250929050565b600080604083850312156140bf57600080fd5b8235613b168161387d565b6020808252600c908201526b3737ba103232b83637bcb2b960a11b604082015260600190565b634e487b7160e01b600052601160045260246000fd5b60008219821115614119576141196140f0565b500190565b634e487b7160e01b600052603260045260246000fd5b6020808252600c908201526b1b9bdd08185c1c1c9bdd995960a21b604082015260600190565b600060001982141561416e5761416e6140f0565b5060010190565b600181811c9082168061418957607f821691505b602082108114156141aa57634e487b7160e01b600052602260045260246000fd5b50919050565b6000602082840312156141c257600080fd5b81516115f281613aea565b6000602082840312156141df57600080fd5b5051919050565b600063ffffffff80831681811415614200576142006140f0565b6001019392505050565b600082601f83011261421b57600080fd5b81516142296138da82613930565b81815284602083860101111561423e57600080fd5b612986826020830160208701613ba0565b60006020828403121561426157600080fd5b81516001600160401b0381111561427757600080fd5b6129868482850161420a565b805161216381613ad8565b600082601f83011261429f57600080fd5b815160206142af6138da8361385a565b82815260059290921b840181019181810190868411156142ce57600080fd5b8286015b84811015613db95780516142e581613ad8565b83529183019183016142d2565b6000806000806080858703121561430857600080fd5b84516001600160401b038082111561431f57600080fd5b818701915087601f83011261433357600080fd5b815160206143436138da8361385a565b82815260059290921b8401810191818101908b84111561436257600080fd5b8286015b8481101561439a5780518681111561437e5760008081fd5b61438c8e86838b010161420a565b845250918301918301614366565b50918a01519198509093505050808211156143b457600080fd5b6143c08883890161428e565b945060408701519150808211156143d657600080fd5b506143e38782880161428e565b9250506143f260608601614283565b905092959194509250565b600063ffffffff8381169083168181101561441a5761441a6140f0565b039392505050565b60c08152600061443560c0830187613bd0565b82810380602085015260018252601160f91b6020830152604081016040850152506144636040820187613bd0565b905082810380606085015260038252620111d160ed1b6020830152604081016080850152506144956040820186613bd0565b905082810360a08401526139258185613bd0565b6060815260016060820152607b60f81b608082015260a0602082015260006144d460a0830184613bd0565b82810360409384015260018152607d60f81b60208201529190910192915050565b6020808252600c908201526b6578747261436f6c6f75727360a01b604082015260600190565b634e487b7160e01b600052601260045260246000fd5b6000826145405761454061451b565b500490565b600063ffffffff80831681851681830481118215151615614568576145686140f0565b02949350505050565b600063ffffffff808316818516808303821115614590576145906140f0565b01949350505050565b6000826145a8576145a861451b565b500690565b60008160001904831182151516156145c7576145c76140f0565b500290565b6000828210156145de576145de6140f0565b500390565b600060ff821660ff84168060ff03821115614600576146006140f0565b01939250505056fea2646970667358221220ee518451c4e456482a85e3229d87ecc352b123e2ef34cc3f6a64051f66bad7ce64736f6c634300080c0033",
  "linkReferences": {},
  "deployedLinkReferences": {}
}