{
  "_format": "hh-sol-artifact-1",
  "contractName": "InfinityMintApi",
  "sourceName": "alpha/InfinityMintApi.sol",
  "abi": [
    {
      "inputs": [
        {
          "internalType": "address",
          "name": "erc721Destination",
          "type": "address"
        },
        {
          "internalType": "address",
          "name": "storageDestination",
          "type": "address"
        },
        {
          "internalType": "address",
          "name": "assetDestination",
          "type": "address"
        },
        {
          "internalType": "address",
          "name": "valuesDestination",
          "type": "address"
        },
        {
          "internalType": "address",
          "name": "royaltyDestination",
          "type": "address"
        },
        {
          "internalType": "address",
          "name": "projectDestination",
          "type": "address"
        }
      ],
      "stateMutability": "nonpayable",
      "type": "constructor"
    },
    {
      "inputs": [
        {
          "internalType": "address",
          "name": "owner",
          "type": "address"
        }
      ],
      "name": "allTokens",
      "outputs": [
        {
          "internalType": "uint32[]",
          "name": "tokens",
          "type": "uint32[]"
        }
      ],
      "stateMutability": "view",
      "type": "function"
    },
    {
      "inputs": [],
      "name": "assetController",
      "outputs": [
        {
          "internalType": "contract Asset",
          "name": "",
          "type": "address"
        }
      ],
      "stateMutability": "view",
      "type": "function"
    },
    {
      "inputs": [],
      "name": "erc721",
      "outputs": [
        {
          "internalType": "contract InfinityMint",
          "name": "",
          "type": "address"
        }
      ],
      "stateMutability": "view",
      "type": "function"
    },
    {
      "inputs": [
        {
          "internalType": "uint32",
          "name": "tokenId",
          "type": "uint32"
        }
      ],
      "name": "get",
      "outputs": [
        {
          "components": [
            {
              "internalType": "uint32",
              "name": "pathId",
              "type": "uint32"
            },
            {
              "internalType": "uint32",
              "name": "pathSize",
              "type": "uint32"
            },
            {
              "internalType": "uint32",
              "name": "currentTokenId",
              "type": "uint32"
            },
            {
              "internalType": "address",
              "name": "owner",
              "type": "address"
            },
            {
              "internalType": "uint32[]",
              "name": "colours",
              "type": "uint32[]"
            },
            {
              "internalType": "bytes",
              "name": "mintData",
              "type": "bytes"
            },
            {
              "internalType": "uint32[]",
              "name": "assets",
              "type": "uint32[]"
            },
            {
              "internalType": "string[]",
              "name": "names",
              "type": "string[]"
            },
            {
              "internalType": "address[]",
              "name": "destinations",
              "type": "address[]"
            }
          ],
          "internalType": "struct InfinityMintObject.InfinityObject",
          "name": "",
          "type": "tuple"
        }
      ],
      "stateMutability": "view",
      "type": "function"
    },
    {
      "inputs": [
        {
          "internalType": "uint32",
          "name": "tokenId",
          "type": "uint32"
        }
      ],
      "name": "getBalanceOfWallet",
      "outputs": [
        {
          "internalType": "uint256",
          "name": "",
          "type": "uint256"
        }
      ],
      "stateMutability": "view",
      "type": "function"
    },
    {
      "inputs": [
        {
          "internalType": "uint32",
          "name": "tokenId",
          "type": "uint32"
        }
      ],
      "name": "getBytes",
      "outputs": [
        {
          "internalType": "bytes",
          "name": "",
          "type": "bytes"
        }
      ],
      "stateMutability": "view",
      "type": "function"
    },
    {
      "inputs": [],
      "name": "getCurrentProject",
      "outputs": [
        {
          "internalType": "bytes",
          "name": "encodedUrl",
          "type": "bytes"
        },
        {
          "internalType": "bytes",
          "name": "encodedTag",
          "type": "bytes"
        },
        {
          "internalType": "uint256",
          "name": "version",
          "type": "uint256"
        }
      ],
      "stateMutability": "view",
      "type": "function"
    },
    {
      "inputs": [
        {
          "internalType": "uint32",
          "name": "tokenId",
          "type": "uint32"
        },
        {
          "internalType": "uint256",
          "name": "index",
          "type": "uint256"
        }
      ],
      "name": "getLink",
      "outputs": [
        {
          "internalType": "address",
          "name": "",
          "type": "address"
        }
      ],
      "stateMutability": "view",
      "type": "function"
    },
    {
      "inputs": [
        {
          "internalType": "uint32",
          "name": "index",
          "type": "uint32"
        }
      ],
      "name": "getPreview",
      "outputs": [
        {
          "components": [
            {
              "internalType": "uint32",
              "name": "pathId",
              "type": "uint32"
            },
            {
              "internalType": "uint32",
              "name": "pathSize",
              "type": "uint32"
            },
            {
              "internalType": "uint32",
              "name": "currentTokenId",
              "type": "uint32"
            },
            {
              "internalType": "address",
              "name": "owner",
              "type": "address"
            },
            {
              "internalType": "uint32[]",
              "name": "colours",
              "type": "uint32[]"
            },
            {
              "internalType": "bytes",
              "name": "mintData",
              "type": "bytes"
            },
            {
              "internalType": "uint32[]",
              "name": "assets",
              "type": "uint32[]"
            },
            {
              "internalType": "string[]",
              "name": "names",
              "type": "string[]"
            },
            {
              "internalType": "address[]",
              "name": "destinations",
              "type": "address[]"
            }
          ],
          "internalType": "struct InfinityMintObject.InfinityObject",
          "name": "",
          "type": "tuple"
        }
      ],
      "stateMutability": "view",
      "type": "function"
    },
    {
      "inputs": [
        {
          "internalType": "address",
          "name": "addr",
          "type": "address"
        }
      ],
      "name": "getPreviewCount",
      "outputs": [
        {
          "internalType": "uint256",
          "name": "count",
          "type": "uint256"
        }
      ],
      "stateMutability": "view",
      "type": "function"
    },
    {
      "inputs": [
        {
          "internalType": "address",
          "name": "addr",
          "type": "address"
        }
      ],
      "name": "getPreviewTimestamp",
      "outputs": [
        {
          "internalType": "uint256",
          "name": "",
          "type": "uint256"
        }
      ],
      "stateMutability": "view",
      "type": "function"
    },
    {
      "inputs": [
        {
          "internalType": "address",
          "name": "addr",
          "type": "address"
        }
      ],
      "name": "getPreviews",
      "outputs": [
        {
          "internalType": "uint32[]",
          "name": "",
          "type": "uint32[]"
        }
      ],
      "stateMutability": "view",
      "type": "function"
    },
    {
      "inputs": [],
      "name": "getPrice",
      "outputs": [
        {
          "internalType": "uint256",
          "name": "",
          "type": "uint256"
        }
      ],
      "stateMutability": "view",
      "type": "function"
    },
    {
      "inputs": [
        {
          "internalType": "uint256",
          "name": "version",
          "type": "uint256"
        }
      ],
      "name": "getProject",
      "outputs": [
        {
          "internalType": "bytes",
          "name": "encodedProject",
          "type": "bytes"
        },
        {
          "internalType": "bytes",
          "name": "encodedTag",
          "type": "bytes"
        },
        {
          "internalType": "bytes",
          "name": "encodedInitialProject",
          "type": "bytes"
        }
      ],
      "stateMutability": "view",
      "type": "function"
    },
    {
      "inputs": [
        {
          "internalType": "uint32",
          "name": "tokenId",
          "type": "uint32"
        }
      ],
      "name": "getStickerContract",
      "outputs": [
        {
          "internalType": "address",
          "name": "",
          "type": "address"
        }
      ],
      "stateMutability": "view",
      "type": "function"
    },
    {
      "inputs": [
        {
          "internalType": "uint32",
          "name": "tokenId",
          "type": "uint32"
        }
      ],
      "name": "getWalletContract",
      "outputs": [
        {
          "internalType": "address",
          "name": "",
          "type": "address"
        }
      ],
      "stateMutability": "view",
      "type": "function"
    },
    {
      "inputs": [
        {
          "internalType": "address",
          "name": "sender",
          "type": "address"
        }
      ],
      "name": "isPreviewBlocked",
      "outputs": [
        {
          "internalType": "bool",
          "name": "",
          "type": "bool"
        }
      ],
      "stateMutability": "view",
      "type": "function"
    },
    {
      "inputs": [],
      "name": "projectController",
      "outputs": [
        {
          "internalType": "contract InfinityMintProject",
          "name": "",
          "type": "address"
        }
      ],
      "stateMutability": "view",
      "type": "function"
    },
    {
      "inputs": [],
      "name": "royaltyController",
      "outputs": [
        {
          "internalType": "contract Royalty",
          "name": "",
          "type": "address"
        }
      ],
      "stateMutability": "view",
      "type": "function"
    },
    {
      "inputs": [
        {
          "internalType": "string",
          "name": "key",
          "type": "string"
        },
        {
          "internalType": "bool",
          "name": "value",
          "type": "bool"
        }
      ],
      "name": "setFlag",
      "outputs": [],
      "stateMutability": "nonpayable",
      "type": "function"
    },
    {
      "inputs": [
        {
          "internalType": "string",
          "name": "key",
          "type": "string"
        },
        {
          "internalType": "string",
          "name": "option",
          "type": "string"
        }
      ],
      "name": "setOption",
      "outputs": [],
      "stateMutability": "nonpayable",
      "type": "function"
    },
    {
      "inputs": [
        {
          "internalType": "uint32",
          "name": "tokenId",
          "type": "uint32"
        },
        {
          "internalType": "string",
          "name": "key",
          "type": "string"
        },
        {
          "internalType": "bool",
          "name": "value",
          "type": "bool"
        }
      ],
      "name": "setTokenFlag",
      "outputs": [],
      "stateMutability": "nonpayable",
      "type": "function"
    },
    {
      "inputs": [],
      "name": "storageController",
      "outputs": [
        {
          "internalType": "contract InfinityMintStorage",
          "name": "",
          "type": "address"
        }
      ],
      "stateMutability": "view",
      "type": "function"
    },
    {
      "inputs": [],
      "name": "totalMints",
      "outputs": [
        {
          "internalType": "uint32",
          "name": "",
          "type": "uint32"
        }
      ],
      "stateMutability": "view",
      "type": "function"
    },
    {
      "inputs": [],
      "name": "totalSupply",
      "outputs": [
        {
          "internalType": "uint256",
          "name": "",
          "type": "uint256"
        }
      ],
      "stateMutability": "view",
      "type": "function"
    },
    {
      "inputs": [],
      "name": "valuesController",
      "outputs": [
        {
          "internalType": "contract InfinityMintValues",
          "name": "",
          "type": "address"
        }
      ],
      "stateMutability": "view",
      "type": "function"
    }
  ],
  "bytecode": "0x60806040523480156200001157600080fd5b50604051620023c2380380620023c28339810160408190526200003491620000c4565b600080546001600160a01b03199081166001600160a01b039889161790915560018054821696881696909617909555600280548616948716949094179093556003805485169286169290921790915560048054841691851691909117905560058054909216921691909117905562000145565b80516001600160a01b0381168114620000bf57600080fd5b919050565b60008060008060008060c08789031215620000de57600080fd5b620000e987620000a7565b9550620000f960208801620000a7565b94506200010960408801620000a7565b93506200011960608801620000a7565b92506200012960808801620000a7565b91506200013960a08801620000a7565b90509295509295509295565b61226d80620001556000396000f3fe608060405234801561001057600080fd5b506004361061013e5760003560e01c806308805342146101435780630c380cf01461016c5780630e4937351461018c578063105c4813146101ad57806310c28cf3146101c057806318160ddd146101d75780631f21bfbf146101df57806329fd769e146101f45780633aec3519146102075780633ebdfda11461021a5780634a90ab111461023a578063573f86001461024f5780637e356acd146102625780639437b1121461028257806395ded45c1461029557806398d5fdca146102a8578063a1d2b6ac146102b0578063bca6ce64146102c3578063c04a4791146102d6578063d12b66af146102f9578063d8a26e3a1461030c578063e57259681461031f578063e7cbd61d14610332578063ec2b46c314610345578063ef5bee3b14610358578063f0f3f2c81461036b575b600080fd5b610156610151366004611557565b61038d565b60405161016391906115d0565b60405180910390f35b60035461017f906001600160a01b031681565b60405161016391906115e3565b61019f61019a366004611557565b610498565b604051908152602001610163565b60045461017f906001600160a01b031681565b6101c8610574565b604051610163939291906115f7565b61019f6106f1565b6101e761077d565b604051610163919061162d565b61017f610202366004611557565b6107f4565b61017f610215366004611557565b61088e565b61022d610228366004611557565b6108e7565b604051610163919061170d565b61024d6102483660046118fb565b610964565b005b60025461017f906001600160a01b031681565b610275610270366004611973565b610a8d565b6040516101639190611990565b61019f610290366004611973565b610ce9565b6102756102a3366004611973565b610e32565b61019f610f88565b60055461017f906001600160a01b031681565b60005461017f906001600160a01b031681565b6102e96102e4366004611973565b610fdd565b6040519015158152602001610163565b61024d6103073660046119a3565b611057565b61022d61031a366004611557565b61114c565b61019f61032d366004611973565b611184565b61024d610340366004611a06565b6111f6565b60015461017f906001600160a01b031681565b61017f610366366004611a57565b6112b5565b61037e610379366004611a83565b6113e1565b60405161016393929190611a9c565b60005460408051629a9b7b60e01b815290516060926001600160a01b031691629a9b7b9160048083019260209291908290030181865afa1580156103d5573d6000803e3d6000fd5b505050506040513d601f19601f820116820180604052508101906103f99190611ae5565b63ffffffff168263ffffffff161061041057600080fd5b600154604051636c51371d60e11b81526000916001600160a01b03169063d8a26e3a9061044190869060040161162d565b600060405180830381865afa15801561045e573d6000803e3d6000fd5b505050506040513d6000823e601f3d908101601f191682016040526104869190810190611e0b565b905061049181611464565b9392505050565b6000806104a68360006112b5565b90506001600160a01b0381166104bf5750600092915050565b60408051600481526024810182526020810180516001600160e01b031663c6e48e2360e01b179052905160009182916001600160a01b0385169161050291611e47565b600060405180830381855afa9150503d806000811461053d576040519150601f19603f3d011682016040523d82523d6000602084013e610542565b606091505b50915091508161055757506000949350505050565b8080602001905181019061056b9190611e63565b95945050505050565b6060806000600560009054906101000a90046001600160a01b03166001600160a01b0316636e57b7006040518163ffffffff1660e01b8152600401600060405180830381865afa1580156105cc573d6000803e3d6000fd5b505050506040513d6000823e601f3d908101601f191682016040526105f49190810190611e7c565b600560009054906101000a90046001600160a01b03166001600160a01b0316634e275bcb6040518163ffffffff1660e01b8152600401600060405180830381865afa158015610647573d6000803e3d6000fd5b505050506040513d6000823e601f3d908101601f1916820160405261066f9190810190611e7c565b600560009054906101000a90046001600160a01b03166001600160a01b031663fabec44a6040518163ffffffff1660e01b8152600401602060405180830381865afa1580156106c2573d6000803e3d6000fd5b505050506040513d601f19601f820116820180604052508101906106e69190611e63565b925092509250909192565b60035460405163e7b6dac960e01b81526020600482015260096024820152686d6178537570706c7960b81b60448201526000916001600160a01b03169063e7b6dac990606401602060405180830381865afa158015610754573d6000803e3d6000fd5b505050506040513d601f19601f820116820180604052508101906107789190611e63565b905090565b60008060009054906101000a90046001600160a01b03166001600160a01b0316629a9b7b6040518163ffffffff1660e01b8152600401602060405180830381865afa1580156107d0573d6000803e3d6000fd5b505050506040513d601f19601f820116820180604052508101906107789190611ae5565b60035460405163e7b6dac960e01b815260206004820152600f60248201526e0d8d2dcd6aec2d8d8cae892dcc8caf608b1b60448201526000916108889184916001600160a01b03169063e7b6dac9906064015b602060405180830381865afa158015610864573d6000803e3d6000fd5b505050506040513d601f19601f820116820180604052508101906103669190611e63565b92915050565b60035460405163e7b6dac960e01b81526020600482015260116024820152700d8d2dcd6a6e8d2c6d6cae4e692dcc8caf607b1b60448201526000916108889184916001600160a01b03169063e7b6dac990606401610847565b6108ef6114db565b6001546001600160a01b031663fccc3cd533846040518363ffffffff1660e01b815260040161091f929190611eb0565b600060405180830381865afa15801561093c573d6000803e3d6000fd5b505050506040513d6000823e601f3d908101601f191682016040526108889190810190611e0b565b6000546001600160a01b031663430c208133856040518363ffffffff1660e01b8152600401610994929190611eb0565b602060405180830381865afa1580156109b1573d6000803e3d6000fd5b505050506040513d601f19601f820116820180604052508101906109d59190611ecf565b610a225760405162461bcd60e51b81526020600482015260196024820152781b5d5cdd081899481bdddb995c881bdc88185c1c1c9bdd9959603a1b60448201526064015b60405180910390fd5b600154604051638180a71760e01b81526001600160a01b0390911690638180a71790610a5690869086908690600401611eec565b600060405180830381600087803b158015610a7057600080fd5b505af1158015610a84573d6000803e3d6000fd5b50505050505050565b60606001600160a01b038216610af35760405162461bcd60e51b815260206004820152602560248201527f63616e6e6f74207669657720707265766965777320666f72206e756c6c206164604482015264647265737360d81b6064820152608401610a19565b60015460035460405163e7b6dac960e01b81526000926001600160a01b0390811692636407a4009287929091169063e7b6dac990610b3390600401611f1d565b602060405180830381865afa158015610b50573d6000803e3d6000fd5b505050506040513d601f19601f82011682018060405250810190610b749190611e63565b6040518363ffffffff1660e01b8152600401610b91929190611f43565b600060405180830381865afa158015610bae573d6000803e3d6000fd5b505050506040513d6000823e601f3d908101601f19168201604052610bd69190810190611f5c565b90506000805b8251811015610c3257846001600160a01b0316838281518110610c0157610c0161200c565b6020026020010151606001516001600160a01b03161415610c2a5781610c2681612022565b9250505b600101610bdc565b508015610cd3576000816001600160401b03811115610c5357610c53611801565b604051908082528060200260200182016040528015610c7c578160200160208202803683370190505b5090506000915060005b8351811015610cca57808284610c9b81612022565b955081518110610cad57610cad61200c565b63ffffffff90921660209283029190910190910152600101610c86565b50949350505050565b6040805160008082526020820190925290610cca565b60015460035460405163e7b6dac960e01b815260009283926001600160a01b0391821692636407a400928792169063e7b6dac990610d2990600401611f1d565b602060405180830381865afa158015610d46573d6000803e3d6000fd5b505050506040513d601f19601f82011682018060405250810190610d6a9190611e63565b6040518363ffffffff1660e01b8152600401610d87929190611f43565b600060405180830381865afa158015610da4573d6000803e3d6000fd5b505050506040513d6000823e601f3d908101601f19168201604052610dcc9190810190611f5c565b90506000915060005b8151811015610e2b57836001600160a01b0316828281518110610dfa57610dfa61200c565b6020026020010151606001516001600160a01b03161415610e235782610e1f81612022565b9350505b600101610dd5565b5050919050565b6003546040516206259160e71b815260206004820152601760248201527664697361626c6552656769737465726564546f6b656e7360481b60448201526060916001600160a01b031690630312c88090606401602060405180830381865afa158015610ea2573d6000803e3d6000fd5b505050506040513d601f19601f82011682018060405250810190610ec69190611ecf565b15610f135760405162461bcd60e51b815260206004820152601d60248201527f616c6c20746f6b656e73206d6574686f642069732064697361626c65640000006044820152606401610a19565b60015460405163495c94dd60e01b81526001600160a01b039091169063495c94dd90610f439085906004016115e3565b600060405180830381865afa158015610f60573d6000803e3d6000fd5b505050506040513d6000823e601f3d908101601f19168201604052610888919081019061204b565b6000600460009054906101000a90046001600160a01b03166001600160a01b0316637ff9b5966040518163ffffffff1660e01b8152600401602060405180830381865afa158015610754573d6000803e3d6000fd5b600154604051631cae4b2d60e31b81526000916001600160a01b03169063e57259689061100e9085906004016115e3565b602060405180830381865afa15801561102b573d6000803e3d6000fd5b505050506040513d601f19601f8201168201806040525081019061104f9190611e63565b421092915050565b600080546001600160a01b03166370a08231336040518263ffffffff1660e01b815260040161108691906115e3565b602060405180830381865afa1580156110a3573d6000803e3d6000fd5b505050506040513d601f19601f820116820180604052508101906110c79190611e63565b116110e45760405162461bcd60e51b8152600401610a199061207f565b6001546001600160a01b0316631774bc3b3384846040518463ffffffff1660e01b8152600401611116939291906120b4565b600060405180830381600087803b15801561113057600080fd5b505af1158015611144573d6000803e3d6000fd5b505050505050565b6111546114db565b600154604051636c51371d60e11b81526001600160a01b039091169063d8a26e3a9061091f90859060040161162d565b600154604051631cae4b2d60e31b81526000916001600160a01b03169063e5725968906111b59085906004016115e3565b602060405180830381865afa1580156111d2573d6000803e3d6000fd5b505050506040513d601f19601f820116820180604052508101906108889190611e63565b600080546001600160a01b03166370a08231336040518263ffffffff1660e01b815260040161122591906115e3565b602060405180830381865afa158015611242573d6000803e3d6000fd5b505050506040513d601f19601f820116820180604052508101906112669190611e63565b116112835760405162461bcd60e51b8152600401610a199061207f565b6001546001600160a01b031663a820ab973384846040518463ffffffff1660e01b8152600401611116939291906120ea565b600154604051636c51371d60e11b81526000916001600160a01b03169063d8a26e3a906112e690869060040161162d565b600060405180830381865afa158015611303573d6000803e3d6000fd5b505050506040513d6000823e601f3d908101601f1916820160405261132b9190810190611e0b565b6101000151518363ffffffff16111561134657506000610888565b600154604051636c51371d60e11b81526001600160a01b039091169063d8a26e3a9061137690869060040161162d565b600060405180830381865afa158015611393573d6000803e3d6000fd5b505050506040513d6000823e601f3d908101601f191682016040526113bb9190810190611e0b565b610100015182815181106113d1576113d161200c565b6020026020010151905092915050565b60055460405163b88da75960e01b815260048101839052606091829182916001600160a01b03169063b88da75990602401600060405180830381865afa15801561142f573d6000803e3d6000fd5b505050506040513d6000823e601f3d908101601f19168201604052611457919081019061210e565b9250925092509193909250565b60608160000151826020015183604001518460600151856080015160405160200161148f9190611990565b60408051601f198184030181529082905260a088015160c089015160e08a01516101008b01516114c59998979695602001612195565b6040516020818303038152906040529050919050565b604051806101200160405280600063ffffffff168152602001600063ffffffff168152602001600063ffffffff16815260200160006001600160a01b0316815260200160608152602001606081526020016060815260200160608152602001606081525090565b63ffffffff8116811461155457600080fd5b50565b60006020828403121561156957600080fd5b813561049181611542565b60005b8381101561158f578181015183820152602001611577565b8381111561159e576000848401525b50505050565b600081518084526115bc816020860160208601611574565b601f01601f19169290920160200192915050565b60208152600061049160208301846115a4565b6001600160a01b0391909116815260200190565b60608152600061160a60608301866115a4565b828103602084015261161c81866115a4565b915050826040830152949350505050565b63ffffffff91909116815260200190565b600081518084526020808501945080840160005b8381101561167457815163ffffffff1687529582019590820190600101611652565b509495945050505050565b600081518084526020808501808196508360051b8101915082860160005b858110156116c75782840389526116b58483516115a4565b9885019893509084019060010161169d565b5091979650505050505050565b600081518084526020808501945080840160005b838110156116745781516001600160a01b0316875295820195908201906001016116e8565b6020815261172460208201835163ffffffff169052565b6000602083015161173d604084018263ffffffff169052565b50604083015163ffffffff811660608401525060608301516001600160a01b03811660808401525060808301516101208060a085015261178161014085018361163e565b915060a0850151601f19808685030160c087015261179f84836115a4565b935060c08701519150808685030160e08701526117bc848361163e565b935060e087015191506101008187860301818801526117db858461167f565b9088015187820390920184880152935090506117f783826116d4565b9695505050505050565b634e487b7160e01b600052604160045260246000fd5b60405161012081016001600160401b038111828210171561183a5761183a611801565b60405290565b604051601f8201601f191681016001600160401b038111828210171561186857611868611801565b604052919050565b60006001600160401b0382111561188957611889611801565b50601f01601f191660200190565b600082601f8301126118a857600080fd5b81356118bb6118b682611870565b611840565b8181528460208386010111156118d057600080fd5b816020850160208301376000918101602001919091529392505050565b801515811461155457600080fd5b60008060006060848603121561191057600080fd5b833561191b81611542565b925060208401356001600160401b0381111561193657600080fd5b61194286828701611897565b9250506040840135611953816118ed565b809150509250925092565b6001600160a01b038116811461155457600080fd5b60006020828403121561198557600080fd5b81356104918161195e565b602081526000610491602083018461163e565b600080604083850312156119b657600080fd5b82356001600160401b03808211156119cd57600080fd5b6119d986838701611897565b935060208501359150808211156119ef57600080fd5b506119fc85828601611897565b9150509250929050565b60008060408385031215611a1957600080fd5b82356001600160401b03811115611a2f57600080fd5b611a3b85828601611897565b9250506020830135611a4c816118ed565b809150509250929050565b60008060408385031215611a6a57600080fd5b8235611a7581611542565b946020939093013593505050565b600060208284031215611a9557600080fd5b5035919050565b606081526000611aaf60608301866115a4565b8281036020840152611ac181866115a4565b905082810360408401526117f781856115a4565b8051611ae081611542565b919050565b600060208284031215611af757600080fd5b815161049181611542565b8051611ae08161195e565b60006001600160401b03821115611b2657611b26611801565b5060051b60200190565b600082601f830112611b4157600080fd5b81516020611b516118b683611b0d565b82815260059290921b84018101918181019086841115611b7057600080fd5b8286015b84811015611b94578051611b8781611542565b8352918301918301611b74565b509695505050505050565b6000611bad6118b684611870565b9050828152838383011115611bc157600080fd5b610491836020830184611574565b600082601f830112611be057600080fd5b61049183835160208501611b9f565b600082601f830112611c0057600080fd5b81516020611c106118b683611b0d565b82815260059290921b84018101918181019086841115611c2f57600080fd5b8286015b84811015611b945780516001600160401b03811115611c525760008081fd5b8701603f81018913611c645760008081fd5b611c75898683015160408401611b9f565b845250918301918301611c33565b600082601f830112611c9457600080fd5b81516020611ca46118b683611b0d565b82815260059290921b84018101918181019086841115611cc357600080fd5b8286015b84811015611b94578051611cda8161195e565b8352918301918301611cc7565b60006101208284031215611cfa57600080fd5b611d02611817565b9050611d0d82611ad5565b8152611d1b60208301611ad5565b6020820152611d2c60408301611ad5565b6040820152611d3d60608301611b02565b606082015260808201516001600160401b0380821115611d5c57600080fd5b611d6885838601611b30565b608084015260a0840151915080821115611d8157600080fd5b611d8d85838601611bcf565b60a084015260c0840151915080821115611da657600080fd5b611db285838601611b30565b60c084015260e0840151915080821115611dcb57600080fd5b611dd785838601611bef565b60e084015261010091508184015181811115611df257600080fd5b611dfe86828701611c83565b8385015250505092915050565b600060208284031215611e1d57600080fd5b81516001600160401b03811115611e3357600080fd5b611e3f84828501611ce7565b949350505050565b60008251611e59818460208701611574565b9190910192915050565b600060208284031215611e7557600080fd5b5051919050565b600060208284031215611e8e57600080fd5b81516001600160401b03811115611ea457600080fd5b611e3f84828501611bcf565b6001600160a01b0392909216825263ffffffff16602082015260400190565b600060208284031215611ee157600080fd5b8151610491816118ed565b63ffffffff84168152606060208201526000611f0b60608301856115a4565b90508215156040830152949350505050565b6020808252600c908201526b1c1c995d9a595dd0dbdd5b9d60a21b604082015260600190565b6001600160a01b03929092168252602082015260400190565b60006020808385031215611f6f57600080fd5b82516001600160401b0380821115611f8657600080fd5b818501915085601f830112611f9a57600080fd5b8151611fa86118b682611b0d565b81815260059190911b83018401908481019088831115611fc757600080fd5b8585015b83811015611fff57805185811115611fe35760008081fd5b611ff18b89838a0101611ce7565b845250918601918601611fcb565b5098975050505050505050565b634e487b7160e01b600052603260045260246000fd5b600060001982141561204457634e487b7160e01b600052601160045260246000fd5b5060010190565b60006020828403121561205d57600080fd5b81516001600160401b0381111561207357600080fd5b611e3f84828501611b30565b6020808252601b908201527a36bab9ba1037bbb71030ba103632b0b9ba1037b732903a37b5b2b760291b604082015260600190565b6001600160a01b03841681526060602082018190526000906120d8908301856115a4565b82810360408401526117f781856115a4565b6001600160a01b0384168152606060208201819052600090611f0b908301856115a4565b60008060006060848603121561212357600080fd5b83516001600160401b038082111561213a57600080fd5b61214687838801611bcf565b9450602086015191508082111561215c57600080fd5b61216887838801611bcf565b9350604086015191508082111561217e57600080fd5b5061218b86828701611bcf565b9150509250925092565b63ffffffff8a811682528981166020830152881660408201526001600160a01b0387166060820152610120608082018190526000906121d6838201896115a4565b905082810360a08401526121ea81886115a4565b905082810360c08401526121fe818761163e565b905082810360e0840152612212818661167f565b905082810361010084015261222781856116d4565b9c9b50505050505050505050505056fea2646970667358221220f97c5f328de248bc4bb2fe6bcbcc1c6b0f17c58581bcf7c97a463faa48a0eab564736f6c634300080c0033",
  "linkReferences": {},
  "deployedLinkReferences": {}
}