{
  "_format": "hh-sol-artifact-1",
  "contractName": "StickerOracle",
  "sourceName": "alpha/stickers/StickerOracle.sol",
  "abi": [
    {
      "inputs": [
        {
          "internalType": "string",
          "name": "tokenName",
          "type": "string"
        },
        {
          "internalType": "string",
          "name": "tokenSymbol",
          "type": "string"
        },
        {
          "internalType": "address",
          "name": "erc721Destination",
          "type": "address"
        }
      ],
      "stateMutability": "nonpayable",
      "type": "constructor"
    },
    {
      "anonymous": false,
      "inputs": [
        {
          "indexed": true,
          "internalType": "address",
          "name": "sender",
          "type": "address"
        },
        {
          "indexed": false,
          "internalType": "uint256",
          "name": "oracleId",
          "type": "uint256"
        },
        {
          "components": [
            {
              "internalType": "address",
              "name": "owner",
              "type": "address"
            },
            {
              "internalType": "uint256",
              "name": "balance",
              "type": "uint256"
            },
            {
              "internalType": "uint256",
              "name": "lockedBalance",
              "type": "uint256"
            },
            {
              "internalType": "bool",
              "name": "valid",
              "type": "bool"
            }
          ],
          "indexed": false,
          "internalType": "struct StickerOracle.RegistrationObject",
          "name": "registraitonObject",
          "type": "tuple"
        }
      ],
      "name": "AddressRegistration",
      "type": "event"
    },
    {
      "anonymous": false,
      "inputs": [
        {
          "indexed": true,
          "internalType": "address",
          "name": "owner",
          "type": "address"
        },
        {
          "indexed": true,
          "internalType": "address",
          "name": "approved",
          "type": "address"
        },
        {
          "indexed": true,
          "internalType": "uint256",
          "name": "tokenId",
          "type": "uint256"
        }
      ],
      "name": "Approval",
      "type": "event"
    },
    {
      "anonymous": false,
      "inputs": [
        {
          "indexed": true,
          "internalType": "address",
          "name": "owner",
          "type": "address"
        },
        {
          "indexed": true,
          "internalType": "address",
          "name": "operator",
          "type": "address"
        },
        {
          "indexed": false,
          "internalType": "bool",
          "name": "approved",
          "type": "bool"
        }
      ],
      "name": "ApprovalForAll",
      "type": "event"
    },
    {
      "anonymous": false,
      "inputs": [
        {
          "indexed": true,
          "internalType": "address",
          "name": "sender",
          "type": "address"
        },
        {
          "indexed": false,
          "internalType": "uint256",
          "name": "tokenId",
          "type": "uint256"
        },
        {
          "indexed": true,
          "internalType": "address",
          "name": "stickersDestination",
          "type": "address"
        },
        {
          "components": [
            {
              "internalType": "address",
              "name": "deployer",
              "type": "address"
            },
            {
              "internalType": "address",
              "name": "destination",
              "type": "address"
            },
            {
              "internalType": "uint256",
              "name": "activeStickers",
              "type": "uint256"
            },
            {
              "internalType": "uint256",
              "name": "completedStickers",
              "type": "uint256"
            },
            {
              "internalType": "uint256",
              "name": "deniedStickers",
              "type": "uint256"
            },
            {
              "internalType": "uint256",
              "name": "timestamp",
              "type": "uint256"
            },
            {
              "internalType": "bool",
              "name": "valid",
              "type": "bool"
            }
          ],
          "indexed": false,
          "internalType": "struct StickerOracle.StickerDestination",
          "name": "destinationObject",
          "type": "tuple"
        }
      ],
      "name": "DeploymentRegistration",
      "type": "event"
    },
    {
      "anonymous": false,
      "inputs": [
        {
          "indexed": true,
          "internalType": "address",
          "name": "sender",
          "type": "address"
        },
        {
          "indexed": true,
          "internalType": "address",
          "name": "changee",
          "type": "address"
        },
        {
          "indexed": false,
          "internalType": "bool",
          "name": "value",
          "type": "bool"
        }
      ],
      "name": "PermissionChange",
      "type": "event"
    },
    {
      "anonymous": false,
      "inputs": [
        {
          "indexed": true,
          "internalType": "address",
          "name": "from",
          "type": "address"
        },
        {
          "indexed": true,
          "internalType": "address",
          "name": "to",
          "type": "address"
        },
        {
          "indexed": true,
          "internalType": "uint256",
          "name": "tokenId",
          "type": "uint256"
        }
      ],
      "name": "Transfer",
      "type": "event"
    },
    {
      "anonymous": false,
      "inputs": [
        {
          "indexed": true,
          "internalType": "address",
          "name": "from",
          "type": "address"
        },
        {
          "indexed": true,
          "internalType": "address",
          "name": "to",
          "type": "address"
        }
      ],
      "name": "TransferedOwnership",
      "type": "event"
    },
    {
      "inputs": [
        {
          "internalType": "address",
          "name": "",
          "type": "address"
        }
      ],
      "name": "addressRegistrations",
      "outputs": [
        {
          "internalType": "address",
          "name": "owner",
          "type": "address"
        },
        {
          "internalType": "uint256",
          "name": "oracleId",
          "type": "uint256"
        },
        {
          "internalType": "bool",
          "name": "valid",
          "type": "bool"
        }
      ],
      "stateMutability": "view",
      "type": "function"
    },
    {
      "inputs": [
        {
          "internalType": "address",
          "name": "_to",
          "type": "address"
        },
        {
          "internalType": "uint256",
          "name": "_tokenId",
          "type": "uint256"
        }
      ],
      "name": "approve",
      "outputs": [],
      "stateMutability": "nonpayable",
      "type": "function"
    },
    {
      "inputs": [
        {
          "internalType": "address",
          "name": "",
          "type": "address"
        }
      ],
      "name": "approved",
      "outputs": [
        {
          "internalType": "bool",
          "name": "",
          "type": "bool"
        }
      ],
      "stateMutability": "view",
      "type": "function"
    },
    {
      "inputs": [
        {
          "internalType": "address",
          "name": "_owner",
          "type": "address"
        }
      ],
      "name": "balanceOf",
      "outputs": [
        {
          "internalType": "uint256",
          "name": "",
          "type": "uint256"
        }
      ],
      "stateMutability": "view",
      "type": "function"
    },
    {
      "inputs": [
        {
          "internalType": "uint256",
          "name": "pps",
          "type": "uint256"
        },
        {
          "internalType": "uint256",
          "name": "duration",
          "type": "uint256"
        },
        {
          "internalType": "address",
          "name": "owner",
          "type": "address"
        }
      ],
      "name": "canAfford",
      "outputs": [
        {
          "internalType": "bool",
          "name": "",
          "type": "bool"
        }
      ],
      "stateMutability": "view",
      "type": "function"
    },
    {
      "inputs": [],
      "name": "deployer",
      "outputs": [
        {
          "internalType": "address",
          "name": "",
          "type": "address"
        }
      ],
      "stateMutability": "view",
      "type": "function"
    },
    {
      "inputs": [
        {
          "internalType": "uint256",
          "name": "_tokenId",
          "type": "uint256"
        }
      ],
      "name": "exists",
      "outputs": [
        {
          "internalType": "bool",
          "name": "",
          "type": "bool"
        }
      ],
      "stateMutability": "view",
      "type": "function"
    },
    {
      "inputs": [
        {
          "internalType": "address",
          "name": "addr",
          "type": "address"
        }
      ],
      "name": "findRegistration",
      "outputs": [
        {
          "components": [
            {
              "internalType": "address",
              "name": "owner",
              "type": "address"
            },
            {
              "internalType": "uint256",
              "name": "balance",
              "type": "uint256"
            },
            {
              "internalType": "uint256",
              "name": "lockedBalance",
              "type": "uint256"
            },
            {
              "internalType": "bool",
              "name": "valid",
              "type": "bool"
            }
          ],
          "internalType": "struct StickerOracle.RegistrationObject",
          "name": "",
          "type": "tuple"
        }
      ],
      "stateMutability": "view",
      "type": "function"
    },
    {
      "inputs": [
        {
          "internalType": "uint256",
          "name": "_tokenId",
          "type": "uint256"
        }
      ],
      "name": "getApproved",
      "outputs": [
        {
          "internalType": "address",
          "name": "",
          "type": "address"
        }
      ],
      "stateMutability": "view",
      "type": "function"
    },
    {
      "inputs": [
        {
          "internalType": "uint256",
          "name": "_oracleId",
          "type": "uint256"
        }
      ],
      "name": "getRegistration",
      "outputs": [
        {
          "components": [
            {
              "internalType": "address",
              "name": "owner",
              "type": "address"
            },
            {
              "internalType": "uint256",
              "name": "balance",
              "type": "uint256"
            },
            {
              "internalType": "uint256",
              "name": "lockedBalance",
              "type": "uint256"
            },
            {
              "internalType": "bool",
              "name": "valid",
              "type": "bool"
            }
          ],
          "internalType": "struct StickerOracle.RegistrationObject",
          "name": "",
          "type": "tuple"
        }
      ],
      "stateMutability": "view",
      "type": "function"
    },
    {
      "inputs": [
        {
          "internalType": "uint256",
          "name": "tokenId",
          "type": "uint256"
        }
      ],
      "name": "getStickerRegistration",
      "outputs": [
        {
          "components": [
            {
              "internalType": "address",
              "name": "deployer",
              "type": "address"
            },
            {
              "internalType": "address",
              "name": "destination",
              "type": "address"
            },
            {
              "internalType": "uint256",
              "name": "activeStickers",
              "type": "uint256"
            },
            {
              "internalType": "uint256",
              "name": "completedStickers",
              "type": "uint256"
            },
            {
              "internalType": "uint256",
              "name": "deniedStickers",
              "type": "uint256"
            },
            {
              "internalType": "uint256",
              "name": "timestamp",
              "type": "uint256"
            },
            {
              "internalType": "bool",
              "name": "valid",
              "type": "bool"
            }
          ],
          "internalType": "struct StickerOracle.StickerDestination",
          "name": "dest",
          "type": "tuple"
        }
      ],
      "stateMutability": "view",
      "type": "function"
    },
    {
      "inputs": [
        {
          "internalType": "address",
          "name": "stickerDestination",
          "type": "address"
        },
        {
          "internalType": "uint256",
          "name": "stickerId",
          "type": "uint256"
        }
      ],
      "name": "hasStickerCompleted",
      "outputs": [
        {
          "internalType": "bool",
          "name": "",
          "type": "bool"
        }
      ],
      "stateMutability": "view",
      "type": "function"
    },
    {
      "inputs": [
        {
          "internalType": "address",
          "name": "_owner",
          "type": "address"
        },
        {
          "internalType": "address",
          "name": "_operator",
          "type": "address"
        }
      ],
      "name": "isApprovedForAll",
      "outputs": [
        {
          "internalType": "bool",
          "name": "",
          "type": "bool"
        }
      ],
      "stateMutability": "view",
      "type": "function"
    },
    {
      "inputs": [
        {
          "internalType": "address",
          "name": "addr",
          "type": "address"
        },
        {
          "internalType": "uint256",
          "name": "tokenId",
          "type": "uint256"
        }
      ],
      "name": "isApprovedOrOwner",
      "outputs": [
        {
          "internalType": "bool",
          "name": "",
          "type": "bool"
        }
      ],
      "stateMutability": "view",
      "type": "function"
    },
    {
      "inputs": [
        {
          "internalType": "address",
          "name": "addr",
          "type": "address"
        }
      ],
      "name": "isAuthenticated",
      "outputs": [
        {
          "internalType": "bool",
          "name": "",
          "type": "bool"
        }
      ],
      "stateMutability": "view",
      "type": "function"
    },
    {
      "inputs": [
        {
          "internalType": "address[]",
          "name": "addrs",
          "type": "address[]"
        }
      ],
      "name": "multiApprove",
      "outputs": [],
      "stateMutability": "nonpayable",
      "type": "function"
    },
    {
      "inputs": [
        {
          "internalType": "address[]",
          "name": "addrs",
          "type": "address[]"
        }
      ],
      "name": "multiRevoke",
      "outputs": [],
      "stateMutability": "nonpayable",
      "type": "function"
    },
    {
      "inputs": [],
      "name": "name",
      "outputs": [
        {
          "internalType": "string",
          "name": "",
          "type": "string"
        }
      ],
      "stateMutability": "view",
      "type": "function"
    },
    {
      "inputs": [
        {
          "internalType": "uint256",
          "name": "_tokenId",
          "type": "uint256"
        }
      ],
      "name": "ownerOf",
      "outputs": [
        {
          "internalType": "address",
          "name": "",
          "type": "address"
        }
      ],
      "stateMutability": "view",
      "type": "function"
    },
    {
      "inputs": [],
      "name": "register",
      "outputs": [],
      "stateMutability": "payable",
      "type": "function"
    },
    {
      "inputs": [
        {
          "internalType": "uint256",
          "name": "tokenId",
          "type": "uint256"
        },
        {
          "internalType": "address",
          "name": "stickersDestination",
          "type": "address"
        }
      ],
      "name": "registerDeploymentWithOracle",
      "outputs": [],
      "stateMutability": "nonpayable",
      "type": "function"
    },
    {
      "inputs": [
        {
          "internalType": "uint256",
          "name": "tokenId",
          "type": "uint256"
        },
        {
          "internalType": "uint256",
          "name": "stickerId",
          "type": "uint256"
        },
        {
          "internalType": "uint256",
          "name": "stickerEnd",
          "type": "uint256"
        }
      ],
      "name": "registerSticker",
      "outputs": [],
      "stateMutability": "nonpayable",
      "type": "function"
    },
    {
      "inputs": [
        {
          "internalType": "uint256",
          "name": "",
          "type": "uint256"
        }
      ],
      "name": "registeredStickerDestinations",
      "outputs": [
        {
          "internalType": "address",
          "name": "deployer",
          "type": "address"
        },
        {
          "internalType": "address",
          "name": "destination",
          "type": "address"
        },
        {
          "internalType": "uint256",
          "name": "activeStickers",
          "type": "uint256"
        },
        {
          "internalType": "uint256",
          "name": "completedStickers",
          "type": "uint256"
        },
        {
          "internalType": "uint256",
          "name": "deniedStickers",
          "type": "uint256"
        },
        {
          "internalType": "uint256",
          "name": "timestamp",
          "type": "uint256"
        },
        {
          "internalType": "bool",
          "name": "valid",
          "type": "bool"
        }
      ],
      "stateMutability": "view",
      "type": "function"
    },
    {
      "inputs": [
        {
          "internalType": "uint256",
          "name": "",
          "type": "uint256"
        }
      ],
      "name": "registrations",
      "outputs": [
        {
          "internalType": "address",
          "name": "owner",
          "type": "address"
        },
        {
          "internalType": "uint256",
          "name": "balance",
          "type": "uint256"
        },
        {
          "internalType": "uint256",
          "name": "lockedBalance",
          "type": "uint256"
        },
        {
          "internalType": "bool",
          "name": "valid",
          "type": "bool"
        }
      ],
      "stateMutability": "view",
      "type": "function"
    },
    {
      "inputs": [
        {
          "internalType": "address",
          "name": "_from",
          "type": "address"
        },
        {
          "internalType": "address",
          "name": "_to",
          "type": "address"
        },
        {
          "internalType": "uint256",
          "name": "_tokenId",
          "type": "uint256"
        }
      ],
      "name": "safeTransferFrom",
      "outputs": [],
      "stateMutability": "nonpayable",
      "type": "function"
    },
    {
      "inputs": [
        {
          "internalType": "address",
          "name": "_from",
          "type": "address"
        },
        {
          "internalType": "address",
          "name": "_to",
          "type": "address"
        },
        {
          "internalType": "uint256",
          "name": "_tokenId",
          "type": "uint256"
        },
        {
          "internalType": "bytes",
          "name": "_data",
          "type": "bytes"
        }
      ],
      "name": "safeTransferFrom",
      "outputs": [],
      "stateMutability": "nonpayable",
      "type": "function"
    },
    {
      "inputs": [
        {
          "internalType": "address",
          "name": "_operator",
          "type": "address"
        },
        {
          "internalType": "bool",
          "name": "_approved",
          "type": "bool"
        }
      ],
      "name": "setApprovalForAll",
      "outputs": [],
      "stateMutability": "nonpayable",
      "type": "function"
    },
    {
      "inputs": [
        {
          "internalType": "address",
          "name": "addr",
          "type": "address"
        },
        {
          "internalType": "bool",
          "name": "value",
          "type": "bool"
        }
      ],
      "name": "setPrivilages",
      "outputs": [],
      "stateMutability": "nonpayable",
      "type": "function"
    },
    {
      "inputs": [
        {
          "internalType": "bytes4",
          "name": "interfaceId",
          "type": "bytes4"
        }
      ],
      "name": "supportsInterface",
      "outputs": [
        {
          "internalType": "bool",
          "name": "",
          "type": "bool"
        }
      ],
      "stateMutability": "view",
      "type": "function"
    },
    {
      "inputs": [],
      "name": "symbol",
      "outputs": [
        {
          "internalType": "string",
          "name": "",
          "type": "string"
        }
      ],
      "stateMutability": "view",
      "type": "function"
    },
    {
      "inputs": [
        {
          "internalType": "uint256",
          "name": "_tokenId",
          "type": "uint256"
        }
      ],
      "name": "tokenURI",
      "outputs": [
        {
          "internalType": "string",
          "name": "",
          "type": "string"
        }
      ],
      "stateMutability": "view",
      "type": "function"
    },
    {
      "inputs": [],
      "name": "topup",
      "outputs": [],
      "stateMutability": "payable",
      "type": "function"
    },
    {
      "inputs": [
        {
          "internalType": "address",
          "name": "_from",
          "type": "address"
        },
        {
          "internalType": "address",
          "name": "_to",
          "type": "address"
        },
        {
          "internalType": "uint256",
          "name": "_tokenId",
          "type": "uint256"
        }
      ],
      "name": "transferFrom",
      "outputs": [],
      "stateMutability": "nonpayable",
      "type": "function"
    },
    {
      "inputs": [
        {
          "internalType": "address",
          "name": "addr",
          "type": "address"
        }
      ],
      "name": "transferOwnership",
      "outputs": [],
      "stateMutability": "nonpayable",
      "type": "function"
    },
    {
      "inputs": [
        {
          "internalType": "uint256",
          "name": "tokenId",
          "type": "uint256"
        },
        {
          "internalType": "address",
          "name": "stickersDestination",
          "type": "address"
        }
      ],
      "name": "verifyRegistration",
      "outputs": [
        {
          "internalType": "bool",
          "name": "",
          "type": "bool"
        }
      ],
      "stateMutability": "view",
      "type": "function"
    }
  ],
  "bytecode": "0x60806040523480156200001157600080fd5b506040516200296538038062002965833981016040819052620000349162000231565b8251839083906200004d906005906020850190620000be565b50805162000063906006906020840190620000be565b505060078054336001600160a01b031991821681179092556000918252600960205260408220805460ff19166001179055600891909155600a80549091166001600160a01b03939093169290921790915550620002fb915050565b828054620000cc90620002be565b90600052602060002090601f016020900481019282620000f057600085556200013b565b82601f106200010b57805160ff19168380011785556200013b565b828001600101855582156200013b579182015b828111156200013b5782518255916020019190600101906200011e565b50620001499291506200014d565b5090565b5b808211156200014957600081556001016200014e565b634e487b7160e01b600052604160045260246000fd5b600082601f8301126200018c57600080fd5b81516001600160401b0380821115620001a957620001a962000164565b604051601f8301601f19908116603f01168101908282118183101715620001d457620001d462000164565b81604052838152602092508683858801011115620001f157600080fd5b600091505b83821015620002155785820183015181830184015290820190620001f6565b83821115620002275760008385830101525b9695505050505050565b6000806000606084860312156200024757600080fd5b83516001600160401b03808211156200025f57600080fd5b6200026d878388016200017a565b945060208601519150808211156200028457600080fd5b5062000293868287016200017a565b604086015190935090506001600160a01b0381168114620002b357600080fd5b809150509250925092565b600181811c90821680620002d357607f821691505b60208210811415620002f557634e487b7160e01b600052602260045260246000fd5b50919050565b61265a806200030b6000396000f3fe6080604052600436106101a45760003560e01c806369774c2d116100e857806369774c2d146104c45780636da6cc84146104cc57806370a082311461054d57806395d89b4114610591578063a22cb465146105a6578063a5058ff4146105c6578063b88d4fde146105e6578063c030292214610606578063c1f771fb14610626578063c87b56dd14610646578063d15d415014610666578063d5f3948814610686578063d8b964e6146106a6578063e985e9c5146106d6578063ea68919c146106f6578063f2fde38b14610766578063f4ddb5be14610786578063fe684c0e1461080157600080fd5b806301ffc9a7146101a957806306fdde03146101de578063081812fc14610200578063095ea7b31461022d57806310a8c7a91461024f5780631aa3a0081461026f5780631c6ca0d91461027757806323b872dd146102bd5780632912249a146102dd57806331ed86d21461038657806342842e0e146103a6578063430c2081146103c65780634564a425146103e65780634861ffc4146104065780634f558e79146104265780636111660c146104465780636352211e146104a4575b600080fd5b3480156101b557600080fd5b506101c96101c4366004612060565b610821565b60405190151581526020015b60405180910390f35b3480156101ea57600080fd5b506101f3610873565b6040516101d591906120d5565b34801561020c57600080fd5b5061022061021b3660046120e8565b610905565b6040516101d59190612101565b34801561023957600080fd5b5061024d61024836600461212a565b610920565b005b34801561025b57600080fd5b5061024d61026a36600461219c565b610a75565b61024d610b0c565b34801561028357600080fd5b506101c961029236600461212a565b6001600160a01b03919091166000908152600f60209081526040808320938352929052205442111590565b3480156102c957600080fd5b5061024d6102d836600461224d565b610cc4565b3480156102e957600080fd5b506103446102f83660046120e8565b600c6020526000908152604090208054600182015460028301546003840154600485015460058601546006909601546001600160a01b0395861696959094169492939192909160ff1687565b604080516001600160a01b039889168152979096166020880152948601939093526060850191909152608084015260a0830152151560c082015260e0016101d5565b34801561039257600080fd5b5061024d6103a136600461219c565b610e34565b3480156103b257600080fd5b5061024d6103c136600461224d565b610ec7565b3480156103d257600080fd5b506101c96103e136600461212a565b610ee7565b3480156103f257600080fd5b5061024d61040136600461228e565b610f46565b34801561041257600080fd5b506101c961042136600461228e565b61136a565b34801561043257600080fd5b506101c96104413660046120e8565b6113ae565b34801561045257600080fd5b506104666104613660046122be565b6113cb565b6040516101d5919081516001600160a01b03168152602080830151908201526040808301519082015260609182015115159181019190915260800190565b3480156104b057600080fd5b506102206104bf3660046120e8565b61149f565b61024d611504565b3480156104d857600080fd5b506104ec6104e73660046120e8565b6115c7565b6040516101d5919081516001600160a01b0390811682526020808401519091169082015260408083015190820152606080830151908201526080808301519082015260a0828101519082015260c09182015115159181019190915260e00190565b34801561055957600080fd5b506105836105683660046122be565b6001600160a01b031660009081526004602052604090205490565b6040519081526020016101d5565b34801561059d57600080fd5b506101f36116dd565b3480156105b257600080fd5b5061024d6105c13660046122e9565b6116ec565b3480156105d257600080fd5b506101c96105e1366004612317565b611759565b3480156105f257600080fd5b5061024d610601366004612350565b6117ec565b34801561061257600080fd5b5061024d610621366004612413565b6117fe565b34801561063257600080fd5b506104666106413660046120e8565b611960565b34801561065257600080fd5b506101f36106613660046120e8565b611a1f565b34801561067257600080fd5b506101c96106813660046122be565b611ac1565b34801561069257600080fd5b50600754610220906001600160a01b031681565b3480156106b257600080fd5b506101c96106c13660046122be565b60096020526000908152604090205460ff1681565b3480156106e257600080fd5b506101c96106f136600461243f565b611afa565b34801561070257600080fd5b5061073f6107113660046122be565b600d602052600090815260409020805460018201546002909201546001600160a01b03909116919060ff1683565b604080516001600160a01b03909416845260208401929092521515908201526060016101d5565b34801561077257600080fd5b5061024d6107813660046122be565b611b28565b34801561079257600080fd5b506107d56107a13660046120e8565b600e6020526000908152604090208054600182015460028301546003909301546001600160a01b0390921692909160ff1684565b604080516001600160a01b039095168552602085019390935291830152151560608201526080016101d5565b34801561080d57600080fd5b5061024d61081c3660046122e9565b611bce565b60006001600160e01b031982166380ac58cd60e01b148061085257506001600160e01b03198216635b5e139f60e01b145b8061086d57506301ffc9a760e01b6001600160e01b03198316145b92915050565b6060600580546108829061246d565b80601f01602080910402602001604051908101604052809291908181526020018280546108ae9061246d565b80156108fb5780601f106108d0576101008083540402835291602001916108fb565b820191906000526020600020905b8154815290600101906020018083116108de57829003601f168201915b5050505050905090565b6000908152600260205260409020546001600160a01b031690565b600061092b8261149f565b9050806001600160a01b0316836001600160a01b0316141561098b5760405162461bcd60e51b815260206004820152601460248201527331b0b73737ba1030b8383937bb329037bbb732b960611b60448201526064015b60405180910390fd5b336001600160a01b03821614806109a757506109a78133611afa565b610a195760405162461bcd60e51b815260206004820152603d60248201527f4552433732313a20617070726f76652063616c6c6572206973206e6f7420746f60448201527f6b656e206f776e6572206f7220617070726f76656420666f7220616c6c0000006064820152608401610982565b60008281526002602052604080822080546001600160a01b0319166001600160a01b0387811691821790925591518593918516917f8c5be1e5ebec7d5bd14f71427d1e84f3dd0314c0f7b2291e5b200ac8c7c3b92591a4505050565b6007546001600160a01b03163314610a9f5760405162461bcd60e51b8152600401610982906124a8565b8051610aaa57600080fd5b60005b8151811015610b0857600160096000848481518110610ace57610ace6124ce565b6020908102919091018101516001600160a01b03168252810191909152604001600020805460ff1916911515919091179055600101610aad565b5050565b336000908152600d602052604090206002015460ff1615610b6f5760405162461bcd60e51b815260206004820152601f60248201527f616c7265616479207265676973746572656420746869732061646472657373006044820152606401610982565b6040518060800160405280610b813390565b6001600160a01b039081168252346020808401919091526000604080850182905260016060958601819052601080548452600e808652838520895181549089166001600160a01b03199182161782558a880151828601558a8601516002808401919091559a8a01516003928301805491151560ff199283161790558651808c018852338082528654828c01908152828a01898152828c52600d8d528a8c2093518454908f16961695909517835551828901559251908d0180549115159190921617905592548087529187529484902084519182528054909716958101959095529085015491840191909152948301549382019390935291015460ff16151560808201527fb9bceb9877f630028d6f4b2cc556d03f7335dd240f3004fa8663e4b6a3a37db19060a00160405180910390a2601054610cbf9060016124fa565b601055565b610cce3382610ee7565b610d125760405162461bcd60e51b81526020600482015260156024820152743737ba1030b8383937bb32b21037b91037bbb732b960591b6044820152606401610982565b6001600160a01b038316610d625760405162461bcd60e51b815260206004820152601760248201527673656e64696e6720746f206e756c6c206164647265737360481b6044820152606401610982565b600081815260026020908152604080832080546001600160a01b03191690556001600160a01b038616835260049091528120805460019290610da5908490612512565b90915550506001600160a01b0382166000908152600460205260408120805460019290610dd39084906124fa565b909155505060008181526020819052604080822080546001600160a01b0319166001600160a01b0386811691821790925591518493918716917fddf252ad1be2c89b69c2b068fc378daa952ba7f163c4a11628f55a4df523b3ef91a4505050565b6007546001600160a01b03163314610e5e5760405162461bcd60e51b8152600401610982906124a8565b8051610e6957600080fd5b60005b8151811015610b0857600060096000848481518110610e8d57610e8d6124ce565b6020908102919091018101516001600160a01b03168252810191909152604001600020805460ff1916911515919091179055600101610e6c565b610ee283838360405180602001604052806000815250611ca9565b505050565b600080610ef38361149f565b9050806001600160a01b0316846001600160a01b03161480610f1a5750610f1a8185611afa565b80610f3e5750836001600160a01b0316610f3384610905565b6001600160a01b0316145b949350505050565b6001600160a01b038116610f9a5760405162461bcd60e51b815260206004820152601b60248201527a32b73a32b910309039ba34b1b5b2b9103232b9ba34b730ba34b7b760291b6044820152606401610982565b600a546001600160a01b031663430c2081336040516001600160e01b031960e084901b1681526001600160a01b03909116600482015260248101859052604401602060405180830381865afa158015610ff7573d6000803e3d6000fd5b505050506040513d601f19601f8201168201806040525081019061101b9190612529565b61105e5760405162461bcd60e51b8152602060048201526014602482015273115490cdcc8c4e881b9bdd08185c1c1c9bdd995960621b6044820152606401610982565b80336001600160a01b0316816001600160a01b031663d5f394886040518163ffffffff1660e01b8152600401602060405180830381865afa1580156110a7573d6000803e3d6000fd5b505050506040513d601f19601f820116820180604052508101906110cb9190612546565b6001600160a01b031614806111485750604051630d15d41560e41b81526001600160a01b0382169063d15d415090611107903390600401612101565b602060405180830381865afa158015611124573d6000803e3d6000fd5b505050506040513d601f19601f820116820180604052508101906111489190612529565b6111a35760405162461bcd60e51b815260206004820152602660248201527f6e6f7420617070726f766564207769746820737469636b6572732064657374696044820152653730ba34b7b760d11b6064820152608401610982565b6000838152600c602052604090206006015460ff16156111d55760405162461bcd60e51b815260040161098290612563565b6040518060e001604052806111e73390565b6001600160a01b039081168252848116602080840182905260006040808601829052606080870183905260808088018490524260a0808a0191909152600160c0998a018190528d8652600c87528486208b518154908b166001600160a01b03199182161782558c890151828401805491909c169116179099558a85015160028a0155928a01516003890155908901516004880155880151600587015596909501516006909401805494151560ff19958616179055828152600b9091529290922080549091169092179091556112b93390565b6001600160a01b03167f6125b52adf904cc789c7c3db7eddebfd0bf59d89a94eec8f3ea19607c3a2109f85600c600088815260200190815260200160002060405161135d92919091825280546001600160a01b03908116602084015260018201541660408301526002810154606083015260038101546080830152600481015460a0830152600581015460c08301526006015460ff16151560e08201526101000190565b60405180910390a3505050565b6000828152600c602052604081206006015460ff1680156113a757506000838152600c60205260409020600101546001600160a01b038381169116145b9392505050565b6000908152602081905260409020546001600160a01b0316151590565b6113d3612014565b6001600160a01b0382166000908152600d602052604090206002015460ff1661143e5760405162461bcd60e51b815260206004820181905260248201527f696e76616c696420726567697374726174696f6e20666f7220616464726573736044820152606401610982565b506001600160a01b039081166000908152600d602090815260408083206001908101548452600e83529281902081516080810183528154909516855292830154918401919091526002820154908301526003015460ff161515606082015290565b60006114aa826113ae565b6114e85760405162461bcd60e51b815260206004820152600f60248201526e1a5b9d985b1a59081d1bdad95b9259608a1b6044820152606401610982565b506000908152602081905260409020546001600160a01b031690565b336000908152600d602052604090206002015460ff166115725760405162461bcd60e51b815260206004820152602360248201527f616c7265616479207265677369746572656420666f722074686973206164647260448201526265737360e81b6064820152608401610982565b336000908152600d602090815260408083206001908101548452600e90925290912001546115a19034906124fa565b336000908152600d602090815260408083206001908101548452600e9092529091200155565b61161b6040518060e0016040528060006001600160a01b0316815260200160006001600160a01b03168152602001600081526020016000815260200160008152602001600081526020016000151581525090565b506000818152600c6020908152604091829020825160e08101845281546001600160a01b039081168252600183015416928101929092526002810154928201929092526003820154606082015260048201546080820152600582015460a082015260069091015460ff16151560c082018190526116d85760405162461bcd60e51b815260206004820152601b60248201527a34b73b30b634b21039ba34b1b5b2b9103232b9ba34b730ba34b7b760291b6044820152606401610982565b919050565b6060600680546108829061246d565b3360008181526003602090815260408083206001600160a01b03871680855290835292819020805460ff191686151590811790915590519081529192917f17307eab39ab6107e8899845ad3d59bd9653f200f220920489ca2b5937696c3191015b60405180910390a35050565b6001600160a01b0381166000908152600d602052604081206002015460ff166117b45760405162461bcd60e51b815260206004820152600d60248201526c34b73b30b634b21037bbb732b960991b6044820152606401610982565b6117be838561258f565b336000908152600d602090815260408083206001908101548452600e90925290912001541015949350505050565b6117f884848484611ca9565b50505050565b6000838152600c602052604090206006015460ff1661185e5760405162461bcd60e51b815260206004820152601c60248201527b1b9bc81c9959da5cdd1c9e48199bdc881d1a1a5cc81d1bdad95b925960221b6044820152606401610982565b428111156118b85760405162461bcd60e51b815260206004820152602160248201527f656e64206973207a65726f206f7220612074696d6520696e20746865207061736044820152601d60fa1b6064820152608401610982565b6000838152600c60205260409020600101546001600160a01b03166118dc81611d19565b6118e557600080fd5b6118ef8184611e32565b6118f857600080fd5b6001600160a01b0381166000908152600f602090815260408083208684529091529020546119385760405162461bcd60e51b815260040161098290612563565b6001600160a01b03166000908152600f60209081526040808320948352939052919091205550565b611968612014565b6010546000908152600e602052604090206003015460ff166119cc5760405162461bcd60e51b815260206004820152601f60248201527f696e76616c696420726567697374726174696f6e2061742074686973206964006044820152606401610982565b506000908152600e6020908152604091829020825160808101845281546001600160a01b0316815260018201549281019290925260028101549282019290925260039091015460ff161515606082015290565b6000818152600160205260409020805460609190611a3c9061246d565b80601f0160208091040260200160405190810160405280929190818152602001828054611a689061246d565b8015611ab55780601f10611a8a57610100808354040283529160200191611ab5565b820191906000526020600020905b815481529060010190602001808311611a9857829003601f168201915b50505050509050919050565b6007546000906001600160a01b038381169116148061086d5750506001600160a01b031660009081526009602052604090205460ff1690565b6001600160a01b03918216600090815260036020908152604080832093909416825291909152205460ff1690565b6007546001600160a01b03163314611b525760405162461bcd60e51b8152600401610982906124a8565b600780546001600160a01b03908116600090815260096020526040808220805460ff1990811690915584546001600160a01b03191693861693841790945582825280822080549094166001179093559151909133917f93091b3f3cd424efabc74e181f3799f3476ed758412561ed3b29515c51f567529190a350565b6007546001600160a01b03163314611bf85760405162461bcd60e51b8152600401610982906124a8565b6007546001600160a01b0383811691161415611c4f5760405162461bcd60e51b815260206004820152601660248201527531b0b73737ba1036b7b234b33c903232b83637bcb2b960511b6044820152606401610982565b6001600160a01b038216600081815260096020908152604091829020805460ff1916851515908117909155915191825233917ff38de818d000d07d091732dd783c6855722d7bc1934d92b7635133289d341695910161174d565b611cb4848484610cc4565b611cc13385858585611ed2565b6117f85760405162461bcd60e51b815260206004820152602360248201527f45524337323120526563656976657220436f6e6669726d6174696f6e2049732060448201526210985960ea1b6064820152608401610982565b600080806001600160a01b03841633604051602401611d389190612101565b60408051601f198184030181529181526020820180516001600160e01b0316630d15d41560e41b17905251611d6d91906125ae565b600060405180830381855afa9150503d8060008114611da8576040519150601f19603f3d011682016040523d82523d6000602084013e611dad565b606091505b509150915081611e0e578051611e055760405162461bcd60e51b815260206004820152601d60248201527f697320617070726f766564206f72206f776e65722072657665727465640000006044820152606401610982565b80518082602001fd5b600081806020019051810190611e249190612529565b151560011495945050505050565b600080836001600160a01b031683604051602401611e5291815260200190565b60408051601f198184030181529181526020820180516001600160e01b031663feb6ce6960e01b17905251611e8791906125ae565b600060405180830381855afa9150503d8060008114611ec2576040519150601f19603f3d011682016040523d82523d6000602084013e611ec7565b606091505b509095945050505050565b6000833b611ee25750600161200b565b604051630a85bd0160e11b81526001600160a01b0385169063150b7a0290611f149089908990889088906004016125ca565b6020604051808303816000875af1925050508015611f4f575060408051601f3d908101601f19168201909252611f4c91810190612607565b60015b611ff5573d808015611f7d576040519150601f19603f3d011682016040523d82523d6000602084013e611f82565b606091505b508051611fed5760405162461bcd60e51b815260206004820152603360248201527f5468697320636f6e747261637420646f6573206e6f7420696d706c656d656e746044820152721030b71024a2a9219b9918a932b1b2b4bb32b960691b6064820152608401610982565b805181602001fd5b6001600160e01b031916630a85bd0160e11b1490505b95945050505050565b604051806080016040528060006001600160a01b0316815260200160008152602001600081526020016000151581525090565b6001600160e01b03198116811461205d57600080fd5b50565b60006020828403121561207257600080fd5b81356113a781612047565b60005b83811015612098578181015183820152602001612080565b838111156117f85750506000910152565b600081518084526120c181602086016020860161207d565b601f01601f19169290920160200192915050565b6020815260006113a760208301846120a9565b6000602082840312156120fa57600080fd5b5035919050565b6001600160a01b0391909116815260200190565b6001600160a01b038116811461205d57600080fd5b6000806040838503121561213d57600080fd5b823561214881612115565b946020939093013593505050565b634e487b7160e01b600052604160045260246000fd5b604051601f8201601f191681016001600160401b038111828210171561219457612194612156565b604052919050565b600060208083850312156121af57600080fd5b82356001600160401b03808211156121c657600080fd5b818501915085601f8301126121da57600080fd5b8135818111156121ec576121ec612156565b8060051b91506121fd84830161216c565b818152918301840191848101908884111561221757600080fd5b938501935b83851015612241578435925061223183612115565b828252938501939085019061221c565b98975050505050505050565b60008060006060848603121561226257600080fd5b833561226d81612115565b9250602084013561227d81612115565b929592945050506040919091013590565b600080604083850312156122a157600080fd5b8235915060208301356122b381612115565b809150509250929050565b6000602082840312156122d057600080fd5b81356113a781612115565b801515811461205d57600080fd5b600080604083850312156122fc57600080fd5b823561230781612115565b915060208301356122b3816122db565b60008060006060848603121561232c57600080fd5b8335925060208401359150604084013561234581612115565b809150509250925092565b6000806000806080858703121561236657600080fd5b843561237181612115565b935060208581013561238281612115565b93506040860135925060608601356001600160401b03808211156123a557600080fd5b818801915088601f8301126123b957600080fd5b8135818111156123cb576123cb612156565b6123dd601f8201601f1916850161216c565b915080825289848285010111156123f357600080fd5b808484018584013760008482840101525080935050505092959194509250565b60008060006060848603121561242857600080fd5b505081359360208301359350604090920135919050565b6000806040838503121561245257600080fd5b823561245d81612115565b915060208301356122b381612115565b600181811c9082168061248157607f821691505b602082108114156124a257634e487b7160e01b600052602260045260246000fd5b50919050565b6020808252600c908201526b3737ba103232b83637bcb2b960a11b604082015260600190565b634e487b7160e01b600052603260045260246000fd5b634e487b7160e01b600052601160045260246000fd5b6000821982111561250d5761250d6124e4565b500190565b600082821015612524576125246124e4565b500390565b60006020828403121561253b57600080fd5b81516113a7816122db565b60006020828403121561255857600080fd5b81516113a781612115565b602080825260129082015271185b1c9958591e481c9959da5cdd195c995960721b604082015260600190565b60008160001904831182151516156125a9576125a96124e4565b500290565b600082516125c081846020870161207d565b9190910192915050565b6001600160a01b03858116825284166020820152604081018390526080606082018190526000906125fd908301846120a9565b9695505050505050565b60006020828403121561261957600080fd5b81516113a78161204756fea26469706673582212205e330c76817c8c05694c694252fa44ddf2239d3ad5e4af8bc2869ce6dcf81a6064736f6c634300080c0033",
  "linkReferences": {},
  "deployedLinkReferences": {}
}