{
  "_format": "hh-sol-artifact-1",
  "contractName": "Wallet",
  "sourceName": "alpha/links/Wallet.sol",
  "abi": [
    {
      "anonymous": false,
      "inputs": [
        {
          "indexed": true,
          "internalType": "address",
          "name": "sender",
          "type": "address"
        },
        {
          "indexed": false,
          "internalType": "uint256",
          "name": "amount",
          "type": "uint256"
        },
        {
          "indexed": false,
          "internalType": "uint256",
          "name": "newTotal",
          "type": "uint256"
        }
      ],
      "name": "Deposit",
      "type": "event"
    },
    {
      "anonymous": false,
      "inputs": [
        {
          "indexed": true,
          "internalType": "address",
          "name": "sender",
          "type": "address"
        },
        {
          "indexed": true,
          "internalType": "address",
          "name": "changee",
          "type": "address"
        },
        {
          "indexed": false,
          "internalType": "bool",
          "name": "value",
          "type": "bool"
        }
      ],
      "name": "PermissionChange",
      "type": "event"
    },
    {
      "anonymous": false,
      "inputs": [
        {
          "indexed": true,
          "internalType": "address",
          "name": "sender",
          "type": "address"
        },
        {
          "indexed": false,
          "internalType": "uint256",
          "name": "amount",
          "type": "uint256"
        },
        {
          "indexed": false,
          "internalType": "uint256",
          "name": "newTotal",
          "type": "uint256"
        }
      ],
      "name": "Transfer",
      "type": "event"
    },
    {
      "anonymous": false,
      "inputs": [
        {
          "indexed": true,
          "internalType": "address",
          "name": "from",
          "type": "address"
        },
        {
          "indexed": true,
          "internalType": "address",
          "name": "to",
          "type": "address"
        }
      ],
      "name": "TransferedOwnership",
      "type": "event"
    },
    {
      "anonymous": false,
      "inputs": [
        {
          "indexed": true,
          "internalType": "address",
          "name": "sender",
          "type": "address"
        },
        {
          "indexed": false,
          "internalType": "uint256",
          "name": "amount",
          "type": "uint256"
        },
        {
          "indexed": false,
          "internalType": "uint256",
          "name": "newTotal",
          "type": "uint256"
        }
      ],
      "name": "Withdraw",
      "type": "event"
    },
    {
      "inputs": [
        {
          "internalType": "address",
          "name": "",
          "type": "address"
        }
      ],
      "name": "approved",
      "outputs": [
        {
          "internalType": "bool",
          "name": "",
          "type": "bool"
        }
      ],
      "stateMutability": "view",
      "type": "function"
    },
    {
      "inputs": [],
      "name": "availableBalance",
      "outputs": [
        {
          "internalType": "uint256",
          "name": "",
          "type": "uint256"
        }
      ],
      "stateMutability": "view",
      "type": "function"
    },
    {
      "inputs": [
        {
          "internalType": "address",
          "name": "to",
          "type": "address"
        },
        {
          "internalType": "bytes",
          "name": "data",
          "type": "bytes"
        }
      ],
      "name": "call",
      "outputs": [
        {
          "internalType": "bool",
          "name": "",
          "type": "bool"
        },
        {
          "internalType": "bytes",
          "name": "",
          "type": "bytes"
        }
      ],
      "stateMutability": "nonpayable",
      "type": "function"
    },
    {
      "inputs": [
        {
          "internalType": "address",
          "name": "to",
          "type": "address"
        },
        {
          "internalType": "uint256",
          "name": "value",
          "type": "uint256"
        },
        {
          "internalType": "bytes",
          "name": "data",
          "type": "bytes"
        }
      ],
      "name": "call",
      "outputs": [
        {
          "internalType": "bool",
          "name": "",
          "type": "bool"
        },
        {
          "internalType": "bytes",
          "name": "",
          "type": "bytes"
        }
      ],
      "stateMutability": "nonpayable",
      "type": "function"
    },
    {
      "inputs": [
        {
          "internalType": "address",
          "name": "to",
          "type": "address"
        },
        {
          "internalType": "bytes",
          "name": "data",
          "type": "bytes"
        }
      ],
      "name": "delegateCall",
      "outputs": [
        {
          "internalType": "bool",
          "name": "",
          "type": "bool"
        },
        {
          "internalType": "bytes",
          "name": "",
          "type": "bytes"
        }
      ],
      "stateMutability": "nonpayable",
      "type": "function"
    },
    {
      "inputs": [],
      "name": "deployer",
      "outputs": [
        {
          "internalType": "address",
          "name": "",
          "type": "address"
        }
      ],
      "stateMutability": "view",
      "type": "function"
    },
    {
      "inputs": [],
      "name": "deposit",
      "outputs": [],
      "stateMutability": "payable",
      "type": "function"
    },
    {
      "inputs": [],
      "name": "empty",
      "outputs": [],
      "stateMutability": "nonpayable",
      "type": "function"
    },
    {
      "inputs": [
        {
          "internalType": "address",
          "name": "addr",
          "type": "address"
        }
      ],
      "name": "isAuthenticated",
      "outputs": [
        {
          "internalType": "bool",
          "name": "",
          "type": "bool"
        }
      ],
      "stateMutability": "view",
      "type": "function"
    },
    {
      "inputs": [
        {
          "internalType": "address[]",
          "name": "addrs",
          "type": "address[]"
        }
      ],
      "name": "multiApprove",
      "outputs": [],
      "stateMutability": "nonpayable",
      "type": "function"
    },
    {
      "inputs": [
        {
          "internalType": "address[]",
          "name": "addrs",
          "type": "address[]"
        }
      ],
      "name": "multiRevoke",
      "outputs": [],
      "stateMutability": "nonpayable",
      "type": "function"
    },
    {
      "inputs": [
        {
          "internalType": "address",
          "name": "",
          "type": "address"
        },
        {
          "internalType": "address",
          "name": "",
          "type": "address"
        },
        {
          "internalType": "uint256",
          "name": "",
          "type": "uint256"
        },
        {
          "internalType": "bytes",
          "name": "",
          "type": "bytes"
        }
      ],
      "name": "onERC721Received",
      "outputs": [
        {
          "internalType": "bytes4",
          "name": "",
          "type": "bytes4"
        }
      ],
      "stateMutability": "pure",
      "type": "function"
    },
    {
      "inputs": [
        {
          "internalType": "address payable",
          "name": "to",
          "type": "address"
        },
        {
          "internalType": "uint256",
          "name": "amount",
          "type": "uint256"
        }
      ],
      "name": "send",
      "outputs": [],
      "stateMutability": "nonpayable",
      "type": "function"
    },
    {
      "inputs": [
        {
          "internalType": "address",
          "name": "addr",
          "type": "address"
        },
        {
          "internalType": "bool",
          "name": "value",
          "type": "bool"
        }
      ],
      "name": "setPrivilages",
      "outputs": [],
      "stateMutability": "nonpayable",
      "type": "function"
    },
    {
      "inputs": [
        {
          "internalType": "address",
          "name": "to",
          "type": "address"
        },
        {
          "internalType": "bytes",
          "name": "data",
          "type": "bytes"
        }
      ],
      "name": "staticCall",
      "outputs": [
        {
          "internalType": "bool",
          "name": "",
          "type": "bool"
        },
        {
          "internalType": "bytes",
          "name": "",
          "type": "bytes"
        }
      ],
      "stateMutability": "view",
      "type": "function"
    },
    {
      "inputs": [
        {
          "internalType": "address",
          "name": "erc721Destination",
          "type": "address"
        },
        {
          "internalType": "address",
          "name": "to",
          "type": "address"
        },
        {
          "internalType": "uint256",
          "name": "tokenId",
          "type": "uint256"
        }
      ],
      "name": "transfer",
      "outputs": [],
      "stateMutability": "nonpayable",
      "type": "function"
    },
    {
      "inputs": [
        {
          "internalType": "address",
          "name": "addr",
          "type": "address"
        }
      ],
      "name": "transferOwnership",
      "outputs": [],
      "stateMutability": "nonpayable",
      "type": "function"
    },
    {
      "inputs": [
        {
          "internalType": "uint256",
          "name": "amount",
          "type": "uint256"
        }
      ],
      "name": "withdraw",
      "outputs": [],
      "stateMutability": "nonpayable",
      "type": "function"
    },
    {
      "stateMutability": "payable",
      "type": "receive"
    }
  ],
  "bytecode": "0x608060405234801561001057600080fd5b50600080546001600160a01b0319163390811782558152600260205260408120805460ff19166001908117909155556115ee8061004e6000396000f3fe6080604052600436106100dd5760003560e01c806310a8c7a91461013f578063150b7a02146101615780631b8b921d146101ab5780632e1a7d4d146101d957806331ed86d2146101f957806356e7b7aa146102195780636a221657146102395780636dbf2fa014610259578063ab2f0e5114610279578063beabacc814610297578063d0679d34146102b7578063d0e30db0146102d7578063d15d4150146102df578063d5f394881461030f578063d8b964e614610347578063f2a75fe414610377578063f2fde38b1461038c578063fe684c0e146103ac57600080fd5b3661013a5734600360008282546100f491906110d9565b9091555050600354604080513481526020810192909252805133927f90890809c654f11d6e72a28fa60149770a0d11ec6c92319d6ceb2bb0a4ea1a1592908290030190a2005b600080fd5b34801561014b57600080fd5b5061015f61015a36600461112c565b6103cc565b005b34801561016d57600080fd5b5061018d61017c366004611238565b630a85bd0160e11b95945050505050565b6040516001600160e01b031990911681526020015b60405180910390f35b3480156101b757600080fd5b506101cb6101c63660046112aa565b61046c565b6040516101a29291906112fe565b3480156101e557600080fd5b5061015f6101f436600461135d565b61061b565b34801561020557600080fd5b5061015f61021436600461112c565b610788565b34801561022557600080fd5b506101cb6102343660046112aa565b61081b565b34801561024557600080fd5b506101cb6102543660046112aa565b6108e4565b34801561026557600080fd5b506101cb610274366004611376565b610993565b34801561028557600080fd5b506003546040519081526020016101a2565b3480156102a357600080fd5b5061015f6102b23660046113d1565b610b43565b3480156102c357600080fd5b5061015f6102d2366004611412565b610c30565b61015f610d8e565b3480156102eb57600080fd5b506102ff6102fa36600461143e565b610de6565b60405190151581526020016101a2565b34801561031b57600080fd5b5060005461032f906001600160a01b031681565b6040516001600160a01b0390911681526020016101a2565b34801561035357600080fd5b506102ff61036236600461143e565b60026020526000908152604090205460ff1681565b34801561038357600080fd5b5061015f610e21565b34801561039857600080fd5b5061015f6103a736600461143e565b610f41565b3480156103b857600080fd5b5061015f6103c7366004611462565b610fe1565b6000546001600160a01b031633146103ff5760405162461bcd60e51b81526004016103f6906114a0565b60405180910390fd5b805161040a57600080fd5b60005b81518110156104685760016002600084848151811061042e5761042e6114c6565b6020908102919091018101516001600160a01b03168252810191909152604001600020805460ff191691151591909117905560010161040d565b5050565b600080546060906001600160a01b031633148061049857503360009081526002602052604090205460ff165b6104b45760405162461bcd60e51b81526004016103f6906114dc565b60018060008282546104c691906110d9565b909155505060015460005a905060006104df823a611502565b90508060035410156105035760405162461bcd60e51b81526004016103f690611521565b6000806001600160a01b038a16348a8a60405161052192919061156f565b60006040518083038185875af1925050503d806000811461055e576040519150601f19603f3d011682016040523d82523d6000602084013e610563565b606091505b50915091505a610573908561157f565b61057d903a611502565b604051909350339084156108fc029085906000818181858888f193505050501580156105ad573d6000803e3d6000fd5b506000836003546105be919061157f565b11156105e15782600360008282546105d6919061157f565b9250508190556105e9565b600060038190555b509095509350505060015481146106125760405162461bcd60e51b81526004016103f690611596565b50935093915050565b6000546001600160a01b031633148061064357503360009081526002602052604090205460ff165b61065f5760405162461bcd60e51b81526004016103f6906114dc565b600180600082825461067191906110d9565b90915550506001546003548211156106be5760405162461bcd60e51b815260206004820152601060248201526f4e6f7420656e6f7567682066756e647360801b60448201526064016103f6565b604051339083156108fc029084906000818181858888f193505050501580156106eb573d6000803e3d6000fd5b506000826003546106fc919061157f565b111561071f578160036000828254610714919061157f565b925050819055610727565b600060038190555b5060035460408051848152602081019290925233917ff279e6a1f5e320cca91135676d9cb6e44ca8a08c0b88342bcdb1144f6511b568910160405180910390a260015481146104685760405162461bcd60e51b81526004016103f690611596565b6000546001600160a01b031633146107b25760405162461bcd60e51b81526004016103f6906114a0565b80516107bd57600080fd5b60005b8151811015610468576000600260008484815181106107e1576107e16114c6565b6020908102919091018101516001600160a01b03168252810191909152604001600020805460ff19169115159190911790556001016107c0565b600080546060906001600160a01b031633146108495760405162461bcd60e51b81526004016103f6906114a0565b600180600082825461085b91906110d9565b90915550506001546040516001600160a01b0387169061087e908790879061156f565b600060405180830381855af49150503d80600081146108b9576040519150601f19603f3d011682016040523d82523d6000602084013e6108be565b606091505b509250925060015481146106125760405162461bcd60e51b81526004016103f690611596565b600080546060906001600160a01b031633148061091057503360009081526002602052604090205460ff165b61092c5760405162461bcd60e51b81526004016103f6906114dc565b846001600160a01b0316848460405161094692919061156f565b600060405180830381855afa9150503d8060008114610981576040519150601f19603f3d011682016040523d82523d6000602084013e610986565b606091505b5091509150935093915050565b600080546060906001600160a01b03163314806109bf57503360009081526002602052604090205460ff165b6109db5760405162461bcd60e51b81526004016103f6906114dc565b60018060008282546109ed91906110d9565b909155505060015460005a90506000610a06823a611502565b9050806003541015610a2a5760405162461bcd60e51b81526004016103f690611521565b6000808a6001600160a01b03168a8a8a604051610a4892919061156f565b60006040518083038185875af1925050503d8060008114610a85576040519150601f19603f3d011682016040523d82523d6000602084013e610a8a565b606091505b50915091505a610a9a908561157f565b610aa4903a611502565b604051909350339084156108fc029085906000818181858888f19350505050158015610ad4573d6000803e3d6000fd5b50600083600354610ae5919061157f565b1115610b08578260036000828254610afd919061157f565b925050819055610b10565b600060038190555b50909550935050506001548114610b395760405162461bcd60e51b81526004016103f690611596565b5094509492505050565b6000546001600160a01b0316331480610b6b57503360009081526002602052604090205460ff165b610b875760405162461bcd60e51b81526004016103f6906114dc565b6001806000828254610b9991906110d9565b9091555050600154604051632142170760e11b81523060048201526001600160a01b038481166024830152604482018490528516906342842e0e90606401600060405180830381600087803b158015610bf157600080fd5b505af1158015610c05573d6000803e3d6000fd5b505050506001548114610c2a5760405162461bcd60e51b81526004016103f690611596565b50505050565b6000546001600160a01b0316331480610c5857503360009081526002602052604090205460ff165b610c745760405162461bcd60e51b81526004016103f6906114dc565b6001806000828254610c8691906110d9565b9091555050600154600354821115610cdb5760405162461bcd60e51b8152602060048201526018602482015277139bdd08195b9bdd59da08199d5b991cc81d1bc81cd95b9960421b60448201526064016103f6565b8160036000828254610ced919061157f565b90915550506040516001600160a01b0384169083156108fc029084906000818181858888f19350505050158015610d28573d6000803e3d6000fd5b5060035460408051848152602081019290925233917f7fa9aafeb8bb803d77de5d84bc2f2edbd842ca91b20cd5020aa21dfe26ab0be9910160405180910390a26001548114610d895760405162461bcd60e51b81526004016103f690611596565b505050565b3460036000828254610da091906110d9565b9091555050600354604080513481526020810192909252805133927f90890809c654f11d6e72a28fa60149770a0d11ec6c92319d6ceb2bb0a4ea1a1592908290030190a2565b600080546001600160a01b0383811691161480610e1b57506001600160a01b03821660009081526002602052604090205460ff165b92915050565b6000546001600160a01b03163314610e4b5760405162461bcd60e51b81526004016103f6906114a0565b6001806000828254610e5d91906110d9565b9091555050600154600354610eab5760405162461bcd60e51b81526020600482015260146024820152734e6f2066756e647320746f20776974686472617760601b60448201526064016103f6565b600354604051339180156108fc02916000818181858888f19350505050158015610ed9573d6000803e3d6000fd5b50600354604080519182526000602083015233917ff279e6a1f5e320cca91135676d9cb6e44ca8a08c0b88342bcdb1144f6511b568910160405180910390a260006003556001548114610f3e5760405162461bcd60e51b81526004016103f690611596565b50565b6000546001600160a01b03163314610f6b5760405162461bcd60e51b81526004016103f6906114a0565b600080546001600160a01b03908116825260026020526040808320805460ff1990811690915583546001600160a01b03191692851692831784558284528184208054909116600117905551909133917f93091b3f3cd424efabc74e181f3799f3476ed758412561ed3b29515c51f567529190a350565b6000546001600160a01b0316331461100b5760405162461bcd60e51b81526004016103f6906114a0565b6000546001600160a01b03838116911614156110625760405162461bcd60e51b815260206004820152601660248201527531b0b73737ba1036b7b234b33c903232b83637bcb2b960511b60448201526064016103f6565b6001600160a01b038216600081815260026020908152604091829020805460ff1916851515908117909155915191825233917ff38de818d000d07d091732dd783c6855722d7bc1934d92b7635133289d341695910160405180910390a35050565b634e487b7160e01b600052601160045260246000fd5b600082198211156110ec576110ec6110c3565b500190565b634e487b7160e01b600052604160045260246000fd5b6001600160a01b0381168114610f3e57600080fd5b803561112781611107565b919050565b6000602080838503121561113f57600080fd5b82356001600160401b038082111561115657600080fd5b818501915085601f83011261116a57600080fd5b81358181111561117c5761117c6110f1565b8060051b604051601f19603f830116810181811085821117156111a1576111a16110f1565b6040529182528482019250838101850191888311156111bf57600080fd5b938501935b828510156111e4576111d58561111c565b845293850193928501926111c4565b98975050505050505050565b60008083601f84011261120257600080fd5b5081356001600160401b0381111561121957600080fd5b60208301915083602082850101111561123157600080fd5b9250929050565b60008060008060006080868803121561125057600080fd5b853561125b81611107565b9450602086013561126b81611107565b93506040860135925060608601356001600160401b0381111561128d57600080fd5b611299888289016111f0565b969995985093965092949392505050565b6000806000604084860312156112bf57600080fd5b83356112ca81611107565b925060208401356001600160401b038111156112e557600080fd5b6112f1868287016111f0565b9497909650939450505050565b821515815260006020604081840152835180604085015260005b8181101561133457858101830151858201606001528201611318565b81811115611346576000606083870101525b50601f01601f191692909201606001949350505050565b60006020828403121561136f57600080fd5b5035919050565b6000806000806060858703121561138c57600080fd5b843561139781611107565b93506020850135925060408501356001600160401b038111156113b957600080fd5b6113c5878288016111f0565b95989497509550505050565b6000806000606084860312156113e657600080fd5b83356113f181611107565b9250602084013561140181611107565b929592945050506040919091013590565b6000806040838503121561142557600080fd5b823561143081611107565b946020939093013593505050565b60006020828403121561145057600080fd5b813561145b81611107565b9392505050565b6000806040838503121561147557600080fd5b823561148081611107565b91506020830135801515811461149557600080fd5b809150509250929050565b6020808252600c908201526b3737ba103232b83637bcb2b960a11b604082015260600190565b634e487b7160e01b600052603260045260246000fd5b6020808252600c908201526b1b9bdd08185c1c1c9bdd995960a21b604082015260600190565b600081600019048311821515161561151c5761151c6110c3565b500290565b6020808252602e908201527f4e6f7420656e6f7567682066756e647320746f20636f7665722074686520636f60408201526d1cdd081bd9881d1a194818d85b1b60921b606082015260800190565b8183823760009101908152919050565b600082821015611591576115916110c3565b500390565b60208082526008908201526772652d656e74727960c01b60408201526060019056fea2646970667358221220fa7ed591fe59935ff0768a5ccce6566325b07c9975221c3f515401b569f49b4b64736f6c634300080c0033",
  "linkReferences": {},
  "deployedLinkReferences": {}
}