{
  "_format": "hh-sol-artifact-1",
  "contractName": "RarityAny",
  "sourceName": "alpha/core/assets/RarityAny.sol",
  "abi": [
    {
      "inputs": [
        {
          "internalType": "string",
          "name": "_tokenName",
          "type": "string"
        },
        {
          "internalType": "address",
          "name": "valuesContract",
          "type": "address"
        }
      ],
      "stateMutability": "nonpayable",
      "type": "constructor"
    },
    {
      "anonymous": false,
      "inputs": [
        {
          "indexed": true,
          "internalType": "address",
          "name": "sender",
          "type": "address"
        },
        {
          "indexed": true,
          "internalType": "address",
          "name": "changee",
          "type": "address"
        },
        {
          "indexed": false,
          "internalType": "bool",
          "name": "value",
          "type": "bool"
        }
      ],
      "name": "PermissionChange",
      "type": "event"
    },
    {
      "anonymous": false,
      "inputs": [
        {
          "indexed": true,
          "internalType": "address",
          "name": "from",
          "type": "address"
        },
        {
          "indexed": true,
          "internalType": "address",
          "name": "to",
          "type": "address"
        }
      ],
      "name": "TransferedOwnership",
      "type": "event"
    },
    {
      "inputs": [
        {
          "internalType": "uint256",
          "name": "rarity",
          "type": "uint256"
        }
      ],
      "name": "addAsset",
      "outputs": [],
      "stateMutability": "nonpayable",
      "type": "function"
    },
    {
      "inputs": [
        {
          "internalType": "uint256[]",
          "name": "rarities",
          "type": "uint256[]"
        }
      ],
      "name": "addAssets",
      "outputs": [],
      "stateMutability": "nonpayable",
      "type": "function"
    },
    {
      "inputs": [
        {
          "internalType": "string",
          "name": "name",
          "type": "string"
        }
      ],
      "name": "addName",
      "outputs": [],
      "stateMutability": "nonpayable",
      "type": "function"
    },
    {
      "inputs": [
        {
          "internalType": "address",
          "name": "",
          "type": "address"
        }
      ],
      "name": "approved",
      "outputs": [
        {
          "internalType": "bool",
          "name": "",
          "type": "bool"
        }
      ],
      "stateMutability": "view",
      "type": "function"
    },
    {
      "inputs": [],
      "name": "assetsType",
      "outputs": [
        {
          "internalType": "string",
          "name": "",
          "type": "string"
        }
      ],
      "stateMutability": "view",
      "type": "function"
    },
    {
      "inputs": [
        {
          "internalType": "string[]",
          "name": "newNames",
          "type": "string[]"
        }
      ],
      "name": "combineNames",
      "outputs": [],
      "stateMutability": "nonpayable",
      "type": "function"
    },
    {
      "inputs": [],
      "name": "deployer",
      "outputs": [
        {
          "internalType": "address",
          "name": "",
          "type": "address"
        }
      ],
      "stateMutability": "view",
      "type": "function"
    },
    {
      "inputs": [
        {
          "internalType": "uint32[]",
          "name": "pathIds",
          "type": "uint32[]"
        }
      ],
      "name": "flatPathSections",
      "outputs": [],
      "stateMutability": "nonpayable",
      "type": "function"
    },
    {
      "inputs": [
        {
          "internalType": "uint32",
          "name": "pathId",
          "type": "uint32"
        },
        {
          "internalType": "contract RandomNumber",
          "name": "randomNumberController",
          "type": "address"
        }
      ],
      "name": "getColours",
      "outputs": [
        {
          "internalType": "uint32[]",
          "name": "result",
          "type": "uint32[]"
        }
      ],
      "stateMutability": "nonpayable",
      "type": "function"
    },
    {
      "inputs": [
        {
          "internalType": "uint32",
          "name": "",
          "type": "uint32"
        },
        {
          "internalType": "uint32",
          "name": "",
          "type": "uint32"
        },
        {
          "internalType": "contract RandomNumber",
          "name": "",
          "type": "address"
        }
      ],
      "name": "getMintData",
      "outputs": [
        {
          "internalType": "bytes",
          "name": "",
          "type": "bytes"
        }
      ],
      "stateMutability": "nonpayable",
      "type": "function"
    },
    {
      "inputs": [
        {
          "internalType": "uint256",
          "name": "nameCount",
          "type": "uint256"
        },
        {
          "internalType": "contract RandomNumber",
          "name": "randomNumberController",
          "type": "address"
        }
      ],
      "name": "getNames",
      "outputs": [
        {
          "internalType": "string[]",
          "name": "results",
          "type": "string[]"
        }
      ],
      "stateMutability": "nonpayable",
      "type": "function"
    },
    {
      "inputs": [],
      "name": "getNextPath",
      "outputs": [
        {
          "internalType": "uint32",
          "name": "",
          "type": "uint32"
        }
      ],
      "stateMutability": "view",
      "type": "function"
    },
    {
      "inputs": [
        {
          "internalType": "contract RandomNumber",
          "name": "randomNumberController",
          "type": "address"
        }
      ],
      "name": "getNextPathId",
      "outputs": [
        {
          "internalType": "uint32",
          "name": "",
          "type": "uint32"
        }
      ],
      "stateMutability": "nonpayable",
      "type": "function"
    },
    {
      "inputs": [
        {
          "internalType": "uint256",
          "name": "pathId",
          "type": "uint256"
        }
      ],
      "name": "getPathSections",
      "outputs": [
        {
          "internalType": "uint256[]",
          "name": "",
          "type": "uint256[]"
        }
      ],
      "stateMutability": "view",
      "type": "function"
    },
    {
      "inputs": [
        {
          "internalType": "uint32",
          "name": "pathId",
          "type": "uint32"
        }
      ],
      "name": "getPathSize",
      "outputs": [
        {
          "internalType": "uint32",
          "name": "",
          "type": "uint32"
        }
      ],
      "stateMutability": "view",
      "type": "function"
    },
    {
      "inputs": [
        {
          "internalType": "uint32",
          "name": "pathId",
          "type": "uint32"
        },
        {
          "internalType": "contract RandomNumber",
          "name": "randomNumberController",
          "type": "address"
        }
      ],
      "name": "getRandomAsset",
      "outputs": [
        {
          "internalType": "uint32[]",
          "name": "assetsId",
          "type": "uint32[]"
        }
      ],
      "stateMutability": "view",
      "type": "function"
    },
    {
      "inputs": [
        {
          "internalType": "uint256",
          "name": "sectionId",
          "type": "uint256"
        }
      ],
      "name": "getSectionAssets",
      "outputs": [
        {
          "internalType": "uint256[]",
          "name": "",
          "type": "uint256[]"
        }
      ],
      "stateMutability": "view",
      "type": "function"
    },
    {
      "inputs": [
        {
          "internalType": "address",
          "name": "addr",
          "type": "address"
        }
      ],
      "name": "isAuthenticated",
      "outputs": [
        {
          "internalType": "bool",
          "name": "",
          "type": "bool"
        }
      ],
      "stateMutability": "view",
      "type": "function"
    },
    {
      "inputs": [
        {
          "internalType": "uint32",
          "name": "pathId",
          "type": "uint32"
        }
      ],
      "name": "isValidPath",
      "outputs": [
        {
          "internalType": "bool",
          "name": "",
          "type": "bool"
        }
      ],
      "stateMutability": "view",
      "type": "function"
    },
    {
      "inputs": [
        {
          "internalType": "address[]",
          "name": "addrs",
          "type": "address[]"
        }
      ],
      "name": "multiApprove",
      "outputs": [],
      "stateMutability": "nonpayable",
      "type": "function"
    },
    {
      "inputs": [
        {
          "internalType": "address[]",
          "name": "addrs",
          "type": "address[]"
        }
      ],
      "name": "multiRevoke",
      "outputs": [],
      "stateMutability": "nonpayable",
      "type": "function"
    },
    {
      "inputs": [
        {
          "internalType": "uint256",
          "name": "",
          "type": "uint256"
        }
      ],
      "name": "names",
      "outputs": [
        {
          "internalType": "string",
          "name": "",
          "type": "string"
        }
      ],
      "stateMutability": "view",
      "type": "function"
    },
    {
      "inputs": [
        {
          "internalType": "uint32",
          "name": "currentTokenId",
          "type": "uint32"
        },
        {
          "internalType": "contract RandomNumber",
          "name": "randomNumberController",
          "type": "address"
        }
      ],
      "name": "pickPath",
      "outputs": [
        {
          "components": [
            {
              "internalType": "uint32",
              "name": "pathId",
              "type": "uint32"
            },
            {
              "internalType": "uint32",
              "name": "pathSize",
              "type": "uint32"
            },
            {
              "internalType": "uint32[]",
              "name": "assets",
              "type": "uint32[]"
            },
            {
              "internalType": "string[]",
              "name": "names",
              "type": "string[]"
            },
            {
              "internalType": "uint32[]",
              "name": "colours",
              "type": "uint32[]"
            },
            {
              "internalType": "bytes",
              "name": "mintData",
              "type": "bytes"
            }
          ],
          "internalType": "struct Asset.PartialStruct",
          "name": "",
          "type": "tuple"
        }
      ],
      "stateMutability": "nonpayable",
      "type": "function"
    },
    {
      "inputs": [
        {
          "internalType": "uint32",
          "name": "pathId",
          "type": "uint32"
        },
        {
          "internalType": "uint32",
          "name": "currentTokenId",
          "type": "uint32"
        },
        {
          "internalType": "contract RandomNumber",
          "name": "randomNumberController",
          "type": "address"
        }
      ],
      "name": "pickPath",
      "outputs": [
        {
          "components": [
            {
              "internalType": "uint32",
              "name": "pathId",
              "type": "uint32"
            },
            {
              "internalType": "uint32",
              "name": "pathSize",
              "type": "uint32"
            },
            {
              "internalType": "uint32[]",
              "name": "assets",
              "type": "uint32[]"
            },
            {
              "internalType": "string[]",
              "name": "names",
              "type": "string[]"
            },
            {
              "internalType": "uint32[]",
              "name": "colours",
              "type": "uint32[]"
            },
            {
              "internalType": "bytes",
              "name": "mintData",
              "type": "bytes"
            }
          ],
          "internalType": "struct Asset.PartialStruct",
          "name": "",
          "type": "tuple"
        }
      ],
      "stateMutability": "nonpayable",
      "type": "function"
    },
    {
      "inputs": [
        {
          "internalType": "uint256[]",
          "name": "rarity",
          "type": "uint256[]"
        }
      ],
      "name": "pushPathRarities",
      "outputs": [],
      "stateMutability": "nonpayable",
      "type": "function"
    },
    {
      "inputs": [
        {
          "internalType": "uint256[]",
          "name": "_assets",
          "type": "uint256[]"
        }
      ],
      "name": "pushSectionAssets",
      "outputs": [],
      "stateMutability": "nonpayable",
      "type": "function"
    },
    {
      "inputs": [],
      "name": "resetAssets",
      "outputs": [],
      "stateMutability": "nonpayable",
      "type": "function"
    },
    {
      "inputs": [],
      "name": "resetNames",
      "outputs": [],
      "stateMutability": "nonpayable",
      "type": "function"
    },
    {
      "inputs": [],
      "name": "resetPaths",
      "outputs": [],
      "stateMutability": "nonpayable",
      "type": "function"
    },
    {
      "inputs": [
        {
          "internalType": "uint32[]",
          "name": "assets",
          "type": "uint32[]"
        }
      ],
      "name": "setLastAssets",
      "outputs": [],
      "stateMutability": "nonpayable",
      "type": "function"
    },
    {
      "inputs": [
        {
          "internalType": "uint32",
          "name": "pathId",
          "type": "uint32"
        }
      ],
      "name": "setLastPathId",
      "outputs": [],
      "stateMutability": "nonpayable",
      "type": "function"
    },
    {
      "inputs": [
        {
          "internalType": "string[]",
          "name": "newNames",
          "type": "string[]"
        }
      ],
      "name": "setNames",
      "outputs": [],
      "stateMutability": "nonpayable",
      "type": "function"
    },
    {
      "inputs": [
        {
          "internalType": "uint32",
          "name": "pathId",
          "type": "uint32"
        }
      ],
      "name": "setNextPathId",
      "outputs": [],
      "stateMutability": "nonpayable",
      "type": "function"
    },
    {
      "inputs": [
        {
          "internalType": "uint256",
          "name": "newPathCount",
          "type": "uint256"
        }
      ],
      "name": "setPathCount",
      "outputs": [],
      "stateMutability": "nonpayable",
      "type": "function"
    },
    {
      "inputs": [
        {
          "internalType": "uint32",
          "name": "pathId",
          "type": "uint32"
        },
        {
          "internalType": "bool",
          "name": "value",
          "type": "bool"
        }
      ],
      "name": "setPathDisabled",
      "outputs": [],
      "stateMutability": "nonpayable",
      "type": "function"
    },
    {
      "inputs": [
        {
          "internalType": "uint256[]",
          "name": "pathId",
          "type": "uint256[]"
        },
        {
          "internalType": "uint256[]",
          "name": "rarity",
          "type": "uint256[]"
        }
      ],
      "name": "setPathRarities",
      "outputs": [],
      "stateMutability": "nonpayable",
      "type": "function"
    },
    {
      "inputs": [
        {
          "internalType": "uint256",
          "name": "pathId",
          "type": "uint256"
        },
        {
          "internalType": "uint256",
          "name": "rarity",
          "type": "uint256"
        }
      ],
      "name": "setPathRarity",
      "outputs": [],
      "stateMutability": "nonpayable",
      "type": "function"
    },
    {
      "inputs": [
        {
          "internalType": "uint32[]",
          "name": "pathIds",
          "type": "uint32[]"
        },
        {
          "internalType": "uint256[][]",
          "name": "_sections",
          "type": "uint256[][]"
        }
      ],
      "name": "setPathSections",
      "outputs": [],
      "stateMutability": "nonpayable",
      "type": "function"
    },
    {
      "inputs": [
        {
          "internalType": "uint32",
          "name": "pathId",
          "type": "uint32"
        },
        {
          "internalType": "uint32",
          "name": "pathSize",
          "type": "uint32"
        }
      ],
      "name": "setPathSize",
      "outputs": [],
      "stateMutability": "nonpayable",
      "type": "function"
    },
    {
      "inputs": [
        {
          "internalType": "uint32[]",
          "name": "newPathSizes",
          "type": "uint32[]"
        }
      ],
      "name": "setPathSizes",
      "outputs": [],
      "stateMutability": "nonpayable",
      "type": "function"
    },
    {
      "inputs": [
        {
          "internalType": "address",
          "name": "addr",
          "type": "address"
        },
        {
          "internalType": "bool",
          "name": "value",
          "type": "bool"
        }
      ],
      "name": "setPrivilages",
      "outputs": [],
      "stateMutability": "nonpayable",
      "type": "function"
    },
    {
      "inputs": [
        {
          "internalType": "uint32",
          "name": "sectionId",
          "type": "uint32"
        },
        {
          "internalType": "uint256[]",
          "name": "_assets",
          "type": "uint256[]"
        }
      ],
      "name": "setSectionAssets",
      "outputs": [],
      "stateMutability": "nonpayable",
      "type": "function"
    },
    {
      "inputs": [
        {
          "internalType": "address",
          "name": "addr",
          "type": "address"
        }
      ],
      "name": "transferOwnership",
      "outputs": [],
      "stateMutability": "nonpayable",
      "type": "function"
    }
  ],
  "bytecode": "0x60c06040526005608081905264185cdcd95d60da1b60a0908152620000289160069190620001b0565b5060408051808201909152600780825266191959985d5b1d60ca1b6020909201918252620000579181620001b0565b50600f80546001600160401b03191690556011805460ff191690553480156200007f57600080fd5b506040516200470838038062004708833981016040819052620000a29162000289565b60008054336001600160a01b03199182168117835582526002602090815260408320805460ff19166001908117909155838155600580549093166001600160a01b03861617909255600d8054928301815583527fd7b6990105719101dabeb77144f2a3385c8033acd3af97e9423a695e81ad1eb590910191909155825183918391620001359160069190850190620001b0565b506040805180820190915260038082526273766760e81b60209092019182526200016291600791620001b0565b505082516200017a91506006906020850190620001b0565b5060408051808201909152600380825262616e7960e81b6020909201918252620001a791600791620001b0565b505050620003b7565b828054620001be906200037a565b90600052602060002090601f016020900481019282620001e257600085556200022d565b82601f10620001fd57805160ff19168380011785556200022d565b828001600101855582156200022d579182015b828111156200022d57825182559160200191906001019062000210565b506200023b9291506200023f565b5090565b5b808211156200023b576000815560010162000240565b634e487b7160e01b600052604160045260246000fd5b80516001600160a01b03811681146200028457600080fd5b919050565b600080604083850312156200029d57600080fd5b82516001600160401b0380821115620002b557600080fd5b818501915085601f830112620002ca57600080fd5b815181811115620002df57620002df62000256565b604051601f8201601f19908116603f011681019083821181831017156200030a576200030a62000256565b816040528281526020935088848487010111156200032757600080fd5b600091505b828210156200034b57848201840151818301850152908301906200032c565b828211156200035d5760008484830101525b95506200036f9150508582016200026c565b925050509250929050565b600181811c908216806200038f57607f821691505b60208210811415620003b157634e487b7160e01b600052602260045260246000fd5b50919050565b61434180620003c76000396000f3fe608060405234801561001057600080fd5b50600436106102095760003560e01c80638c9fcab9116101215780638c9fcab9146103e65780638e6e826d146103f9578063a57b3b4514610419578063a85f32981461042c578063ad94705b1461043f578063ae2c7cea14610452578063b895bcb714610465578063bfb05d0314610478578063c40f4a251461048b578063d15d41501461049e578063d5f39488146104b1578063d8b964e6146104dc578063d935232c146104ff578063dccd935c14610512578063e6ef89551461051a578063e7214f4f1461052d578063e96aeef314610540578063eb2c2da314610553578063f2fde38b14610566578063f60a743614610579578063fe684c0e1461058c578063ff220d6d1461059f57600080fd5b80630ae611731461020e5780630b71d2561461022357806310a8c7a91461023657806311456b471461024957806331ed86d21461025c5780633406bfac1461026f57806335697ba7146102775780633840c21a146102a05780633982e0c4146102b3578063433ee8cd146102c657806343bebe4e146102e6578063453dc9331461030e5780634622ab031461032157806346e4e7c9146103415780634c6fe6a21461034f578063593c7b271461036f5780637730f4fa146103825780637ba8dcd6146103a55780637bd6ec4a146103ad5780637cf8031e146103c05780638a25ad24146103d3575b600080fd5b61022161021c3660046138b2565b6105a7565b005b610221610231366004613915565b61066d565b610221610244366004613943565b6106f7565b610221610257366004613a4b565b61078e565b61022161026a366004613943565b610815565b6102216108a8565b61028a610285366004613915565b610947565b6040516102979190613a87565b60405180910390f35b6102216102ae366004613acb565b6109a9565b6102216102c1366004613ba2565b610a00565b6102d96102d4366004613bd9565b610ae9565b6040516102979190613ce8565b6102f96102f4366004613d84565b610b0d565b60405163ffffffff9091168152602001610297565b61022161031c366004613acb565b610b6d565b61033461032f366004613915565b610c1a565b6040516102979190613d9f565b600f5463ffffffff166102f9565b61036261035d366004613db2565b610cc6565b6040516102979190613dd7565b61022161037d366004613e4c565b611306565b610395610390366004613d84565b61135d565b6040519015158152602001610297565b61033461138e565b6102d96103bb366004613e80565b61139b565b6102216103ce366004613ec7565b61158f565b6102216103e1366004613d84565b6115fc565b61028a6103f4366004613915565b611666565b61040c610407366004613bd9565b6116d9565b6040516102979190613efb565b610221610427366004613f0e565b611d5b565b61022161043a366004613915565b611df0565b61022161044d366004613ec7565b611e39565b610221610460366004613f41565b611ec8565b6102f9610473366004613f63565b611f3d565b610221610486366004613f87565b61284d565b610221610499366004613e4c565b6128ae565b6103956104ac366004613f63565b612925565b6000546104c4906001600160a01b031681565b6040516001600160a01b039091168152602001610297565b6103956104ea366004613f63565b60026020526000908152604090205460ff1681565b61022161050d366004613d84565b61295c565b6102216129bc565b610221610528366004613fca565b612a0e565b61022161053b366004613e4c565b612ac4565b61033461054e366004613e80565b612b1b565b61040c610561366004613bd9565b612b3b565b610221610574366004613f63565b613123565b610221610587366004613ec7565b6131c3565b61022161059a36600461409e565b6132c1565b6102216133a3565b6000546001600160a01b03163314806105cf57503360009081526002602052604090205460ff165b6105f45760405162461bcd60e51b81526004016105eb906140bc565b60405180910390fd5b805182511461060257600080fd5b60005b825181101561066857818181518110610620576106206140e2565b6020026020010151601284838151811061063c5761063c6140e2565b602002602001015181548110610654576106546140e2565b600091825260209091200155600101610605565b505050565b6000546001600160a01b031633146106975760405162461bcd60e51b81526004016105eb906140f8565b60648111156106a557600080fd5b600d80546001818101835560009283527fd7b6990105719101dabeb77144f2a3385c8033acd3af97e9423a695e81ad1eb5909101839055600b8054919290916106ef908490614134565b909155505050565b6000546001600160a01b031633146107215760405162461bcd60e51b81526004016105eb906140f8565b805161072c57600080fd5b60005b815181101561078a57600160026000848481518110610750576107506140e2565b6020908102919091018101516001600160a01b03168252810191909152604001600020805460ff191691151591909117905560010161072f565b5050565b6000546001600160a01b03163314806107b657503360009081526002602052604090205460ff165b6107d25760405162461bcd60e51b81526004016105eb906140bc565b60108054600181018255600091909152815161078a917f1b6847dc741a1b0cd08d278845f9d819d87b734759afb55fe2de5cb82a9ae67201906020840190613491565b6000546001600160a01b0316331461083f5760405162461bcd60e51b81526004016105eb906140f8565b805161084a57600080fd5b60005b815181101561078a5760006002600084848151811061086e5761086e6140e2565b6020908102919091018101516001600160a01b03168252810191909152604001600020805460ff191691151591909117905560010161084d565b6000546001600160a01b03163314806108d057503360009081526002602052604090205460ff165b6108ec5760405162461bcd60e51b81526004016105eb906140bc565b6108f8600d6000613515565b610904600c6000613536565b600d805460018101825560009182527fd7b6990105719101dabeb77144f2a3385c8033acd3af97e9423a695e81ad1eb501819055600b556011805460ff19169055565b60008181526004602090815260409182902080548351818402810184019094528084526060939283018282801561099d57602002820191906000526020600020905b815481526020019060010190808311610989575b50505050509050919050565b6000546001600160a01b03163314806109d157503360009081526002602052604090205460ff165b6109ed5760405162461bcd60e51b81526004016105eb906140bc565b805161078a906010906020840190613554565b6000546001600160a01b0316331480610a2857503360009081526002602052604090205460ff165b610a445760405162461bcd60e51b81526004016105eb906140bc565b600a548263ffffffff16148015610a585750805b15610a9c57600a545b60008181526003602052604090205460ff1615610a98576008548110610a865750600a545b80610a908161414c565b915050610a61565b600a555b600a548263ffffffff1611158015610ab15750805b15610ac15763ffffffff8216600a555b63ffffffff919091166000908152600360205260409020805460ff1916911515919091179055565b610af16135ad565b610b04610afd83611f3d565b848461139b565b90505b92915050565b60095460009063ffffffff831610610b2757506001919050565b60098263ffffffff1681548110610b4057610b406140e2565b90600052602060002090600891828204019190066004029054906101000a900463ffffffff169050919050565b6000546001600160a01b0316331480610b9557503360009081526002602052604090205460ff165b610bb15760405162461bcd60e51b81526004016105eb906140bc565b6064815110610bbf57600080fd5b60005b815181101561078a576010828281518110610bdf57610bdf6140e2565b60209081029190910181015182546001810184556000938452928290208151610c119491909101929190910190613491565b50600101610bc2565b60108181548110610c2a57600080fd5b906000526020600020016000915090508054610c4590614167565b80601f0160208091040260200160405190810160405280929190818152602001828054610c7190614167565b8015610cbe5780601f10610c9357610100808354040283529160200191610cbe565b820191906000526020600020905b815481529060010190602001808311610ca157829003601f168201915b505050505081565b60606000610cd26133ff565b6005546040516206259160e71b815260206004820152600b60248201526a6d6174636865644d6f646560a81b60448201529192506001600160a01b031690630312c88090606401602060405180830381865afa158015610d36573d6000803e3d6000fd5b505050506040513d601f19601f82011682018060405250810190610d5a91906141a2565b158015610def57506005546040516206259160e71b815260206004820152600f60248201526e696e6372656d656e74616c4d6f646560881b60448201526001600160a01b0390911690630312c88090606401602060405180830381865afa158015610dc9573d6000803e3d6000fd5b505050506040513d601f19601f82011682018060405250810190610ded91906141a2565b155b156110dc5783158015610e8957506005546040516206259160e71b815260206004820152601060248201526f6d75737447656e65726174654e616d6560801b60448201526001600160a01b0390911690630312c88090606401602060405180830381865afa158015610e65573d6000803e3d6000fd5b505050506040513d601f19601f82011682018060405250810190610e8991906141a2565b15610e9357600193505b831580610ea05750601054155b15610ef65760408051600180825281830190925290816020015b6060815260200190600190039081610eba5790505091508082600081518110610ee557610ee56140e2565b602002602001018190525050610b07565b610f01846001614134565b6001600160401b03811115610f1857610f186137de565b604051908082528060200260200182016040528015610f4b57816020015b6060815260200190600190039081610f365790505b50915060005b848163ffffffff1610156110b85760105460405163a0d0ca0f60e01b81526000916001600160a01b0387169163a0d0ca0f91610f939160040190815260200190565b6020604051808303816000875af1158015610fb2573d6000803e3d6000fd5b505050506040513d601f19601f82011682018060405250810190610fd691906141bf565b6010549091508110610fe6575060005b60108181548110610ff957610ff96140e2565b90600052602060002001805461100e90614167565b80601f016020809104026020016040519081016040528092919081815260200182805461103a90614167565b80156110875780601f1061105c57610100808354040283529160200191611087565b820191906000526020600020905b81548152906001019060200180831161106a57829003601f168201915b5050505050848363ffffffff16815181106110a4576110a46140e2565b602090810291909101015250600101610f51565b50808285815181106110cc576110cc6140e2565b60200260200101819052506112ff565b6040805160028082526060820190925290816020015b60608152602001906001900390816110f2575050601054909250611143576040518060200160405280600081525082600081518110611133576111336140e2565b60200260200101819052506112df565b601054600f5463ffffffff16101561121957600f5460108054909163ffffffff16908110611173576111736140e2565b90600052602060002001805461118890614167565b80601f01602080910402602001604051908101604052809291908181526020018280546111b490614167565b80156112015780601f106111d657610100808354040283529160200191611201565b820191906000526020600020905b8154815290600101906020018083116111e457829003601f168201915b505050505082600081518110611133576111336140e2565b601060008154811061122d5761122d6140e2565b90600052602060002001805461124290614167565b80601f016020809104026020016040519081016040528092919081815260200182805461126e90614167565b80156112bb5780601f10611290576101008083540402835291602001916112bb565b820191906000526020600020905b81548152906001019060200180831161129e57829003601f168201915b5050505050826000815181106112d3576112d36140e2565b60200260200101819052505b80826001815181106112f3576112f36140e2565b60200260200101819052505b5092915050565b6000546001600160a01b031633148061132e57503360009081526002602052604090205460ff165b61134a5760405162461bcd60e51b81526004016105eb906140bc565b805161078a9060099060208401906135ef565b60006008548263ffffffff16108015610b0757505063ffffffff1660009081526003602052604090205460ff161590565b60078054610c4590614167565b6113a36135ad565b6113ac8461295c565b6113b961053b85846116d9565b6040518060c001604052808563ffffffff1681526020016113d986610b0d565b63ffffffff168152602001600e80548060200260200160405190810160405280929190818152602001828054801561145c57602002820191906000526020600020906000905b82829054906101000a900463ffffffff1663ffffffff168152602001906004019060208260030104928301926001038202915080841161141f5790505b505050918352505060055460405163e7b6dac960e01b815260206004820181905260096024830152681b985b5950dbdd5b9d60ba1b604483015290920191611566916001600160a01b038781169263a0d0ca0f92919091169063e7b6dac990606401602060405180830381865afa1580156114db573d6000803e3d6000fd5b505050506040513d601f19601f820116820180604052508101906114ff91906141bf565b6040518263ffffffff1660e01b815260040161151d91815260200190565b6020604051808303816000875af115801561153c573d6000803e3d6000fd5b505050506040513d601f19601f8201168201806040525081019061156091906141bf565b85610cc6565b81526020016115758685612b3b565b8152602001611585868686612b1b565b9052949350505050565b6000546001600160a01b031633146115b95760405162461bcd60e51b81526004016105eb906140f8565b600c8054600181018255600091909152815161078a917fdf6966c971051c3d54ec59162606531493a51404a002842f56009d7e5cf4a8c701906020840190613699565b6000546001600160a01b031633148061162457503360009081526002602052604090205460ff165b6116405760405162461bcd60e51b81526004016105eb906140bc565b600f805463ffffffff909216600160201b0263ffffffff60201b19909216919091179055565b6060600c828154811061167b5761167b6140e2565b9060005260206000200180548060200260200160405190810160405280929190818152602001828054801561099d57602002820191906000526020600020908154815260200190600101908083116109895750505050509050919050565b6060600b54600014156116eb57610b07565b60115460609060ff16156117745760008052600460209081527f17ef568e3e12ab5b9c7254a8d58478811de00f9e6eb34345acd53bf8fd09d3ec805460408051828502810185019091528181529283018282801561176857602002820191906000526020600020905b815481526020019060010190808311611754575b505050505090506117d7565b63ffffffff8416600090815260046020908152604091829020805483518184028101840190945280845290918301828280156117cf57602002820191906000526020600020905b8154815260200190600101908083116117bb575b505050505090505b600080846001600160a01b031663bfa0b1336040518163ffffffff1660e01b8152600401602060405180830381865afa158015611818573d6000803e3d6000fd5b505050506040513d601f19601f8201168201806040525081019061183c91906141bf565b905082516000141561185057505050610b07565b82516001600160401b03811115611869576118696137de565b604051908082528060200260200182016040528015611892578160200160208202803683370190505b50935060608060005b8551811015611d4f57600c8682815181106118b8576118b86140e2565b6020026020010151815481106118d0576118d06140e2565b9060005260206000200180548060200260200160405190810160405280929190818152602001828054801561192457602002820191906000526020600020905b815481526020019060010190808311611910575b5050505050915081516000141561197157600087866119428161414c565b975081518110611954576119546140e2565b63ffffffff9092166020928302919091019091015260010161189b565b815160011480156119b95750600d82600081518110611992576119926140e2565b6020026020010151815481106119aa576119aa6140e2565b90600052602060002001546064145b156119e557816000815181106119d1576119d16140e2565b60200260200101518786806119429061414c565b81516001600160401b038111156119fe576119fe6137de565b604051908082528060200260200182016040528015611a27578160200160208202803683370190505b5092506000805b8351811015611beb578451821415611a4557611beb565b838181518110611a5757611a576140e2565b602002602001015160001415611a6f57600101611a2e565b6000848281518110611a8357611a836140e2565b6020026020010151600d805490501115611ad157600d858381518110611aab57611aab6140e2565b602002602001015181548110611ac357611ac36140e2565b906000526020600020015490505b8060641480611b8a57506001600160a01b038b16637881bab960648a8a8786611afa898c614134565b611b049190614134565b611b0e9190614134565b611b189190614134565b611b229190614134565b6040516001600160e01b031960e085901b16815260048101929092526024820152604401602060405180830381865afa158015611b63573d6000803e3d6000fd5b505050506040513d601f19601f82011682018060405250810190611b8791906141bf565b81115b15611be257848281518110611ba157611ba16140e2565b6020026020010151868480611bb59061414c565b955081518110611bc757611bc76140e2565b602002602001019063ffffffff16908163ffffffff16815250505b50600101611a2e565b50600060018211611c4e5784600081518110611c0957611c096140e2565b6020026020010151898880611c1d9061414c565b995081518110611c2f57611c2f6140e2565b602002602001019063ffffffff16908163ffffffff1681525050611d45565b60028210611d4557896001600160a01b0316637881bab983888a868a51611c759190614134565b611c7f9190614134565b611c899190614134565b6040516001600160e01b031960e085901b16815260048101929092526024820152604401602060405180830381865afa158015611cca573d6000803e3d6000fd5b505050506040513d601f19601f82011682018060405250810190611cee91906141bf565b90508451811015611d0b57848181518110611c0957611c096140e2565b60008988611d188161414c565b995081518110611d2a57611d2a6140e2565b602002602001019063ffffffff16908163ffffffff16815250505b505060010161189b565b50505050505092915050565b6000546001600160a01b0316331480611d8357503360009081526002602052604090205460ff165b611d9f5760405162461bcd60e51b81526004016105eb906140bc565b8060098363ffffffff1681548110611db957611db96140e2565b90600052602060002090600891828204019190066004026101000a81548163ffffffff021916908363ffffffff1602179055505050565b6000546001600160a01b0316331480611e1857503360009081526002602052604090205460ff165b611e345760405162461bcd60e51b81526004016105eb906140bc565b600855565b6000546001600160a01b0316331480611e6157503360009081526002602052604090205460ff165b611e7d5760405162461bcd60e51b81526004016105eb906140bc565b60005b815181101561078a576012828281518110611e9d57611e9d6140e2565b6020908102919091018101518254600181810185556000948552929093209092019190915501611e80565b6000546001600160a01b0316331480611ef057503360009081526002602052604090205460ff165b611f0c5760405162461bcd60e51b81526004016105eb906140bc565b60648110611f1957600080fd5b8060128381548110611f2d57611f2d6140e2565b6000918252602090912001555050565b60006008546001148015611f625750600a5460009081526003602052604090205460ff165b15611fa05760405162461bcd60e51b815260206004820152600e60248201526d4e6f2076616c696420706174687360901b60448201526064016105eb565b60006008546001600160401b03811115611fbc57611fbc6137de565b604051908082528060200260200182016040528015611fe5578160200160208202803683370190505b50600a549091506000805b6008548110156120d75760405163a0d0ca0f60e01b8152606460048201526001600160a01b0387169063a0d0ca0f906024016020604051808303816000875af1158015612041573d6000803e3d6000fd5b505050506040513d601f19601f8201168201806040525081019061206591906141bf565b848281518110612077576120776140e2565b602002602001018181525050838181518110612095576120956140e2565b6020026020010151601282815481106120b0576120b06140e2565b906000526020600020015411156120cf57816120cb8161414c565b9250505b600101611ff0565b506000816001600160401b038111156120f2576120f26137de565b60405190808252806020026020018201604052801561211b578160200160208202803683370190505b5090506000915060005b6008548110156121a057848181518110612141576121416140e2565b60200260200101516012828154811061215c5761215c6140e2565b90600052602060002001541115612198578082846121798161414c565b95508151811061218b5761218b6140e2565b6020026020010181815250505b600101612125565b506005546040516206259160e71b815260206004820152600c60248201526b72616e646f6d52617269747960a01b60448201526001600160a01b0390911690630312c88090606401602060405180830381865afa158015612205573d6000803e3d6000fd5b505050506040513d601f19601f8201168201806040525081019061222991906141a2565b1561237757805160405163a0d0ca0f60e01b81526000916001600160a01b0389169163a0d0ca0f916122619160040190815260200190565b6020604051808303816000875af1158015612280573d6000803e3d6000fd5b505050506040513d601f19601f820116820180604052508101906122a491906141bf565b905081518110156122d0578181815181106122c1576122c16140e2565b60200260200101519350612371565b60085460405163a0d0ca0f60e01b81526000916001600160a01b038a169163a0d0ca0f916123049160040190815260200190565b6020604051808303816000875af1158015612323573d6000803e3d6000fd5b505050506040513d601f19601f8201168201806040525081019061234791906141bf565b60008181526003602052604090205490915060ff161561236b57600a54945061236f565b8094505b505b506125d7565b6005546040516206259160e71b815260206004820152600c60248201526b6c6f7765737452617269747960a01b604482015260009182916001600160a01b0390911690630312c88090606401602060405180830381865afa1580156123e0573d6000803e3d6000fd5b505050506040513d601f19601f8201168201806040525081019061240491906141a2565b156125135760005b83518110156124f7578261247457601284828151811061242e5761242e6140e2565b602002602001015181548110612446576124466140e2565b90600052602060002001549250838181518110612465576124656140e2565b602002602001015191506124ef565b8260128281548110612488576124886140e2565b906000526020600020015410156124ef5760128482815181106124ad576124ad6140e2565b6020026020010151815481106124c5576124c56140e2565b906000526020600020015492508381815181106124e4576124e46140e2565b602002602001015191505b60010161240c565b5060085481101561250a578094506125d4565b600094506125d4565b60005b83518110156125bb576012848281518110612533576125336140e2565b60200260200101518154811061254b5761254b6140e2565b90600052602060002001548310156125b3576012848281518110612571576125716140e2565b602002602001015181548110612589576125896140e2565b906000526020600020015492508381815181106125a8576125a86140e2565b602002602001015191505b600101612516565b506008548110156125ce578094506125d4565b600a5494505b50505b6005546040516206259160e71b81526020600482015260116024820152701cdd1bdc111d5c1b1a58d85d19535a5b9d607a1b60448201526001600160a01b0390911690630312c88090606401602060405180830381865afa158015612640573d6000803e3d6000fd5b505050506040513d601f19601f8201168201806040525081019061266491906141a2565b8015612675575063ffffffff831615155b801561268f5750600f54600160201b900463ffffffff1615155b80156126ac5750600f5463ffffffff848116600160201b90920416145b1561282657600f548151600160201b90910463ffffffff16906002116127db5760035b818563ffffffff161480156126f657506000816126eb816141d8565b925063ffffffff1610155b156127c157825160405163a0d0ca0f60e01b81526000916001600160a01b038b169163a0d0ca0f9161272e9160040190815260200190565b6020604051808303816000875af115801561274d573d6000803e3d6000fd5b505050506040513d601f19601f8201168201806040525081019061277191906141bf565b9050835181101561279d5783818151811061278e5761278e6140e2565b602002602001015195506127bb565b836000815181106127b0576127b06140e2565b602002602001015195505b506126cf565b60008163ffffffff16116127d557600a5494505b50612824565b60018463ffffffff1611156127fc576127f56001856141f8565b9350612824565b60085461280a85600161421d565b63ffffffff1610156128245761282184600161421d565b93505b505b5050600f805463ffffffff60201b1916600160201b63ffffffff8416021790559392505050565b6000546001600160a01b031633146128775760405162461bcd60e51b81526004016105eb906140f8565b80600c8363ffffffff1681548110612891576128916140e2565b906000526020600020019080519060200190610668929190613699565b6000546001600160a01b031633146128d85760405162461bcd60e51b81526004016105eb906140f8565b60008052600460209081528151612914917f17ef568e3e12ab5b9c7254a8d58478811de00f9e6eb34345acd53bf8fd09d3ec91908401906136d3565b50506011805460ff19166001179055565b600080546001600160a01b0383811691161480610b075750506001600160a01b031660009081526002602052604090205460ff1690565b6000546001600160a01b031633148061298457503360009081526002602052604090205460ff165b6129a05760405162461bcd60e51b81526004016105eb906140bc565b600f805463ffffffff191663ffffffff92909216919091179055565b6000546001600160a01b03163314806129e457503360009081526002602052604090205460ff165b612a005760405162461bcd60e51b81526004016105eb906140bc565b612a0c60106000613716565b565b6000546001600160a01b03163314612a385760405162461bcd60e51b81526004016105eb906140f8565b8051825114612a4657600080fd5b60005b825181101561066857818181518110612a6457612a646140e2565b602002602001015160046000858481518110612a8257612a826140e2565b602002602001015163ffffffff1681526020019081526020016000209080519060200190612ab1929190613699565b5080612abc8161414c565b915050612a49565b6000546001600160a01b0316331480612aec57503360009081526002602052604090205460ff165b612b085760405162461bcd60e51b81526004016105eb906140bc565b805161078a90600e9060208401906135ef565b6040805180820190915260028152617b7d60f01b60208201529392505050565b60606000612b4884610b0d565b60055460405163e7b6dac960e01b815260206004820152600f60248201526e636f6c6f75724368756e6b53697a6560881b60448201529192506000916001600160a01b039091169063e7b6dac990606401602060405180830381865afa158015612bb6573d6000803e3d6000fd5b505050506040513d601f19601f82011682018060405250810190612bda91906141bf565b905060008111612be8575060045b808263ffffffff1611612e0f5760408051600480825260a0820190925290602082016080803683370190505060405163a0d0ca0f60e01b815262ffffff60048201529093506001600160a01b0385169063a0d0ca0f906024016020604051808303816000875af1158015612c60573d6000803e3d6000fd5b505050506040513d601f19601f82011682018060405250810190612c8491906141bf565b83600081518110612c9757612c976140e2565b602002602001019063ffffffff16908163ffffffff16815250508183600181518110612cc557612cc56140e2565b63ffffffff928316602091820292909201015260405163a0d0ca0f60e01b815260048101919091526001600160a01b0385169063a0d0ca0f906024016020604051808303816000875af1158015612d20573d6000803e3d6000fd5b505050506040513d601f19601f82011682018060405250810190612d4491906141bf565b83600281518110612d5757612d576140e2565b63ffffffff9092166020928302919091019091015260055460405163e7b6dac960e01b81526001600160a01b039091169063e7b6dac990612d9a90600401614245565b602060405180830381865afa158015612db7573d6000803e3d6000fd5b505050506040513d601f19601f82011682018060405250810190612ddb91906141bf565b83600381518110612dee57612dee6140e2565b602002602001019063ffffffff16908163ffffffff16815250505050610b07565b6000612e218263ffffffff8516614281565b612e2c906001614134565b90506000612e3b826002614295565b9050836000612e4b83600261421d565b63ffffffff166001600160401b03811115612e6857612e686137de565b604051908082528060200260200182016040528015612e91578160200160208202803683370190505b50965060005b8363ffffffff16811015612fcc57801580612eba5750612eb86002826142c1565b155b15612f5d5760405163a0d0ca0f60e01b815262ffffff60048201526001600160a01b038a169063a0d0ca0f906024016020604051808303816000875af1158015612f08573d6000803e3d6000fd5b505050506040513d601f19601f82011682018060405250810190612f2c91906141bf565b888281518110612f3e57612f3e6140e2565b602002602001019063ffffffff16908163ffffffff1681525050612fc4565b600082612f698161414c565b9350612f7590886142d5565b612f859063ffffffff86166142f4565b9050868111612f945780612f96565b865b898381518110612fa857612fa86140e2565b602002602001019063ffffffff16908163ffffffff1681525050505b600101612e97565b5060405163a0d0ca0f60e01b815263ffffffff60048201526001600160a01b0389169063a0d0ca0f906024016020604051808303816000875af1158015613017573d6000803e3d6000fd5b505050506040513d601f19601f8201168201806040525081019061303b91906141bf565b876002895161304a91906142f4565b8151811061305a5761305a6140e2565b63ffffffff9092166020928302919091019091015260055460405163e7b6dac960e01b81526001600160a01b039091169063e7b6dac99061309d90600401614245565b602060405180830381865afa1580156130ba573d6000803e3d6000fd5b505050506040513d601f19601f820116820180604052508101906130de91906141bf565b87600189516130ed91906142f4565b815181106130fd576130fd6140e2565b602002602001019063ffffffff16908163ffffffff168152505050505050505092915050565b6000546001600160a01b0316331461314d5760405162461bcd60e51b81526004016105eb906140f8565b600080546001600160a01b03908116825260026020526040808320805460ff1990811690915583546001600160a01b03191692851692831784558284528184208054909116600117905551909133917f93091b3f3cd424efabc74e181f3799f3476ed758412561ed3b29515c51f567529190a350565b6000546001600160a01b031633146131ed5760405162461bcd60e51b81526004016105eb906140f8565b60005b815181101561078a57606482828151811061320d5761320d6140e2565b6020026020010151111561326e5760405162461bcd60e51b815260206004820152602260248201527f6f6e65206f66206d6f7265207261726974696573206172652061626f76652031604482015261030360f41b60648201526084016105eb565b600d828281518110613282576132826140e2565b60209081029190910181015182546001818101855560009485529284200155600b8054919290916132b4908490614134565b90915550506001016131f0565b6000546001600160a01b031633146132eb5760405162461bcd60e51b81526004016105eb906140f8565b6000546001600160a01b03838116911614156133425760405162461bcd60e51b815260206004820152601660248201527531b0b73737ba1036b7b234b33c903232b83637bcb2b960511b60448201526064016105eb565b6001600160a01b038216600081815260026020908152604091829020805460ff1916851515908117909155915191825233917ff38de818d000d07d091732dd783c6855722d7bc1934d92b7635133289d341695910160405180910390a35050565b6000546001600160a01b03163314806133cb57503360009081526002602052604090205460ff165b6133e75760405162461bcd60e51b81526004016105eb906140bc565b6133f360096000613734565b60006008819055600a55565b60606006805461340e90614167565b80601f016020809104026020016040519081016040528092919081815260200182805461343a90614167565b80156134875780601f1061345c57610100808354040283529160200191613487565b820191906000526020600020905b81548152906001019060200180831161346a57829003601f168201915b5050505050905090565b82805461349d90614167565b90600052602060002090601f0160209004810192826134bf5760008555613505565b82601f106134d857805160ff1916838001178555613505565b82800160010185558215613505579182015b828111156135055782518255916020019190600101906134ea565b50613511929150613755565b5090565b50805460008255906000526020600020908101906135339190613755565b50565b5080546000825590600052602060002090810190613533919061376a565b8280548282559060005260206000209081019282156135a1579160200282015b828111156135a15782518051613591918491602090910190613491565b5091602001919060010190613574565b50613511929150613787565b6040518060c00160405280600063ffffffff168152602001600063ffffffff168152602001606081526020016060815260200160608152602001606081525090565b828054828255906000526020600020906007016008900481019282156135055791602002820160005b8382111561365c57835183826101000a81548163ffffffff021916908363ffffffff1602179055509260200192600401602081600301049283019260010302613618565b801561368c5782816101000a81549063ffffffff021916905560040160208160030104928301926001030261365c565b5050613511929150613755565b82805482825590600052602060002090810192821561350557916020028201828111156135055782518255916020019190600101906134ea565b828054828255906000526020600020908101928215613505579160200282015b82811115613505578251829063ffffffff169055916020019190600101906136f3565b50805460008255906000526020600020908101906135339190613787565b50805460008255600701600890049060005260206000209081019061353391905b5b808211156135115760008155600101613756565b8082111561351157600061377e8282613515565b5060010161376a565b8082111561351157600061379b82826137a4565b50600101613787565b5080546137b090614167565b6000825580601f106137c0575050565b601f0160209004906000526020600020908101906135339190613755565b634e487b7160e01b600052604160045260246000fd5b604051601f8201601f191681016001600160401b038111828210171561381c5761381c6137de565b604052919050565b60006001600160401b0382111561383d5761383d6137de565b5060051b60200190565b600082601f83011261385857600080fd5b8135602061386d61386883613824565b6137f4565b82815260059290921b8401810191818101908684111561388c57600080fd5b8286015b848110156138a75780358352918301918301613890565b509695505050505050565b600080604083850312156138c557600080fd5b82356001600160401b03808211156138dc57600080fd5b6138e886838701613847565b935060208501359150808211156138fe57600080fd5b5061390b85828601613847565b9150509250929050565b60006020828403121561392757600080fd5b5035919050565b6001600160a01b038116811461353357600080fd5b6000602080838503121561395657600080fd5b82356001600160401b0381111561396c57600080fd5b8301601f8101851361397d57600080fd5b803561398b61386882613824565b81815260059190911b820183019083810190878311156139aa57600080fd5b928401925b828410156139d15783356139c28161392e565b825292840192908401906139af565b979650505050505050565b600082601f8301126139ed57600080fd5b81356001600160401b03811115613a0657613a066137de565b613a19601f8201601f19166020016137f4565b818152846020838601011115613a2e57600080fd5b816020850160208301376000918101602001919091529392505050565b600060208284031215613a5d57600080fd5b81356001600160401b03811115613a7357600080fd5b613a7f848285016139dc565b949350505050565b6020808252825182820181905260009190848201906040850190845b81811015613abf57835183529284019291840191600101613aa3565b50909695505050505050565b60006020808385031215613ade57600080fd5b82356001600160401b0380821115613af557600080fd5b818501915085601f830112613b0957600080fd5b8135613b1761386882613824565b81815260059190911b83018401908481019088831115613b3657600080fd5b8585015b83811015613b6e57803585811115613b525760008081fd5b613b608b89838a01016139dc565b845250918601918601613b3a565b5098975050505050505050565b803563ffffffff81168114613b8f57600080fd5b919050565b801515811461353357600080fd5b60008060408385031215613bb557600080fd5b613bbe83613b7b565b91506020830135613bce81613b94565b809150509250929050565b60008060408385031215613bec57600080fd5b613bf583613b7b565b91506020830135613bce8161392e565b600081518084526020808501945080840160005b83811015613c3b57815163ffffffff1687529582019590820190600101613c19565b509495945050505050565b6000815180845260005b81811015613c6c57602081850181015186830182015201613c50565b81811115613c7e576000602083870101525b50601f01601f19169290920160200192915050565b600081518084526020808501808196508360051b8101915082860160005b85811015613cdb578284038952613cc9848351613c46565b98850198935090840190600101613cb1565b5091979650505050505050565b60208152600063ffffffff80845116602084015280602085015116604084015250604083015160c06060840152613d2260e0840182613c05565b90506060840151601f1980858403016080860152613d408383613c93565b925060808601519150808584030160a0860152613d5d8383613c05565b925060a08601519150808584030160c086015250613d7b8282613c46565b95945050505050565b600060208284031215613d9657600080fd5b610b0482613b7b565b602081526000610b046020830184613c46565b60008060408385031215613dc557600080fd5b823591506020830135613bce8161392e565b602081526000610b046020830184613c93565b600082601f830112613dfb57600080fd5b81356020613e0b61386883613824565b82815260059290921b84018101918181019086841115613e2a57600080fd5b8286015b848110156138a757613e3f81613b7b565b8352918301918301613e2e565b600060208284031215613e5e57600080fd5b81356001600160401b03811115613e7457600080fd5b613a7f84828501613dea565b600080600060608486031215613e9557600080fd5b613e9e84613b7b565b9250613eac60208501613b7b565b91506040840135613ebc8161392e565b809150509250925092565b600060208284031215613ed957600080fd5b81356001600160401b03811115613eef57600080fd5b613a7f84828501613847565b602081526000610b046020830184613c05565b60008060408385031215613f2157600080fd5b613f2a83613b7b565b9150613f3860208401613b7b565b90509250929050565b60008060408385031215613f5457600080fd5b50508035926020909101359150565b600060208284031215613f7557600080fd5b8135613f808161392e565b9392505050565b60008060408385031215613f9a57600080fd5b613fa383613b7b565b915060208301356001600160401b03811115613fbe57600080fd5b61390b85828601613847565b60008060408385031215613fdd57600080fd5b82356001600160401b0380821115613ff457600080fd5b61400086838701613dea565b935060209150818501358181111561401757600080fd5b8501601f8101871361402857600080fd5b803561403661386882613824565b81815260059190911b8201840190848101908983111561405557600080fd5b8584015b8381101561408d578035868111156140715760008081fd5b61407f8c8983890101613847565b845250918601918601614059565b508096505050505050509250929050565b600080604083850312156140b157600080fd5b8235613bbe8161392e565b6020808252600c908201526b1b9bdd08185c1c1c9bdd995960a21b604082015260600190565b634e487b7160e01b600052603260045260246000fd5b6020808252600c908201526b3737ba103232b83637bcb2b960a11b604082015260600190565b634e487b7160e01b600052601160045260246000fd5b600082198211156141475761414761411e565b500190565b60006000198214156141605761416061411e565b5060010190565b600181811c9082168061417b57607f821691505b6020821081141561419c57634e487b7160e01b600052602260045260246000fd5b50919050565b6000602082840312156141b457600080fd5b8151613f8081613b94565b6000602082840312156141d157600080fd5b5051919050565b600063ffffffff8216806141ee576141ee61411e565b6000190192915050565b600063ffffffff838116908316818110156142155761421561411e565b039392505050565b600063ffffffff80831681851680830382111561423c5761423c61411e565b01949350505050565b6020808252600c908201526b6578747261436f6c6f75727360a01b604082015260600190565b634e487b7160e01b600052601260045260246000fd5b6000826142905761429061426b565b500490565b600063ffffffff808316818516818304811182151516156142b8576142b861411e565b02949350505050565b6000826142d0576142d061426b565b500690565b60008160001904831182151516156142ef576142ef61411e565b500290565b6000828210156143065761430661411e565b50039056fea2646970667358221220dc6ea0c12acba55b3e59e783f8a5a22dbe2b9f6db32b698dbc070834e132e8fc64736f6c634300080c0033",
  "linkReferences": {},
  "deployedLinkReferences": {}
}