{
  "_format": "hh-sol-artifact-1",
  "contractName": "InfinityMintValues",
  "sourceName": "alpha/InfinityMintValues.sol",
  "abi": [
    {
      "inputs": [],
      "stateMutability": "nonpayable",
      "type": "constructor"
    },
    {
      "anonymous": false,
      "inputs": [
        {
          "indexed": true,
          "internalType": "address",
          "name": "sender",
          "type": "address"
        },
        {
          "indexed": true,
          "internalType": "address",
          "name": "changee",
          "type": "address"
        },
        {
          "indexed": false,
          "internalType": "bool",
          "name": "value",
          "type": "bool"
        }
      ],
      "name": "PermissionChange",
      "type": "event"
    },
    {
      "anonymous": false,
      "inputs": [
        {
          "indexed": true,
          "internalType": "address",
          "name": "from",
          "type": "address"
        },
        {
          "indexed": true,
          "internalType": "address",
          "name": "to",
          "type": "address"
        }
      ],
      "name": "TransferedOwnership",
      "type": "event"
    },
    {
      "inputs": [
        {
          "internalType": "address",
          "name": "",
          "type": "address"
        }
      ],
      "name": "approved",
      "outputs": [
        {
          "internalType": "bool",
          "name": "",
          "type": "bool"
        }
      ],
      "stateMutability": "view",
      "type": "function"
    },
    {
      "inputs": [],
      "name": "deployer",
      "outputs": [
        {
          "internalType": "address",
          "name": "",
          "type": "address"
        }
      ],
      "stateMutability": "view",
      "type": "function"
    },
    {
      "inputs": [
        {
          "internalType": "string",
          "name": "key",
          "type": "string"
        }
      ],
      "name": "getValue",
      "outputs": [
        {
          "internalType": "uint256",
          "name": "",
          "type": "uint256"
        }
      ],
      "stateMutability": "view",
      "type": "function"
    },
    {
      "inputs": [
        {
          "internalType": "address",
          "name": "addr",
          "type": "address"
        }
      ],
      "name": "isAuthenticated",
      "outputs": [
        {
          "internalType": "bool",
          "name": "",
          "type": "bool"
        }
      ],
      "stateMutability": "view",
      "type": "function"
    },
    {
      "inputs": [
        {
          "internalType": "string",
          "name": "key",
          "type": "string"
        }
      ],
      "name": "isTrue",
      "outputs": [
        {
          "internalType": "bool",
          "name": "",
          "type": "bool"
        }
      ],
      "stateMutability": "view",
      "type": "function"
    },
    {
      "inputs": [
        {
          "internalType": "address[]",
          "name": "addrs",
          "type": "address[]"
        }
      ],
      "name": "multiApprove",
      "outputs": [],
      "stateMutability": "nonpayable",
      "type": "function"
    },
    {
      "inputs": [
        {
          "internalType": "address[]",
          "name": "addrs",
          "type": "address[]"
        }
      ],
      "name": "multiRevoke",
      "outputs": [],
      "stateMutability": "nonpayable",
      "type": "function"
    },
    {
      "inputs": [
        {
          "internalType": "string",
          "name": "key",
          "type": "string"
        },
        {
          "internalType": "bool",
          "name": "value",
          "type": "bool"
        }
      ],
      "name": "setBooleanValue",
      "outputs": [],
      "stateMutability": "nonpayable",
      "type": "function"
    },
    {
      "inputs": [
        {
          "internalType": "address",
          "name": "addr",
          "type": "address"
        },
        {
          "internalType": "bool",
          "name": "value",
          "type": "bool"
        }
      ],
      "name": "setPrivilages",
      "outputs": [],
      "stateMutability": "nonpayable",
      "type": "function"
    },
    {
      "inputs": [
        {
          "internalType": "string",
          "name": "key",
          "type": "string"
        },
        {
          "internalType": "uint256",
          "name": "value",
          "type": "uint256"
        }
      ],
      "name": "setValue",
      "outputs": [],
      "stateMutability": "nonpayable",
      "type": "function"
    },
    {
      "inputs": [
        {
          "internalType": "string[]",
          "name": "keys",
          "type": "string[]"
        },
        {
          "internalType": "uint256[]",
          "name": "_values",
          "type": "uint256[]"
        },
        {
          "internalType": "string[]",
          "name": "booleanKeys",
          "type": "string[]"
        },
        {
          "internalType": "bool[]",
          "name": "_booleanValues",
          "type": "bool[]"
        }
      ],
      "name": "setupValues",
      "outputs": [],
      "stateMutability": "nonpayable",
      "type": "function"
    },
    {
      "inputs": [
        {
          "internalType": "address",
          "name": "addr",
          "type": "address"
        }
      ],
      "name": "transferOwnership",
      "outputs": [],
      "stateMutability": "nonpayable",
      "type": "function"
    },
    {
      "inputs": [
        {
          "internalType": "string",
          "name": "key",
          "type": "string"
        }
      ],
      "name": "tryGetValue",
      "outputs": [
        {
          "internalType": "uint256",
          "name": "",
          "type": "uint256"
        }
      ],
      "stateMutability": "view",
      "type": "function"
    }
  ],
  "bytecode": "0x608060405234801561001057600080fd5b50600480546001600160a01b031916339081179091556000908152600360205260408120805460ff19166001179055600555610d40806100516000396000f3fe608060405234801561001057600080fd5b50600436106100af5760003560e01c80630312c880146100b45780630b3f0d8d146100dc57806310a8c7a9146100f157806331ed86d2146101045780633d8f89d7146101175780637c2da7aa1461012a578063960384a01461013d578063d15d41501461015e578063d5f3948814610171578063d8b964e61461019c578063e7b6dac9146101bf578063f2fde38b146101d2578063fe684c0e146101e5575b600080fd5b6100c76100c236600461087a565b6101f8565b60405190151581526020015b60405180910390f35b6100ef6100ea3660046109df565b610223565b005b6100ef6100ff366004610af6565b61032e565b6100ef610112366004610af6565b6103c5565b6100ef610125366004610b8d565b610458565b6100ef610138366004610bda565b6104e9565b61015061014b36600461087a565b610548565b6040519081526020016100d3565b6100c761016c366004610c1e565b6105cf565b600454610184906001600160a01b031681565b6040516001600160a01b0390911681526020016100d3565b6100c76101aa366004610c1e565b60036020526000908152604090205460ff1681565b6101506101cd36600461087a565b61060c565b6100ef6101e0366004610c1e565b61063d565b6100ef6101f3366004610c40565b6106e3565b600060018260405161020a9190610c6a565b9081526040519081900360200190205460ff1692915050565b6004546001600160a01b031633146102565760405162461bcd60e51b815260040161024d90610ca5565b60405180910390fd5b825184511461026457600080fd5b805182511461027257600080fd5b60005b84518110156102cc576102ba85828151811061029357610293610ccb565b60200260200101518583815181106102ad576102ad610ccb565b60200260200101516104e9565b806102c481610ce1565b915050610275565b5060005b8251811015610327576103158382815181106102ee576102ee610ccb565b602002602001015183838151811061030857610308610ccb565b6020026020010151610458565b8061031f81610ce1565b9150506102d0565b5050505050565b6004546001600160a01b031633146103585760405162461bcd60e51b815260040161024d90610ca5565b805161036357600080fd5b60005b81518110156103c15760016003600084848151811061038757610387610ccb565b6020908102919091018101516001600160a01b03168252810191909152604001600020805460ff1916911515919091179055600101610366565b5050565b6004546001600160a01b031633146103ef5760405162461bcd60e51b815260040161024d90610ca5565b80516103fa57600080fd5b60005b81518110156103c15760006003600084848151811061041e5761041e610ccb565b6020908102919091018101516001600160a01b03168252810191909152604001600020805460ff19169115159190911790556001016103fd565b6004546001600160a01b031633146104825760405162461bcd60e51b815260040161024d90610ca5565b806001836040516104939190610c6a565b908152604051908190036020018120805492151560ff19909316929092179091556001906002906104c5908590610c6a565b908152604051908190036020019020805491151560ff199092169190911790555050565b6004546001600160a01b031633146105135760405162461bcd60e51b815260040161024d90610ca5565b806000836040516105249190610c6a565b90815260200160405180910390208190555060016002836040516104c59190610c6a565b600060028260405161055a9190610c6a565b9081526040519081900360200190205460ff166105a95760405162461bcd60e51b815260206004820152600d60248201526c496e76616c69642056616c756560981b604482015260640161024d565b6000826040516105b99190610c6a565b9081526020016040518091039020549050919050565b6004546000906001600160a01b038381169116148061060657506001600160a01b03821660009081526003602052604090205460ff165b92915050565b600060028260405161061e9190610c6a565b9081526040519081900360200190205460ff166105a957506000919050565b6004546001600160a01b031633146106675760405162461bcd60e51b815260040161024d90610ca5565b600480546001600160a01b03908116600090815260036020526040808220805460ff1990811690915584546001600160a01b03191693861693841790945582825280822080549094166001179093559151909133917f93091b3f3cd424efabc74e181f3799f3476ed758412561ed3b29515c51f567529190a350565b6004546001600160a01b0316331461070d5760405162461bcd60e51b815260040161024d90610ca5565b6004546001600160a01b03838116911614156107645760405162461bcd60e51b815260206004820152601660248201527531b0b73737ba1036b7b234b33c903232b83637bcb2b960511b604482015260640161024d565b6001600160a01b038216600081815260036020908152604091829020805460ff1916851515908117909155915191825233917ff38de818d000d07d091732dd783c6855722d7bc1934d92b7635133289d341695910160405180910390a35050565b634e487b7160e01b600052604160045260246000fd5b604051601f8201601f191681016001600160401b0381118282101715610803576108036107c5565b604052919050565b600082601f83011261081c57600080fd5b81356001600160401b03811115610835576108356107c5565b610848601f8201601f19166020016107db565b81815284602083860101111561085d57600080fd5b816020850160208301376000918101602001919091529392505050565b60006020828403121561088c57600080fd5b81356001600160401b038111156108a257600080fd5b6108ae8482850161080b565b949350505050565b60006001600160401b038211156108cf576108cf6107c5565b5060051b60200190565b600082601f8301126108ea57600080fd5b813560206108ff6108fa836108b6565b6107db565b82815260059290921b8401810191818101908684111561091e57600080fd5b8286015b8481101561095d5780356001600160401b038111156109415760008081fd5b61094f8986838b010161080b565b845250918301918301610922565b509695505050505050565b8035801515811461097857600080fd5b919050565b600082601f83011261098e57600080fd5b8135602061099e6108fa836108b6565b82815260059290921b840181019181810190868411156109bd57600080fd5b8286015b8481101561095d576109d281610968565b83529183019183016109c1565b600080600080608085870312156109f557600080fd5b84356001600160401b0380821115610a0c57600080fd5b610a18888389016108d9565b9550602091508187013581811115610a2f57600080fd5b8701601f81018913610a4057600080fd5b8035610a4e6108fa826108b6565b81815260059190911b8201840190848101908b831115610a6d57600080fd5b928501925b82841015610a8b57833582529285019290850190610a72565b97505050506040870135915080821115610aa457600080fd5b610ab0888389016108d9565b93506060870135915080821115610ac657600080fd5b50610ad38782880161097d565b91505092959194509250565b80356001600160a01b038116811461097857600080fd5b60006020808385031215610b0957600080fd5b82356001600160401b03811115610b1f57600080fd5b8301601f81018513610b3057600080fd5b8035610b3e6108fa826108b6565b81815260059190911b82018301908381019087831115610b5d57600080fd5b928401925b82841015610b8257610b7384610adf565b82529284019290840190610b62565b979650505050505050565b60008060408385031215610ba057600080fd5b82356001600160401b03811115610bb657600080fd5b610bc28582860161080b565b925050610bd160208401610968565b90509250929050565b60008060408385031215610bed57600080fd5b82356001600160401b03811115610c0357600080fd5b610c0f8582860161080b565b95602094909401359450505050565b600060208284031215610c3057600080fd5b610c3982610adf565b9392505050565b60008060408385031215610c5357600080fd5b610c5c83610adf565b9150610bd160208401610968565b6000825160005b81811015610c8b5760208186018101518583015201610c71565b81811115610c9a576000828501525b509190910192915050565b6020808252600c908201526b3737ba103232b83637bcb2b960a11b604082015260600190565b634e487b7160e01b600052603260045260246000fd5b6000600019821415610d0357634e487b7160e01b600052601160045260246000fd5b506001019056fea2646970667358221220a8091e92aa2c5e7237fac4fbf8d1d9e0f270c538da2020f6d56307b2f2316fd064736f6c634300080c0033",
  "linkReferences": {},
  "deployedLinkReferences": {}
}