{
  "_format": "hh-sol-artifact-1",
  "contractName": "Pregenerative",
  "sourceName": "alpha/core/assets/Pregenerated.sol",
  "abi": [
    {
      "inputs": [
        {
          "internalType": "string",
          "name": "_tokenName",
          "type": "string"
        },
        {
          "internalType": "address",
          "name": "valuesContract",
          "type": "address"
        }
      ],
      "stateMutability": "nonpayable",
      "type": "constructor"
    },
    {
      "anonymous": false,
      "inputs": [
        {
          "indexed": true,
          "internalType": "address",
          "name": "sender",
          "type": "address"
        },
        {
          "indexed": true,
          "internalType": "address",
          "name": "changee",
          "type": "address"
        },
        {
          "indexed": false,
          "internalType": "bool",
          "name": "value",
          "type": "bool"
        }
      ],
      "name": "PermissionChange",
      "type": "event"
    },
    {
      "anonymous": false,
      "inputs": [
        {
          "indexed": true,
          "internalType": "address",
          "name": "from",
          "type": "address"
        },
        {
          "indexed": true,
          "internalType": "address",
          "name": "to",
          "type": "address"
        }
      ],
      "name": "TransferedOwnership",
      "type": "event"
    },
    {
      "inputs": [
        {
          "internalType": "uint256",
          "name": "rarity",
          "type": "uint256"
        }
      ],
      "name": "addAsset",
      "outputs": [],
      "stateMutability": "nonpayable",
      "type": "function"
    },
    {
      "inputs": [
        {
          "internalType": "uint256[]",
          "name": "rarities",
          "type": "uint256[]"
        }
      ],
      "name": "addAssets",
      "outputs": [],
      "stateMutability": "nonpayable",
      "type": "function"
    },
    {
      "inputs": [
        {
          "internalType": "string",
          "name": "name",
          "type": "string"
        }
      ],
      "name": "addName",
      "outputs": [],
      "stateMutability": "nonpayable",
      "type": "function"
    },
    {
      "inputs": [
        {
          "internalType": "address",
          "name": "",
          "type": "address"
        }
      ],
      "name": "approved",
      "outputs": [
        {
          "internalType": "bool",
          "name": "",
          "type": "bool"
        }
      ],
      "stateMutability": "view",
      "type": "function"
    },
    {
      "inputs": [],
      "name": "assetsType",
      "outputs": [
        {
          "internalType": "string",
          "name": "",
          "type": "string"
        }
      ],
      "stateMutability": "view",
      "type": "function"
    },
    {
      "inputs": [
        {
          "internalType": "string[]",
          "name": "newNames",
          "type": "string[]"
        }
      ],
      "name": "combineNames",
      "outputs": [],
      "stateMutability": "nonpayable",
      "type": "function"
    },
    {
      "inputs": [],
      "name": "deployer",
      "outputs": [
        {
          "internalType": "address",
          "name": "",
          "type": "address"
        }
      ],
      "stateMutability": "view",
      "type": "function"
    },
    {
      "inputs": [
        {
          "internalType": "uint32[]",
          "name": "pathIds",
          "type": "uint32[]"
        }
      ],
      "name": "flatPathSections",
      "outputs": [],
      "stateMutability": "nonpayable",
      "type": "function"
    },
    {
      "inputs": [
        {
          "internalType": "uint32",
          "name": "pathId",
          "type": "uint32"
        },
        {
          "internalType": "contract RandomNumber",
          "name": "randomNumberController",
          "type": "address"
        }
      ],
      "name": "getColours",
      "outputs": [
        {
          "internalType": "uint32[]",
          "name": "result",
          "type": "uint32[]"
        }
      ],
      "stateMutability": "nonpayable",
      "type": "function"
    },
    {
      "inputs": [
        {
          "internalType": "uint32",
          "name": "pathId",
          "type": "uint32"
        },
        {
          "internalType": "uint32",
          "name": "",
          "type": "uint32"
        },
        {
          "internalType": "contract RandomNumber",
          "name": "",
          "type": "address"
        }
      ],
      "name": "getMintData",
      "outputs": [
        {
          "internalType": "bytes",
          "name": "",
          "type": "bytes"
        }
      ],
      "stateMutability": "nonpayable",
      "type": "function"
    },
    {
      "inputs": [
        {
          "internalType": "uint256",
          "name": "nameCount",
          "type": "uint256"
        },
        {
          "internalType": "contract RandomNumber",
          "name": "",
          "type": "address"
        }
      ],
      "name": "getNames",
      "outputs": [
        {
          "internalType": "string[]",
          "name": "results",
          "type": "string[]"
        }
      ],
      "stateMutability": "nonpayable",
      "type": "function"
    },
    {
      "inputs": [],
      "name": "getNextPath",
      "outputs": [
        {
          "internalType": "uint32",
          "name": "",
          "type": "uint32"
        }
      ],
      "stateMutability": "view",
      "type": "function"
    },
    {
      "inputs": [
        {
          "internalType": "contract RandomNumber",
          "name": "randomNumberController",
          "type": "address"
        }
      ],
      "name": "getNextPathId",
      "outputs": [
        {
          "internalType": "uint32",
          "name": "",
          "type": "uint32"
        }
      ],
      "stateMutability": "nonpayable",
      "type": "function"
    },
    {
      "inputs": [
        {
          "internalType": "uint256",
          "name": "pathId",
          "type": "uint256"
        }
      ],
      "name": "getPathSections",
      "outputs": [
        {
          "internalType": "uint256[]",
          "name": "",
          "type": "uint256[]"
        }
      ],
      "stateMutability": "view",
      "type": "function"
    },
    {
      "inputs": [
        {
          "internalType": "uint32",
          "name": "pathId",
          "type": "uint32"
        }
      ],
      "name": "getPathSize",
      "outputs": [
        {
          "internalType": "uint32",
          "name": "",
          "type": "uint32"
        }
      ],
      "stateMutability": "view",
      "type": "function"
    },
    {
      "inputs": [
        {
          "internalType": "uint32",
          "name": "pathId",
          "type": "uint32"
        },
        {
          "internalType": "contract RandomNumber",
          "name": "randomNumberController",
          "type": "address"
        }
      ],
      "name": "getRandomAsset",
      "outputs": [
        {
          "internalType": "uint32[]",
          "name": "assetsId",
          "type": "uint32[]"
        }
      ],
      "stateMutability": "view",
      "type": "function"
    },
    {
      "inputs": [
        {
          "internalType": "uint256",
          "name": "sectionId",
          "type": "uint256"
        }
      ],
      "name": "getSectionAssets",
      "outputs": [
        {
          "internalType": "uint256[]",
          "name": "",
          "type": "uint256[]"
        }
      ],
      "stateMutability": "view",
      "type": "function"
    },
    {
      "inputs": [
        {
          "internalType": "address",
          "name": "addr",
          "type": "address"
        }
      ],
      "name": "isAuthenticated",
      "outputs": [
        {
          "internalType": "bool",
          "name": "",
          "type": "bool"
        }
      ],
      "stateMutability": "view",
      "type": "function"
    },
    {
      "inputs": [
        {
          "internalType": "uint32",
          "name": "pathId",
          "type": "uint32"
        }
      ],
      "name": "isValidPath",
      "outputs": [
        {
          "internalType": "bool",
          "name": "",
          "type": "bool"
        }
      ],
      "stateMutability": "view",
      "type": "function"
    },
    {
      "inputs": [
        {
          "internalType": "address[]",
          "name": "addrs",
          "type": "address[]"
        }
      ],
      "name": "multiApprove",
      "outputs": [],
      "stateMutability": "nonpayable",
      "type": "function"
    },
    {
      "inputs": [
        {
          "internalType": "address[]",
          "name": "addrs",
          "type": "address[]"
        }
      ],
      "name": "multiRevoke",
      "outputs": [],
      "stateMutability": "nonpayable",
      "type": "function"
    },
    {
      "inputs": [
        {
          "internalType": "uint256",
          "name": "",
          "type": "uint256"
        }
      ],
      "name": "names",
      "outputs": [
        {
          "internalType": "string",
          "name": "",
          "type": "string"
        }
      ],
      "stateMutability": "view",
      "type": "function"
    },
    {
      "inputs": [
        {
          "internalType": "uint32",
          "name": "currentTokenId",
          "type": "uint32"
        },
        {
          "internalType": "contract RandomNumber",
          "name": "randomNumberController",
          "type": "address"
        }
      ],
      "name": "pickPath",
      "outputs": [
        {
          "components": [
            {
              "internalType": "uint32",
              "name": "pathId",
              "type": "uint32"
            },
            {
              "internalType": "uint32",
              "name": "pathSize",
              "type": "uint32"
            },
            {
              "internalType": "uint32[]",
              "name": "assets",
              "type": "uint32[]"
            },
            {
              "internalType": "string[]",
              "name": "names",
              "type": "string[]"
            },
            {
              "internalType": "uint32[]",
              "name": "colours",
              "type": "uint32[]"
            },
            {
              "internalType": "bytes",
              "name": "mintData",
              "type": "bytes"
            }
          ],
          "internalType": "struct Asset.PartialStruct",
          "name": "",
          "type": "tuple"
        }
      ],
      "stateMutability": "nonpayable",
      "type": "function"
    },
    {
      "inputs": [
        {
          "internalType": "uint32",
          "name": "pathId",
          "type": "uint32"
        },
        {
          "internalType": "uint32",
          "name": "currentTokenId",
          "type": "uint32"
        },
        {
          "internalType": "contract RandomNumber",
          "name": "randomNumberController",
          "type": "address"
        }
      ],
      "name": "pickPath",
      "outputs": [
        {
          "components": [
            {
              "internalType": "uint32",
              "name": "pathId",
              "type": "uint32"
            },
            {
              "internalType": "uint32",
              "name": "pathSize",
              "type": "uint32"
            },
            {
              "internalType": "uint32[]",
              "name": "assets",
              "type": "uint32[]"
            },
            {
              "internalType": "string[]",
              "name": "names",
              "type": "string[]"
            },
            {
              "internalType": "uint32[]",
              "name": "colours",
              "type": "uint32[]"
            },
            {
              "internalType": "bytes",
              "name": "mintData",
              "type": "bytes"
            }
          ],
          "internalType": "struct Asset.PartialStruct",
          "name": "",
          "type": "tuple"
        }
      ],
      "stateMutability": "nonpayable",
      "type": "function"
    },
    {
      "inputs": [
        {
          "internalType": "uint256[]",
          "name": "_assets",
          "type": "uint256[]"
        }
      ],
      "name": "pushSectionAssets",
      "outputs": [],
      "stateMutability": "nonpayable",
      "type": "function"
    },
    {
      "inputs": [],
      "name": "resetAssets",
      "outputs": [],
      "stateMutability": "nonpayable",
      "type": "function"
    },
    {
      "inputs": [],
      "name": "resetNames",
      "outputs": [],
      "stateMutability": "nonpayable",
      "type": "function"
    },
    {
      "inputs": [],
      "name": "resetPaths",
      "outputs": [],
      "stateMutability": "nonpayable",
      "type": "function"
    },
    {
      "inputs": [
        {
          "internalType": "uint32[]",
          "name": "assets",
          "type": "uint32[]"
        }
      ],
      "name": "setLastAssets",
      "outputs": [],
      "stateMutability": "nonpayable",
      "type": "function"
    },
    {
      "inputs": [
        {
          "internalType": "uint32",
          "name": "pathId",
          "type": "uint32"
        }
      ],
      "name": "setLastPathId",
      "outputs": [],
      "stateMutability": "nonpayable",
      "type": "function"
    },
    {
      "inputs": [
        {
          "internalType": "uint32",
          "name": "index",
          "type": "uint32"
        },
        {
          "internalType": "bytes",
          "name": "_mintData",
          "type": "bytes"
        }
      ],
      "name": "setMintData",
      "outputs": [],
      "stateMutability": "nonpayable",
      "type": "function"
    },
    {
      "inputs": [
        {
          "internalType": "string[]",
          "name": "newNames",
          "type": "string[]"
        }
      ],
      "name": "setNames",
      "outputs": [],
      "stateMutability": "nonpayable",
      "type": "function"
    },
    {
      "inputs": [
        {
          "internalType": "uint32",
          "name": "pathId",
          "type": "uint32"
        }
      ],
      "name": "setNextPathId",
      "outputs": [],
      "stateMutability": "nonpayable",
      "type": "function"
    },
    {
      "inputs": [
        {
          "internalType": "uint256",
          "name": "newPathCount",
          "type": "uint256"
        }
      ],
      "name": "setPathCount",
      "outputs": [],
      "stateMutability": "nonpayable",
      "type": "function"
    },
    {
      "inputs": [
        {
          "internalType": "uint32",
          "name": "pathId",
          "type": "uint32"
        },
        {
          "internalType": "bool",
          "name": "value",
          "type": "bool"
        }
      ],
      "name": "setPathDisabled",
      "outputs": [],
      "stateMutability": "nonpayable",
      "type": "function"
    },
    {
      "inputs": [
        {
          "internalType": "uint32[]",
          "name": "pathIds",
          "type": "uint32[]"
        },
        {
          "internalType": "uint256[][]",
          "name": "_sections",
          "type": "uint256[][]"
        }
      ],
      "name": "setPathSections",
      "outputs": [],
      "stateMutability": "nonpayable",
      "type": "function"
    },
    {
      "inputs": [
        {
          "internalType": "uint32",
          "name": "pathId",
          "type": "uint32"
        },
        {
          "internalType": "uint32",
          "name": "pathSize",
          "type": "uint32"
        }
      ],
      "name": "setPathSize",
      "outputs": [],
      "stateMutability": "nonpayable",
      "type": "function"
    },
    {
      "inputs": [
        {
          "internalType": "uint32[]",
          "name": "newPathSizes",
          "type": "uint32[]"
        }
      ],
      "name": "setPathSizes",
      "outputs": [],
      "stateMutability": "nonpayable",
      "type": "function"
    },
    {
      "inputs": [
        {
          "internalType": "address",
          "name": "addr",
          "type": "address"
        },
        {
          "internalType": "bool",
          "name": "value",
          "type": "bool"
        }
      ],
      "name": "setPrivilages",
      "outputs": [],
      "stateMutability": "nonpayable",
      "type": "function"
    },
    {
      "inputs": [
        {
          "internalType": "uint32",
          "name": "sectionId",
          "type": "uint32"
        },
        {
          "internalType": "uint256[]",
          "name": "_assets",
          "type": "uint256[]"
        }
      ],
      "name": "setSectionAssets",
      "outputs": [],
      "stateMutability": "nonpayable",
      "type": "function"
    },
    {
      "inputs": [
        {
          "internalType": "address",
          "name": "addr",
          "type": "address"
        }
      ],
      "name": "transferOwnership",
      "outputs": [],
      "stateMutability": "nonpayable",
      "type": "function"
    }
  ],
  "bytecode": "0x60c06040526005608081905264185cdcd95d60da1b60a0908152620000289160069190620001a6565b5060408051808201909152600780825266191959985d5b1d60ca1b6020909201918252620000579181620001a6565b50600f80546001600160401b03191690556011805460ff191690553480156200007f57600080fd5b50604051620034a9380380620034a9833981016040819052620000a2916200027f565b60008054336001600160a01b03199182168117835582526002602090815260408320805460ff19166001908117909155838155600580549093166001600160a01b03861617909255600d8054928301815583527fd7b6990105719101dabeb77144f2a3385c8033acd3af97e9423a695e81ad1eb590910191909155825183918391620001359160069190850190620001a6565b5060408051808201909152600580825264696d61676560d81b60209092019182526200016491600791620001a6565b505060408051808201909152600c8082526b1c1c9959d95b995c985d195960a21b60209092019182526200019d925060079190620001a6565b505050620003ad565b828054620001b49062000370565b90600052602060002090601f016020900481019282620001d8576000855562000223565b82601f10620001f357805160ff191683800117855562000223565b8280016001018555821562000223579182015b828111156200022357825182559160200191906001019062000206565b506200023192915062000235565b5090565b5b8082111562000231576000815560010162000236565b634e487b7160e01b600052604160045260246000fd5b80516001600160a01b03811681146200027a57600080fd5b919050565b600080604083850312156200029357600080fd5b82516001600160401b0380821115620002ab57600080fd5b818501915085601f830112620002c057600080fd5b815181811115620002d557620002d56200024c565b604051601f8201601f19908116603f011681019083821181831017156200030057620003006200024c565b816040528281526020935088848487010111156200031d57600080fd5b600091505b8282101562000341578482018401518183018501529083019062000322565b82821115620003535760008484830101525b95506200036591505085820162000262565b925050509250929050565b600181811c908216806200038557607f821691505b60208210811415620003a757634e487b7160e01b600052602260045260246000fd5b50919050565b6130ec80620003bd6000396000f3fe608060405234801561001057600080fd5b50600436106101f35760003560e01c80638a25ad24116101165780638a25ad24146103bd5780638c9fcab9146103d05780638e6e826d146103e3578063a57b3b4514610406578063a85f329814610419578063b895bcb71461042c578063bfb05d031461043f578063c40f4a2514610452578063d15d415014610465578063d5f3948814610478578063d8b964e6146104a3578063d935232c146104c6578063dccd935c146104d9578063e6ef8955146104e1578063e7214f4f146104f4578063e96aeef314610507578063eb2c2da31461051a578063f2fde38b1461052d578063f60a743614610540578063fe684c0e14610553578063ff220d6d1461056657600080fd5b80630b71d256146101f857806310a8c7a91461020d57806311456b471461022057806331ed86d2146102335780633406bfac1461024657806335697ba71461024e5780633840c21a146102775780633982e0c41461028a578063433ee8cd1461029d57806343bebe4e146102bd578063453dc933146102e55780634622ab03146102f857806346e4e7c9146103185780634c6fe6a214610326578063593c7b27146103465780637730f4fa146103595780637ba8dcd61461037c5780637bc62e09146103845780637bd6ec4a146103975780637cf8031e146103aa575b600080fd5b61020b6102063660046125da565b61056e565b005b61020b61021b366004612671565b610601565b61020b61022e366004612786565b610698565b61020b610241366004612671565b61071f565b61020b6107b2565b61026161025c3660046125da565b610851565b60405161026e91906127ba565b60405180910390f35b61020b6102853660046127fe565b6108b3565b61020b6102983660046128d0565b61090a565b6102b06102ab366004612907565b6109f3565b60405161026e9190612a16565b6102d06102cb366004612ab2565b610a17565b60405163ffffffff909116815260200161026e565b61020b6102f33660046127fe565b610a77565b61030b6103063660046125da565b610b24565b60405161026e9190612acd565b600f5463ffffffff166102d0565b610339610334366004612ae0565b610bd0565b60405161026e9190612b05565b61020b610354366004612b85565b610d51565b61036c610367366004612ab2565b610da8565b604051901515815260200161026e565b61030b610dd9565b61020b610392366004612bb9565b610de6565b6102b06103a5366004612c1a565b610eb2565b61020b6103b8366004612cbc565b6110a5565b61020b6103cb366004612ab2565b611112565b6102616103de3660046125da565b61117c565b6103f96103f1366004612907565b606092915050565b60405161026e9190612cf0565b61020b610414366004612d03565b6111ef565b61020b6104273660046125da565b611284565b6102d061043a366004612d36565b6112cd565b61020b61044d366004612d53565b611592565b61020b610460366004612b85565b6115f3565b61036c610473366004612d36565b61166a565b60005461048b906001600160a01b031681565b6040516001600160a01b03909116815260200161026e565b61036c6104b1366004612d36565b60026020526000908152604090205460ff1681565b61020b6104d4366004612ab2565b6116a1565b61020b611701565b61020b6104ef366004612d96565b611753565b61020b610502366004612b85565b611809565b61030b610515366004612c1a565b611860565b6103f9610528366004612907565b611937565b61020b61053b366004612d36565b611f1f565b61020b61054e366004612cbc565b611fbf565b61020b610561366004612e6a565b6120bd565b61020b61219f565b6000546001600160a01b031633146105a15760405162461bcd60e51b815260040161059890612e88565b60405180910390fd5b60648111156105af57600080fd5b600d80546001818101835560009283527fd7b6990105719101dabeb77144f2a3385c8033acd3af97e9423a695e81ad1eb5909101839055600b8054919290916105f9908490612ec4565b909155505050565b6000546001600160a01b0316331461062b5760405162461bcd60e51b815260040161059890612e88565b805161063657600080fd5b60005b81518110156106945760016002600084848151811061065a5761065a612edc565b6020908102919091018101516001600160a01b03168252810191909152604001600020805460ff1916911515919091179055600101610639565b5050565b6000546001600160a01b03163314806106c057503360009081526002602052604090205460ff165b6106dc5760405162461bcd60e51b815260040161059890612ef2565b601080546001810182556000919091528151610694917f1b6847dc741a1b0cd08d278845f9d819d87b734759afb55fe2de5cb82a9ae6720190602084019061228d565b6000546001600160a01b031633146107495760405162461bcd60e51b815260040161059890612e88565b805161075457600080fd5b60005b81518110156106945760006002600084848151811061077857610778612edc565b6020908102919091018101516001600160a01b03168252810191909152604001600020805460ff1916911515919091179055600101610757565b6000546001600160a01b03163314806107da57503360009081526002602052604090205460ff165b6107f65760405162461bcd60e51b815260040161059890612ef2565b610802600d6000612311565b61080e600c6000612332565b600d805460018101825560009182527fd7b6990105719101dabeb77144f2a3385c8033acd3af97e9423a695e81ad1eb501819055600b556011805460ff19169055565b6000818152600460209081526040918290208054835181840281018401909452808452606093928301828280156108a757602002820191906000526020600020905b815481526020019060010190808311610893575b50505050509050919050565b6000546001600160a01b03163314806108db57503360009081526002602052604090205460ff165b6108f75760405162461bcd60e51b815260040161059890612ef2565b8051610694906010906020840190612350565b6000546001600160a01b031633148061093257503360009081526002602052604090205460ff165b61094e5760405162461bcd60e51b815260040161059890612ef2565b600a548263ffffffff161480156109625750805b156109a657600a545b60008181526003602052604090205460ff16156109a25760085481106109905750600a545b8061099a81612f18565b91505061096b565b600a555b600a548263ffffffff16111580156109bb5750805b156109cb5763ffffffff8216600a555b63ffffffff919091166000908152600360205260409020805460ff1916911515919091179055565b6109fb6123a9565b610a0e610a07836112cd565b8484610eb2565b90505b92915050565b60095460009063ffffffff831610610a3157506001919050565b60098263ffffffff1681548110610a4a57610a4a612edc565b90600052602060002090600891828204019190066004029054906101000a900463ffffffff169050919050565b6000546001600160a01b0316331480610a9f57503360009081526002602052604090205460ff165b610abb5760405162461bcd60e51b815260040161059890612ef2565b6064815110610ac957600080fd5b60005b8151811015610694576010828281518110610ae957610ae9612edc565b60209081029190910181015182546001810184556000938452928290208151610b1b949190910192919091019061228d565b50600101610acc565b60108181548110610b3457600080fd5b906000526020600020016000915090508054610b4f90612f33565b80601f0160208091040260200160405190810160405280929190818152602001828054610b7b90612f33565b8015610bc85780601f10610b9d57610100808354040283529160200191610bc8565b820191906000526020600020905b815481529060010190602001808311610bab57829003601f168201915b505050505081565b601054606090831015610c345760408051600180825281830190925290816020015b6060815260200190600190039081610bf2579050509050610c116121fb565b81600081518110610c2457610c24612edc565b6020026020010181905250610a11565b6040805160028082526060820190925290816020015b6060815260200190600190039081610c4a57905050905060108381548110610c7457610c74612edc565b906000526020600020018054610c8990612f33565b80601f0160208091040260200160405190810160405280929190818152602001828054610cb590612f33565b8015610d025780601f10610cd757610100808354040283529160200191610d02565b820191906000526020600020905b815481529060010190602001808311610ce557829003601f168201915b505050505081600081518110610d1a57610d1a612edc565b6020026020010181905250610d2d6121fb565b81600181518110610d4057610d40612edc565b602002602001018190525092915050565b6000546001600160a01b0316331480610d7957503360009081526002602052604090205460ff165b610d955760405162461bcd60e51b815260040161059890612ef2565b80516106949060099060208401906123eb565b60006008548263ffffffff16108015610a1157505063ffffffff1660009081526003602052604090205460ff161590565b60078054610b4f90612f33565b6000546001600160a01b0316331480610e0e57503360009081526002602052604090205460ff165b610e2a5760405162461bcd60e51b815260040161059890612ef2565b63ffffffff821660009081526012602052604090208054610e4a90612f33565b159050610e875760405162461bcd60e51b815260206004820152600b60248201526a105b1c9958591e481cd95d60aa1b6044820152606401610598565b63ffffffff821660009081526012602090815260409091208251610ead9284019061228d565b505050565b610eba6123a9565b610ec3846116a1565b610ecd6060611809565b6040518060c001604052808563ffffffff168152602001610eed86610a17565b63ffffffff168152602001600e805480602002602001604051908101604052809291908181526020018280548015610f7057602002820191906000526020600020906000905b82829054906101000a900463ffffffff1663ffffffff1681526020019060040190602082600301049283019260010382029150808411610f335790505b505050918352505060055460405163e7b6dac960e01b815260206004820181905260096024830152681b985b5950dbdd5b9d60ba1b60448301529092019161107a916001600160a01b038781169263a0d0ca0f92919091169063e7b6dac990606401602060405180830381865afa158015610fef573d6000803e3d6000fd5b505050506040513d601f19601f820116820180604052508101906110139190612f6e565b6040518263ffffffff1660e01b815260040161103191815260200190565b6020604051808303816000875af1158015611050573d6000803e3d6000fd5b505050506040513d601f19601f820116820180604052508101906110749190612f6e565b85610bd0565b81526020016110898685611937565b8152602001611099868686611860565b905290505b9392505050565b6000546001600160a01b031633146110cf5760405162461bcd60e51b815260040161059890612e88565b600c80546001810182556000919091528151610694917fdf6966c971051c3d54ec59162606531493a51404a002842f56009d7e5cf4a8c701906020840190612495565b6000546001600160a01b031633148061113a57503360009081526002602052604090205460ff165b6111565760405162461bcd60e51b815260040161059890612ef2565b600f805463ffffffff909216600160201b0263ffffffff60201b19909216919091179055565b6060600c828154811061119157611191612edc565b906000526020600020018054806020026020016040519081016040528092919081815260200182805480156108a757602002820191906000526020600020908154815260200190600101908083116108935750505050509050919050565b6000546001600160a01b031633148061121757503360009081526002602052604090205460ff165b6112335760405162461bcd60e51b815260040161059890612ef2565b8060098363ffffffff168154811061124d5761124d612edc565b90600052602060002090600891828204019190066004026101000a81548163ffffffff021916908363ffffffff1602179055505050565b6000546001600160a01b03163314806112ac57503360009081526002602052604090205460ff165b6112c85760405162461bcd60e51b815260040161059890612ef2565b600855565b600060085460011480156112f25750600a5460009081526003602052604090205460ff165b156113305760405162461bcd60e51b815260206004820152600e60248201526d4e6f2076616c696420706174687360901b6044820152606401610598565b6005546040516206259160e71b815260206004820152600b60248201526a1a5b98dc995b595b9d185b60aa1b60448201526001600160a01b0390911690630312c88090606401602060405180830381865afa158015611393573d6000803e3d6000fd5b505050506040513d601f19601f820116820180604052508101906113b79190612f87565b156114d857600f8054600160201b900463ffffffff169060046113d983612fa4565b82546101009290920a63ffffffff818102199093169183160217909155600f805463ffffffff19169290911691821790556008541161144257600a54600f805467ffffffffffffffff1916600160201b63ffffffff90931692830263ffffffff19161790911790555b600f5463ffffffff1660009081526003602052604090205460ff16156114ca57600854600f5463ffffffff161061149057600a54600f805463ffffffff191663ffffffff9092169190911790555b600f805463ffffffff169060006114a683612fa4565b91906101000a81548163ffffffff021916908363ffffffff16021790555050611442565b5050600f5463ffffffff1690565b60085460405163a0d0ca0f60e01b81526000916001600160a01b0385169163a0d0ca0f9161150c9160040190815260200190565b6020604051808303816000875af115801561152b573d6000803e3d6000fd5b505050506040513d601f19601f8201168201806040525081019061154f9190612f6e565b63ffffffff811660009081526003602052604090205490915060ff168061157e57506008548163ffffffff1610155b15610a115750600a5492915050565b919050565b6000546001600160a01b031633146115bc5760405162461bcd60e51b815260040161059890612e88565b80600c8363ffffffff16815481106115d6576115d6612edc565b906000526020600020019080519060200190610ead929190612495565b6000546001600160a01b0316331461161d5760405162461bcd60e51b815260040161059890612e88565b60008052600460209081528151611659917f17ef568e3e12ab5b9c7254a8d58478811de00f9e6eb34345acd53bf8fd09d3ec91908401906124cf565b50506011805460ff19166001179055565b600080546001600160a01b0383811691161480610a115750506001600160a01b031660009081526002602052604090205460ff1690565b6000546001600160a01b03163314806116c957503360009081526002602052604090205460ff165b6116e55760405162461bcd60e51b815260040161059890612ef2565b600f805463ffffffff191663ffffffff92909216919091179055565b6000546001600160a01b031633148061172957503360009081526002602052604090205460ff165b6117455760405162461bcd60e51b815260040161059890612ef2565b61175160106000612512565b565b6000546001600160a01b0316331461177d5760405162461bcd60e51b815260040161059890612e88565b805182511461178b57600080fd5b60005b8251811015610ead578181815181106117a9576117a9612edc565b6020026020010151600460008584815181106117c7576117c7612edc565b602002602001015163ffffffff16815260200190815260200160002090805190602001906117f6929190612495565b508061180181612f18565b91505061178e565b6000546001600160a01b031633148061183157503360009081526002602052604090205460ff165b61184d5760405162461bcd60e51b815260040161059890612ef2565b805161069490600e9060208401906123eb565b63ffffffff831660009081526012602052604081208054606092919061188590612f33565b80601f01602080910402602001604051908101604052809291908181526020018280546118b190612f33565b80156118fe5780601f106118d3576101008083540402835291602001916118fe565b820191906000526020600020905b8154815290600101906020018083116118e157829003601f168201915b5050505050905080516000141561192f5750506040805180820190915260028152617b7d60f01b602082015261109e565b949350505050565b6060600061194484610a17565b60055460405163e7b6dac960e01b815260206004820152600f60248201526e636f6c6f75724368756e6b53697a6560881b60448201529192506000916001600160a01b039091169063e7b6dac990606401602060405180830381865afa1580156119b2573d6000803e3d6000fd5b505050506040513d601f19601f820116820180604052508101906119d69190612f6e565b9050600081116119e4575060045b808263ffffffff1611611c0b5760408051600480825260a0820190925290602082016080803683370190505060405163a0d0ca0f60e01b815262ffffff60048201529093506001600160a01b0385169063a0d0ca0f906024016020604051808303816000875af1158015611a5c573d6000803e3d6000fd5b505050506040513d601f19601f82011682018060405250810190611a809190612f6e565b83600081518110611a9357611a93612edc565b602002602001019063ffffffff16908163ffffffff16815250508183600181518110611ac157611ac1612edc565b63ffffffff928316602091820292909201015260405163a0d0ca0f60e01b815260048101919091526001600160a01b0385169063a0d0ca0f906024016020604051808303816000875af1158015611b1c573d6000803e3d6000fd5b505050506040513d601f19601f82011682018060405250810190611b409190612f6e565b83600281518110611b5357611b53612edc565b63ffffffff9092166020928302919091019091015260055460405163e7b6dac960e01b81526001600160a01b039091169063e7b6dac990611b9690600401612fc8565b602060405180830381865afa158015611bb3573d6000803e3d6000fd5b505050506040513d601f19601f82011682018060405250810190611bd79190612f6e565b83600381518110611bea57611bea612edc565b602002602001019063ffffffff16908163ffffffff16815250505050610a11565b6000611c1d8263ffffffff8516613004565b611c28906001612ec4565b90506000611c37826002613018565b9050836000611c47836002613044565b63ffffffff166001600160401b03811115611c6457611c646125f3565b604051908082528060200260200182016040528015611c8d578160200160208202803683370190505b50965060005b8363ffffffff16811015611dc857801580611cb65750611cb460028261306c565b155b15611d595760405163a0d0ca0f60e01b815262ffffff60048201526001600160a01b038a169063a0d0ca0f906024016020604051808303816000875af1158015611d04573d6000803e3d6000fd5b505050506040513d601f19601f82011682018060405250810190611d289190612f6e565b888281518110611d3a57611d3a612edc565b602002602001019063ffffffff16908163ffffffff1681525050611dc0565b600082611d6581612f18565b9350611d719088613080565b611d819063ffffffff861661309f565b9050868111611d905780611d92565b865b898381518110611da457611da4612edc565b602002602001019063ffffffff16908163ffffffff1681525050505b600101611c93565b5060405163a0d0ca0f60e01b815263ffffffff60048201526001600160a01b0389169063a0d0ca0f906024016020604051808303816000875af1158015611e13573d6000803e3d6000fd5b505050506040513d601f19601f82011682018060405250810190611e379190612f6e565b8760028951611e46919061309f565b81518110611e5657611e56612edc565b63ffffffff9092166020928302919091019091015260055460405163e7b6dac960e01b81526001600160a01b039091169063e7b6dac990611e9990600401612fc8565b602060405180830381865afa158015611eb6573d6000803e3d6000fd5b505050506040513d601f19601f82011682018060405250810190611eda9190612f6e565b8760018951611ee9919061309f565b81518110611ef957611ef9612edc565b602002602001019063ffffffff16908163ffffffff168152505050505050505092915050565b6000546001600160a01b03163314611f495760405162461bcd60e51b815260040161059890612e88565b600080546001600160a01b03908116825260026020526040808320805460ff1990811690915583546001600160a01b03191692851692831784558284528184208054909116600117905551909133917f93091b3f3cd424efabc74e181f3799f3476ed758412561ed3b29515c51f567529190a350565b6000546001600160a01b03163314611fe95760405162461bcd60e51b815260040161059890612e88565b60005b815181101561069457606482828151811061200957612009612edc565b6020026020010151111561206a5760405162461bcd60e51b815260206004820152602260248201527f6f6e65206f66206d6f7265207261726974696573206172652061626f76652031604482015261030360f41b6064820152608401610598565b600d82828151811061207e5761207e612edc565b60209081029190910181015182546001818101855560009485529284200155600b8054919290916120b0908490612ec4565b9091555050600101611fec565b6000546001600160a01b031633146120e75760405162461bcd60e51b815260040161059890612e88565b6000546001600160a01b038381169116141561213e5760405162461bcd60e51b815260206004820152601660248201527531b0b73737ba1036b7b234b33c903232b83637bcb2b960511b6044820152606401610598565b6001600160a01b038216600081815260026020908152604091829020805460ff1916851515908117909155915191825233917ff38de818d000d07d091732dd783c6855722d7bc1934d92b7635133289d341695910160405180910390a35050565b6000546001600160a01b03163314806121c757503360009081526002602052604090205460ff165b6121e35760405162461bcd60e51b815260040161059890612ef2565b6121ef60096000612530565b60006008819055600a55565b60606006805461220a90612f33565b80601f016020809104026020016040519081016040528092919081815260200182805461223690612f33565b80156122835780601f1061225857610100808354040283529160200191612283565b820191906000526020600020905b81548152906001019060200180831161226657829003601f168201915b5050505050905090565b82805461229990612f33565b90600052602060002090601f0160209004810192826122bb5760008555612301565b82601f106122d457805160ff1916838001178555612301565b82800160010185558215612301579182015b828111156123015782518255916020019190600101906122e6565b5061230d929150612551565b5090565b508054600082559060005260206000209081019061232f9190612551565b50565b508054600082559060005260206000209081019061232f9190612566565b82805482825590600052602060002090810192821561239d579160200282015b8281111561239d578251805161238d91849160209091019061228d565b5091602001919060010190612370565b5061230d929150612583565b6040518060c00160405280600063ffffffff168152602001600063ffffffff168152602001606081526020016060815260200160608152602001606081525090565b828054828255906000526020600020906007016008900481019282156123015791602002820160005b8382111561245857835183826101000a81548163ffffffff021916908363ffffffff1602179055509260200192600401602081600301049283019260010302612414565b80156124885782816101000a81549063ffffffff0219169055600401602081600301049283019260010302612458565b505061230d929150612551565b82805482825590600052602060002090810192821561230157916020028201828111156123015782518255916020019190600101906122e6565b828054828255906000526020600020908101928215612301579160200282015b82811115612301578251829063ffffffff169055916020019190600101906124ef565b508054600082559060005260206000209081019061232f9190612583565b50805460008255600701600890049060005260206000209081019061232f91905b5b8082111561230d5760008155600101612552565b8082111561230d57600061257a8282612311565b50600101612566565b8082111561230d57600061259782826125a0565b50600101612583565b5080546125ac90612f33565b6000825580601f106125bc575050565b601f01602090049060005260206000209081019061232f9190612551565b6000602082840312156125ec57600080fd5b5035919050565b634e487b7160e01b600052604160045260246000fd5b604051601f8201601f191681016001600160401b0381118282101715612631576126316125f3565b604052919050565b60006001600160401b03821115612652576126526125f3565b5060051b60200190565b6001600160a01b038116811461232f57600080fd5b6000602080838503121561268457600080fd5b82356001600160401b0381111561269a57600080fd5b8301601f810185136126ab57600080fd5b80356126be6126b982612639565b612609565b81815260059190911b820183019083810190878311156126dd57600080fd5b928401925b828410156127045783356126f58161265c565b825292840192908401906126e2565b979650505050505050565b60006001600160401b03831115612728576127286125f3565b61273b601f8401601f1916602001612609565b905082815283838301111561274f57600080fd5b828260208301376000602084830101529392505050565b600082601f83011261277757600080fd5b610a0e8383356020850161270f565b60006020828403121561279857600080fd5b81356001600160401b038111156127ae57600080fd5b61192f84828501612766565b6020808252825182820181905260009190848201906040850190845b818110156127f2578351835292840192918401916001016127d6565b50909695505050505050565b6000602080838503121561281157600080fd5b82356001600160401b038082111561282857600080fd5b818501915085601f83011261283c57600080fd5b813561284a6126b982612639565b81815260059190911b8301840190848101908883111561286957600080fd5b8585015b838110156128a1578035858111156128855760008081fd5b6128938b89838a0101612766565b84525091860191860161286d565b5098975050505050505050565b803563ffffffff8116811461158d57600080fd5b801515811461232f57600080fd5b600080604083850312156128e357600080fd5b6128ec836128ae565b915060208301356128fc816128c2565b809150509250929050565b6000806040838503121561291a57600080fd5b612923836128ae565b915060208301356128fc8161265c565b600081518084526020808501945080840160005b8381101561296957815163ffffffff1687529582019590820190600101612947565b509495945050505050565b6000815180845260005b8181101561299a5760208185018101518683018201520161297e565b818111156129ac576000602083870101525b50601f01601f19169290920160200192915050565b600081518084526020808501808196508360051b8101915082860160005b85811015612a095782840389526129f7848351612974565b988501989350908401906001016129df565b5091979650505050505050565b60208152600063ffffffff80845116602084015280602085015116604084015250604083015160c06060840152612a5060e0840182612933565b90506060840151601f1980858403016080860152612a6e83836129c1565b925060808601519150808584030160a0860152612a8b8383612933565b925060a08601519150808584030160c086015250612aa98282612974565b95945050505050565b600060208284031215612ac457600080fd5b610a0e826128ae565b602081526000610a0e6020830184612974565b60008060408385031215612af357600080fd5b8235915060208301356128fc8161265c565b602081526000610a0e60208301846129c1565b600082601f830112612b2957600080fd5b81356020612b396126b983612639565b82815260059290921b84018101918181019086841115612b5857600080fd5b8286015b84811015612b7a57612b6d816128ae565b8352918301918301612b5c565b509695505050505050565b600060208284031215612b9757600080fd5b81356001600160401b03811115612bad57600080fd5b61192f84828501612b18565b60008060408385031215612bcc57600080fd5b612bd5836128ae565b915060208301356001600160401b03811115612bf057600080fd5b8301601f81018513612c0157600080fd5b612c108582356020840161270f565b9150509250929050565b600080600060608486031215612c2f57600080fd5b612c38846128ae565b9250612c46602085016128ae565b91506040840135612c568161265c565b809150509250925092565b600082601f830112612c7257600080fd5b81356020612c826126b983612639565b82815260059290921b84018101918181019086841115612ca157600080fd5b8286015b84811015612b7a5780358352918301918301612ca5565b600060208284031215612cce57600080fd5b81356001600160401b03811115612ce457600080fd5b61192f84828501612c61565b602081526000610a0e6020830184612933565b60008060408385031215612d1657600080fd5b612d1f836128ae565b9150612d2d602084016128ae565b90509250929050565b600060208284031215612d4857600080fd5b813561109e8161265c565b60008060408385031215612d6657600080fd5b612d6f836128ae565b915060208301356001600160401b03811115612d8a57600080fd5b612c1085828601612c61565b60008060408385031215612da957600080fd5b82356001600160401b0380821115612dc057600080fd5b612dcc86838701612b18565b9350602091508185013581811115612de357600080fd5b8501601f81018713612df457600080fd5b8035612e026126b982612639565b81815260059190911b82018401908481019089831115612e2157600080fd5b8584015b83811015612e5957803586811115612e3d5760008081fd5b612e4b8c8983890101612c61565b845250918601918601612e25565b508096505050505050509250929050565b60008060408385031215612e7d57600080fd5b82356128ec8161265c565b6020808252600c908201526b3737ba103232b83637bcb2b960a11b604082015260600190565b634e487b7160e01b600052601160045260246000fd5b60008219821115612ed757612ed7612eae565b500190565b634e487b7160e01b600052603260045260246000fd5b6020808252600c908201526b1b9bdd08185c1c1c9bdd995960a21b604082015260600190565b6000600019821415612f2c57612f2c612eae565b5060010190565b600181811c90821680612f4757607f821691505b60208210811415612f6857634e487b7160e01b600052602260045260246000fd5b50919050565b600060208284031215612f8057600080fd5b5051919050565b600060208284031215612f9957600080fd5b815161109e816128c2565b600063ffffffff80831681811415612fbe57612fbe612eae565b6001019392505050565b6020808252600c908201526b6578747261436f6c6f75727360a01b604082015260600190565b634e487b7160e01b600052601260045260246000fd5b60008261301357613013612fee565b500490565b600063ffffffff8083168185168183048111821515161561303b5761303b612eae565b02949350505050565b600063ffffffff80831681851680830382111561306357613063612eae565b01949350505050565b60008261307b5761307b612fee565b500690565b600081600019048311821515161561309a5761309a612eae565b500290565b6000828210156130b1576130b1612eae565b50039056fea2646970667358221220358b28c44f9cd277298234d34c1429b676205bc04e00d2dde1b580cc123ac58164736f6c634300080c0033",
  "linkReferences": {},
  "deployedLinkReferences": {}
}